:020000040800F2
:1000000000500020854C0008A5460008A7460008BF
:10001000A9460008AB460008AD46000800000000F5
:10002000000000000000000000000000AF460008D3
:10003000B146000800000000B3460008B5460008BD
:10004000CD4C0008CD4C0008CD4C0008CD4C00082C
:10005000CD4C0008CD4C0008CD4C0008CD4C00081C
:10006000CD4C0008CD4C0008CD4C0008DD46000802
:10007000CD4C0008CD4C0008CD4C0008CD4C0008FC
:10008000CD4C0008CD4C0008CD4C0008CD4C0008EC
:10009000CD4C0008CD4C0008CD4C0008214700088D
:1000A000CD4C000829470008CD4C0008CD4C000875
:1000B000CD4C0008CD4C00084D470008CD4C000841
:1000C000CD4C0008CD4C0008CD4C0008CD4C0008AC
:1000D000CD4C0008CD4C0008CD4C0008CD4C00089C
:1000E000CD4C0008CD4C0008CD4C000800000000AD
:1000F0000000000000000000000000000000000000
:0C01000000000000000000005FF808F1A3
:1001100010B5054C237833B9044B13B10448AFF341
:1001200000800123237010BD600300200000000048
:100130005CAD000808B5034B1BB103490348AFF39E
:10014000008008BD00000000640300205CAD0008D2
:10015000034613F8012B002AFBD1181A0138704707
:1001600081F0004102E000BF83F0004330B54FEA68
:1001700041044FEA430594EA050F08BF90EA020FD5
:100180001FBF54EA000C55EA020C7FEA645C7FEA68
:10019000655C00F0E2804FEA5454D4EB5555B8BF8B
:1001A0006D420CDD2C4480EA020281EA030382EAFC
:1001B000000083EA010180EA020281EA0303362D8E
:1001C00088BF30BD11F0004F4FEA01314FF4801C61
:1001D0004CEA113102D0404261EB410113F0004F73
:1001E0004FEA03334CEA133302D0524263EB43032A
:1001F00094EA050F00F0A780A4F10104D5F1200EC8
:100200000DDB02FA0EFC22FA05F2801841F1000122
:1002100003FA0EF2801843FA05F359410EE0A5F1F6
:1002200020050EF1200E012A03FA0EFC28BF4CF027
:10023000020C43FA05F3C01851EBE37101F00045DD
:1002400007D54FF0000EDCF1000C7EEB00006EEBEA
:100250000101B1F5801F1BD3B1F5001F0CD3490874
:100260005FEA30004FEA3C0C04F101044FEA4452CB
:1002700012F5800F80F09A80BCF1004F08BF5FEA52
:10028000500C50F1000041EB045141EA050130BD32
:100290005FEA4C0C404141EB0101013C28BFB1F544
:1002A000801FE9D291F0000F04BF01460020B1FA8F
:1002B00081F308BF2033A3F10B03B3F120020CDA62
:1002C0000C3208DD02F1140CC2F10C0201FA0CF040
:1002D00021FA02F10CE002F11402D8BFC2F1200CA5
:1002E00001FA02F120FA0CFCDCBF41EA0C0190405B
:1002F000E41AA2BF01EB0451294330BD6FEA0404A4
:100300001F3C1CDA0C340EDC04F11404C4F120028E
:1003100020FA04F001FA02F340EA030021FA04F3A0
:1003200045EA030130BDC4F10C04C4F1200220FAF7
:1003300002F001FA04F340EA0300294630BD21FA35
:1003400004F0294630BD94F0000F83F4801306BFFB
:1003500081F480110134013D4EE77FEA645C18BFEF
:100360007FEA655C29D094EA050F08BF90EA020F86
:1003700005D054EA000C04BF1946104630BD91EA7E
:10038000030F1EBF0021002030BD5FEA545C05D181
:100390004000494128BF41F0004130BD14F58004C0
:1003A0003CBF01F5801130BD01F0004545F0FE4134
:1003B00041F470014FF0000030BD7FEA645C1ABF69
:1003C000194610467FEA655C1CBF0B46024650EAA0
:1003D000013406BF52EA033591EA030F41F40021CC
:1003E00030BD00BF90F0000F04BF0021704730B552
:1003F0004FF4806404F132044FF000054FF0000127
:1004000050E700BF90F0000F04BF0021704730B5E7
:100410004FF4806404F1320410F0004548BF4042BC
:100420004FF000013EE700BF42004FEAE2014FEA11
:1004300031014FEA02701FBF12F07F4393F07F4FEC
:1004400081F06051704732F07F4208BF704793F0EF
:100450007F4F04BF41F40021704730B54FF4607402
:1004600001F0004521F000411CE700BF50EA010205
:1004700008BF704730B54FF000050AE050EA0102AE
:1004800008BF704730B511F0004502D5404261EB1E
:1004900041014FF4806404F132045FEA915C3FF45F
:1004A000D8AE4FF003025FEADC0C18BF03325FEAFC
:1004B000DC0C18BF033202EBDC02C2F1200300FAAD
:1004C00003FC20FA02F001FA03FE40EA0E0021FAD2
:1004D00002F11444BDE600BF70B54FF0FF0C4CF4C0
:1004E000E06C1CEA11541DBF1CEA135594EA0C0F72
:1004F00095EA0C0F00F0DEF82C4481EA030621EAAD
:100500004C5123EA4C5350EA013518BF52EA0335E7
:1005100041F4801143F4801338D0A0FB02CE4FF099
:100520000005E1FB02E506F00042E0FB03E54FF0C9
:100530000006E1FB03569CF0000F18BF4EF0010EC1
:10054000A4F1FF04B6F5007F64F5407404D25FEABD
:100550004E0E6D4146EB060642EAC62141EA555170
:100560004FEAC52040EA5E504FEACE2EB4F1FD0CB2
:1005700088BFBCF5E06F1ED8BEF1004F08BF5FEA30
:10058000500E50F1000041EB045170BD06F00046E2
:1005900046EA010140EA020081EA0301B4EB5C048F
:1005A000C2BFD4EB0C0541EA045170BD41F4801187
:1005B0004FF0000E013C00F3AB8014F1360FDEBFAC
:1005C000002001F0004170BDC4F10004203C35DA88
:1005D0000C341BDC04F11404C4F1200500FA05F30B
:1005E00020FA04F001FA05F240EA020001F00042AC
:1005F00021F0004110EBD37021FA04F642EB060122
:100600005EEA430E08BF20EAD37070BDC4F10C044B
:10061000C4F1200500FA04F320FA05F001FA04F20F
:1006200040EA020001F0004110EBD37041F10001FB
:100630005EEA430E08BF20EAD37070BDC4F1200506
:1006400000FA05F24EEA020E20FA04F301FA05F26E
:1006500043EA020321FA04F001F0004121FA04F216
:1006600020EA020000EBD3705EEA430E08BF20EAE6
:10067000D37070BD94F0000F0FD101F00046400020
:1006800041EB010111F4801F08BF013CF7D041EAA2
:10069000060195F0000F18BF704703F000465200A6
:1006A00043EB030313F4801F08BF013DF7D043EA77
:1006B0000603704794EA0C0F0CEA135518BF95EA2D
:1006C0000C0F0CD050EA410618BF52EA4306D1D1B4
:1006D00081EA030101F000414FF0000070BD50EAD3
:1006E000410606BF1046194652EA430619D094EA5D
:1006F0000C0F02D150EA013613D195EA0C0F05D147
:1007000052EA03361CBF104619460AD181EA03019A
:1007100001F0004141F0FE4141F470014FF0000052
:1007200070BD41F0FE4141F4780170BD70B54FF0ED
:10073000FF0C4CF4E06C1CEA11541DBF1CEA13556D
:1007400094EA0C0F95EA0C0F00F0A7F8A4EB05044F
:1007500081EA030E52EA03354FEA013100F0888046
:100760004FEA03334FF0805545EA131343EA12630F
:100770004FEA022245EA111545EA10654FEA0026C4
:100780000EF000419D4208BF964244F1FD0404F57D
:10079000407402D25B084FEA3202B61A65EB0305D9
:1007A0005B084FEA32024FF480104FF4002CB6EB96
:1007B000020E75EB030E22BFB61A754640EA0C0016
:1007C0005B084FEA3202B6EB020E75EB030E22BF56
:1007D000B61A754640EA5C005B084FEA3202B6EB97
:1007E000020E75EB030E22BFB61A754640EA9C0056
:1007F0005B084FEA3202B6EB020E75EB030E22BF26
:10080000B61A754640EADC0055EA060E18D04FEAE3
:10081000051545EA16754FEA06164FEAC30343EA83
:1008200052734FEAC2025FEA1C1CC0D111F4801F50
:100830000BD141EA00014FF000004FF0004CB6E749
:1008400011F4801F04BF01430020B4F1FD0C88BFE8
:10085000BCF5E06F3FF6AFAEB5EB030C04BFB6EBF3
:10086000020C5FEA500C50F1000041EB045170BDE6
:100870000EF0004E4EEA113114EB5C04C2BFD4EB13
:100880000C0541EA045170BD41F480114FF0000E97
:10089000013C90E645EA060E8DE60CEA135594EA13
:1008A0000C0F08BF95EA0C0F3FF43BAF94EA0C0F16
:1008B0000AD150EA01347FF434AF95EA0C0F7FF48B
:1008C00025AF104619462CE795EA0C0F06D152EADF
:1008D00003353FF4FDAE1046194622E750EA4106C3
:1008E00018BF52EA43067FF4C5AE50EA41047FF4D4
:1008F0000DAF52EA43057FF4EBAE12E74FF0FF3C39
:1009000006E000BF4FF0010C02E000BF4FF0010C09
:100910004DF804CD4FEA410C7FEA6C5C4FEA430C82
:1009200018BF7FEA6C5C1BD001B050EA410C0CBFD1
:1009300052EA430C91EA030F02BF90EA020F002033
:10094000704710F1000F91EA030F58BF994208BF9A
:1009500090422CBFD8176FEAE37040F00100704757
:100960004FEA410C7FEA6C5C02D150EA013C07D1AE
:100970004FEA430C7FEA6C5CD6D152EA033CD3D0F9
:100980005DF8040B704700BF8446104662468C46F3
:100990001946634600E000BF01B5FFF7B7FF002826
:1009A00048BF10F1000F01BD4DF808EDFFF7F4FF4F
:1009B0000CBF012000205DF808FB00BF4DF808EDDA
:1009C000FFF7EAFF34BF012000205DF808FB00BFFD
:1009D0004DF808EDFFF7E0FF94BF012000205DF81F
:1009E00008FB00BF4DF808EDFFF7CEFF94BF0120D4
:1009F00000205DF808FB00BF4DF808EDFFF7C4FFCD
:100A000034BF012000205DF808FB00BF4FEA410C15
:100A10007FEA6C5C02D150EA013C0AD14FEA430CF8
:100A20007FEA6C5C02D152EA033C02D14FF0000035
:100A300070474FF0010070474FEA410212F5001273
:100A400015D211D56FF47873B3EB625212D94FEA15
:100A5000C12343F0004343EA505311F0004F23FAFF
:100A600002F018BF404270474FF00000704750EA54
:100A7000013005D111F0004008BF6FF00040704711
:100A80004FF00000704700BF4FEA4102B2F1E0436F
:100A900024BFB3F5001CDCF1FE5C0DD901F0004C65
:100AA0004FEAC0024CEA5070B2F1004F40EB8300B5
:100AB00008BF20F00100704711F0804F21D113F1E1
:100AC0003872BCBF01F00040704741F480114FEA1A
:100AD0005252C2F11802C2F1200C10FA0CF320FAA3
:100AE00002F018BF40F001004FEAC1234FEAD323C0
:100AF00003FA0CFC40EA0C0023FA02F34FEA43032A
:100B0000CCE77FEA625307D150EA01331EBF4FF0B2
:100B1000FE4040F44000704701F0004040F0FE40CD
:100B200040F40000704700BF80F0004002E000BFCA
:100B300081F0004142001FBF5FEA410392EA030FC8
:100B40007FEA226C7FEA236C6AD04FEA1262D2EB12
:100B50001363C1BFD218414048404140B8BF5B4217
:100B6000192B88BF704710F0004F40F4000020F0B0
:100B70007F4018BF404211F0004F41F4000121F0C6
:100B80007F4118BF494292EA030F3FD0A2F1010210
:100B900041FA03FC10EB0C00C3F1200301FA03F14E
:100BA00000F0004302D5494260EB4000B0F5000F71
:100BB00013D3B0F1807F06D340084FEA310102F130
:100BC0000102FE2A51D2B1F1004F40EBC25008BFE2
:100BD00020F0010040EA03007047490040EB0000AC
:100BE000013A28BFB0F5000FEDD2B0FA80FCACF1AD
:100BF000080CB2EB0C0200FA0CF0AABF00EBC250DA
:100C000052421843BCBFD0401843704792F0000FC7
:100C100081F4000106BF80F400000132013BB5E71A
:100C20004FEA41037FEA226C18BF7FEA236C21D090
:100C300092EA030F04D092F0000F08BF08467047F5
:100C400090EA010F1CBF0020704712F07F4F04D1C3
:100C5000400028BF40F00040704712F100723CBFD6
:100C600000F50000704700F0004343F0FE4040F400
:100C7000000070477FEA226216BF08467FEA2363BE
:100C80000146420206BF5FEA412390EA010F40F4A9
:100C9000800070474FF0000304E000BF10F00043F5
:100CA00048BF40425FEA000C08BF704743F09643DC
:100CB00001464FF000001CE050EA010208BF7047F7
:100CC0004FF000030AE000BF50EA010208BF70477E
:100CD00011F0004302D5404261EB41015FEA010C93
:100CE00002BF84460146002043F0B64308BFA3F18B
:100CF0008053A3F50003BCFA8CF2083AA3EBC2536D
:100D000010DB01FA02FC634400FA02FCC2F120028B
:100D1000BCF1004F20FA02F243EB020008BF20F0C2
:100D20000100704702F1200201FA02FCC2F1200228
:100D300050EA4C0021FA02F243EB020008BF20EA1D
:100D4000DC7070474FF0FF0C1CEAD0521EBF1CEA4B
:100D5000D15392EA0C0F93EA0C0F6FD01A4480EA39
:100D6000010C400218BF5FEA41211ED04FF0006322
:100D700043EA501043EA5111A0FB01310CF000404E
:100D8000B1F5000F3EBF490041EAD3715B0040EA74
:100D9000010062F17F02FD2A1DD8B3F1004F40EB44
:100DA000C25008BF20F00100704790F0000F0CF017
:100DB000004C08BF49024CEA502040EA51207F3ADB
:100DC000C2BFD2F1FF0340EAC250704740F40000B6
:100DD0004FF00003013A5DDC12F1190FDCBF00F0A7
:100DE00000407047C2F10002410021FA02F1C2F155
:100DF000200200FA02FC5FEA310040F1000053EAF1
:100E00004C0308BF20EADC70704792F0000F00F03E
:100E1000004C02BF400010F4000F013AF9D040EA44
:100E20000C0093F0000F01F0004C02BF490011F4D8
:100E3000000F013BF9D041EA0C018FE70CEAD153D6
:100E400092EA0C0F18BF93EA0C0F0AD030F0004C56
:100E500018BF31F0004CD8D180EA010000F000400A
:100E6000704790F0000F17BF90F0004F084691F0C8
:100E7000000F91F0004F14D092EA0C0F01D1420202
:100E80000FD193EA0C0F03D14B0218BF084608D1CB
:100E900080EA010000F0004040F0FE4040F4000015
:100EA000704740F0FE4040F4400070474FF0FF0CA8
:100EB0001CEAD0521EBF1CEAD15392EA0C0F93EAEF
:100EC0000C0F69D0A2EB030280EA010C49024FEA41
:100ED000402037D04FF0805343EA111143EA1013FA
:100EE0000CF000408B4238BF5B0042F17D024FF4B2
:100EF000000C8B4224BF5B1A40EA0C00B3EB510F8D
:100F000024BFA3EB510340EA5C00B3EB910F24BF75
:100F1000A3EB910340EA9C00B3EBD10F24BFA3EBFA
:100F2000D10340EADC001B0118BF5FEA1C1CE0D1C2
:100F3000FD2A3FF650AF8B4240EBC25008BF20F075
:100F4000010070470CF0004C4CEA50207F32C2BFC9
:100F5000D2F1FF0340EAC250704740F400004FF066
:100F60000003013A37E792F0000F00F0004C02BF97
:100F7000400010F4000F013AF9D040EA0C0093F061
:100F8000000F01F0004C02BF490011F4000F013BBB
:100F9000F9D041EA0C0195E70CEAD15392EA0C0F23
:100FA00008D142027FF47DAF93EA0C0F7FF470AF5B
:100FB000084676E793EA0C0F04D14B023FF44CAF9E
:100FC00008466EE730F0004C18BF31F0004CCAD133
:100FD00030F000427FF45CAF31F000437FF43CAF6F
:100FE0005FE700BF4FF0FF3C06E000BF4FF0010C91
:100FF00002E000BF4FF0010C4DF804CD4FEA400273
:101000004FEA41037FEA226C18BF7FEA236C11D0BC
:1010100001B052EA530C18BF90EA010F58BFB2EB6F
:10102000030088BFC81738BF6FEAE17018BF40F0EF
:10103000010070477FEA226C02D15FEA402C05D1A3
:101040007FEA236CE4D15FEA412CE1D05DF8040B28
:10105000704700BF844608466146FFE70FB5FFF7BB
:10106000C9FF002848BF10F1000F0FBD4DF808ED73
:10107000FFF7F4FF0CBF012000205DF808FB00BF64
:101080004DF808EDFFF7EAFF34BF012000205DF8BE
:1010900008FB00BF4DF808EDFFF7E0FF94BF01200B
:1010A00000205DF808FB00BF4DF808EDFFF7D2FF08
:1010B00094BF012000205DF808FB00BF4DF808ED4B
:1010C000FFF7C8FF34BF012000205DF808FB00BF18
:1010D0007BB972B90029BEBF00204FF0004106E085
:1010E00008BF00281CBF6FF000414FF0FF3000F038
:1010F000A1B9ADF1080C6DE904CE002909DB002B84
:101100001ADB00F035F8DDF804E0DDE9022304B075
:101110007047404261EB4101002B1BDB00F028F8D7
:10112000DDF804E0DDE9022304B0404261EB410157
:10113000524263EB43037047524263EB430300F0B8
:1011400017F8DDF804E0DDE9022304B0404261EB6A
:1011500041017047524263EB430300F009F8DDF8A8
:1011600004E0DDE9022304B0524263EB430370471D
:101170002DE9F047089E0D4604468E46002B40F0B0
:1011800083808A42174647D9B2FA82F34BB1C3F142
:10119000200105FA03FE20FA01F19F4041EA0E0EFC
:1011A0009C404FEA1748BEFBF8FC1FFA87F908FB82
:1011B0001CE20CFB09F0210C41EA024290420AD9E0
:1011C000BA180CF1FF3180F01881904240F215817D
:1011D000ACF1020C3A44121AB2FBF8F008FB1022F0
:1011E00000FB09F1A4B244EA0244A14209D93C1926
:1011F00000F1FF3280F00381A14240F20081023809
:101200003C44641A002140EA0C401EB10022DC403C
:10121000C6E90042BDE8F08702B9FFDEB2FA82F308
:10122000002B4FD18D1A01214FEA124E1FFA82F87E
:10123000B5FBFEFC0EFB1C5508FB0CF0220C42EA31
:101240000545A84207D97D190CF1FF3202D2A84208
:1012500000F2E98094462D1AB5FBFEF00EFB105506
:1012600008FB00F8A4B244EA0544A04507D93C199C
:1012700000F1FF3202D2A04500F2D9801046A4EB63
:10128000080440EA0C40C0E78B4208D9002E00F069
:10129000B1800021C6E900050846BDE8F087B3FA31
:1012A00083F100294BD1AB4202D3824200F2B980D4
:1012B000841A65EB030301209E46002EAAD0C6E9DE
:1012C000004EA7E79F40C3F12002D1404FEA174EDE
:1012D000B1FBFEF01FFA87F80EFB101124FA02F2A0
:1012E0009D4000FB08FC2A43150C45EA0145AC452E
:1012F00004FA03F409D97D1900F1FF3180F08F80E1
:10130000AC4540F28C8002383D44A5EB0C05B5FBA2
:10131000FEF10EFB115C01FB08F995B245EA0C45A4
:10132000A94507D97D1901F1FF3274D2A94572D9B7
:1013300002393D44A5EB090541EA004178E7C1F1D6
:1013400020078B4022FA07FC4CEA030C25FA07F42D
:101350004FEA1C4EB4FBFEF91FFA8CF80EFB194441
:1013600020FA07F309FB08FA8D401D432B0C43EAD2
:101370000444A24502FA01F200FA01F309D91CEB78
:10138000040409F1FF3048D2A24546D9A9F1020967
:101390006444A4EB0A04B4FBFEF00EFB104400FB13
:1013A00008FAADB245EA0444A24508D91CEB04048E
:1013B00000F1FF352DD2A2452BD90238644440EA12
:1013C0000940A0FB0289A4EB0A044C45C6464D46E1
:1013D00019D316D05EB1B3EB0E0264EB050404FA28
:1013E00007F722FA01F31F43CC40C6E9007400213D
:1013F000BDE8F087314630460CE78C46EBE61046F8
:10140000FFE64345E6D2B8EB020E69EB0C05013866
:10141000E0E72846D3E711468CE78146B9E708465E
:1014200073E7084649E7ACF1020C3D4413E7023884
:101430003C4424E7704700BF7FB501238DF81710A7
:101440004FF48031CDE901310DF1170102460091D1
:101450000348EC2104F00AFE07B05DF804FB00BF6E
:10146000D80900207FB500234FF480318DF8173064
:101470000123CDE901310DF1170102460091044825
:10148000EC2104F083FE9DF8170007B05DF804FB23
:10149000D80900201FB5024602234FF48030009186
:1014A000CDE90130EC210123024804F06FFE05B0C4
:1014B0005DF804FBD80900201FB5024602234FF453
:1014C00080300091CDE90130EC210123024804F085
:1014D0005DFE05B05DF804FBD80900207FB502234E
:1014E0004FF48031CDE9013105AB02460093EC2188
:1014F0000123064804F04AFE9DF814009DF81530BB
:1015000043EA002007B05DF804FB00BFD8090020C3
:101510007FB503234FF48031CDE9013105AB02469D
:101520000093EC210123084804F030FE9DF81530AB
:101530009DF814001B0243EA00439DF8160018436F
:1015400007B05DF804FB00BFD8090020FA2010B5F1
:10155000FFF7DEFFB0F5000F37D0001104461C493D
:1015600000280A88B8BFC41D0028B8BF0F30C2EBDE
:10157000201040434FEA4203C3EBE404B1F90230C8
:10158000B1F9042048BF00F6FF70634300135043D5
:10159000002BB8BF03F2FF730028B8BF00F57F50DF
:1015A0000C4AB8BF3F30DB1203EBA033136003EBF0
:1015B000830313F1800048BF03F27F100012FFF78E
:1015C0006DFB0549FFF772FC10BD0448FCE700BF46
:1015D000F4040020180500200000C8420000C07F6D
:1015E0002DE9F74FFFF7B2FFF720FFF791FF864B8A
:1015F000864E1A688646B2F5FA374FEAE273A7FBC1
:10160000071243F1FF3C07FB0CF3CDE90012019AEE
:1016100002EB4303B6F90820019302FB0CF1D31748
:1016200007FB0311A2FB07230B441903019841EAAE
:1016300012514FEA0239B6F90A2002FB00FA00986B
:10164000D31700FB03AAA2FB00235344002A73F123
:10165000000802DAFF3243F100034FEA122A4AEA95
:10166000036AF2884FEA232B1AEB09004BEB010BBC
:101670000030A0FB02014BF5004B02FB0B110028D0
:1016800071F1000303DA10F1FF3041F101014A105A
:10169000CB1752EA030100F0B480B6F910A001990B
:1016A00000980AFB01F900994FEAEA7B01FB0B91D4
:1016B000AAFB0089B6F90E00894400FB0CFCC11797
:1016C00007FB01CCA0FB070161444FEA414C4CEA07
:1016D000D03C4704002017EB08074CEB090CC0195D
:1016E00040F635474FEA2E1ECEF5801E4FEAEE79C2
:1016F000B6F90C804FEAC97A4FEACE714AEA5E0A1F
:101700004FEAC80E4EEB0C0C081AA0FB07016AEB5F
:101710000C0A07FB0A11FFF7DBFC002871F100023D
:10172000804689460B4606DA41F6FF70002318EB27
:10173000000041EB0303B6F916205913400B40EAB1
:10174000C34002FB01F7A2FB00ABD31700FB0377FA
:101750000AFB01F1BB4400FB0B13AAFB0001194477
:101760000B46002873F10001024606DA6FF07E4155
:1017700042184FF0000141EB0303B6F914A0510EDB
:101780000AFB09F741EAC31111EB08014FEA636054
:101790004FEAEA7B08FB0B7340EB0900AAFB0889C0
:1017A0009944B8F1000F79F1000306DA184B18EBF1
:1017B00003084FF0000349EB03094FEAD84343EA1B
:1017C0004933CC184FEAE94240EB0205002C75F191
:1017D000000302DAFF3445F100051022230A43EA30
:1017E0000560B6F912302912C3FB0201FEF746FE6E
:1017F0000022084BFEF770FEFFF746F903B0BDE884
:10180000F08F0020FAE700BF18050020F404002044
:10181000FFFF07000000703F10B5FFF797FEFD20A7
:10182000FFF75CFEB0F5004F56D02C4A2C4BB2F9B6
:101830001E101B680905C1EB8031B2F92000A3F529
:10184000963303FB1010117F10F5804044BF00F564
:10185000FF407F30594392F9224048BF01F2FF71A7
:1018600063434FEAE12148BF03F2FF3301F5004132
:101870009B124B4348BF03F2FF33B2F91A109B127D
:1018800003F500134B4313F5005344BF03F57F5397
:101890003F339B13C013584303460028BCBF00F5D9
:1018A000FF437F33DB135B43127E48BF7F33DB1183
:1018B000534348BF0F33A0EB231020EAE070B0F190
:1018C000C85FA8BF4FF0C8500013FFF7E3F94FF00F
:1018D0006A51FFF737FA10BD0248FCE7F404002014
:1018E000180500200000C07FD02038B5FFF7BAFDF2
:1018F000602840F0B180B621E020FFF79DFDF32085
:10190000FFF7B0FDC307FAD4544C88202146FFF7F7
:10191000C1FDA11C8A20FFF7CFFD211D8C20FFF700
:10192000CBFDA11D8E20FFF7B5FD04F1080190202D
:10193000FFF7C2FD04F10A019220FFF7BDFD04F19B
:101940000C019420FFF7B8FD04F10E019620FFF77B
:10195000B3FD04F110019820FFF7AEFD04F1120170
:101960009A20FFF7A9FD04F114019C20FFF7A4FDC4
:1019700004F116019E20FFF79FFDA120FFF772FDE5
:1019800004F11A012076E120FFF796FDE320FFF72E
:1019900069FD2077E420FFF765FD0546E520FFF7A8
:1019A00061FD00F00F0343EA0510E083E620FFF736
:1019B00059FD0546E520FFF755FDC0F3071343EA3F
:1019C00005102084E720FFF74DFD84F82200F52064
:1019D000FFF748FD00F01F0141F0A001F520FFF7DF
:1019E0002BFDF520FFF73EFD00F0E30141F008017B
:1019F000F520FFF721FDF420FFF734FD00F01F0173
:101A000041F06001F420FFF717FDF420FFF72AFDF5
:101A100000F0E30141F00C01F420FFF70DFDF2208E
:101A2000FFF720FD00F0F80141F00301F220FFF77D
:101A300003FDF420FFF716FD0146F420FFF7FCFC40
:101A4000F420FFF70FFDBDE8384000F0FC0141F045
:101A50000301F420FFF7F0BC38BD00BFF404002000
:101A600008B504224FF47060084902F01FFF0422F9
:101A70004FF4A060064902F019FFBDE808400422B7
:101A80004FF48070034902F011BF00BF84040020AE
:101A9000880400208003002008B58021002002F087
:101AA00099FE002002F068FEFFF7DAFFBDE808406B
:101AB00006224FF41060014902F0F8BE1C05002018
:101AC00008B58021002002F085FE002002F054FEBF
:101AD000BDE8084006224FF41060014902F0E6BE5E
:101AE0001C05002070B5094B094E0A4C1E600A4EB9
:101AF0000A4D002808BF3046002918BF0C46084E82
:101B00002C60306002B11A6070BD00BF1C00002064
:101B1000C11A0008991A0008611A00082000002064
:101B20001800002007B5062269464FF4106002F045
:101B300083FE204B204A1B681A60204A1268110E4F
:101B40001971110C5971110A9971DA7100214FF450
:101B50000002C3E902211A4AC3E90411107899610D
:101B600018775078587790789877D078D877107918
:101B7000527983F8200083F8212003F12C0003F12F
:101B8000220202F8011B8242FBD1002003F16C010A
:101B900002F8010B8A42FBD1002003F1EC0102F8AC
:101BA000010B9142FBD1074AC3F8EC2003B05DF86A
:101BB00004FB00BF300500200101060024050020C1
:101BC0001C050020638253631FB5FFF7ABFF2D4B4D
:101BD000002219682C4B8A72C1F8F03040F20713CA
:101BE000A1F8F430294BCA72187881F8F6005878B9
:101BF00081F8F700987881F8F800D87881F8F90032
:101C000018795B7981F8FA0081F8FB3040F23243B1
:101C1000A1F8FC301E4B187881F8FE00587881F846
:101C2000FF009878DB7881F8000181F8013140F2FB
:101C30003643A1F80231174B187881F8040158781F
:101C400081F80501987881F80601DB7801F50970C3
:101C500081F80731FF2381F8083101F2091303F8F5
:101C6000012B8342FBD14FF0FF33039343230A48F8
:101C700000934FF4097203AB007802F05DF805B0F1
:101C80005DF804FB300500203501043D1C050020F3
:101C9000840400202C050020340500202DE9F04F9D
:101CA000BA4D8DB0287802F05CFE024618B90020CB
:101CB0000DB0BDE8F08F0DF12603B54C00932168FF
:101CC0000AAB287802F0E8F8BDF82630432B40F044
:101CD00059812268AF4B147F19788C42E7D1547F29
:101CE00059788C42E3D1947F99788C42DFD1D47FAC
:101CF000D9788C42DBD192F8204019798C42D6D128
:101D000092F821105B799942D1D1A34B9DF828908C
:101D10001F785E789D78DC7847EA060129432143E5
:101D2000984620D04F450BD19DF82930B34207D1BA
:101D30009DF82A30AB4203D19DF82B30A34212D03C
:101D4000964B19784945B2D19DF8294059788C4273
:101D5000ADD19DF82A4099788C42A8D19DF82B10DE
:101D6000DB789942A3D14FF0000A80B202F1F00370
:101D7000024403929DF82920884904929DF82A2064
:101D8000874805929DF82B20864C874D874E884FBB
:101D90000692039A934202D34FFA8AF088E793F8A7
:101DA00000C0BCF1330F00F0BC8014D8BCF1060FAA
:101DB00008D8BCF1060F09D8DFE80CF0393F08510C
:101DC000A0087A00BCF12A0F00F0858003F1020C14
:101DD0005B786344DDE7BCF1E00F55D01ED8BCF161
:101DE000350F26D0BCF1360FF0D193F802C0049A1B
:101DF00088F800C093F803C081F8009088F801C00B
:101E000093F804C04A70059A88F802C093F805C098
:101E10008A70069A88F803C0CA701EE0BCF1E10F10
:101E200000F09380BCF1FF0FD0D1039BB1E70133E9
:101E3000AFE793F802A00333ABE793F802C087F84B
:101E400000C093F803C087F801C093F804C087F876
:101E500002C093F805C087F803C0063399E793F8EA
:101E600002E093F801C086F800E093F803E086F8FA
:101E700001E093F804E086F802E093F805E086F8C4
:101E800003E06344023384E793F802E0494A93F89D
:101E900001C082F800E093F803E082F801E093F8D3
:101EA00004E082F802E093F805E082F803E0E8E756
:101EB00093F802E093F801C085F800E093F803E09E
:101EC00085F801E093F804E085F802E093F805E076
:101ED00085F803E0D5E793F802E093F801C080F8B5
:101EE00000E093F803E080F801E093F804E080F864
:101EF00002E093F805E080F803E0C2E793F802E01F
:101F000093F801C084F800E093F803E084F801E05E
:101F100093F804E084F802E093F805E084F803E025
:101F2000AFE793F802C0244AC2F800C093F803E078
:101F30000EEB0C2C93F804E00EEB0C2E93F805C07E
:101F40000CEB0E2CC2F800C087E79A1C93F801C076
:101F500003F1020EC3F1FF23079203F57F03174A33
:101F6000FE330EEB030BE34507DB4FF0000E079B40
:101F7000124A634402F80CE00BE71EF801BB02F8BA
:101F800001BBEEE74FF0000A06E700BF3405002072
:101F9000300500201C0500202C050020280500200D
:101FA0008C040020900400207C030020800300208B
:101FB00088040020940400202400002084030020D2
:101FC00037B54FF4D85002F0D7FB032105464FF444
:101FD000D85002F0FFFB41F288330E4800931122E3
:101FE0000D4B0E49007801F0A7FE044629464FF438
:101FF000D85002F0EFFB0D340AD0FFF7E5FD084B97
:1020000019681A68521A012AFBD9002003B030BDA2
:102010000120FBE7340500208404002030C80008BC
:10202000A004002000230A21034A1360034A116020
:10203000034A1370704700BFA0040020280000204E
:102040009C040020002373B5244C062206460D464E
:102050004FF410602146019302F0EEFB6278237882
:102060001343A2781343E27813432279134362792E
:1020700013430DD108226270DC222146A2704FF476
:10208000106006222370E3702371637102F00EFC6E
:10209000134B20791E70134BE1781D60124B62794F
:1020A0000C182344414013444A4013440F4A4FF450
:1020B0007060136004220DEB020102F0F7FB0422B2
:1020C0004FF480700DEB020102F0F0FBFFF7AAFF66
:1020D0000022074B1A7002B070BD00BF1C05002023
:1020E00034050020300500207856341224050020E5
:1020F0009D040020024A136801331360704700BF3B
:10210000A0040020044B1A7802705A7842709A7822
:102110008270DB78C370704784040020044B1A7807
:1021200002705A7842709A788270DB78C370704778
:1021300080030020044B1A7802705A7842709A7813
:102140008270DB78C370704794040020054A431EF8
:10215000FE30117803F8011F12F8011B09B1834208
:10216000F7D1704784030020044B1A7802705A7824
:1021700042709A788270DB78C370704788040020C0
:10218000044B1A7802705A7842709A788270DB7821
:10219000C37070478C04002000F00F00092894BF22
:1021A00030303730704700002DE9F04385B0FFF73D
:1021B000B9FC0023704A7148137053709370D37048
:1021C0006F4A137053709370D3706E4B19686E4BD7
:1021D000C1F8F03040F20713A1F8F4306B4B1A78D5
:1021E00093F8038081F8F6205A781F795E7981F898
:1021F000F7209A780C23A1F8FC30122381F8F820FC
:1022000081F8F98081F8FA7081F8FB60A3F112027D
:1022100092B2845C5D1CADB201EB0309002C40F06E
:10222000A2804FEA1810FFF7B7FF89F8EC0040468C
:10223000FFF7B2FF0D4485F8EC003809FFF7ACFF5B
:102240009D1CADB20D4485F8EC003846FFF7A4FFA5
:10225000DD1CADB20D4485F8EC003009FFF79CFFA2
:102260001D1DADB20D4485F8EC003046FFF794FF1C
:102270005D1DADB20D4485F8EC00981D80B2D51DF2
:10228000451B06320D4485F8EC203722084480F8BF
:10229000EC200A20DA1D92B20A4482F8EC000120F8
:1022A00003F1080292B20A4482F8EC00032003F121
:1022B000090292B20A4482F8EC00062003F10A02F5
:1022C00092B20A4482F8EC000F2003F10B0292B2A2
:1022D0000A4482F8EC003A2003F10C0292B20A445C
:1022E00082F8EC003B2003F10D0292B20A4482F81E
:1022F000EC00E02003F10E0292B20A4482F8EC00F6
:10230000E12003F10F0292B20A4482F8EC002A2085
:1023100003F1100292B20A4482F8EC00042003F1A7
:10232000110292B20A4482F8EC00FF2003F113027A
:1023300012339BB20B4492B283F8EC0002F1EC032F
:102340000B44B2F59C7F12D34FF0FF33039343232A
:102350000F4800934FF4097203AB007801F0ECFCD6
:1023600005B0BDE8F0832B4689F8EC404EE701321A
:1023700003F8014B92B2E4E72C0500201000002086
:1023800028050020300500203501013D1C050020F6
:10239000340500202DE9F04385B0FFF7C3FB924BD5
:1023A00092491B78033B012B00F2108100220B683D
:1023B0009A72DA728E4A107818735078587390783F
:1023C000D2789873DA738B4B1A788DF80C205A7880
:1023D0008DF80D209A78DB788DF80E208DF80F306F
:1023E0000968854BC1F8F03040F20713A1F8F430CA
:1023F000824B1A78DF7881F8F6205A781E7993F8A4
:10240000058081F8F7209A789DF80F3081F8F82040
:10241000FF2B81F8F97081F8FA6081F8FB8040F0B9
:10242000D98040F23243A1F8FC30714B1A7881F820
:10243000FE205A7881F8FF209A78DB7881F8002115
:1024400081F8013140F23643A1F80231694B1A7824
:1024500081F804215A7881F805219A78DB7881F88F
:1024600006211C2281F807310C208B1883F8EC0020
:10247000931C01328818002280F8EC20604810F884
:10248000015B5C1CA4B201EB0309002D40F0A480A9
:102490003809FFF781FE89F8EC003846FFF77CFE2B
:1024A0000C4484F8EC003009FFF776FE9C1CA4B2C3
:1024B0000C4484F8EC003046FFF76EFEDC1CA4B23E
:1024C0000C4484F8EC004FEA1810FFF765FE1C1D61
:1024D000A4B20C4484F8EC004046FFF75DFE5C1D9E
:1024E000A4B20C4484F8EC00981D80B2D41D041BE7
:1024F00006320C4484F8EC203722084480F8EC20A3
:102500000A20DA1D92B20A4482F8EC00012003F19D
:10251000080292B20A4482F8EC00032003F1090297
:1025200092B20A4482F8EC00062003F10A0292B249
:102530000A4482F8EC000F2003F10B0292B20A4425
:1025400082F8EC003A2003F10C0292B20A4482F8BD
:10255000EC003B2003F10D0292B20A4482F8EC0039
:102560001F2003F10E0292B20A4482F8EC002120EF
:1025700003F10F0292B20A4482F8EC00E02003F16A
:10258000100292B20A4482F8EC00E12003F1110239
:1025900092B20A4482F8EC00FF2003F1120292B2D8
:1025A0000A44133382F8EC009BB201F1EC02B3F55C
:1025B0009C7F16DB4323134800934FF4097203AB4F
:1025C000007801F0B9FB05B0BDE8F0834FF0FF33B0
:1025D000039305E7102247E7234689F8EC500132C0
:1025E0004DE7D5540133E2E79D040020300500207B
:1025F000840400202C0500203501033D1C0500202B
:10260000100000203405002070B51C4C94F90030F7
:10261000012B1DDC1A4D1B4E2A683168914212D2E3
:10262000194B93F90030022B0FD0042B0DD0012B46
:1026300001D1FFF7B9FD00232B602B680A3333600B
:10264000237801332370012010E0FFF7A3FEF2E7A7
:102650000D4B93F900201C46022A08D0042A06D00C
:10266000012A09D100201870FFF7DCFC70BDFFF7CC
:102670009BFD01202070F7E70120F5E79C04002076
:10268000A0040020280000209D04002038B5524CF2
:1026900094F90030062B00F09C80504D28784001C2
:1026A00000F5427002F068F8222805D00023442289
:1026B0000221287801F0AEF9FFF7F0FA94F9003022
:1026C000C5B2042B31D8DFE803F0030E233D5A00D6
:1026D0000022434B1A705A709A70DA70FFF764FD4B
:1026E0000120207038BD022D0ED13E4B1A683C4BA4
:1026F000117C1970517C5970917CD27C9970DA7080
:10270000FFF748FE257010E0BDE83840FFF77CBFBA
:10271000052D12D1FFF754FC054640B1324B1B6822
:102720009847FFF77FFC032323700120DAE7FFF7C8
:1027300079FC2E4B1B689847E4E7062DE4D1FFF7A0
:1027400071FCCDE72A4B1B685A1C40D0294A1268FD
:10275000B2EB530F3BD9224A274B117819705178AD
:1027600059709178D2789970DA70244A13680133DD
:102770001360FFF70FFEFFF755FC0420B1E7052DAE
:102780001FD100221E4B1A701B4A154B1078197866
:1027900088420BD150785978884207D1907899783F
:1027A000884203D1D278DB789A4208D0154B1B6857
:1027B00098470320FFF736FC0323237092E7042099
:1027C000F8E7062DA0D1FFF72DFC0123237004208C
:1027D00088E7052086E700BF9D040020340500201F
:1027E0008404002030050020180000201C00002078
:1027F00024000020A00400209804002024050020CC
:102800009C040020200000200122014B1A70704718
:10281000B10400207047000000224FF480510148AD
:1028200002F0D0BF000C014001224FF4805101485A
:1028300002F0C8BF000C01400A464FF0FF330146CA
:10284000014804F03ABE00BF3809002007B5012155
:102850000DF10700FFF7F0FF9DF8070003B05DF8EA
:1028600004FB00000A464FF0FF330146014804F024
:1028700088BC00BF3809002007B501218DF807008A
:102880000DF10700FFF7EEFF03B05DF804FB000059
:1028900008B549F640430A480A4AC0E90023002324
:1028A0004FF48042C0E90233C0E90423C0E9063393
:1028B000036203F075F908B172B6FEE708BD00BF08
:1028C000D8090020005400401FB5002364210246AF
:1028D000CDE901310093C4210223034803F0C6FB74
:1028E00005B05DF804FB00BFD80900202DE9F041D8
:1028F00004460E461746984642F6882200230121D8
:102900000220C0B001F086F80228054645D12146D4
:1029100042F2437201F010F90128044607D028461C
:1029200001F03AF8FE24204640B0BDE8F081404670
:10293000FDF77AFD3246CDE900013B46184903A870
:1029400006F04AF8174B03A820938DF88440FDF752
:10295000FFFB0023C4B203A90DF18D008DF8854063
:10296000ADF8863022938DF88C3006F055F80D3492
:10297000E4B22246022020A901F054F9002804DC28
:10298000022001F009F8FD24CDE7241A14F0FF0419
:10299000EFD1022001F000F8C5E7FF24C3E700BF34
:1029A00042C800085A42584473B52D492D4802F0D8
:1029B0007FF82D492D4802F08DF82D492D4802F061
:1029C000A1F86B462C4A2D4D1068516842F21174E3
:1029D00003C36946084602F0EAF806224FF4106085
:1029E000274901F063FF00202649FFF72BFB26490A
:1029F000264A0846FFF776F82E462B780BB9013C9D
:102A000024D1337803B31E4CA01DFFF77BFB04F1E8
:102A10000E00FFF783FB04F10A00FFF7A5FB04F1AA
:102A20001A00FFF787FB04F11E00FFF78FFB04F18C
:102A30001600FFF7A5FBA37F7BB91549154805F0E4
:102A4000EBFF0F4802F0F0F802B070BDFFF71EFE7A
:102A50004FF4967002F084F9CFE704F11E01EDE720
:102A60002928000819280008792800084D2800089E
:102A7000652800083928000894C80008B10400201F
:102A80002D0000203805002009280008152800081E
:102A90008EC80008800F002010B50446FFF714FF11
:102AA00043F686739C4205D1BDE810404FF4FA709E
:102AB00002F056B910BD0000F0B50023642714469B
:102AC0000D460A4E85B00246CDE901370093C42178
:102AD0000223304603F0CAFA2A46C4213046009742
:102AE000A3B203F01FF9204605B0F0BDD8090020BD
:102AF0001FB500230446092201A943F28260CDE9F3
:102B000001338DF80C30FFF7D7FF9DF804209DF8B6
:102B1000053043EA022323809DF807209DF8083002
:102B200043EA022363809DF80A209DF80B3043EAB4
:102B30000223A380A0F109035842584104B010BDFC
:102B40001FB50023044601A909224EF60540CDE930
:102B500001338DF80C30FFF7AFFF9DF804209DF88E
:102B60000530BDF8070043EA022340BA238080B253
:102B7000FEF794F80D49FEF7E5F84FF05E51FEF7C9
:102B8000E1F80B49FDF7D4FF6060BDF80A0040BAD8
:102B900080B2FEF783F80749FEF7D4F84FF05E5194
:102BA000FEF7D0F8A06004B010BD00BF00002F43B6
:102BB000000034420000C84230B514220024102521
:102BC00095B021460DEB0200CDE90B440D9405F0C4
:102BD000E5F92A46214601A805F0E0F90A230A93FF
:102BE0000123CDE90E35109302254FF460130AA896
:102BF000CDE91154139303F03BFC08B172B6FEE724
:102C00000F23CDE905354FF480630790CDE90830F7
:102C1000294605A803F002FE08B172B6FEE74FF49C
:102C200000730322CDE901234FF4404301A803932D
:102C300003F0B0FE08B172B6FEE715B030BD00007B
:102C4000012540262DE98048B24C9DB002F064F881
:102C5000FFF7B2FF01F0A4FA1022002114A805F03A
:102C60009DF9A369002243F00403A361A3694FF413
:102C7000C05103F004030593059BA369A64843F0E4
:102C80000803A361A3694FF0000803F0080306934B
:102C9000069B02F097FD00224FF417419F4802F077
:102CA00091FD9F4B9D4814A94FF0020ACDE9146392
:102CB000169502F03DFC4FF400634FF003094FF40A
:102CC0008057954814A9CDE91435CDE9168A02F04C
:102CD0002FFC914814A9CDE91475CDF85880CDF892
:102CE0005C9002F025FC4FF4E0638C4814A9CDE918
:102CF0001435CDE9168A02F01BFC4FF410438748C7
:102D000014A9CDE91435CDE9168902F011FC42462B
:102D10004146172002F09CFA172002F0CBFA6369B3
:102D200042462B436361636941462B400B20049369
:102D3000049B02F08DFA0B2002F0BCFA4FF4E13351
:102D40007848DFF810E2C0E90288C0E900E30C230C
:102D5000C0F81080C0E90538C0F81C8004F0E8FF16
:102D6000044608B172B6FEE7FFF792FD4FF4827396
:102D70006D48DFF8E4C1C0E90244C0E900C34FF484
:102D80000073C0E906340A23C0E90444C0E90844DA
:102D90008462C36204F09DF908B172B6FEE74FF099
:102DA00005086248624BC0E9003840F6FF73836053
:102DB00003F02AFB08B172B6FEE75E4C5E4BCDE92C
:102DC000140023604FF460231690A06020732075D8
:102DD00060602046E361256102F07EF908B172B6B9
:102DE000FEE7204614A9CDE91485169502F006F8F1
:102DF000054608B172B6FEE70146102209A805F0A3
:102E0000CDF81C2229460DA8CDE9075505F0C6F8D6
:102E10002022294614A805F0C1F8484C484B20460A
:102E2000C4E900384FF6FF73C4E903358023A56079
:102E30006561A36104F074FD08B172B6FEE7204637
:102E400009A9099704F04FFE08B172B6FEE72046C3
:102E500004F092FD08B172B6FEE7CDE9076007A95C
:102E6000204604F0D5FE024608B172B6FEE73023D4
:102E7000CDE90F00CDE90D30CDE9110013900DA97A
:102E8000204604F0FFFD08B172B6FEE700234FF4C0
:102E900000522A4814A9CDE91433CDE9163318930A
:102EA00019921B9304F0E2FE08B172B6FEE74FF0F0
:102EB000FF332448244CC0E900434FF480738360FF
:102EC00004F02EF8054608B172B6FEE7014610225E
:102ED00014A805F063F814231C4C1D484FF6FF7628
:102EE000C4E9000380232046CDE90D55C4E90365FC
:102EF000A560A36104F014FD08B172B6FEE74FF4BB
:102F00008057204614A9149704F0EDFD30B372B633
:102F1000FEE700BF00100240000C01400008014025
:102F2000000011109C0E0020380900202C0A0020FF
:102F300000300040500A002000240140380F0020DB
:102F4000002C0140240F00200028004090090020A0
:102F500000080040003801400038004008212046A9
:102F600004F036FD08B172B6FEE730230DA9CDE9B5
:102F70000D30204604F04CFE054608B172B6FEE75F
:102F800001223946B84802F01DFC01F055F92846E7
:102F900001F0E3F9CDE90165B44C29466368B44A10
:102FA00000932368284601F06FF943F68670149564
:102FB000ADF85450FFF770FD4FF4FA7001F0D0FEF9
:102FC00014A8FFF795FD0146002800F02E824FF46B
:102FD000FC632946029501936368A64A009323681F
:102FE00000254FF6FF76602001F04EF942F2B11055
:102FF000FFF752FDCDE901656368284600930B2178
:1030000023689D4A01F040F9FEF76EFC4FF4FC6323
:103010000295019363680B21009360202368954A11
:1030200001F032F9CDE90165636828460093236811
:103030001621924A01F028F92A464FF480718A48F5
:1030400002F0C0FB01224FF48071874802F0BAFB06
:103050002A464FF480518A488A4D02F0B3FB40F66D
:10306000B83001F07DFEFFF79FFCAA7D3AB1864B98
:103070001A70EA7D5A702A7E9A706A7EDA7000278A
:103080004FF6FF761C220020804B7F4900F0E6FAC5
:103090006B7A7F4901932B7A7E480093EB79AA796A
:1030A00005F09AFCCDE90167636821210093384659
:1030B0002368784A01F0E8F86B7E774901932B7E0C
:1030C00074480093EB7DAA7D05F086FCCDE901678D
:1030D00063682C210093384623686E4A01F0D4F8C7
:1030E0006B7F6E4901932B7F6A480093EB7EAA7E2B
:1030F00005F072FCCDE9016763683721009323680E
:10310000644A384601F0C0F84FF4FA6001F028FE36
:10311000634804F0E1FA01F01DFE624B624E186054
:103120004FF47A733A464FF480514F48336002F0BF
:1031300049FB384601F011F9DFF8A481DFF8A491CA
:103140005A4803F088F901F005FE594D2B68C01A62
:10315000336898421BD901F0FDFD2860554D284683
:10316000FFF7EEFC2A88544B002A00F067811A8092
:1031700041F2883218883260B0F5967F07D9FDF7A2
:1031800089FD4E4A03464E494E48FFF7AFFB01F01A
:10319000E1FD4D4D2B68C01AB0F57A7F40F21281E7
:1031A00001F0D8FD2860FEF7D1F9484DDFF838B1BD
:1031B0002860FEF715FA4146FDF7C4FDCBF8000084
:1031C000FEF72AFBDFF824A14FF6FF77CAF80000CC
:1031D0002868FDF729F9002502460B462D483C4991
:1031E00005F0FAFBCDE9017563682A4A009323686C
:1031F0002946284601F048F8DBF80000FDF714F9ED
:1032000002460B462348334905F0E6FBCDE901753C
:103210006368204A0093236829463C2001F034F873
:10322000DAF80000FDF700F902460B4619482A4972
:1032300005F0D2FBCDE9017563681F4F0093236849
:103240000B212846134A01F01FF83A8823491148F8
:1032500005F0C2FB3888FDF721FD49468246FDF79F
:103260000FFF074644E000BF0008014008000020AF
:103270009DC80008AAC80008B2C80008BFC8000856
:10328000000C01402D0000204B0100209C0A002072
:10329000C8C800088C0A0020D8C80008F0C8000878
:1032A000380F0020AC040020400A00202C0A002027
:1032B000480A0020841000208010002008C900085F
:1032C000800F0020470000204C0A0020380A002010
:1032D0000CC9000817C9000823C900082DC9000837
:1032E000E8C7F53B00004844440A0020800A00205B
:1032F000002800F0A6804FF4FC63029500254FF6ED
:10330000FF77019363680B2100933C202368884A70
:1033100000F0BAFF874B88491A88854805F05CFBA6
:10332000CDE901756368DFF888A200932368804ABD
:103330001621284600F0A8FFDAF80000FDF774F81F
:1033400002460B467A487D4905F046FBCDE90175FA
:103350006368774A0093236816213C2000F094FFAD
:10336000DAF80000FDF760F86FA3D3E90023FDF75A
:10337000B3F802460B466E48714905F02DFBCDE9C6
:10338000017563686A4A009321212846236800F08A
:103390007BFF6C4B1888FDF781FC6B49FDF7D2FC75
:1033A000FDF742F802460B466148684905F014FBF8
:1033B000CDE901756368212100933C2023685C4AB4
:1033C00000F062FF01F0C6FC614B624F1B68624D6A
:1033D000C01A624B984202D83B78002B47D04FF07E
:1033E000000ADFF8D8B187F800A0584600F04EFA7E
:1033F000012833D15A499BF8043052460B709BF890
:10340000053058484B709BF806308B7003F063FC16
:103410003B7863B31F230022CDE901326B6858214A
:10342000009326202B68504A37E04FF478430290EF
:10343000019363684D4A00932368D1E54FF47A7293
:1034400098E650464A49FDF71BFE18B14FF6E07367
:10345000029753E74FF4784302904FE7454B1C2205
:103460005046454900F0FAF801233B70D2E73C4F43
:10347000002239463B4803F07FFC7B783A783F498D
:103480002B4805F0A9FA1F2300211820CDE90131AE
:1034900058216B68264A00932B6800F0F5FE01F076
:1034A00059FC374D2B68C01A42F21073984222D94A
:1034B00001F050FC334B28601D6833492846FDF766
:1034C000DFFD38B328463149FDF7F8FD10B32B4630
:1034D0002F4A30493048FFF709FA304B304A1B6811
:1034E0002C492D48FFF702FA2E4B2F4A1B68294919
:1034F0002948FFF7FBF92D4B1A78002A3FF420AE3C
:1035000000221A702A4B2B4A1B6822492248FFF7D7
:10351000EDF915E6284802F0EBFBFFF7B9F9FEF7E5
:10352000E3F9E8E7AFF30080333333333333234039
:103530008C0A0020A404002036C900083DC90008F8
:1035400048C900083C0A0020F4FDD43E51C90008D7
:10355000B40400202C00002000000020407E050064
:10356000B8040020240F002064C90008ADC800087A
:1035700000007A449C0A00204B0100205AC9000830
:10358000BC040020380A002000007042000020C265
:1035900068C90008800F002047000020440A00206E
:1035A00074C90008800A00207DC90008B00400200A
:1035B000A804002086C90008D8090020840A002039
:1035C0004028F8B53AD11E4F3C880134A4B2B4F576
:1035D000617F3C8027D301F0BDFB05462046FDF707
:1035E0005DFB184C064620682D1A4FF47A70B5FB27
:1035F000F0F0FDF74FFB01463046FDF757FC4FF06A
:103600007C51FDF795FA002601220F4D0F4B3146F4
:1036100028601A70FDF734FD00B12E6000233B8056
:1036200001F098FB20600A4801224FF4805102F01B
:10363000C9F8BDE8F840074804F04EB8F8BD00BF2F
:10364000A4040020AC040020A8040020B004002042
:10365000000801409009002072B6FEE770B51C4DCD
:103660001C4C28700E78400126704E7800F5816061
:1036700066708E78A670C978E17017490A70174A8B
:1036800000211360164B002263600023C4E9062367
:10369000C4E90823C4E90A2301220023C4E9031171
:1036A000C4E90C232181217501F094F828787B214D
:1036B000400100F5A16001F08DF823796279DB000B
:1036C00003EB8213A2791344064A137070BD00BF46
:1036D000D6100020D8100020CC1000209810002018
:1036E000040003009C10002007B5CDE900016846E6
:1036F00004F04CFB074B42691A8002699A70C26859
:10370000DA7082681A7142685A7102689A7103B05D
:103710005DF804FBCE10002000234218184619461D
:1037200030B4013312F8014BDBB20902042B41EA39
:10373000106144EA0020F4D1484B1B78312B1ED88D
:10374000DFE803F0192022242628282B2B2D2D2FEB
:103750002F2F31333336383A3D1D1D40404045450B
:103760004848505356595C5F6265686B6E71747758
:103770007A7D808386893A4BC01841F1FF3130BC95
:10378000FFF7B2BF374BF7E7374BF5E7374BF3E7B8
:10379000374BF1E7B0F5E140EFE7364BECE7364B5E
:1037A000EAE7364BE8E7364BE6E7B0F56150E4E789
:1037B000344BE1E7344BDFE7B0F5E150DDE7B0F53E
:1037C0006160DAE710F5616041F10001D7E710F5BB
:1037D000E150F9E742F63023C0184FF0000343EB05
:1037E0000101CCE743F23813F6E710F56150EBE73F
:1037F00043F64873F0E744F25063EDE744F658535C
:10380000EAE745F2DC03E7E745F26043E4E745F623
:103810006833E1E746F27023DEE710F5E140D3E7D5
:1038200047F69063D8E748F29853D5E748F6A043A7
:10383000D2E749F2A833CFE749F6B023CCE74AF202
:10384000B813C9E74AF6C003C6E74BF24C33C3E7E7
:103850004BF2D063C0E74CF2E043BDE7CC10002050
:103860004057FFFF5065FFFF6073FFFF687AFFFF5F
:103870007081FFFF909DFFFFA0ABFFFFB0B9FFFF7E
:10388000B8C0FFFFC8CEFFFFD0D5FFFF2DE9F04342
:1038900000247B26DFF8FC80814698F8000085B084
:1038A000400100F542700394ADF80A6000F064FF37
:1038B00047460546002859D022285FD198F80000D5
:1038C00001F04FF82E4E054678B33828024628BF3F
:1038D00038222C4D0DF10A030093296803AB92B2F4
:1038E00098F8000000F0D8FA28682821FFF714FFA4
:1038F000254B01251A88A9F800209A7898F800002D
:1039000089F80220DA78348089F803201A7989F856
:1039100004205A7989F805209B7989F8063000F04F
:103920003BF8284605B0BDE8F0834FF6FF723388B8
:10393000934215D063B97B2300933022134B144973
:10394000387800F0F9F93388002501333380E8E74F
:10395000C3EB0312C3EB02339BB2102BE1D8EAE7AF
:10396000308098F8000000F017F8DAE70346324696
:10397000022198F8000000F04DF8D2E72546D0E784
:10398000C004002098100020CE100020D810002085
:103990009C100020D61000200828F8B504462DD829
:1039A000470107F1080607F584771021384600F033
:1039B00011FF384600F0E0FE05460028F9D11F212E
:1039C00006F5007000F006FF0123A340DB430D491C
:1039D0001BB20A8806F540761A400A800A4A118806
:1039E0000B401380094B23F81450094B1D553046EA
:1039F00000F0C2FE0028FAD10120F8BD4FF0FF30E0
:103A0000FBE700BFC2040020C4040020CE04002055
:103A1000C604002008282DE9F341044688461746CD
:103A20001D467CD8012905D08B1E022B10D96FF0C2
:103A300004000AE004224FF470600DEB020100F074
:103A4000FBFE019B23B96FF0020002B0BDE8F081DC
:103A5000680757D42DB1B8F1010F50D0B8F1020F5B
:103A600053D020466601FFF797FF083625F00F0177
:103A7000304641EA080100F0ADFE6FB94FF6F07133
:103A8000284A17887B1C9BB28B4205BF4FF44043EA
:103A90004FF6EF7713801380390A06F5806000F047
:103AA00099FEF9B206F5A06006F5807700F092FE67
:103AB0000121384600F08EFE384600F05DFE0028F9
:103AC000FAD10123A340DB4317491BB20A8805F052
:103AD00001051A40A5401543144A0D80118806F5CA
:103AE00040760B401380124B23F81400114B1855ED
:103AF000304600F041FE0028FAD060B2A5E715F08C
:103B0000210FAED16FF005009FE7A9066BB201D57A
:103B1000002BF7DAEA06A4D5002BA2DBF2E74FF080
:103B2000FF3092E750010020C2040020C4040020AE
:103B3000CE040020C604002008282DE9F0410646E6
:103B40000D4617465DD844010834204600F014FEA7
:103B500000F00F00012857D104F54078404600F0EE
:103B60000BFE132853D12B786A7802EB0322AB7833
:103B700003EB0222EB78013B03EB0223033349D82A
:103B8000002F4AD00422294604F5406000F08EFE42
:103B9000390A04F5805000F01DFE04F58075F9B275
:103BA00004F5885000F016FE0421284600F012FEAD
:103BB000284600F0E1FD0028FAD1194B1B8843FA92
:103BC00006F6F20713D404F50074404600F0D4FD65
:103BD000172801D101200AE0204600F0CDFD03079F
:103BE00007D52046082100F0F5FD6FF00C00BDE878
:103BF000F081404600F0C0FD0028E6D16FF00300E0
:103C0000F5E74FF0FF30F2E76FF00400EFE76FF0F9
:103C10000200ECE76FF00B00E9E76FF00A00E6E75F
:103C2000C204002008282DE9F84F064688461446AD
:103C300074D845010835284600F09EFD00F00F00BD
:103C400001286ED1002C6FD005F54079484600F070
:103C500093FD172801D01C2832D1354F3B883341C2
:103C6000D90711D505F5007A504600F085FDC2064A
:103C700029D51021504600F0ADFD012303FA06F2CC
:103C80003B8823EA02033B8005F5F85000F074FD01
:103C9000830298B24FF0010A844228BF04460AFA10
:103CA00006FA304600F03CFE8346484600F064FDCC
:103CB0001728204B12D01C2810D03046FFF76CFE7E
:103CC0006FF0060002E0030702D40020BDE8F88F81
:103CD0003046FFF761FE6FF00C00F7E71A8812EA32
:103CE0000A0F18D05C45F0D841463046224605F50B
:103CF000807500F057FE2021284600F06BFD284615
:103D000000F03AFD0028FAD13B8820464AEA030A2F
:103D1000A7F800A0DAE75C45C3D8E5E74FF0FF302D
:103D2000D4E76FF00400D1E76FF00D00CEE700BFDD
:103D3000C4040020C20400202DE9F84F08280646DC
:103D4000884614461F46BDF828A000F2978045011A
:103D50000835284600F010FD00F00F000238022858
:103D600000F28F80002C00F08F803B787A7802EB95
:103D70000322BB7803EB0222FB7803EB0223002B28
:103D80003CD0BAF1000F41D005F54079484600F02B
:103D9000F3FC422842D10422394605F5406000F088
:103DA00085FD4FEA1A2105F5805000F013FD5FFAFA
:103DB0008AF105F5885000F00DFD05F5F85000F08A
:103DC000DBFC800280B24FF0010A844228BF044627
:103DD000DFF8C0B00AFA06FA304600F0A1FD074647
:103DE000484600F0C9FC002851D0BBF8003013EA67
:103DF0000A0F1AD0BC421AD9002034E0284600F03D
:103E0000BBFC4007BDD46FF00B002CE0284600F04F
:103E1000B3FC4107B8D46FF00A0024E000F0EF00D3
:103E20002228B8D06FF006001DE0BC42D4D830463E
:103E30004146224605F5807600F0B4FD202130464B
:103E400000F0C8FC304600F097FC0028FAD105F5D8
:103E50000075284600F090FCC20606D528461021C1
:103E600000F0B8FC2046BDE8F88F0307F1D52846DE
:103E7000082100F0AFFC6FF00C00F4E74FF0FF30CA
:103E8000F1E76FF00400EEE76FF00D00EBE76FF085
:103E90000300E8E7C20400202DE9F04F082804469B
:103EA0008A469146984685B000F2E8804701083777
:103EB000384600F061FC00F00F02023A022A834605
:103EC00000F2DF80B9F1000F00F0DE80714E36F8AD
:103ED0001420002A7AD1012107F54073A1400093F4
:103EE0002046019100F03DFD0546009800F044FC9D
:103EF000002800F0CC80684B01991A880A4202D051
:103F00001DB9284689E0002DEAD00BF007000328F0
:103F100007F5807700F08480042859D0022840F00B
:103F2000A68036F814308BBB082220460DEB020128
:103F300000F065FD4021384600F04CFC384600F0AA
:103F40001BFC0028FAD19DF808309DF80C2088F859
:103F500000309DF8093088F801309DF80A3088F863
:103F600002309DF80B3088F803309DF80D3003EBDC
:103F700002230E9A13809DF80E209DF80F3003EB5C
:103F8000022326F814308022444B1A5536F8145078
:103F900051464D4528BF4D4620462A4600F02FFD8C
:103FA0004021384600F016FC384600F0E5FB0028BA
:103FB000FAD136F81430394A5B1B9BB226F814301C
:103FC00013B1105D40F0010010559AE700259CE701
:103FD00036F81430002BD9D1204602A9022200F075
:103FE0000EFD4021384600F0F5FB384600F0C4FBDA
:103FF0000028FAD19DF809309DF80820023B03EB18
:10400000022340F2EA529BB2934226F81430BAD906
:104010002046FFF7C1FC6FF47A7005B0BDE8F08F61
:1040200036F81430002BB1D1204602A9062200F048
:10403000E6FC4021384600F0CDFB384600F09CFB02
:104040000028FAD19DF808309DF80C2088F800303F
:104050009DF8093088F801309DF80A3088F8023060
:104060009DF80B3088F803309DF80D3087E729461E
:10407000204600F0F1FC26F8145091E74FF0FF3095
:10408000CBE76FF00400C8E76FF00D00C5E76FF0F5
:104090000300C2E7CE040020C2040020C6040020B2
:1040A00000224FF40071014801F08CBB0008014070
:1040B00007B500228DF807004FF48061064801F033
:1040C00081FB4FF0FF3301220DF10701034803F09C
:1040D00058F803B05DF804FB0008014038090020DF
:1040E00070B504460D4601224FF48061054801F089
:1040F00069FB2146AAB24FF0FF33BDE87040024889
:1041000003F03FB80008014038090020F8B5054623
:1041100015F8016B013EF6B2FF2E00D1F8BD2C461A
:1041200014F8020BFFF7C4FF6D7815F07F0704D079
:1041300020463946FFF7D4FF3C442B0607D514F838
:10414000010BFF2808BF4FF4FA7000F009FE254666
:10415000E0E7F7B507462A2016460D461C46FFF74E
:10416000A7FF042100230DEB01008DF804308DF82A
:1041700006308DF805708DF80760FFF7B1FF2B2032
:10418000FFF796FF04210DEB01008DF805508DF827
:104190000740FFF7A5FF2C20FFF78AFF03B0F0BD13
:1041A00001224FF40071014801F00CBB00080140EE
:1041B000F7B51C4615460F4606468318802BC8BF28
:1041C000C0F1800501EB0403C8BFADB2A02BC4BF92
:1041D000C1F1A004A4B2FFF763FFF9B2F0B24B1E25
:1041E000421E23442A44DBB2D2B2FFF7B2FFBDF82D
:1041F000203001225BBA4FF480610D48ADF80430E5
:1042000001F0E0FA0B4F8CB9FFF7CAFF03B0F0BD25
:104210004FF0FF330222384601A902F0B2FF013EFF
:10422000B6B2002EF4D1013CA4B2ECE72E46F8E77A
:10423000000801403809002010B50F4CFFF730FF8F
:1042400000224FF40061204601F0BCFA052000F086
:1042500087FD01224FF40061204601F0B3FA0748C0
:10426000FFF754FF0648FFF751FF0648FFF74EFFE0
:10427000BDE81040FFF794BF000C01408DC9000855
:10428000C8C90008D5C9000882B02DE9F04F87B031
:104290001746BDF84C2004460192BDF850200E464A
:1042A000119302925FFA83F8C3F30725FFF7F8FE34
:1042B00017F801ABBAF1000F06D1FFF771FF07B095
:1042C000BDE8F04F02B0704704EB08037F2B09DD17
:1042D0002E44B6B273199F2BEFDCBAF1200F4FF0CA
:1042E0000004E5D0E0B2F1B26B1E08F1FF32AAF192
:1042F000200A05FB0AFA0B440244DBB2D2B2DDF815
:104300004890FFF726FF029B09EB4A0B5BBAAA44D1
:1043100009EB4A09ADF80E30CB4502D14444A4B2B2
:10432000C6E74FF0000A3BF8023B0093C245F3D2C8
:10433000009B03FA0AF10B040AD5019B59BAADF8A8
:104340001410022105A8FFF7CBFE0AF1010AEDE7E0
:10435000BDF80E30ADF81430F3E707B5002100903A
:10436000A02380220846FFF723FF03B05DF804FB7B
:104370000E4B82B09A6942F001029A619A6902F08A
:1043800001020092009ADA6942F08052DA61DB6938
:10439000074A03F080530193019B536823F0E063C5
:1043A00043F08063536002B0704700BF00100240CA
:1043B0000000014030B5054687B01022002102A858
:1043C00003F0ECFD2A681C4B9A4232D103F56C4392
:1043D0009A691A4842F400729A619A6902A902F431
:1043E00000720092009A9A69154C42F004029A6198
:1043F0009B69202203F004030193019B0323CDE971
:10440000022301F095F84FF480704FF4806200238E
:104410000C49C4E904022046C4E90013C4E902338C
:10442000C4E9063300F06AFF08B1FFF715F92C6202
:10443000656207B030BD00BF0024014000080140A4
:10444000E00E00200800024010B5044686B010229D
:10445000002102A803F0A2FD2268154B9A4224D144
:10446000144C4FF44072A369134843F00803A3614E
:10447000A36902A903F008030093009B1223CDE96E
:1044800002230323059301F053F80C4A536843F0C9
:10449000E06343F002035360E36943F40013E36114
:1044A000E36903F400130193019B06B010BD00BF44
:1044B0000054004000100240000C01400000014088
:1044C00008B502680A4B9A4210D10A4A4FF480712B
:1044D000D369094823F40013D36101F005F9BDE85D
:1044E00008404FF40071044801F0FEB808BD00BF59
:1044F0000054004000100240000C014007B50B4B77
:1045000002689A420ED101F0ADFF094BDA6942F020
:104510000062DA610122DB6903F000630193019B11
:10452000044B1A6003B05DF804FB00BF0028004094
:10453000001002403C04424210B5044686B01022EE
:10454000002102A803F02AFD2268174B9A4228D1C5
:1045500003F5EC33DA69154842F48042DA61DA692E
:1045600002A902F480420092009A9A6942F008027D
:104570009A619B694FF4204203F008030193019B69
:104580000223CDE902230323059300F0D1FF4FF46A
:10459000804100230548CDE9021302A9049300F0ED
:1045A000C7FF06B010BD00BF00380040000C01403E
:1045B00007B50368174A934214D1174B19209A691B
:1045C00042F400629A6100229B69114603F4006381
:1045D0000093009B00F03CFE192003B05DF804EB53
:1045E00000F068BE0D4A934210D10B4B1E20DA69D1
:1045F00042F00402DA610022DB69114603F0040391
:104600000193019B00F024FE1E20E6E703B05DF855
:1046100004FB00BF002C01400010024000080040D5
:1046200010B5044686B01022002102A803F0B6FCA3
:104630002268194B9A422DD103F558439A691748BD
:1046400042F480429A619A6902A902F4804200927F
:10465000009A9A6942F008029A619B69402203F02D
:1046600008030193019B0223CDE902230323059351
:1046700000F05EFF002380210848CDE9021302A963
:10468000049300F055FF064A536843F0E06343F09B
:104690000403536006B010BD00380140000C014017
:1046A00000000140FEE7FEE7FEE7FEE7FEE7704799
:1046B0007047704710B5084C238801339BB2B3F59F
:1046C0007A7F238003D3FDF715FD00232380BDE807
:1046D000104000F033BB00BFDE04002008B50C48DA
:1046E00000F078FD0B4B1B88B3F5707F0BD20122D5
:1046F0004FF40041084801F065F800224FF40041F2
:10470000054801F05FF8BDE80840044800F07EBEAF
:10471000500A00203C0A002000080140E00E002062
:10472000402001F055B8000008B5012204490548B1
:1047300000F01EFCBDE80840034803F016B800BFB7
:104740003C0A0020500A0020380F002010B5074C0A
:1047500000224FF48051064801F034F8204603F05F
:1047600004F82046BDE8104002F0E0BF90090020A8
:10477000000801407047000073B50546144CC5F3AE
:104780000726E368984763699847636AC5F307405B
:10479000EDB20BB1A36A8BB9236A98473046236AFE
:1047A00098472846236A9847E36998470546A369CE
:1047B000984723699847284602B070BD8DF80400D9
:1047C00003218DF805608DF8065001A89847EBE7A6
:1047D00058010020F7B50546164C0F46E368984788
:1047E00063699847A36A45F00406C5F30740F6B22B
:1047F000C5F3072583B9236A98472846236A984753
:104800003046236A98473846236A9847A3699847F1
:104810002369984703B0F0BD04218DF804008DF89A
:1048200005508DF806608DF807700DEB0100984774
:10483000ECE700BF580100202DE9F34105461A4C72
:104840000E46E3681746984763699847636AC5F35D
:104850000740C5F30728EDB20BB1A36AB3B9236AC9
:1048600098474046236A98472846236A9847374422
:10487000B74206D1A36998472369984702B0BDE8BB
:10488000F081E369984706F8010BF1E78DF8040021
:10489000032101A88DF805808DF806509847394608
:1048A0003046636A9847E5E7580100202DE9F34157
:1048B00005461A4C8846E368174698476369984747
:1048C000A36A45F00406C5F30740F6B2C5F3072511
:1048D000B3B9236A98472846236A98473046236A23
:1048E00098474744474506D1A369984723699847A5
:1048F00002B0BDE8F081236A18F8010B9847F1E790
:104900008DF80400032101A88DF805508DF806608C
:10491000984739464046A36A9847E5E75801002082
:10492000F8B500244601083606F5005706F504568A
:104930003846FFF721FF05023046FFF71DFFADB2F5
:104940000544ADB24DB13846FFF716FF04023046BC
:10495000FFF712FFA4B20444A4B2AC42E8D120464F
:10496000F8BDF8B500244601083606F5185706F5D7
:104970001C563846FFF700FF05023046FFF7FCFEE5
:10498000ADB20544ADB24DB13846FFF7F5FE0402B5
:104990003046FFF7F1FEA4B20444A4B2AC42E8D121
:1049A0002046F8BD2DE9F843894614462AB3850010
:1049B0006F1CFF0007F510584046FFF7DDFE07F5B6
:1049C000145706463846FFF7D7FE00EB062086B29E
:1049D000023530022246494600EBC500FFF766FF6C
:1049E000A11940468CB2C1F30721FFF7F3FE384608
:1049F000E1B2BDE8F843FFF7EDBEBDE8F8832DE96D
:104A0000F843894614462AB385006F1CFF0007F55A
:104A100020584046FFF7B0FE07F5245706463846B3
:104A2000FFF7AAFE00EB062086B2033530022246CD
:104A3000494600EBC500FFF7FFFEA11940468CB2C6
:104A4000C1F30721FFF7C6FE3846E1B2BDE8F843DF
:104A5000FFF7C0BEBDE8F883F8B54401083404F59B
:104A6000205738460D46FFF787FE04F524540646C6
:104A70002046FFF781FE291801EB062138468DB24A
:104A8000C1F30721FFF7A6FE2046E9B2BDE8F840D2
:104A9000FFF7A0BE70470078704701707047002094
:104AA0007047704770477047704770477047000005
:104AB000054B00B121B9054A5A61054A9A61704710
:104AC000C3E90501704700BF58010020AB4A000848
:104AD000AD4A0008084B10B51C881A46A40500D43E
:104AE000FEE700B121B9054BD361054B136210BD40
:104AF000C3E90701FBE700BF580100209F4A0008F7
:104B0000A34A0008084B10B51C881A46A40500D417
:104B1000FEE700B121B9054B5362054B936210BD0E
:104B2000C3E90901FBE700BF58010020A54A0008BE
:104B3000A74A00087FB5062204A94FF41060FFF7CA
:104B40007BFE04224FF480700DEB0201FFF774FE30
:104B500002A904224FF4A060FFF76EFE042203A90D
:104B60004FF47060FFF768FE80210020FFF732FEEF
:104B70000020FFF701FE04A906224FF41060FFF7A2
:104B800095FE04224FF480700DEB0201FFF78EFEBC
:104B900002A904224FF4A060FFF788FE04224FF41C
:104BA000706003A9FFF782FE07B05DF804FBF8B55B
:104BB00005460C46FFF7BEFFBDB16E1E3246002310
:104BC000073512F8011F0B445BB2102B29DCAA42F7
:104BD000F7D141F6087542F20807284616F8011F7A
:104BE0002035FFF7F7FDBD42F7D10CB90020F8BD25
:104BF000651E2A460023073412F8011F0B445BB2DE
:104C0000102B0EDC9442F7D141F6086441F6087689
:104C1000204615F8011F2034FFF7DCFDB442F7D120
:104C2000E4E74FF0FF30E2E710B504460146062204
:104C30004FF41060FFF73AFE04224FF4807004F145
:104C40000E01FFF733FE04224FF4A06004F10A01C5
:104C5000FFF72CFE04224FF47060A11DFFF726FE23
:104C6000064BA27C1A70E27C5A70227D9A70627D9B
:104C7000DA7094F81D21024B1A7010BDE104002077
:104C8000E00400200C480D490D4A002302E0D458EE
:104C9000C4500433C4188C42F9D30A4A0A4C002386
:104CA00001E013600432A242FBD3FFF763FD03F07F
:104CB0003BF9FDF7C5FF7047000000205C030020B2
:104CC00084CE00086003002024110020FEE70000CD
:104CD00038B50E4B054618784FF47A73B3FBF0F3F2
:104CE0000B4A1068B0FBF3F000F0F2FA044658B932
:104CF0000F2D09D8024629464FF0FF3000F0A8FAE0
:104D00002046044B1D6038BD0120FCE784010020D3
:104D10005401002088010020074A08B513680320C9
:104D200043F01003136000F081FA0020FFF7D0FF7A
:104D3000FFF71EFB002008BD00200240034A044B81
:104D400011681B780B441360704700BF10110020DE
:104D500084010020014B1868704700BF101100202B
:104D600038B50446FFF7F6FF0546631C1EBF044B2B
:104D70001B78E418FFF7EEFF431BA342FAD338BDBC
:104D8000840100207047436A10B59A6A12F0500FF0
:104D90001BD19A6A42F400729A621A68926802F40D
:104DA0006022B2F5602F0CD11A7B52B99A6A22F4B4
:104DB00080729A629A6AD2045EBF9A6A42F00102D5
:104DC0009A621846FFF7DEFF10BD1B6ABDE810406F
:104DD0001B6B1847704708B5406AFFF7FBFF08BD1B
:104DE0007047406A08B5836A43F040038362C36A30
:104DF00043F00403C362FFF7F3FF08BD002373B55C
:104E0000019390F824300446012B6CD0012380F8E4
:104E100024304D680268062D086805EB850322D80A
:104E20001F26556B053B9E4025EA060500FA03F355
:104E30002B43536309288B6800EB40054FF00701B3
:104E400029D9D6681E3DA94026EA0101AB400B4393
:104E5000D360A0F11003012B25D90020002384F892
:104E6000243002B070BD0C2D4FF01F0509D8166B11
:104E7000233B9D4026EA050500FA03F32B43136309
:104E8000D8E7D66A413B9D4026EA050500FA03F3C0
:104E90002B43D362CEE71069A94020EA0101AB4061
:104EA0000B431361D9E7114B9A4216D193681B0249
:104EB000D3D49368102843F400039360CDD10C4BF6
:104EC0000C4A1B68B3FBF2F20A2353430193019B84
:104ED000002BC2D0019B013BF8E7A36A012043F0FD
:104EE0002003A362BAE70220BBE700BF0024014011
:104EF0005401002040420F00002337B5019303689E
:104F000004469A68D20702D5002003B030BD9A68E3
:104F100042F001029A60144B144A1B68B3FBF2F38F
:104F20000193019BE3B9FFF715FF054623689B68D2
:104F3000DB07E9D4FFF70EFF401B0228F6D92368F0
:104F40009B6813F00103F1D1A26A012042F0100224
:104F5000A262E26A84F8243042F00102E262D4E7FD
:104F6000019B013BDCE700BF5401002040420F00E1
:104F70002DE9F041404B9046026804469A420F46A4
:104F800002D03E498A4203D15B6813F4702F6ED180
:104F900094F82430012B6CD00123204684F824306F
:104FA000FFF7AAFF064600285DD1A56A2168334BAA
:104FB00025F4706525F0010545F480759942A562D8
:104FC00004D12D4A536813F4702F3ED1A36A23F401
:104FD0008013A3624B685A0505D5A36A23F4405396
:104FE00043F48053A362A36A206A13F4805318BF6A
:104FF000E36A3A4618BF23F00603E362002384F80D
:1050000024301F4B4C3183621E4BC3621E4B036323
:105010006FF0020341F84C3C51F8443C43F4807378
:1050200041F8443C434600F097F923689A6802F43B
:105030006022B2F5602F9A680CBF42F4A00242F4DD
:1050400080129A603046BDE8F081A36A43F4801371
:10505000A36253685B0541BFA06A20F4405040F44E
:105060008050A062BFE7002384F82430EAE70126DD
:10507000E8E70226E6E700BF0024014000280140DF
:10508000874D0008D74D0008E34D000838B5036888
:1050900004469A68D10701D4002038BD9A6822F0EE
:1050A00001029A60FFF756FE054623689B68DB07FE
:1050B000F2D5FFF74FFE401B0228F6D923689B6804
:1050C000DA07F2D5A36A012043F01003A362E36A72
:1050D00043F00103E362E0E7F8B5044600286ED030
:1050E000836A23B9C36280F82430FFF763F920464E
:1050F000FFF7CCFFA36A13F0100362D1002860D140
:10510000A26AE569616822F4885222F0020242F044
:1051100002022943A568A262227BB5F5807F41EA9D
:10512000420137D0012D14BF00274FF48077267D30
:10513000012E06D182BBA269013A47EA423646F403
:1051400000672268B5F5807F566826F4694646EA0E
:105150000706566097681D4E06EA070646EA0106EE
:10516000966001D0012D02D12369013B1B05D56A50
:1051700025F470052B43D3629268154B1340994276
:1051800013D10023E362A36A23F0030343F0010376
:10519000A362F8BD2F46CAE7A26A42F02002A262CB
:1051A000E26A42F00102E262CBE7A36A23F0120353
:1051B00043F01003A362E36A43F00103E3620120BA
:1051C000E7E7A36A43F01003A362F8E7FDF7E1FF06
:1051D000FE0E1FFF10B590F824300446012B22D09C
:1051E000012380F82430FFF751FFA8B922689368A3
:1051F00023F480739360236A93F82120022A0BD151
:10520000184600F0E5F8A36A50B923F4885323F058
:10521000010343F00103A362002384F8243010BD8E
:1052200043F04003F7E70220F9E7000007490302D3
:10523000CA6803F4E06322F4E0621204120C134320
:1052400043F0BF6343F40033CB60704700ED00E0F0
:10525000164B30B5DC68C4F30224C4F10703251DE6
:10526000042B28BF0423062D4FF0FF3598BF0024E0
:1052700005FA03F388BF033C21EA0303A34005FAC0
:1052800004F422EA0402002843EA0203ACBF00F15E
:105290006040074A4FEA0313DBB2ABBF00F5614041
:1052A00000F00F0080F80033135430BD00ED00E033
:1052B00014ED00E0002808DB0123420900F01F0084
:1052C00003FA00F0014B43F82200704700E100E0D0
:1052D0000138B0F1807F0AD2F021064B064A5860AF
:1052E00082F823100020072298601A60704701207E
:1052F000704700BF10E000E000ED00E010B520B303
:1053000014220168124B0B44B3FBF2F39B000364BD
:10531000104B0A68C363D0E901342343C46822F404
:105320007F522343046922F030022343446923431C
:1053300084692343C469234313430B604FF4807291
:10534000002302848363184610BD0120FCE700BFE0
:10535000F8FFFDBF00000240F0B590F82040012C9E
:1053600034D0012490F8215080F82040A5424FF01D
:1053700000064FF0020427D180F8214004688663BC
:10538000266826F001062660D0E90F67BD407560EB
:1053900063604368102BC36A0BBFA260A160E16029
:1053A000E2604BB1236843F00E03002023602368C2
:1053B00043F001032360F0BD236823F0040323605E
:1053C000236843F00A03F0E780F820600220F2E748
:1053D00090F82130022B06D004238363002380F849
:1053E00020300120704703681A6822F00E021A600C
:1053F0001A6822F001021A600123D0E90F218B40C4
:1054000053604FF4807303840020704770B4042508
:10541000C66B026C3468036895402542196832D027
:105420004D0730D51A6896065EBF1A6822F004024E
:105430001A603D4A934219D01432934218D0143264
:10544000934217D01432934217D01432934217D09C
:10545000143293420CBF4FF480034FF08063334A01
:105460005360C36A002B5CD070BC18470423F6E776
:105470004023F4E74FF48063F1E74FF48043EEE715
:105480004FF48023EBE702259540254235D08D0768
:1054900033D51A68940606D41A6822F00A021A60F4
:1054A000012280F82120204A934219D014329342DD
:1054B00018D01432934217D01432934217D01432BA
:1054C000934217D0143293420CBF4FF400134FF0A5
:1054D0000073164A5360002380F82030836AC1E7C6
:1054E0000223F6E72023F4E74FF40073F1E74FF4CB
:1054F0000053EEE74FF40033EBE7082595402542D3
:105500000FD009070DD5196821F00E01196001238C
:1055100003FA02F2726083634FF480730384036BB7
:10552000A0E770BC704700BF0800024000000240C6
:105530002DE9F74F00221646644BDFF8A0C1DFF8D3
:10554000A0E10D6835FA06F402D103B0BDE8F08F92
:105550004FF0010808FA06F805EA080438EA0505DC
:105560007CD14D68032D07D8013D022D00F28880C3
:10557000DFE805F0969BA100122D00F099806FD80E
:10558000112D00F08F80FF2C98BF82464FF00F093D
:1055900088BF00F1040A4FEA8605DAF8008088BF68
:1055A000203D09FA05FB28EA0B0802FA05F548EA4E
:1055B0000505CAF80050D1F804A01AF0805F4DD05C
:1055C000434F26F00308BD6908F1804845F0010506
:1055D000BD61BD6908F5803805F00105019506F04B
:1055E000030B019D4FEA8B0BD8F8085009FA0BF911
:1055F00025EA0909374DA84261D005F58065A84222
:105600005FD005F58065A8425DD005F58065A842AC
:105610000CBF0325042505FA0BF545EA0905C8F872
:1056200008501D681AF4803F14BF2543A5431D6030
:105630005D681AF4003F14BF2543A5435D609D6873
:105640001AF4801F14BF2543A5439D60DD681AF43A
:10565000001F14BF2C4325EA0404DC60013670E708
:105660001D4FBD420CD017D8DFF878904D4507D0BC
:1056700009F570294D4503D0A9F580194D4582D112
:105680008A68D2B1012A08BFC0F810804FF0080222
:1056900018BFC0F8148076E76545F1D07545EEE790
:1056A000CA6870E7CA6804326DE7CA6808326AE7F8
:1056B000CA680C3267E7002265E7042263E7002529
:1056C000A9E70125A7E70225A5E700BF00040140DF
:1056D00000100240000801400000221000003110BC
:1056E00000003210000012102DE9F74F4FF0040BAC
:1056F00000224FF0010A4FF00F0800EB0B0301935B
:105700002E4B31FA02F402D103B0BDE8F08F0AFA51
:1057100002F70F4049D022F0030404F18044284DE1
:1057200004F5803402F0030CA6684FEA8C0C08FAEA
:105730000CF9A84209EA060E39D005F58065A842A1
:1057400037D005F58065A84235D005F58065A842BB
:105750000CBF0325042505FA0CF575456FEA07060D
:105760000FD1A56825EA0905A5601C6834401C60B6
:105770005C6834405C609C6834409C60DC68344009
:10578000DC60FF2F94BF0746019F4FEA82043D680B
:1057900088BF203C08FA04FC25EA0C050BFA04F447
:1057A00025433D60C4682640C6600132A9E7002554
:1057B000D1E70125CFE70225CDE700BF0004014076
:1057C000000801400AB1016170470904FBE70000CD
:1057D000044A08B55169014202D05061FDF7F0FE5C
:1057E00008BD00BF00040140016800224B6913F4AA
:1057F000806310D06FF480634B612023026380F8D4
:105800003D3080F83E20036C80F83C2043F00403D8
:10581000036401207047184670472DE9F0410446A3
:105820000F46164698462568686927EA000080B248
:10583000B8B16B695A0516D52B68202243F4007362
:105840002B606FF480636B610023236384F83D2039
:1058500084F83E30226C42F004020120226484F875
:105860003C30BDE8F081731CDED0FFF773FAA0EB8B
:105870000800B04201D8002ED5D100232022236396
:1058800084F83D2084F83E30226C42F02002E4E7A8
:1058900070B504460D46164623685B695B0701D563
:1058A000002070BD2046FFF79FFFA8B96A1CF3D007
:1058B000FFF750FA801BA84201D8002DECD100233D
:1058C0002022236384F83D2084F83E30226C84F843
:1058D0003C3042F0200222640120E2E770B5044629
:1058E0000D46164621684B6913F0400301D0002095
:1058F00010E04A69D2060ED56FF010024A612022EC
:10590000236384F83D2084F83E30226C0120226419
:1059100084F83C3070BDFFF71DFA801BA84201D807
:10592000002DDFD100232022236384F83D2084F85A
:105930003E30226C42F02002E8E72DE9F8460646A8
:105940000F4691461D464FEA114A3368BAF1010FDE
:105950000CBF5C699C6927EA0404A4B2B4FA84F41D
:105960006409A14501D0002017E06A1CEED0FFF7C2
:10597000F1F9089BC01AA84201D8002DE5D10023F7
:1059800020220120336386F83D2086F83E30326CB9
:1059900086F83C3042F020023264BDE8F88670B5EB
:1059A00004460D46164623685B691B0601D5002098
:1059B00070BD2046FFF718FFA8B96A1CF3D0FFF7A7
:1059C000C9F9801BA84201D8002DECD10023202268
:1059D000236384F83D2084F83E30226C84F83C3008
:1059E00042F0200222640120E2E700002DE9F043AA
:1059F000154602689946136885B043F480731360B6
:105A0000DDE90C780E463B4600224FF00111CDF83F
:105A100000800446FFF791FF236838B11B68DB055F
:105A200002D54FF40073236403200AE006F0FE065B
:105A30001E613A46434620461749FFF7EEFE18B16D
:105A4000012005B0BDE8F083236803905A69394608
:105A500003929B69424603932046039BFFF79FFFF7
:105A600040B1236C042B01BF2268136843F4007318
:105A70001360E5E7B9F1010F236802D1EDB21D61B2
:105A8000DFE72A0A1A61394642462046FFF787FFB8
:105A90000028E6D12368F1E7020001002DE9FF4765
:105AA0009A46DDE90C78036815461A680E4642F4FA
:105AB00080621A601A684FF0011142F480721A6015
:105AC0003B460022CDF800800446FFF736FF2368EE
:105AD00048B11B68DB0502D54FF400732364032033
