:020000040800F2
:1000000000500020B1490008D1430008D343000844
:10001000D5430008D7430008D9430008000000007A
:10002000000000000000000000000000DB430008AA
:10003000DD43000800000000DF430008E143000842
:10004000F9490008F9490008F9490008F949000888
:10005000F9490008F9490008F9490008F949000878
:10006000F9490008F9490008F9490008094400085D
:10007000F9490008F9490008F9490008F949000858
:10008000F9490008F9490008F9490008F949000848
:10009000F9490008F9490008F94900084D440008E9
:1000A000F949000855440008F9490008F9490008D1
:1000B000F9490008F949000879440008F94900089D
:1000C000F9490008F9490008F9490008F949000808
:1000D000F9490008F9490008F9490008F9490008F8
:1000E000F9490008F9490008F94900080000000032
:1000F0000000000000000000000000000000000000
:0C01000000000000000000005FF808F1A3
:1001100010B5054C237833B9044B13B10448AFF341
:1001200000800123237010BD580300200000000050
:10013000DCA8000808B5034B1BB103490348AFF323
:10014000008008BD000000005C030020DCA800085F
:10015000034613F8012B002AFBD1181A0138704707
:1001600081F0004102E000BF83F0004330B54FEA68
:1001700041044FEA430594EA050F08BF90EA020FD5
:100180001FBF54EA000C55EA020C7FEA645C7FEA68
:10019000655C00F0E2804FEA5454D4EB5555B8BF8B
:1001A0006D420CDD2C4480EA020281EA030382EAFC
:1001B000000083EA010180EA020281EA0303362D8E
:1001C00088BF30BD11F0004F4FEA01314FF4801C61
:1001D0004CEA113102D0404261EB410113F0004F73
:1001E0004FEA03334CEA133302D0524263EB43032A
:1001F00094EA050F00F0A780A4F10104D5F1200EC8
:100200000DDB02FA0EFC22FA05F2801841F1000122
:1002100003FA0EF2801843FA05F359410EE0A5F1F6
:1002200020050EF1200E012A03FA0EFC28BF4CF027
:10023000020C43FA05F3C01851EBE37101F00045DD
:1002400007D54FF0000EDCF1000C7EEB00006EEBEA
:100250000101B1F5801F1BD3B1F5001F0CD3490874
:100260005FEA30004FEA3C0C04F101044FEA4452CB
:1002700012F5800F80F09A80BCF1004F08BF5FEA52
:10028000500C50F1000041EB045141EA050130BD32
:100290005FEA4C0C404141EB0101013C28BFB1F544
:1002A000801FE9D291F0000F04BF01460020B1FA8F
:1002B00081F308BF2033A3F10B03B3F120020CDA62
:1002C0000C3208DD02F1140CC2F10C0201FA0CF040
:1002D00021FA02F10CE002F11402D8BFC2F1200CA5
:1002E00001FA02F120FA0CFCDCBF41EA0C0190405B
:1002F000E41AA2BF01EB0451294330BD6FEA0404A4
:100300001F3C1CDA0C340EDC04F11404C4F120028E
:1003100020FA04F001FA02F340EA030021FA04F3A0
:1003200045EA030130BDC4F10C04C4F1200220FAF7
:1003300002F001FA04F340EA0300294630BD21FA35
:1003400004F0294630BD94F0000F83F4801306BFFB
:1003500081F480110134013D4EE77FEA645C18BFEF
:100360007FEA655C29D094EA050F08BF90EA020F86
:1003700005D054EA000C04BF1946104630BD91EA7E
:10038000030F1EBF0021002030BD5FEA545C05D181
:100390004000494128BF41F0004130BD14F58004C0
:1003A0003CBF01F5801130BD01F0004545F0FE4134
:1003B00041F470014FF0000030BD7FEA645C1ABF69
:1003C000194610467FEA655C1CBF0B46024650EAA0
:1003D000013406BF52EA033591EA030F41F40021CC
:1003E00030BD00BF90F0000F04BF0021704730B552
:1003F0004FF4806404F132044FF000054FF0000127
:1004000050E700BF90F0000F04BF0021704730B5E7
:100410004FF4806404F1320410F0004548BF4042BC
:100420004FF000013EE700BF42004FEAE2014FEA11
:1004300031014FEA02701FBF12F07F4393F07F4FEC
:1004400081F06051704732F07F4208BF704793F0EF
:100450007F4F04BF41F40021704730B54FF4607402
:1004600001F0004521F000411CE700BF50EA010205
:1004700008BF704730B54FF000050AE050EA0102AE
:1004800008BF704730B511F0004502D5404261EB1E
:1004900041014FF4806404F132045FEA915C3FF45F
:1004A000D8AE4FF003025FEADC0C18BF03325FEAFC
:1004B000DC0C18BF033202EBDC02C2F1200300FAAD
:1004C00003FC20FA02F001FA03FE40EA0E0021FAD2
:1004D00002F11444BDE600BF70B54FF0FF0C4CF4C0
:1004E000E06C1CEA11541DBF1CEA135594EA0C0F72
:1004F00095EA0C0F00F0DEF82C4481EA030621EAAD
:100500004C5123EA4C5350EA013518BF52EA0335E7
:1005100041F4801143F4801338D0A0FB02CE4FF099
:100520000005E1FB02E506F00042E0FB03E54FF0C9
:100530000006E1FB03569CF0000F18BF4EF0010EC1
:10054000A4F1FF04B6F5007F64F5407404D25FEABD
:100550004E0E6D4146EB060642EAC62141EA555170
:100560004FEAC52040EA5E504FEACE2EB4F1FD0CB2
:1005700088BFBCF5E06F1ED8BEF1004F08BF5FEA30
:10058000500E50F1000041EB045170BD06F00046E2
:1005900046EA010140EA020081EA0301B4EB5C048F
:1005A000C2BFD4EB0C0541EA045170BD41F4801187
:1005B0004FF0000E013C00F3AB8014F1360FDEBFAC
:1005C000002001F0004170BDC4F10004203C35DA88
:1005D0000C341BDC04F11404C4F1200500FA05F30B
:1005E00020FA04F001FA05F240EA020001F00042AC
:1005F00021F0004110EBD37021FA04F642EB060122
:100600005EEA430E08BF20EAD37070BDC4F10C044B
:10061000C4F1200500FA04F320FA05F001FA04F20F
:1006200040EA020001F0004110EBD37041F10001FB
:100630005EEA430E08BF20EAD37070BDC4F1200506
:1006400000FA05F24EEA020E20FA04F301FA05F26E
:1006500043EA020321FA04F001F0004121FA04F216
:1006600020EA020000EBD3705EEA430E08BF20EAE6
:10067000D37070BD94F0000F0FD101F00046400020
:1006800041EB010111F4801F08BF013CF7D041EAA2
:10069000060195F0000F18BF704703F000465200A6
:1006A00043EB030313F4801F08BF013DF7D043EA77
:1006B0000603704794EA0C0F0CEA135518BF95EA2D
:1006C0000C0F0CD050EA410618BF52EA4306D1D1B4
:1006D00081EA030101F000414FF0000070BD50EAD3
:1006E000410606BF1046194652EA430619D094EA5D
:1006F0000C0F02D150EA013613D195EA0C0F05D147
:1007000052EA03361CBF104619460AD181EA03019A
:1007100001F0004141F0FE4141F470014FF0000052
:1007200070BD41F0FE4141F4780170BD70B54FF0ED
:10073000FF0C4CF4E06C1CEA11541DBF1CEA13556D
:1007400094EA0C0F95EA0C0F00F0A7F8A4EB05044F
:1007500081EA030E52EA03354FEA013100F0888046
:100760004FEA03334FF0805545EA131343EA12630F
:100770004FEA022245EA111545EA10654FEA0026C4
:100780000EF000419D4208BF964244F1FD0404F57D
:10079000407402D25B084FEA3202B61A65EB0305D9
:1007A0005B084FEA32024FF480104FF4002CB6EB96
:1007B000020E75EB030E22BFB61A754640EA0C0016
:1007C0005B084FEA3202B6EB020E75EB030E22BF56
:1007D000B61A754640EA5C005B084FEA3202B6EB97
:1007E000020E75EB030E22BFB61A754640EA9C0056
:1007F0005B084FEA3202B6EB020E75EB030E22BF26
:10080000B61A754640EADC0055EA060E18D04FEAE3
:10081000051545EA16754FEA06164FEAC30343EA83
:1008200052734FEAC2025FEA1C1CC0D111F4801F50
:100830000BD141EA00014FF000004FF0004CB6E749
:1008400011F4801F04BF01430020B4F1FD0C88BFE8
:10085000BCF5E06F3FF6AFAEB5EB030C04BFB6EBF3
:10086000020C5FEA500C50F1000041EB045170BDE6
:100870000EF0004E4EEA113114EB5C04C2BFD4EB13
:100880000C0541EA045170BD41F480114FF0000E97
:10089000013C90E645EA060E8DE60CEA135594EA13
:1008A0000C0F08BF95EA0C0F3FF43BAF94EA0C0F16
:1008B0000AD150EA01347FF434AF95EA0C0F7FF48B
:1008C00025AF104619462CE795EA0C0F06D152EADF
:1008D00003353FF4FDAE1046194622E750EA4106C3
:1008E00018BF52EA43067FF4C5AE50EA41047FF4D4
:1008F0000DAF52EA43057FF4EBAE12E74FF0FF3C39
:1009000006E000BF4FF0010C02E000BF4FF0010C09
:100910004DF804CD4FEA410C7FEA6C5C4FEA430C82
:1009200018BF7FEA6C5C1BD001B050EA410C0CBFD1
:1009300052EA430C91EA030F02BF90EA020F002033
:10094000704710F1000F91EA030F58BF994208BF9A
:1009500090422CBFD8176FEAE37040F00100704757
:100960004FEA410C7FEA6C5C02D150EA013C07D1AE
:100970004FEA430C7FEA6C5CD6D152EA033CD3D0F9
:100980005DF8040B704700BF8446104662468C46F3
:100990001946634600E000BF01B5FFF7B7FF002826
:1009A00048BF10F1000F01BD4DF808EDFFF7F4FF4F
:1009B0000CBF012000205DF808FB00BF4DF808EDDA
:1009C000FFF7EAFF34BF012000205DF808FB00BFFD
:1009D0004DF808EDFFF7E0FF94BF012000205DF81F
:1009E00008FB00BF4DF808EDFFF7CEFF94BF0120D4
:1009F00000205DF808FB00BF4DF808EDFFF7C4FFCD
:100A000034BF012000205DF808FB00BF4FEA410C15
:100A10007FEA6C5C02D150EA013C0AD14FEA430CF8
:100A20007FEA6C5C02D152EA033C02D14FF0000035
:100A300070474FF0010070474FEA410212F5001273
:100A400015D211D56FF47873B3EB625212D94FEA15
:100A5000C12343F0004343EA505311F0004F23FAFF
:100A600002F018BF404270474FF00000704750EA54
:100A7000013005D111F0004008BF6FF00040704711
:100A80004FF00000704700BF4FEA4102B2F1E0436F
:100A900024BFB3F5001CDCF1FE5C0DD901F0004C65
:100AA0004FEAC0024CEA5070B2F1004F40EB8300B5
:100AB00008BF20F00100704711F0804F21D113F1E1
:100AC0003872BCBF01F00040704741F480114FEA1A
:100AD0005252C2F11802C2F1200C10FA0CF320FAA3
:100AE00002F018BF40F001004FEAC1234FEAD323C0
:100AF00003FA0CFC40EA0C0023FA02F34FEA43032A
:100B0000CCE77FEA625307D150EA01331EBF4FF0B2
:100B1000FE4040F44000704701F0004040F0FE40CD
:100B200040F40000704700BF80F0004002E000BFCA
:100B300081F0004142001FBF5FEA410392EA030FC8
:100B40007FEA226C7FEA236C6AD04FEA1262D2EB12
:100B50001363C1BFD218414048404140B8BF5B4217
:100B6000192B88BF704710F0004F40F4000020F0B0
:100B70007F4018BF404211F0004F41F4000121F0C6
:100B80007F4118BF494292EA030F3FD0A2F1010210
:100B900041FA03FC10EB0C00C3F1200301FA03F14E
:100BA00000F0004302D5494260EB4000B0F5000F71
:100BB00013D3B0F1807F06D340084FEA310102F130
:100BC0000102FE2A51D2B1F1004F40EBC25008BFE2
:100BD00020F0010040EA03007047490040EB0000AC
:100BE000013A28BFB0F5000FEDD2B0FA80FCACF1AD
:100BF000080CB2EB0C0200FA0CF0AABF00EBC250DA
:100C000052421843BCBFD0401843704792F0000FC7
:100C100081F4000106BF80F400000132013BB5E71A
:100C20004FEA41037FEA226C18BF7FEA236C21D090
:100C300092EA030F04D092F0000F08BF08467047F5
:100C400090EA010F1CBF0020704712F07F4F04D1C3
:100C5000400028BF40F00040704712F100723CBFD6
:100C600000F50000704700F0004343F0FE4040F400
:100C7000000070477FEA226216BF08467FEA2363BE
:100C80000146420206BF5FEA412390EA010F40F4A9
:100C9000800070474FF0000304E000BF10F00043F5
:100CA00048BF40425FEA000C08BF704743F09643DC
:100CB00001464FF000001CE050EA010208BF7047F7
:100CC0004FF000030AE000BF50EA010208BF70477E
:100CD00011F0004302D5404261EB41015FEA010C93
:100CE00002BF84460146002043F0B64308BFA3F18B
:100CF0008053A3F50003BCFA8CF2083AA3EBC2536D
:100D000010DB01FA02FC634400FA02FCC2F120028B
:100D1000BCF1004F20FA02F243EB020008BF20F0C2
:100D20000100704702F1200201FA02FCC2F1200228
:100D300050EA4C0021FA02F243EB020008BF20EA1D
:100D4000DC7070474FF0FF0C1CEAD0521EBF1CEA4B
:100D5000D15392EA0C0F93EA0C0F6FD01A4480EA39
:100D6000010C400218BF5FEA41211ED04FF0006322
:100D700043EA501043EA5111A0FB01310CF000404E
:100D8000B1F5000F3EBF490041EAD3715B0040EA74
:100D9000010062F17F02FD2A1DD8B3F1004F40EB44
:100DA000C25008BF20F00100704790F0000F0CF017
:100DB000004C08BF49024CEA502040EA51207F3ADB
:100DC000C2BFD2F1FF0340EAC250704740F40000B6
:100DD0004FF00003013A5DDC12F1190FDCBF00F0A7
:100DE00000407047C2F10002410021FA02F1C2F155
:100DF000200200FA02FC5FEA310040F1000053EAF1
:100E00004C0308BF20EADC70704792F0000F00F03E
:100E1000004C02BF400010F4000F013AF9D040EA44
:100E20000C0093F0000F01F0004C02BF490011F4D8
:100E3000000F013BF9D041EA0C018FE70CEAD153D6
:100E400092EA0C0F18BF93EA0C0F0AD030F0004C56
:100E500018BF31F0004CD8D180EA010000F000400A
:100E6000704790F0000F17BF90F0004F084691F0C8
:100E7000000F91F0004F14D092EA0C0F01D1420202
:100E80000FD193EA0C0F03D14B0218BF084608D1CB
:100E900080EA010000F0004040F0FE4040F4000015
:100EA000704740F0FE4040F4400070474FF0FF0CA8
:100EB0001CEAD0521EBF1CEAD15392EA0C0F93EAEF
:100EC0000C0F69D0A2EB030280EA010C49024FEA41
:100ED000402037D04FF0805343EA111143EA1013FA
:100EE0000CF000408B4238BF5B0042F17D024FF4B2
:100EF000000C8B4224BF5B1A40EA0C00B3EB510F8D
:100F000024BFA3EB510340EA5C00B3EB910F24BF75
:100F1000A3EB910340EA9C00B3EBD10F24BFA3EBFA
:100F2000D10340EADC001B0118BF5FEA1C1CE0D1C2
:100F3000FD2A3FF650AF8B4240EBC25008BF20F075
:100F4000010070470CF0004C4CEA50207F32C2BFC9
:100F5000D2F1FF0340EAC250704740F400004FF066
:100F60000003013A37E792F0000F00F0004C02BF97
:100F7000400010F4000F013AF9D040EA0C0093F061
:100F8000000F01F0004C02BF490011F4000F013BBB
:100F9000F9D041EA0C0195E70CEAD15392EA0C0F23
:100FA00008D142027FF47DAF93EA0C0F7FF470AF5B
:100FB000084676E793EA0C0F04D14B023FF44CAF9E
:100FC00008466EE730F0004C18BF31F0004CCAD133
:100FD00030F000427FF45CAF31F000437FF43CAF6F
:100FE0005FE700BF4FF0FF3C06E000BF4FF0010C91
:100FF00002E000BF4FF0010C4DF804CD4FEA400273
:101000004FEA41037FEA226C18BF7FEA236C11D0BC
:1010100001B052EA530C18BF90EA010F58BFB2EB6F
:10102000030088BFC81738BF6FEAE17018BF40F0EF
:10103000010070477FEA226C02D15FEA402C05D1A3
:101040007FEA236CE4D15FEA412CE1D05DF8040B28
:10105000704700BF844608466146FFE70FB5FFF7BB
:10106000C9FF002848BF10F1000F0FBD4DF808ED73
:10107000FFF7F4FF0CBF012000205DF808FB00BF64
:101080004DF808EDFFF7EAFF34BF012000205DF8BE
:1010900008FB00BF4DF808EDFFF7E0FF94BF01200B
:1010A00000205DF808FB00BF4DF808EDFFF7D2FF08
:1010B00094BF012000205DF808FB00BF4DF808ED4B
:1010C000FFF7C8FF34BF012000205DF808FB00BF18
:1010D0007BB972B90029BEBF00204FF0004106E085
:1010E00008BF00281CBF6FF000414FF0FF3000F038
:1010F000B9B9ADF1080C6DE904CE002909DB002B6C
:101100001ADB00F04DF8DDF804E0DDE9022304B05D
:101110007047404261EB4101002B1BDB00F040F8BF
:10112000DDF804E0DDE9022304B0404261EB410157
:10113000524263EB43037047524263EB430300F0B8
:101140002FF8DDF804E0DDE9022304B0404261EB52
:1011500041017047524263EB430300F021F8DDF890
:1011600004E0DDE9022304B0524263EB430370471D
:1011700053B94AB9002908BF00281CBF4FF0FF31FE
:101180004FF0FF3000F06EB9ADF1080C6DE904CE00
:1011900000F006F8DDF804E0DDE9022304B0704752
:1011A0002DE9F047089E0D4604468E46002B40F080
:1011B00083808A42174647D9B2FA82F34BB1C3F112
:1011C000200105FA03FE20FA01F19F4041EA0E0ECC
:1011D0009C404FEA1748BEFBF8FC1FFA87F908FB52
:1011E0001CE20CFB09F0210C41EA024290420AD9B0
:1011F000BA180CF1FF3180F01881904240F215814D
:10120000ACF1020C3A44121AB2FBF8F008FB1022BF
:1012100000FB09F1A4B244EA0244A14209D93C19F5
:1012200000F1FF3280F00381A14240F200810238D8
:101230003C44641A002140EA0C401EB10022DC400C
:10124000C6E90042BDE8F08702B9FFDEB2FA82F3D8
:10125000002B4FD18D1A01214FEA124E1FFA82F84E
:10126000B5FBFEFC0EFB1C5508FB0CF0220C42EA01
:101270000545A84207D97D190CF1FF3202D2A842D8
:1012800000F2E98094462D1AB5FBFEF00EFB1055D6
:1012900008FB00F8A4B244EA0544A04507D93C196C
:1012A00000F1FF3202D2A04500F2D9801046A4EB33
:1012B000080440EA0C40C0E78B4208D9002E00F039
:1012C000B1800021C6E900050846BDE8F087B3FA01
:1012D00083F100294BD1AB4202D3824200F2B980A4
:1012E000841A65EB030301209E46002EAAD0C6E9AE
:1012F000004EA7E79F40C3F12002D1404FEA174EAE
:10130000B1FBFEF01FFA87F80EFB101124FA02F26F
:101310009D4000FB08FC2A43150C45EA0145AC45FD
:1013200004FA03F409D97D1900F1FF3180F08F80B0
:10133000AC4540F28C8002383D44A5EB0C05B5FB72
:10134000FEF10EFB115C01FB08F995B245EA0C4574
:10135000A94507D97D1901F1FF3274D2A94572D987
:1013600002393D44A5EB090541EA004178E7C1F1A6
:1013700020078B4022FA07FC4CEA030C25FA07F4FD
:101380004FEA1C4EB4FBFEF91FFA8CF80EFB194411
:1013900020FA07F309FB08FA8D401D432B0C43EAA2
:1013A0000444A24502FA01F200FA01F309D91CEB48
:1013B000040409F1FF3048D2A24546D9A9F1020937
:1013C0006444A4EB0A04B4FBFEF00EFB104400FBE3
:1013D00008FAADB245EA0444A24508D91CEB04045E
:1013E00000F1FF352DD2A2452BD90238644440EAE2
:1013F0000940A0FB0289A4EB0A044C45C6464D46B1
:1014000019D316D05EB1B3EB0E0264EB050404FAF7
:1014100007F722FA01F31F43CC40C6E9007400210C
:10142000BDE8F087314630460CE78C46EBE61046C7
:10143000FFE64345E6D2B8EB020E69EB0C05013836
:10144000E0E72846D3E711468CE78146B9E708462E
:1014500073E7084649E7ACF1020C3D4413E7023854
:101460003C4424E7704700BF7FB501238DF8171077
:101470004FF48031CDE901310DF1170102460091A1
:101480000348EC2104F000FC07B05DF804FB00BF4A
:10149000F00D00207FB500234FF480318DF8173018
:1014A0000123CDE901310DF11701024600910448F5
:1014B000EC2104F079FC9DF8170007B05DF804FBFF
:1014C000F00D00201FB5024602234FF4803000913A
:1014D000CDE90130EC210123024804F065FC05B0A0
:1014E0005DF804FBF00D00201FB5024602234FF407
:1014F00080300091CDE90130EC210123024804F055
:1015000053FC05B05DF804FBF00D00207FB502230D
:101510004FF48031CDE9013105AB02460093EC2157
:101520000123064804F040FC9DF814009DF8153096
:1015300043EA002007B05DF804FB00BFF00D002077
:101540007FB503234FF48031CDE9013105AB02466D
:101550000093EC210123084804F026FC9DF8153087
:101560009DF814001B0243EA00439DF8160018433F
:1015700007B05DF804FB00BFF00D0020FA2010B5A5
:10158000FFF7DEFFB0F5000F37D0001104461C490D
:1015900000280A88B8BFC41D0028B8BF0F30C2EBAE
:1015A000201040434FEA4203C3EBE404B1F9023098
:1015B000B1F9042048BF00F6FF70634300135043A5
:1015C000002BB8BF03F2FF730028B8BF00F57F50AF
:1015D0000C4AB8BF3F30DB1203EBA033136003EBC0
:1015E000830313F1800048BF03F27F100012FFF75E
:1015F00055FB0549FFF75AFC10BD0448FCE700BF46
:10160000CC070020300900200000C8420000C07F45
:101610002DE9F74FFFF7B2FFF720FFF791FF864B59
:10162000864E1A688646B2F5FA374FEAE273A7FB90
:10163000071243F1FF3C07FB0CF3CDE90012019ABE
:1016400002EB4303B6F90820019302FB0CF1D31718
:1016500007FB0311A2FB07230B441903019841EA7E
:1016600012514FEA0239B6F90A2002FB00FA00983B
:10167000D31700FB03AAA2FB00235344002A73F1F3
:10168000000802DAFF3243F100034FEA122A4AEA65
:10169000036AF2884FEA232B1AEB09004BEB010B8C
:1016A0000030A0FB02014BF5004B02FB0B110028A0
:1016B00071F1000303DA10F1FF3041F101014A102A
:1016C000CB1752EA030100F0B480B6F910A00199DB
:1016D00000980AFB01F900994FEAEA7B01FB0B91A4
:1016E000AAFB0089B6F90E00894400FB0CFCC11767
:1016F00007FB01CCA0FB070161444FEA414C4CEAD7
:10170000D03C4704002017EB08074CEB090CC0192C
:1017100040F635474FEA2E1ECEF5801E4FEAEE7991
:10172000B6F90C804FEAC97A4FEACE714AEA5E0AEE
:101730004FEAC80E4EEB0C0C081AA0FB07016AEB2F
:101740000C0A07FB0A11FFF7C3FC002871F1000225
:10175000804689460B4606DA41F6FF70002318EBF7
:10176000000041EB0303B6F916205913400B40EA81
:10177000C34002FB01F7A2FB00ABD31700FB0377CA
:101780000AFB01F1BB4400FB0B13AAFB0001194447
:101790000B46002873F10001024606DA6FF07E4125
:1017A00042184FF0000141EB0303B6F914A0510EAB
:1017B0000AFB09F741EAC31111EB08014FEA636024
:1017C0004FEAEA7B08FB0B7340EB0900AAFB088990
:1017D0009944B8F1000F79F1000306DA184B18EBC1
:1017E00003084FF0000349EB03094FEAD84343EAEB
:1017F0004933CC184FEAE94240EB0205002C75F161
:10180000000302DAFF3445F100051022230A43EAFF
:101810000560B6F912302912C3FB0201FEF72EFE55
:101820000022084BFEF758FEFFF72EF903B0BDE883
:10183000F08F0020FAE700BF30090020CC0700201D
:10184000FFFF07000000703F10B5FFF797FEFD2077
:10185000FFF75CFEB0F5004F56D02C4A2C4BB2F986
:101860001E101B680905C1EB8031B2F92000A3F5F9
:10187000963303FB1010117F10F5804044BF00F534
:10188000FF407F30594392F9224048BF01F2FF7177
:1018900063434FEAE12148BF03F2FF3301F5004102
:1018A0009B124B4348BF03F2FF33B2F91A109B124D
:1018B00003F500134B4313F5005344BF03F57F5367
:1018C0003F339B13C013584303460028BCBF00F5A9
:1018D000FF437F33DB135B43127E48BF7F33DB1153
:1018E000534348BF0F33A0EB231020EAE070B0F160
:1018F000C85FA8BF4FF0C8500013FFF7CBF94FF0F7
:101900006A51FFF71FFA10BD0248FCE7CC07002020
:10191000300900200000C07FD02038B5FFF7BAFDA5
:10192000602840F0B180B621E020FFF79DFDF32054
:10193000FFF7B0FDC307FAD4544C88202146FFF7C7
:10194000C1FDA11C8A20FFF7CFFD211D8C20FFF7D0
:10195000CBFDA11D8E20FFF7B5FD04F108019020FD
:10196000FFF7C2FD04F10A019220FFF7BDFD04F16B
:101970000C019420FFF7B8FD04F10E019620FFF74B
:10198000B3FD04F110019820FFF7AEFD04F1120140
:101990009A20FFF7A9FD04F114019C20FFF7A4FD94
:1019A00004F116019E20FFF79FFDA120FFF772FDB5
:1019B00004F11A012076E120FFF796FDE320FFF7FE
:1019C00069FD2077E420FFF765FD0546E520FFF778
:1019D00061FD00F00F0343EA0510E083E620FFF706
:1019E00059FD0546E520FFF755FDC0F3071343EA0F
:1019F00005102084E720FFF74DFD84F82200F52034
:101A0000FFF748FD00F01F0141F0A001F520FFF7AE
:101A10002BFDF520FFF73EFD00F0E30141F008014A
:101A2000F520FFF721FDF420FFF734FD00F01F0142
:101A300041F06001F420FFF717FDF420FFF72AFDC5
:101A400000F0E30141F00C01F420FFF70DFDF2205E
:101A5000FFF720FD00F0F80141F00301F220FFF74D
:101A600003FDF420FFF716FD0146F420FFF7FCFC10
:101A7000F420FFF70FFDBDE8384000F0FC0141F015
:101A80000301F420FFF7F0BC38BD00BFCC070020F5
:101A900008B504224FF47060084902F09DFD04224D
:101AA0004FF4A060064902F097FDBDE8084004220B
:101AB0004FF48070034902F08FBD00BF7C0400200A
:101AC000800400207803002008B58021002002F067
:101AD00017FD002002F0E6FCFFF7DAFFBDE8084042
:101AE00006224FF41060014902F076BD340900204F
:101AF00008B58021002002F003FD002002F0D2FC96
:101B0000BDE8084006224FF41060014902F064BDB0
:101B10003409002070B5094B094E0A4C1E600A4E6C
:101B20000A4D002808BF3046002918BF0C46084E51
:101B30002C60306002B11A6070BD00BF0C00002044
:101B4000F11A0008C91A0008911A000810000020B4
:101B50000800002007B5062269464FF4106002F025
:101B600001FD204B204A1B681A60204A1268110EA2
:101B70001971110C5971110A9971DA7100214FF420
:101B80000002C3E902211A4AC3E9041110789961DD
:101B900018775078587790789877D078D8771079E8
:101BA000527983F8200083F8212003F12C0003F1FF
:101BB000220202F8011B8242FBD1002003F16C01DA
:101BC00002F8010B8A42FBD1002003F1EC0102F87C
:101BD000010B9142FBD1074AC3F8EC2003B05DF83A
:101BE00004FB00BF48090020010106003C09002059
:101BF00034090020638253631FB5FFF7ABFF2D4B01
:101C0000002219682C4B8A72C1F8F03040F2071399
:101C1000A1F8F430294BCA72187881F8F600587888
:101C200081F8F700987881F8F800D87881F8F90001
:101C300018795B7981F8FA0081F8FB3040F2324381
:101C4000A1F8FC301E4B187881F8FE00587881F816
:101C5000FF009878DB7881F8000181F8013140F2CB
:101C60003643A1F80231174B187881F804015878EF
:101C700081F80501987881F80601DB7801F5097093
:101C800081F80731FF2381F8083101F2091303F8C5
:101C9000012B8342FBD14FF0FF33039343230A48C8
:101CA00000934FF4097203AB007801F0B3FE05B066
:101CB0005DF804FB480900203501043D340900208B
:101CC0007C040020440900204C0900202DE9F04F3D
:101CD000AC4D8BB0287802F0DAFC024618B900202F
:101CE0000BB0BDE8F08F0DF11E03A74C00932168E7
:101CF00008AB287801F03EFFBDF81E30432B40F0C2
:101D00003E812268A14B147F19788C42E7D1547F21
:101D100059788C42E3D1947F99788C42DFD1D47F7B
:101D2000D9788C42DBD192F8204019798C42D6D1F7
:101D300092F821105B799942D1D1954B9DF8209072
:101D40001F785E789D78DC7847EA060129432143B5
:101D50009A4620D04F450BD19DF82130B34207D190
:101D60009DF82230AB4203D19DF82330A34212D01C
:101D7000884B19784945B2D19DF8214059788C4259
:101D8000ADD19DF8224099788C42A8D19DF82310BE
:101D9000DB789942A3D180B202F1F0030244002023
:101DA00002929DF821207B4903929DF822207A4CD3
:101DB00004929DF82320794D794E7A4F0592029A2C
:101DC000934201D340B28BE793F800C0BCF1330FCC
:101DD00000F08C800BD8BCF1060F13D8BCF1060FB5
:101DE00010D8DFE80CF01D220F34700F5D00BCF13D
:101DF000E00F41D00BD8BCF1350F13D0BCF1360F3A
:101E000000F0888003F1020C5B786344D7E7BCF1F3
:101E1000E10F00F09880BCF1FF0FF3D1029BCEE7F9
:101E20000133CCE798780333C9E793F802C087F809
:101E300000C093F803C087F801C093F804C087F886
:101E400002C093F805C087F803C00633B7E793F8DC
:101E500002E093F801C086F800E093F803E086F80A
:101E600001E093F804E086F802E093F805E086F8D4
:101E700003E063440233A2E793F802E04A4A93F88E
:101E800001C082F800E093F803E082F801E093F8E3
:101E900004E082F802E093F805E082F803E0E8E766
:101EA00093F802E093F801C085F800E093F803E0AE
:101EB00085F801E093F804E085F802E093F805E086
:101EC00085F803E0D5E793F802E093F801C084F8C1
:101ED00000E093F803E084F801E093F804E084F86C
:101EE00002E093F805E084F803E0C2E793F802C04B
:101EF0002E4AC2F800C093F803E00EEB0C2C93F8C6
:101F000004E00EEB0C2E93F805C00CEB0E2CC2F87F
:101F100000C09AE793F802C0039A8AF800C093F8C9
:101F200003C081F800908AF801C093F804C04A7099
:101F3000049A8AF802C093F805C08A70059A8AF854
:101F400003C0CA7081E79A1C964693F801C0C3F19A
:101F5000FF2303F57F03DFF85880FE330EEB030BFE
:101F6000DC4507DC13464FF0000E114A634402F8CB
:101F70000CE024E71EF801BB08F801BBEEE70020E7
:101F800020E700BF4C090020480900203409002048
:101F9000440900204009002084040020740300202C
:101FA0007803002080040020880400201400002012
:101FB0007C03002037B54FF4D85002F073FA0321A8
:101FC00005464FF4D85002F09BFA41F288330E4890
:101FD000009311220D4B0E49007801F01BFD0446C1
:101FE00029464FF4D85002F08BFA0D340AD0FFF78F
:101FF00003FE084B19681A68521A012AFBD90020FF
:1020000003B030BD0120FBE74C0900207C04002018
:10201000F8A800089404002000230A21034A136052
:10202000034A1160034A1370704700BF94040020F4
:102030001800002090040020002373B5244C0622D1
:1020400006460D464FF410602146019302F08AFACD
:10205000627823781343A2781343E27813432279FA
:102060001343627913430DD108226270DC222146AA
:10207000A2704FF4106006222370E3702371637125
:1020800002F0AAFA134B20791E70134BE1781D6001
:10209000124B62790C182344414013444A401344C4
:1020A0000F4A4FF47060136004220DEB020102F03E
:1020B00093FA04224FF480700DEB020102F08CFAC7
:1020C000FFF7AAFF0022074B1A7002B070BD00BFD5
:1020D000340900204C0900204809002078563412A9
:1020E0003C09002091040020024A13680133136068
:1020F000704700BF94040020044B1A7802705A788D
:1021000042709A788270DB78C37070477C0400203C
:10211000044B1A7802705A7842709A788270DB7891
:10212000C370704778030020044B1A7802705A7805
:1021300042709A788270DB78C37070478804002000
:10214000054A431EFE30117803F8011F12F8011BE7
:1021500009B18342F7D170477C030020044B1A7801
:1021600002705A7842709A788270DB78C370704738
:1021700080040020044B1A7802705A7842709A78D2
:102180008270DB78C37070478404002000F00F0079
:10219000092894BF30303730704700002DE9F043F4
:1021A00085B0FFF7D7FC0023694A6A481370537063
:1021B0009370D370684A137053709370D370674BE9
:1021C0001968674BC1F8F03040F20713A1F8F430FA
:1021D000644B1A7893F8038081F8F6205A781F79B7
:1021E0005E7981F8F7209A780C23A1F8FC3012234D
:1021F00081F8F82081F8F98081F8FA7081F8FB60A5
:10220000A3F1120292B2845C5D1CADB201EB030932
:10221000002C40F093804FEA1810FFF7B7FF89F8C1
:10222000EC004046FFF7B2FF0D4485F8EC0038099A
:10223000FFF7ACFF9D1CADB20D4485F8EC003846AD
:10224000FFF7A4FFDD1CADB20D4485F8EC003009AA
:10225000FFF79CFF1D1DADB20D4485F8EC00304624
:10226000FFF794FF5D1DADB20D4485F8EC00981D9D
:1022700080B2D51D451B06320D4485F8EC2037226F
:10228000084480F8EC200820DA1D92B20A4482F853
:10229000EC001A18012092B20A4482F8EC000320E4
:1022A00003F1090292B20A4482F8EC00062003F11D
:1022B0000A0292B20A4482F8EC000F2003F10B02EA
:1022C00092B20A4482F8EC003A2003F10C0292B276
:1022D0000A4482F8EC003B2003F10D0292B20A445A
:1022E00082F8EC00E02003F10E0292B20A4482F878
:1022F000EC00E12003F10F0292B20A4482F8EC00F4
:10230000FF2003F1110210339BB20B4492B283F809
:10231000EC0002F1EC030B44B2F59C7F12D34FF0BA
:10232000FF3303934323104800934FF4097203AB28
:10233000007801F06FFB05B0BDE8F0832B4689F80B
:10234000EC405DE7013203F8014B92B2E4E700BFD5
:102350004409002000000020400900204809002016
:102360003501013D340900204C0900202DE9F043DE
:1023700085B0FFF7EFFB924B92491B78033B012B93
:1023800000F2108100220B689A72DA728E4A10787D
:102390001873507858739078D2789873DA738B4B9F
:1023A0001A788DF80C205A788DF80D209A78DB7801
:1023B0008DF80E208DF80F300968854BC1F8F0308C
:1023C00040F20713A1F8F430824B1A78DF7881F8D5
:1023D000F6205A781E7993F8058081F8F7209A78CC
:1023E0009DF80F3081F8F820FF2B81F8F97081F803
:1023F000FA6081F8FB8040F0D98040F23243A1F8C6
:10240000FC30714B1A7881F8FE205A7881F8FF2051
:102410009A78DB7881F8002181F8013140F2364367
:10242000A1F80231694B1A7881F804215A7881F8B1
:1024300005219A78DB7881F806211C2281F8073182
:102440000C208B1883F8EC00931C013288180022B2
:1024500080F8EC20604810F8015B5C1CA4B201EB32
:102460000309002D40F0A4803809FFF78FFE89F89A
:10247000EC003846FFF78AFE0C4484F8EC00300983
:10248000FFF784FE9C1CA4B20C4484F8EC00304698
:10249000FFF77CFEDC1CA4B20C4484F8EC004FEA8D
:1024A0001810FFF773FE1C1DA4B20C4484F8EC0056
:1024B0004046FFF76BFE5C1DA4B20C4484F8EC00B0
:1024C000981D80B2D41D041B06320C4484F8EC2005
:1024D0003722084480F8EC200A20DA1D92B20A4420
:1024E00082F8EC00012003F1080292B20A4482F85B
:1024F000EC00032003F1090292B20A4482F8EC00D6
:10250000062003F10A0292B20A4482F8EC000F207E
:1025100003F10B0292B20A4482F8EC003A2003F174
:102520000C0292B20A4482F8EC003B2003F10D0247
:1025300092B20A4482F8EC001F2003F10E0292B21C
:102540000A4482F8EC00212003F10F0292B20A44FF
:1025500082F8EC00E02003F1100292B20A4482F803
:10256000EC00E12003F1110292B20A4482F8EC007F
:10257000FF2003F1120292B20A44133382F8EC00F6
:102580009BB201F1EC02B3F59C7F16DB43231348A9
:1025900000934FF4097203AB007801F03BFA05B0E9
:1025A000BDE8F0834FF0FF33039305E7102247E7C0
:1025B000234689F8EC5001324DE7D5540133E2E768
:1025C00091040020480900207C04002044090020D8
:1025D0003501033D34090020000000204C09002093
:1025E00070B51C4C94F90030012B1DDC1A4D1B4EAC
:1025F0002A683168914212D2194B93F90030022BAC
:102600000FD0042B0DD0012B01D1FFF7C7FD002304
:102610002B602B680A333360237801332370012049
:1026200010E0FFF7A3FEF2E70D4B93F900201C46E4
:10263000022A08D0042A06D0012A09D100201870E5
:10264000FFF7EAFC70BDFFF7A9FD01202070F7E756
:102650000120F5E7900400209404002018000020D9
:102660009104002038B5524C94F90030062B00F04C
:102670009C80504D2878400100F5427001F012FF17
:10268000222805D0002344220221287801F030F9C5
:10269000FFF71CFB94F90030C5B2042B31D8DFE8FA
:1026A00003F0030E233D5A000022434B1A705A7068
:1026B0009A70DA70FFF772FD0120207038BD022D8C
:1026C0000ED13E4B1A683C4B117C1970517C5970ED
:1026D000917CD27C9970DA70FFF748FE257010E08B
:1026E000BDE83840FFF77CBF052D12D1FFF762FC33
:1026F000054640B1324B1B689847FFF78DFC03231A
:1027000023700120DAE7FFF787FC2E4B1B68984700
:10271000E4E7062DE4D1FFF77FFCCDE72A4B1B68E9
:102720005A1C40D0294A1268B2EB530F3BD9224AB7
:10273000274B11781970517859709178D278997027
:10274000DA70244A136801331360FFF70FFEFFF7B6
:1027500063FC0420B1E7052D1FD100221E4B1A7027
:102760001B4A154B1078197888420BD1507859784C
:10277000884207D190789978884203D1D278DB7863
:102780009A4208D0154B1B6898470320FFF744FC7A
:102790000323237092E70420F8E7062DA0D1FFF76A
:1027A0003BFC01232370042088E7052086E700BF57
:1027B000910400204C0900207C04002048090020DE
:1027C000080000200C0000201400002094040020C9
:1027D0008C0400203C090020900400201000002000
:1027E0000122014B1A7070476C05002070470000F1
:1027F00000224FF48051014802F00CBE000C014051
:1028000001224FF48051014802F004BE000C014047
:102810000A464FF0FF330146014804F05CBC00BF9C
:10282000500D002007B501210DF10700FFF7F0FF63
:102830009DF8070003B05DF804FB00000A464FF066
:10284000FF330146014804F0AABA00BF500D002032
:1028500007B501218DF807000DF10700FFF7EEFF26
:1028600003B05DF804FB00001FB50023642102469D
:10287000CDE901310093C4210223034803F004FA97
:1028800005B05DF804FB00BFF00D002073B52D49C5
:102890002D4801F0A3FF2D492D4801F0B1FF2D492E
:1028A0002D4801F0C5FF6B462C4A2D4D106851682C
:1028B00042F2117403C36946084602F00EF806227C
:1028C0004FF41060274901F087FE00202649FFF7EA
:1028D000B3FB2649264A0846FFF71CF92E462B78FB
:1028E0000BB9013C24D1337803B31E4CA01DFFF774
:1028F00003FC04F10E00FFF70BFC04F10A00FFF7E4
:102900002DFC04F11A00FFF70FFC04F11E00FFF785
:1029100017FC04F11600FFF72DFCA37F73B91549CE
:10292000154805F037FE0F4802F014F802B070BDEC
:10293000FFF798FE642002F0A9F8D0E704F11E0129
:10294000EEE700BF01280008F12700085128000821
:10295000252800083D2800081128000817A90008AC
:102960006C0500201D00002050090020E127000810
:10297000ED2700080AA900083008002010B5044619
:10298000FFF772FF43F686739C4205D1BDE8104005
:102990004FF4FA7002F07AB810BD0000F0B50023D1
:1029A000642714460D460A4E85B00246CDE901372C
:1029B0000093C4210223304603F066F92A46C4215D
:1029C00030460097A3B202F0BBFF204605B0F0BD31
:1029D000F00D00201FB500230446092201A943F28F
:1029E0008260CDE901338DF80C30FFF7D7FF9DF8F9
:1029F00004209DF8053043EA022323809DF8072038
:102A00009DF8083043EA022363809DF80A209DF870
:102A10000B3043EA0223A380A0F109035842584136
:102A200004B010BD1FB50023044601A909224EF6CB
:102A30000540CDE901338DF80C30FFF7AFFF9DF86D
:102A400004209DF80530BDF8070043EA022340BA90
:102A5000238080B2FEF722F90D49FEF773F94FF09B
:102A60005E51FEF76FF90B49FEF762F86060BDF842
:102A70000A0040BA80B2FEF711F90749FEF762F981
:102A80004FF05E51FEF75EF9A06004B010BD00BFCC
:102A900000002F43000034420000C84230B5142229
:102AA0000024102595B021460DEB0200CDE90B4422
:102AB0000D9405F031F82A46214601A805F02CF8BE
:102AC0000A230A930123CDE90E35109302254FF412
:102AD00060130AA8CDE91154139303F0D7FA08B193
:102AE00072B6FEE70F23CDE905354FF480630790FA
:102AF000CDE90830294605A803F09EFC08B172B65E
:102B0000FEE74FF400730322CDE901234FF4404365
:102B100001A8039303F04CFD08B172B6FEE715B0AF
:102B200030BD0000000000002DE98048AB4F9DB093
:102B300001F088FFFFF7B2FF1022002114A804F073
:102B4000EBFFBB69002243F00403BB61BB694FF498
:102B5000805103F004030593059BBB69A04843F033
:102B60000803BB61BB69012503F008030693069BBC
:102B700002F050FC00224FF411419A4802F04AFC46
:102B80004FF0400E00244FF003084FF48056964B50
:102B9000944814A9CDE914E3169502F05FFB904820
:102BA00014A9CDE91648CDE9146502F057FB4FF49E
:102BB0000143CDE9143502238A4814A917931694CA
:102BC00002F04CFB874814A9CDE91648CDE91465FD
:102BD00002F044FB22462146172002F0CFF91720CD
:102BE00002F0FEF97B6922462B437B617B6921461B
:102BF0002B400B200493049B02F0C0F90B2002F041
:102C0000EFF90C274FF4E1337848DFF81882C0E978
:102C10000244C0E90083C0E905740461C46104F0A2
:102C2000BDFE034608B172B6FEE749F640484FF4D0
:102C300080446F486F4AC0E90233C0E90443C0E9E9
:102C400006330362C0E9002802F0D2FD034608B152
:102C500072B6FEE74FF482726748DFF8CCC1C0E974
:102C60000233C0E900C24FF40072C0E90433C0E986
:102C70000623C0E9083383620A23C36204F037F8ED
:102C800008B172B6FEE74FF005095C485C4BC0E93D
:102C9000003940F6FF73836003F0C4F9034608B1BE
:102CA00072B6FEE75748584AC0E90233C0E9044308
:102CB000C0E906330362C0E9002802F099FD03462B
:102CC00008B172B6FEE74FF416525048504CC0E9B6
:102CD0000233C0E90042C0E90437C0E9063304F01A
:102CE0005DFE08B172B6FEE74A4C4B4BCDE91400CD
:102CF00023604FF460231690A060207320756060FD
:102D00002046E361256102F07DF808B172B6FEE766
:102D1000204614A9CDE91495169501F005FF044647
:102D200008B172B6FEE70146102209A804F0F4FECD
:102D30001C2221460DA8CDE9074404F0EDFE202217
:102D4000214614A804F0E8FE344D354B2846C5E969
:102D500000394FF6FF73C5E903348023AC606C6122
:102D6000AB6104F0EBFB08B172B6FEE7284609A997
:102D7000099604F0C6FC08B172B6FEE7274804F0D5
:102D800009FC08B172B6FEE7402307A9CDE9073078
:102D9000224804F04BFD024608B172B6FEE7302728
:102DA000CDE90F00CDE90D70CDE9110013900DA90B
:102DB0001A4804F075FC08B172B6FEE74FF40053F0
:102DC000CDE91400CDE9160018901B9014A9134802
:102DD000199304F059FD48B372B6FEE700100240A3
:102DE000000C01400008014000001110BC1200203E
:102DF000F00D002000540040500D0020440E002033
:102E000000300040500E002000580040A013002069
:102E100000440040F807002000240140581300201F
:102E2000002C014000380140003800404FF0FF33D3
:102E30004FF480761F4820498660C0E9001303F0F4
:102E40007DFE054608B172B6FEE71022014614A8C1
:102E500004F062FE1423194C194A2046C4E90023E9
:102E60004FF6FF73C4E903358023CDE90D55A56006
:102E7000A36104F063FB08B172B6FEE74FF480581B
:102E8000204614A9CDF8508004F03BFC08B172B67E
:102E9000FEE70821204604F0A9FB08B172B6FEE760
:102EA000CDE90D700DA9204604F0C0FC054648B1DF
:102EB00072B6FEE74413002000280040A80D002051
:102EC00000080040CC4C01F049F82946284601F0A2
:102ED00025F894E806000123C84801F00BF800F03B
:102EE00085FF43F68670CDE91455FFF747FD4FF493
:102EF000FA7001F0CBFD14A8FFF76CFDBDF854305B
:102F0000BDF85020BE490093BE48BDF8523005F0D0
:102F100021FB4FF47A73C822BA49BB4804F06CFD18
:102F20004FF4FA7001F0B2FD42F2B110FFF726FD46
:102F300001F014F82946284600F0F0FF94E8060056
:102F40000123B24800F0D6FF00F050FF2A46314678
:102F5000AF4802F05FFA01223146AD4802F05AFA5A
:102F600001224146AB4802F055FA4FF4FA6001F0F5
:102F70008DFDFFF78BFCA84B9B7D002B40F0B581AE
:102F80001C22A64BA64900200FF25C29D9E9008932
:102F900000F00EFA0921002000F0C0FF94E80600BE
:102FA0000123A04800F0A6FF00F020FFFEF7B4FCCC
:102FB0001221002000F0B2FF94E8060001239A4895
:102FC00000F098FF00F012FF984804F093F901F028
:102FD00057FD974B974D18604FF47A73DFF8B0A206
:102FE0002B6001F04DFD944E3368C01A2B68984257
:102FF00022D901F045FD914F30603E88002E00F04F
:1030000078818F4B1E8041F2883378682B60FDF702
:103010000BFACDE90201B868FDF706FA3246CDE9B0
:1030200000018849774805F095FA4FF47A73C82271
:103030007449754804F0E0FC01F022FD824E3368CB
:10304000C01AB0F57A7F40F22C8101F019FD306092
:10305000FEF794FADFF83CB27C4FCBF80000FEF7A5
:10306000D7FA5146FDF76EFE3860FEF7EDFB784E5D
:103070003060002000F0AAFEDBF80000FDF7D4F974
:1030800002460B467348744905F064FA002108466D
:1030900000F044FF94E8060001236E4800F02AFF88
:1030A0003868FDF7C1F902460B466A486B4905F0DE
:1030B00051FA0821002000F031FF94E806000123B6
:1030C000644800F017FF3068FDF7AEF902460B4682
:1030D0006048634905F03EFA1021002000F01EFF11
:1030E00094E8060001235B4800F004FF5348FFF713
:1030F00099FC534B5B491A88564805F02BFA182166
:10310000002000F00BFF94E806000123514800F076
:10311000F1FE554B55491A884E4805F01BFA544E9E
:103120000021362000F0FAFE94E806000123494809
:1031300000F0E0FE3068FDF777F902460B4645489F
:103140004C4905F007FA0821362000F0E7FE94E824
:10315000060001233F4800F0CDFE3068FDF764F91A
:1031600023A3D3E90023FDF7B7F902460B463948FC
:10317000414905F0EFF91021362000F0CFFE94E828
:1031800006000123334800F0B5FE3C4B3C4E188846
:10319000FDF738F942464B46FDF79EF902460B46CD
:1031A0002C48384905F0D6F91821362000F0B6FE33
:1031B00094E806000123274800F09CFE00223146D7
:1031C000314803F0E7FB737832783049214805F045
:1031D000C1F90021612000F0A1FE94E8060001235E
:1031E0001C4800F087FE57E046B6F3FDD478D93F7F
:1031F00033333333333323404401002020A9000804
:103200002CA9000898040020BC12002043A9000843
:1032100000080140000C01401D000020BC0E0020F1
:103220003B0100204DA900085AA9000858130020AE
:1032300068050020C4070020F0070020E8130020E4
:10324000E413002062A90008F4070020C80700204A
:103250002C080020AC0E002078A900087FA90008E7
:1032600086A900088DA900086005002094A900081F
:103270006405002099A90008A1A90008C007002042
:1032800074050020A9A9000844130020AFA9000874
:10329000E8C7F53BBC07002000F0A8FD164802F087
:1032A000E8FE01F0EDFB154E3368C01A144B98424E
:1032B000144B03D81A78002A3FF493AE00221A70F8
:1032C00001F0DEFB3060104E0F4800F04FFA01288D
:1032D000FAD10E49337900220B7073790C484B7088
:1032E000B3798B7003F005FB7BE61C22094B0A497E
:1032F00049E64FF47A7388E6440E002070050020FA
:1033000080EE36001C000020A40E00207405002072
:1033100044130020BC0E0020330000204028F8B5E4
:1033200039D11D4D2C880134A4B2B4F5617F2C80B5
:1033300024D301F0A5FB06462046FDF7AFFC174C51
:1033400007462068361A4FF47A70B6FBF0F0FDF7A6
:10335000A1FC01463846FDF7A9FD00274FF07F513B
:10336000FDF7E6FB39460646FDF78AFE0C4B80B9B1
:103370001E6000232B8001F083FB2060094801229E
:103380004FF4805102F046F8BDE8F840064803F0DB
:10339000B1BF1F60EDE7F8BD6005002068050020A3
:1033A0006405002000080140A80D002072B6FEE769
:1033B00010B5134C20700C78124804704C7844708F
:1033C0008C788470C978C1700F490A700F4A1360F5
:1033D0000F4B002243600023C0E9033303810375D0
:1033E0000023C0E90623C0E90823C0E90A2301221B
:1033F0000023C0E90C232322064B1A7010BD00BF26
:1034000036140020381400202C140020F81300205B
:1034100004000300FC1300202DE9F74F0023724A3B
:1034200007460E46FDF7A4FE4FF0000CCDE9000163
:10343000B846B146624661464FF4C87E64200FF23A
:10344000A01BDBE900ABCB4508BFC2451FFA8CF3DC
:103450005AD3009803F26C73841A01989BB260EB04
:1034600001054FF4C871B3FBF1FE01FB1E3E642160
:10347000B3FBF1F94FF0010C01FB193941F2AA5BE2
:103480000021DFF870811FFA8EFEA8F800301FFAC5
:1034900089F903F003031C2C75F100005DDA009834
:1034A00088F802C00130821A511A88F80310384691
:1034B000314600234C4AFDF75BFE15461C464FF48F
:1034C0006162002328462146FDF752FE214688F816
:1034D00004004FF4616228460023FDF749FE1546BB
:1034E0001C463C22002328462146FDF741FE21468A
:1034F00088F805003C2228460023FDF739FE88F8AD
:10350000062003B0BDE8F08F1FFA8CF303F26C7352
:1035100093FBFEFB0EFB1B3BBBF1000F08D093FBA4
:10352000F0FB00FB1B3BBBF1000F0DD09B070BD149
:103530002E4B18EB030849F1FF3912F5B77241F130
:1035400000010CF1010C7AE7294B18EB030840F25B
:103550006D1349F1FF39D218F1E7BCF10C0F2DD8EA
:103560002BFA0CFA1AF0010F07D01F3C45F1FF357A
:10357000002C75F1000092DB1F31BCF1020F1DD150
:10358000BEF1000F03D0B9F1000F0DD063B91D3C9F
:1035900045F1FF35002C75F1000080DB1D310CF189
:1035A000010C5FFA8CFC76E71C3C45F1FF35002CE2
:1035B00075F10000FFF673AF1C31F0E70CF0FD0A67
:1035C000BAF1040F02D0BAF1090FE8D11E3C45F15F
:1035D000FF35002C75F10000FFF661AF1E31DEE70C
:1035E0007F33E1010000000080510100007B1DFEDF
:1035F00080CC1EFE2E1400200023421818461946C7
:1036000030B4013312F8014BDBB20902042B41EA5A
:10361000106144EA0020F4D1484B1B78312B1ED8AE
:10362000DFE803F0192022242628282B2B2D2D2F0C
:103630002F2F31333336383A3D1D1D40404045452C
:103640004848505356595C5F6265686B6E71747779
:103650007A7D808386893A4BC01841F1FF3130BCB6
:10366000FFF7DABE374BF7E7374BF5E7374BF3E7B2
:10367000374BF1E7B0F5E140EFE7364BECE7364B7F
:10368000EAE7364BE8E7364BE6E7B0F56150E4E7AA
:10369000344BE1E7344BDFE7B0F5E150DDE7B0F55F
:1036A0006160DAE710F5616041F10001D7E710F5DC
:1036B000E150F9E742F63023C0184FF0000343EB26
:1036C0000101CCE743F23813F6E710F56150EBE760
:1036D00043F64873F0E744F25063EDE744F658537D
:1036E000EAE745F2DC03E7E745F26043E4E745F645
:1036F0006833E1E746F27023DEE710F5E140D3E7F7
:1037000047F69063D8E748F29853D5E748F6A043C8
:10371000D2E749F2A833CFE749F6B023CCE74AF223
:10372000B813C9E74AF6C003C6E74BF24C33C3E708
:103730004BF2D063C0E74CF2E043BDE72C1400200D
:103740004057FFFF5065FFFF6073FFFF687AFFFF80
:103750007081FFFF909DFFFFA0ABFFFFB0B9FFFF9F
:10376000B8C0FFFFC8CEFFFFD0D5FFFF2DE9F04363
:103770000024DFF8FC80814698F8000085B0400105
:1037800000F54270039400F08DFE47460546002880
:1037900059D022285FD198F8000000F078FF2F4E12
:1037A000054678B33828024628BF38222C4D0DF143
:1037B0000A030093296803AB92B298F8000000F066
:1037C000D9F928682821FFF717FF264B01251A8809
:1037D000A9F800209A7898F8000089F80220DA7891
:1037E000348089F803201A7989F804205A7989F8F5
:1037F00005209B7989F8063000F03CF8284605B092
:10380000BDE8F0834FF6FF723388934215D063B959
:103810007B2300933022144B1449387800F0FAF8D7
:103820003388002501333380E8E7C3EB0312C3EB91
:1038300002339BB2102BE1D8EAE7308098F8000001
:1038400000F018F8DAE703467B22022198F800001E
:1038500000F04EF8D2E72546D0E700BF78050020FB
:10386000F81300202E14002038140020FC13002030
:10387000361400200828F8B504462DD8470107F172
:10388000080607F584771021384600F039FE3846DF
:1038900000F008FE05460028F9D11F2106F500704A
:1038A00000F02EFE0123A340DB430D491BB20A8822
:1038B00006F540761A400A800A4A11880B401380A8
:1038C000094B23F81450094B1D55304600F0EAFD12
:1038D0000028FAD10120F8BD4FF0FF30FBE700BF10
:1038E0007A0500207C050020860500207E0500204A
:1038F00008282DE9F3410446884617461D467CD822
:10390000012905D08B1E022B10D96FF004000AE0AC
:1039100004224FF470600DEB020100F023FE019BC6
:1039200023B96FF0020002B0BDE8F081680757D4F8
:103930002DB1B8F1010F50D0B8F1020F53D020468D
:103940006601FFF797FF083625F00F01304641EA80
:10395000080100F0D5FD6FB94FF6F071284A1788BD
:103960007B1C9BB28B4205BF4FF440434FF6EF7771
:1039700013801380390A06F5806000F0C1FDF9B2AA
:1039800006F5A06006F5807700F0BAFD0121384603
:1039900000F0B6FD384600F085FD0028FAD101237D
:1039A000A340DB4317491BB20A8805F001051A4002
:1039B000A5401543144A0D80118806F540760B404A
:1039C0001380124B23F81400114B1855304600F0A9
:1039D00069FD0028FAD060B2A5E715F0210FAED13D
:1039E0006FF005009FE7A9066BB201D5002BF7DA4F
:1039F000EA06A4D5002BA2DBF2E74FF0FF3092E7F6
:103A0000400100207A0500207C050020860500206A
:103A10007E0500202DE9F84F082806468846144602
:103A20001F46BDF828A000F29780450108352846BA
:103A300000F038FD00F00F000238022800F28F80FD
:103A4000002C00F08F803B787A7802EB0322BB7861
:103A500003EB0222FB7803EB0223002B3CD0BAF1EC
:103A6000000F41D005F54079484600F01BFD422883
:103A700042D10422394605F5406000F0ADFD4FEA21
:103A80001A2105F5805000F03BFD5FFA8AF105F53B
:103A9000885000F035FD05F5F85000F003FD800278
:103AA00080B24FF0010A844228BF0446DFF8C0B05C
:103AB0000AFA06FA304600F0C9FD0746484600F00B
:103AC000F1FC002851D0BBF8003013EA0A0F1AD0DD
:103AD000BC421AD9002034E0284600F0E3FC40073D
:103AE000BDD46FF00B002CE0284600F0DBFC410752
:103AF000B8D46FF00A0024E000F0EF002228B8D01C
:103B00006FF006001DE0BC42D4D830464146224644
:103B100005F5807600F0DCFD2021304600F0F0FC59
:103B2000304600F0BFFC0028FAD105F500752846A4
:103B300000F0B8FCC20606D52846102100F0E0FCD3
:103B40002046BDE8F88F0307F1D52846082100F08C
:103B5000D7FC6FF00C00F4E74FF0FF30F1E76FF0A7
:103B60000400EEE76FF00D00EBE76FF00300E8E70D
:103B70007A0500202DE9F04F082804468A46914630
:103B8000984685B000F2E88047010837384600F0D3
:103B900089FC00F00F02023A022A834600F2DF801D
:103BA000B9F1000F00F0DE80714E36F81420002AC3
:103BB0007AD1012107F54073A1400093204601917D
:103BC00000F065FD0546009800F06CFC002800F050
:103BD000CC80684B01991A880A4202D01DB9284648
:103BE00089E0002DEAD00BF00700032807F5807765
:103BF00000F08480042859D0022840F0A68036F8CE
:103C000014308BBB082220460DEB020100F08DFD25
:103C10004021384600F074FC384600F043FC002890
:103C2000FAD19DF808309DF80C2088F800309DF8F6
:103C3000093088F801309DF80A3088F802309DF884
:103C40000B3088F803309DF80D3003EB02230E9AF9
:103C500013809DF80E209DF80F3003EB022326F809
:103C600014308022444B1A5536F8145051464D45B5
:103C700028BF4D4620462A4600F057FD40213846D1
:103C800000F03EFC384600F00DFC0028FAD136F872
:103C90001430394A5B1B9BB226F8143013B1105D07
:103CA00040F0010010559AE700259CE736F81430E3
:103CB000002BD9D1204602A9022200F036FD402176
:103CC000384600F01DFC384600F0ECFB0028FAD125
:103CD0009DF809309DF80820023B03EB022340F2D7
:103CE000EA529BB2934226F81430BAD92046FFF725
:103CF000C1FD6FF47A7005B0BDE8F08F36F814306E
:103D0000002BB1D1204602A9062200F00EFD402171
:103D1000384600F0F5FB384600F0C4FB0028FAD125
:103D20009DF808309DF80C2088F800309DF8093087
:103D300088F801309DF80A3088F802309DF80B3081
:103D400088F803309DF80D3087E72946204600F0BB
:103D500019FD26F8145091E74FF0FF30CBE76FF0D4
:103D60000400C8E76FF00D00C5E76FF00300C2E77D
:103D7000860500207A0500207E0500207FB50123FE
:103D80004FF0FF32CDE901320DF117028DF8170027
:103D9000009278210022034801F076FF07B05DF819
:103DA00004FB00BFF00D00201FB54FF0FF3389B2B8
:103DB000CDE900010293402201237821024801F05D
:103DC00063FF05B05DF804FBF00D002000230649F9
:103DD000021E18BF012201335242B3F5007F01F8E1
:103DE000012BF5D1704700BF9C05002038B5B024E9
:103DF0000A4D2046FFF7C2FF0020FFF7BFFF013446
:103E00001020FFF7BBFFE4B228468021FFF7CCFF6C
:103E1000B42C05F18005ECD138BD00BF9C05002015
:103E2000030630B511D41F290FD80124CB08074D44
:103E300000EBC31001F007012B5604FA01F149B25F
:103E4000A2420CBF0B438B432B5430BD9C0500207A
:103E50002DE9F04F0546A5F120041F4687B0E3B2D7
:103E600006A85E2B00E906003FD8214B9DF810B054
:103E70001A88029300925A44802A019235DC9DF8F8
:103E80001190598801EB0902202A2EDC4FF000081E
:103E900009FB04F45FFA81FA6400C14506D8DDE944
:103EA00001231A80284607B0BDE8F08F0026059A46
:103EB000135B0393B34507D80AF1010108F1010828
:103EC00002345FFA81FAE8E7009B5146F018039B41
:103ED000C0B203FA06F2130456BFB7FA87F23A46A5
:103EE0005209FFF79DFF0136E4E70025DAE700BF3E
:103EF0009605002073B56D461E4685E80600441EF3
:103F000014F8010F40B195E806003346FFF7A0FF13
:103F1000034620788342F3D002B070BD014B188075
:103F2000598070479605002010B504468120FFF7A0
:103F300025FF2046BDE81040FFF720BF02460028BD
:103F400003460CBF13460123034A14BFAF20AE2023
:103F50005371FFF713BF00BF9605002008B564201A
:103F600000F094FD0020FFF7E9FF2020FFF706FF97
:103F70000020FFF703FFB020FFF700FFC820FFF786
:103F8000FDFE0020FFF7FAFE1020FFF7F7FE4020AD
:103F9000FFF7F4FEFF20FFF7C7FFA120FFF7EEFEBB
:103FA000A620FFF7EBFEA820FFF7E8FE1F20FFF793
:103FB000E5FEA420FFF7E2FED320FFF7DFFE00209E
:103FC000FFF7DCFED520FFF7D9FEF020FFF7D6FE85
:103FD000D920FFF7D3FE2220FFF7D0FEDA20FFF72B
:103FE000CDFE0220FFF7CAFEDB20FFF7C7FE202030
:103FF000FFF7C4FE8D20FFF7C1FE1420FFF7BEFEC1
:104000008120FFF7BBFE0420FFF7B8FE0120FFF779
:1040100095FF0020FFF7DAFEFFF7E8FE0022034BD2
:104020001A805A8001221A7108BD00BF960500202F
:104030000E4B82B09A6942F001029A619A6902F0CD
:1040400001020092009ADA6942F08052DA61DB697B
:10405000074A03F080530193019B536823F0E06308
:1040600043F08063536002B0704700BF001002400D
:104070000000014030B5054687B01022002102A89B
:1040800003F04AFD2A681C4B9A4232D103F56C4377
:104090009A691A4842F400729A619A6902A902F474
:1040A00000720092009A9A69154C42F004029A61DB
:1040B0009B69202203F004030193019B0323CDE9B4
:1040C000022301F0CBF84FF480704FF4806200239C
:1040D0000C49C4E904022046C4E90013C4E90233D0
:1040E000C4E9063300F0A0FF08B1FFF75FF92C62C6
:1040F000656207B030BD00BF0024014000080140E8
:104100000013002008000240102210B5044688B0B9
:104110000DEB0200002103F0FFFC2368254A9342C7
:1041200026D1254C4FF44071A369244843F008037D
:10413000A361A36903F008030093009B1223CDE958
:104140000413032304A9079301F088F81C4A536859
:1041500043F0E06343F002035360E36943F4001368
:10416000E361E36903F400130193019B08B010BD00
:10417000144A9342FAD1104C4FF44062A3690F489D
:1041800043F00803A361A36904A903F008030293A1
:10419000029B1223CDE904230323079301F05EF869
:1041A000E36943F48003E361E36903F48003039369
:1041B000039BDBE70054004000100240000C01406C
:1041C000000001400058004007B50B4B02689A42BE
:1041D0000ED101F055FF094BDA6942F00062DA6155
:1041E0000122DB6903F000630193019B044B1A6019
:1041F00003B05DF804FB00BF00280040001002403F
:104200003C04424210B5044686B01022002102A8A8
:1042100003F082FC2268174B9A4228D103F5EC3355
:10422000DA69154842F48042DA61DA6902A902F4D7
:1042300080420092009A9A6942F008029A619B6952
:104240004FF4204203F008030193019B0223CDE9C0
:1042500002230323059301F001F84FF4804100236A
:104260000548CDE9021302A9049300F0F7FF06B058
:1042700010BD00BF00380040000C014007B50368C6
:10428000174A934214D1174B19209A6942F40062DD
:104290009A6100229B69114603F400630093009B1E
:1042A00000F06CFE192003B05DF804EB00F098BE3E
:1042B0000D4A934210D10B4B1E20DA6942F00402E2
:1042C000DA610022DB69114603F004030193019BCC
:1042D00000F054FE1E20E6E703B05DF804FB00BFCB
:1042E000002C01400010024000080040102210B5D0
:1042F000044688B00DEB0200002103F00DFC23689A
:104300002D4A93422ED12D4B40209A6904A942F4A4
:1043100080429A619A69802402F480420092009A55
:104320009A6942F008029A619B6903F008030193BD
:10433000019B0223CDE9040303232148079300F0E6
:104340008DFF00231E4804A9CDE90443069300F025
:1043500085FF1C4A536843F0E06343F00403536055
:1043600008B010BD184A9342FAD1144B04A9DA6977
:10437000164842F40032DA61DA6902F4003202923D
:10438000029A9A6942F004029A619B69042203F03E
:1043900004030393039B0223CDE904230323079320
:1043A00000F05CFF002308210848CDE9041304A9AC
:1043B000069300F053FFD3E700380140001002409D
:1043C000000C014000000140004400400008014092
:1043D000FEE7FEE7FEE7FEE7FEE77047704770473F
:1043E00010B5084C238801339BB2B3F57A7F238044
:1043F00003D3FDF779FE00232380BDE8104000F0D1
:1044000033BB00BF9C07002008B50C4800F078FDC6
:104410000B4B1B88B3F57B7F0BD201224FF400417D
:10442000084800F0F7FF00224FF40041054800F073
:10443000F1FFBDE80840044800F07EBEF807002008
:10444000C00700200008014000130020402000F0B9
:10445000E7BF000008B501220449054800F01EFC32
:10446000BDE80840034802F08EBF00BFC00700202F
:10447000F80700205813002010B5074C00224FF415
:104480008051064800F0C6FF204602F07CFF20461F
:10449000BDE8104002F058BFA80D00200008014000
:1044A0007047000073B50546144CC5F30726E36852
:1044B000984763699847636AC5F30740EDB20BB14B
:1044C000A36A8BB9236A98473046236A98472846DF
:1044D000236A9847E36998470546A3699847236983
:1044E0009847284602B070BD8DF8040003218DF86E
:1044F00005608DF8065001A89847EBE750010020B1
:10450000F7B50546164C0F46E36898476369984728
:10451000A36A45F00406C5F30740F6B2C5F30725C4
:1045200083B9236A98472846236A98473046236A06
:1045300098473846236A9847A3699847236998475C
:1045400003B0F0BD04218DF804008DF805508DF8FE
:1045500006608DF807700DEB01009847ECE700BF8F
:10456000500100202DE9F34105461A4C0E46E36840
:104570001746984763699847636AC5F30740C5F3D0
:104580000728EDB20BB1A36AB3B9236A9847404636
:10459000236A98472846236A98473744B74206D18A
:1045A000A36998472369984702B0BDE8F081E369A1
:1045B000984706F8010BF1E78DF80400032101A8E4
:1045C0008DF805808DF80650984739463046636A65
:1045D0009847E5E7500100202DE9F34105461A4CC4
:1045E0008846E3681746984763699847A36A45F089
:1045F0000406C5F30740F6B2C5F30725B3B9236A2D
:1046000098472846236A98473046236A9847474484
:10461000474506D1A36998472369984702B0BDE88A
:10462000F081236A18F8010B9847F1E78DF8040030
:10463000032101A88DF805508DF80660984739468A
:104640004046A36A9847E5E750010020F8B50024EA
:104650004601083606F5005706F504563846FFF7BA
:1046600021FF05023046FFF71DFFADB20544ADB294
:104670004DB13846FFF716FF04023046FFF712FF30
:10468000A4B20444A4B2AC42E8D12046F8BDF8B5C7
:1046900000244601083606F5185706F51C5638461C
:1046A000FFF700FF05023046FFF7FCFEADB2054400
:1046B000ADB24DB13846FFF7F5FE04023046FFF7C4
:1046C000F1FEA4B20444A4B2AC42E8D12046F8BD45
:1046D0002DE9F843894614462AB385006F1CFF0074
:1046E00007F510584046FFF7DDFE07F5145706465C
:1046F0003846FFF7D7FE00EB062086B202353002BF
:104700002246494600EBC500FFF766FFA119404667
:104710008CB2C1F30721FFF7F3FE3846E1B2BDE8E2
:10472000F843FFF7EDBEBDE8F8832DE9F84389466D
:1047300014462AB385006F1CFF0007F52058404639
:10474000FFF7B0FE07F5245706463846FFF7AAFEE6
:1047500000EB062086B2033530022246494600EBC4
:10476000C500FFF7FFFEA11940468CB2C1F3072137
:10477000FFF7C6FE3846E1B2BDE8F843FFF7C0BE1A
:10478000BDE8F883F8B54401083404F520573846ED
:104790000D46FFF787FE04F5245406462046FFF732
:1047A00081FE291801EB062138468DB2C1F307219D
:1047B000FFF7A6FE2046E9B2BDE8F840FFF7A0BE2D
:1047C000704700787047017070470020704770474D
:1047D000704770477047704770470000054B00B145
:1047E00021B9054A5A61054A9A617047C3E9050132
:1047F000704700BF50010020D7470008D947000884
:10480000084B10B51C881A46A40500D4FEE700B179
:1048100021B9054BD361054B136210BDC3E90701F4
:10482000FBE700BF50010020CB470008CF4700083E
:10483000084B10B51C881A46A40500D4FEE700B149
:1048400021B9054B5362054B936210BDC3E90901C1
:10485000FBE700BF50010020D1470008D347000804
:104860007FB5062204A94FF41060FFF77BFE0422F7
:104870004FF480700DEB0201FFF774FE02A90422D1
:104880004FF4A060FFF76EFE042203A94FF470609E
:10489000FFF768FE80210020FFF732FE0020FFF7BF
:1048A00001FE04A906224FF41060FFF795FE0422D2
:1048B0004FF480700DEB0201FFF78EFE02A9042277
:1048C0004FF4A060FFF788FE04224FF4706003A944
:1048D000FFF782FE07B05DF804FBF8B505460C460D
:1048E000FFF7BEFFBDB16E1E32460023073512F83A
:1048F000011F0B445BB2102B29DCAA42F7D141F611
:10490000087542F20807284616F8011F2035FFF700
:10491000F7FDBD42F7D10CB90020F8BD651E2A464F
:104920000023073412F8011F0B445BB2102B0EDC7E
:104930009442F7D141F6086441F60876204615F80E
:10494000011F2034FFF7DCFDB442F7D1E4E74FF05C
:10495000FF30E2E710B50446014606224FF410602E
:10496000FFF73AFE04224FF4807004F10E01FFF7C6
:1049700033FE04224FF4A06004F10A01FFF72CFE7D
:1049800004224FF47060A11DFFF726FE064BA27CA7
:104990001A70E27C5A70227D9A70627DDA7094F807
:1049A0001D21024B1A7010BD9F0700209E0700209A
:1049B0000C480D490D4A002302E0D458C45004337A
:1049C000C4188C42F9D30A4A0A4C002301E0136050
:1049D0000432A242FBD3FFF763FD03F063F8FEF756
:1049E000A3F870470000002054030020C4B300085F
:1049F0005803002084140020FEE7000038B50E4B59
:104A0000054618784FF47A73B3FBF0F30B4A10683D
:104A1000B0FBF3F000F0F2FA044658B90F2D09D8B4
:104A2000024629464FF0FF3000F0A8FA2046044B1A
:104A30001D6038BD0120FCE77C0100204C010020F6
:104A400080010020074A08B51368032043F01003D3
:104A5000136000F081FA0020FFF7D0FFFFF7E8FABB
:104A6000002008BD00200240034A044B11681B7857
:104A70000B441360704700BF701400207C010020BD
:104A8000014B1868704700BF7014002038B5044609
:104A9000FFF7F6FF0546631C1EBF044B1B78E418A6
:104AA000FFF7EEFF431BA342FAD338BD7C01002081
:104AB0007047436A10B59A6A12F0500F1BD19A6A78
:104AC00042F400729A621A68926802F46022B2F5A7
:104AD000602F0CD11A7B52B99A6A22F480729A62C2
:104AE0009A6AD2045EBF9A6A42F001029A6218463C
:104AF000FFF7DEFF10BD1B6ABDE810401B6B1847B7
:104B0000704708B5406AFFF7FBFF08BD7047406A71
:104B100008B5836A43F040038362C36A43F0040329
:104B2000C362FFF7F3FF08BD002373B5019390F84C
:104B300024300446012B6CD0012380F824304D68CA
:104B40000268062D086805EB850322D81F26556BE1
:104B5000053B9E4025EA060500FA03F32B43536309
:104B600009288B6800EB40054FF0070129D9D6686A
:104B70001E3DA94026EA0101AB400B43D360A0F1E2
:104B80001003012B25D90020002384F8243002B023
:104B900070BD0C2D4FF01F0509D8166B233B9D40AF
:104BA00026EA050500FA03F32B431363D8E7D66A18
:104BB000413B9D4026EA050500FA03F32B43D362EF
:104BC000CEE71069A94020EA0101AB400B43136115
:104BD000D9E7114B9A4216D193681B02D3D493683C
:104BE000102843F400039360CDD10C4B0C4A1B6892
:104BF000B3FBF2F20A2353430193019B002BC2D073
:104C0000019B013BF8E7A36A012043F02003A36264
:104C1000BAE70220BBE700BF002401404C0100209E
:104C200040420F00002337B50193036804469A6899
:104C3000D20702D5002003B030BD9A6842F00102CD
:104C40009A60144B144A1B68B3FBF2F30193019B67
:104C5000E3B9FFF715FF054623689B68DB07E9D436
:104C6000FFF70EFF401B0228F6D923689B6813F05C
:104C70000103F1D1A26A012042F01002A262E26AAD
:104C800084F8243042F00102E262D4E7019B013B48
:104C9000DCE700BF4C01002040420F002DE9F0414D
:104CA000404B9046026804469A420F4602D03E4965
:104CB0008A4203D15B6813F4702F6ED194F82430CC
:104CC000012B6CD00123204684F82430FFF7AAFF83
:104CD000064600285DD1A56A2168334B25F470652E
:104CE00025F0010545F480759942A56204D12D4A4D
:104CF000536813F4702F3ED1A36A23F48013A36288
:104D00004B685A0505D5A36A23F4405343F48053F6
:104D1000A362A36A206A13F4805318BFE36A3A4679
:104D200018BF23F00603E362002384F824301F4BEE
:104D30004C3183621E4BC3621E4B03636FF0020350
:104D400041F84C3C51F8443C43F4807341F8443CF6
:104D5000434600F097F923689A6802F46022B2F59E
:104D6000602F9A680CBF42F4A00242F480129A604D
:104D70003046BDE8F081A36A43F48013A362536810
:104D80005B0541BFA06A20F4405040F48050A0620F
:104D9000BFE7002384F82430EAE70126E8E702268B
:104DA000E6E700BF0024014000280140B34A0008A4
:104DB000034B00080F4B000838B5036804469A6897
:104DC000D10701D4002038BD9A6822F001029A6010
:104DD000FFF756FE054623689B68DB07F2D5FFF711
:104DE0004FFE401B0228F6D923689B68DA07F2D5EC
:104DF000A36A012043F01003A362E36A43F00103B6
:104E0000E362E0E7F8B5044600286ED0836A23B970
:104E1000C36280F82430FFF72DF92046FFF7CCFF5E
:104E2000A36A13F0100362D1002860D1A26AE56979
:104E3000616822F4885222F0020242F00202294301
:104E4000A568A262227BB5F5807F41EA420137D096
:104E5000012D14BF00274FF48077267D012E06D147
:104E600082BBA269013A47EA423646F400672268EB
:104E7000B5F5807F566826F4694646EA070656600F
:104E800097681D4E06EA070646EA0106966001D0BD
:104E9000012D02D12369013B1B05D56A25F470055C
:104EA0002B43D3629268154B1340994213D10023D0
:104EB000E362A36A23F0030343F00103A362F8BD96
:104EC0002F46CAE7A26A42F02002A262E26A42F0DA
:104ED0000102E262CBE7A36A23F0120343F010035E
:104EE000A362E36A43F00103E3620120E7E7A36AF8
:104EF00043F01003A362F8E7FDF7E1FFFE0E1FFF8A
:104F000010B590F824300446012B22D0012380F8FC
:104F10002430FFF751FFA8B92268936823F4807307
:104F20009360236A93F82120022A0BD1184600F0DF
:104F3000E5F8A36A50B923F4885323F0010343F042
:104F40000103A362002384F8243010BD43F0400322
:104F5000F7E70220F9E7000007490302CA6803F4F3
:104F6000E06322F4E0621204120C134343F0BF63C7
:104F700043F40033CB60704700ED00E0164B30B5D2
:104F8000DC68C4F30224C4F10703251D042B28BFE9
:104F90000423062D4FF0FF3598BF002405FA03F3D4
:104FA00088BF033C21EA0303A34005FA04F422EA84
:104FB0000402002843EA0203ACBF00F16040074A44
:104FC0004FEA0313DBB2ABBF00F5614000F00F0006
:104FD00080F80033135430BD00ED00E014ED00E024
:104FE000002808DB0123420900F01F0003FA00F04B
:104FF000014B43F82200704700E100E00138B0F1B6
:10500000807F0AD2F021064B064A586082F82310AE
:105010000020072298601A6070470120704700BF87
:1050200010E000E000ED00E010B520B314220168AC
:10503000124B0B44B3FBF2F39B000364104B0A6862
:10504000C363D0E901342343C46822F47F5223436D
:10505000046922F0300223434469234384692343D3
:10506000C469234313430B604FF48072002302840E
:105070008363184610BD0120FCE700BFF8FFFDBFA9
:1050800000000240F0B590F82040012C34D00124FB
:1050900090F8215080F82040A5424FF000064FF0D4
:1050A000020427D180F8214004688663266826F030
:1050B00001062660D0E90F67BD40756063604368F4
:1050C000102BC36A0BBFA260A160E160E2604BB12C
:1050D000236843F00E0300202360236843F001039C
:1050E0002360F0BD236823F004032360236843F0AA
:1050F0000A03F0E780F820600220F2E790F8213000
:10510000022B06D004238363002380F82030012083
:10511000704703681A6822F00E021A601A6822F0BB
:1051200001021A600123D0E90F218B4053604FF434
:10513000807303840020704770B40425C66B026C32
:105140003468036895402542196832D04D0730D540
:105150001A6896065EBF1A6822F004021A603D4A79
:10516000934219D01432934218D01432934217D07C
:105170001432934217D01432934217D01432934210
:105180000CBF4FF480034FF08063334A5360C36A0F
:10519000002B5CD070BC18470423F6E74023F4E7EB
:1051A0004FF48063F1E74FF48043EEE74FF4802340
:1051B000EBE702259540254235D08D0733D51A6897
:1051C000940606D41A6822F00A021A60012280F8B6
:1051D0002120204A934219D01432934218D014321D
:1051E000934217D01432934217D01432934217D0FF
:1051F000143293420CBF4FF400134FF00073164A61
:105200005360002380F82030836AC1E70223F6E769
:105210002023F4E74FF40073F1E74FF40053EEE777
:105220004FF40033EBE70825954025420FD00907DE
:105230000DD5196821F00E011960012303FA02F25D
:10524000726083634FF480730384036BA0E770BCC8
:10525000704700BF08000240000002402DE9F74FF0
:1052600000221646644BDFF8A0C1DFF8A0E10D680C
:1052700035FA06F402D103B0BDE8F08F4FF0010813
:1052800008FA06F805EA080438EA05057CD14D68F5
:10529000032D07D8013D022D00F28880DFE805F0DC
:1052A000969BA100122D00F099806FD8112D00F06F
:1052B0008F80FF2C98BF82464FF00F0988BF00F106
:1052C000040A4FEA8605DAF8008088BF203D09FA13
:1052D00005FB28EA0B0802FA05F548EA0505CAF8B5
:1052E0000050D1F804A01AF0805F4DD0434F26F053
:1052F0000308BD6908F1804845F00105BD61BD693D
:1053000008F5803805F00105019506F0030B019DB5
:105310004FEA8B0BD8F8085009FA0BF925EA09096E
:10532000374DA84261D005F58065A8425FD005F5EC
:105330008065A8425DD005F58065A8420CBF0325B5
:10534000042505FA0BF545EA0905C8F808501D685B
:105350001AF4803F14BF2543A5431D605D681AF40D
:10536000003F14BF2543A5435D609D681AF4801F6C
:1053700014BF2543A5439D60DD681AF4001F14BFC8
:105380002C4325EA0404DC60013670E71D4FBD4262
:105390000CD017D8DFF878904D4507D009F5702963
:1053A0004D4503D0A9F580194D4582D18A68D2B107
:1053B000012A08BFC0F810804FF0080218BFC0F8DB
:1053C000148076E76545F1D07545EEE7CA6870E769
:1053D000CA6804326DE7CA6808326AE7CA680C32E4
:1053E00067E7002265E7042263E70025A9E70125B6
:1053F000A7E70225A5E700BF000401400010024016
:10540000000801400000221000003110000032109E
:10541000000012100AB1016170470904FBE70000A7
:10542000044A08B55169014202D05061FDF776FF88
:1054300008BD00BF00040140016800224B6913F45D
:10544000806310D06FF480634B612023026380F887
:105450003D3080F83E20036C80F83C2043F004038C
:10546000036401207047184670472DE9F041044657
:105470000F46164698462568686927EA000080B2FC
:10548000B8B16B695A0516D52B68202243F4007316
:105490002B606FF480636B610023236384F83D20ED
:1054A00084F83E30226C42F004020120226484F829
:1054B0003C30BDE8F081731CDED0FFF7E1FAA0EBD1
:1054C0000800B04201D8002ED5D10023202223634A
:1054D00084F83D2084F83E30226C42F02002E4E75C
:1054E00070B504460D46164623685B695B0701D517
:1054F000002070BD2046FFF79FFFA8B96A1CF3D0BB
:10550000FFF7BEFA801BA84201D8002DECD1002382
:105510002022236384F83D2084F83E30226C84F8F6
:105520003C3042F0200222640120E2E770B50446DC
:105530000D46164621684B6913F0400301D0002048
:1055400010E04A69D2060ED56FF010024A6120229F
:10555000236384F83D2084F83E30226C01202264CD
:1055600084F83C3070BDFFF78BFA801BA84201D84D
:10557000002DDFD100232022236384F83D2084F80E
:105580003E30226C42F02002E8E72DE9F84606465C
:105590000F4691461D464FEA114A3368BAF1010F92
:1055A0000CBF5C699C6927EA0404A4B2B4FA84F4D1
:1055B0006409A14501D0002017E06A1CEED0FFF776
:1055C0005FFA089BC01AA84201D8002DE5D100233C
:1055D00020220120336386F83D2086F83E30326C6D
:1055E00086F83C3042F020023264BDE8F88670B59F
:1055F00004460D46164623685B691B0601D500204C
:1056000070BD2046FFF718FFA8B96A1CF3D0FFF75A
:1056100037FA801BA84201D8002DECD100232022AC
:10562000236384F83D2084F83E30226C84F83C30BB
:1056300042F0200222640120E2E700002DE9F0435D
:10564000154602689946136885B043F48073136069
:10565000DDE90C780E463B4600224FF00111CDF8F3
:1056600000800446FFF791FF236838B11B68DB0513
:1056700002D54FF40073236403200AE006F0FE060F
:105680001E613A46434620461749FFF7EEFE18B121
:10569000012005B0BDE8F083236803905A693946BC
:1056A00003929B69424603932046039BFFF79FFFAB
:1056B00040B1236C042B01BF2268136843F40073CC
:1056C0001360E5E7B9F1010F236802D1EDB21D6166
:1056D000DFE72A0A1A61394642462046FFF787FF6C
:1056E0000028E6D12368F1E7020001002DE9FF4719
:1056F0009A46DDE90C78036815461A680E4642F4AE
:1057000080621A601A684FF0011142F480721A60C8
:105710003B460022CDF800800446FFF736FF2368A1
:1057200048B11B68DB0502D54FF4007323640320E6
:1057300004B0BDE8F0875FFA86F906F0FE061E6148
:105740003A46434620462949FFF78FFE08B101201B
:10575000EEE7236803905A69394603929B694246F3
:1057600003932046039BFFF742FF40B1236C042BB9
:1057700001BF2268136843F400731360E7E7BAF1CE
:10578000010F23681AD1EDB24246394620461D6109
:10579000FFF72DFF02460028E8D1216820460B685C
:1057A00043F480730B603B464FF00111CDF800804D
:1057B000FFF7EBFE226860B11368B3E72A0A1A61AB
:1057C000394642462046FFF712FF0028CED1236813
:1057D000D9E749F001031361204643463A4603499D
:1057E000FFF743FE003818BF0120A1E702000100C7
:1057F00070B5044608B9012070BD90F83D3003F043
:10580000FF021BB980F83C20FEF77EFC242384F8BD
:105810003D3023681A6822F001021A601A6842F4C7
:1058200000421A601A6822F400421A6000F0A0FEDA
:105830003F4A6368934294BF3E4A3F4A90428CBFBE
:1058400000220122002AD6D13C4E2268B0FBF6F697
:105850005168013821F03F01314351603449156AE4
:105860008B4281BF4FF4967171434FF47A76B1FB4E
:10587000F6F125F03F0594BF711C013129431162F7
:10588000D1692B4D21F44F41AB4221F0FF0132D8B9
:105890005B00B0FBF3F0431C40F6FC70034242D0C7
:1058A000C3F30B030B43D3611168D4E9073021F034
:1058B000C00103430B4313609168D4E9030321F44F
:1058C0000341034321F0FF010B439360D168D4E906
:1058D000053021F0FF0103430B43D3601368002020
:1058E00043F0010313602023206484F83D302063DB
:1058F00084F83E0080E7A56855B903EB4303B0FB8D
:10590000F3F30133C3F30B037BB143F40043C9E763
:1059100019256B43B0FBF3F30133C3F30B0323B13E
:1059200043F44043BEE70423BCE70123BAE700BFCA
:10593000A08601007F841E00FF083D0040420F004A
:105940002DE9F04398460023044689B002930D46A2
:105950009146109FFFF794F894F83D300646202BAF
:1059600004D00225284609B0BDE8F0830090192331
:10597000012220468F49FFF708FE0028F1D194F854
:105980003C30012BEDD00123216884F83C300B68BA
:10599000DB075EBF0B6843F001030B600B6823F469
:1059A00000630B60222384F83D30102384F83E30DE
:1059B00000232364A4F82A80638DC4F824902385EF
:1059C0007D4BE362E36A0A68082B42F480620A6056
:1059D00004D0012B02D013F5803F04D10B6843F4AF
:1059E00080730B6002E0236B112BF7D03B46002243
:1059F0004FF0011120460096FFF7C7FD236838B12C
:105A00001B68DD0502D54FF4007323640125A9E767
:105A10002269B2F5804F29D145F00105EDB21D6133
:105A200033463A4620466549FFF71FFD05460028E4
:105A3000ECD1228D2368002A4DD103905A6903923C
:105A40009A690392039A1A6842F400721A60DFF8A6
:105A50007481DFF87491238D002B6CD1202284F89F
:105A60003C3084F83D2084F83E307BE74FEAE5186F
:105A700008F0060848F0F0021A61204633463A461C
:105A80004F49FFF7F2FC0028C0D12368EDB23A4637
:105A90001D61204633464949FFF7E7FC02460028CE
:105AA000B4D12368079059692046079199690791F5
:105AB0000799196841F4807119603B464FF0011154
:105AC0000096FFF762FD226808B1136899E748F075
:105AD000F1031361A4E7012A11D11A6822F480624C
