:020000040800F2
:100000000050002039450008753F0008773F000880
:10001000793F00087B3F00087D3F0008000000009A
:100020000000000000000000000000007F3F00080A
:10003000813F000800000000833F0008853F000862
:100040008145000881450008814500088145000878
:100050008145000881450008814500088145000868
:10006000814500088145000881450008AD3F000832
:100070008145000881450008814500088145000848
:100080008145000881450008814500088145000838
:10009000814500088145000881450008FD3F0008B2
:1000A0008145000805400008814500088145000899
:1000B0008145000881450008814500088145000808
:1000C00081450008814500088145000881450008F8
:1000D00081450008814500088145000881450008E8
:1000E00081450008814500088145000800000000A6
:1000F0000000000000000000000000000000000000
:0C01000000000000000000005FF808F1A3
:1001100010B5054C237833B9044B13B10448AFF341
:1001200000800123237010BD500300200000000058
:10013000A09F000808B5034B1BB103490348AFF368
:10014000008008BD0000000054030020A09F0008AC
:10015000034613F8012B002AFBD1181A0138704707
:1001600081F0004102E000BF83F0004330B54FEA68
:1001700041044FEA430594EA050F08BF90EA020FD5
:100180001FBF54EA000C55EA020C7FEA645C7FEA68
:10019000655C00F0E2804FEA5454D4EB5555B8BF8B
:1001A0006D420CDD2C4480EA020281EA030382EAFC
:1001B000000083EA010180EA020281EA0303362D8E
:1001C00088BF30BD11F0004F4FEA01314FF4801C61
:1001D0004CEA113102D0404261EB410113F0004F73
:1001E0004FEA03334CEA133302D0524263EB43032A
:1001F00094EA050F00F0A780A4F10104D5F1200EC8
:100200000DDB02FA0EFC22FA05F2801841F1000122
:1002100003FA0EF2801843FA05F359410EE0A5F1F6
:1002200020050EF1200E012A03FA0EFC28BF4CF027
:10023000020C43FA05F3C01851EBE37101F00045DD
:1002400007D54FF0000EDCF1000C7EEB00006EEBEA
:100250000101B1F5801F1BD3B1F5001F0CD3490874
:100260005FEA30004FEA3C0C04F101044FEA4452CB
:1002700012F5800F80F09A80BCF1004F08BF5FEA52
:10028000500C50F1000041EB045141EA050130BD32
:100290005FEA4C0C404141EB0101013C28BFB1F544
:1002A000801FE9D291F0000F04BF01460020B1FA8F
:1002B00081F308BF2033A3F10B03B3F120020CDA62
:1002C0000C3208DD02F1140CC2F10C0201FA0CF040
:1002D00021FA02F10CE002F11402D8BFC2F1200CA5
:1002E00001FA02F120FA0CFCDCBF41EA0C0190405B
:1002F000E41AA2BF01EB0451294330BD6FEA0404A4
:100300001F3C1CDA0C340EDC04F11404C4F120028E
:1003100020FA04F001FA02F340EA030021FA04F3A0
:1003200045EA030130BDC4F10C04C4F1200220FAF7
:1003300002F001FA04F340EA0300294630BD21FA35
:1003400004F0294630BD94F0000F83F4801306BFFB
:1003500081F480110134013D4EE77FEA645C18BFEF
:100360007FEA655C29D094EA050F08BF90EA020F86
:1003700005D054EA000C04BF1946104630BD91EA7E
:10038000030F1EBF0021002030BD5FEA545C05D181
:100390004000494128BF41F0004130BD14F58004C0
:1003A0003CBF01F5801130BD01F0004545F0FE4134
:1003B00041F470014FF0000030BD7FEA645C1ABF69
:1003C000194610467FEA655C1CBF0B46024650EAA0
:1003D000013406BF52EA033591EA030F41F40021CC
:1003E00030BD00BF90F0000F04BF0021704730B552
:1003F0004FF4806404F132044FF000054FF0000127
:1004000050E700BF90F0000F04BF0021704730B5E7
:100410004FF4806404F1320410F0004548BF4042BC
:100420004FF000013EE700BF42004FEAE2014FEA11
:1004300031014FEA02701FBF12F07F4393F07F4FEC
:1004400081F06051704732F07F4208BF704793F0EF
:100450007F4F04BF41F40021704730B54FF4607402
:1004600001F0004521F000411CE700BF50EA010205
:1004700008BF704730B54FF000050AE050EA0102AE
:1004800008BF704730B511F0004502D5404261EB1E
:1004900041014FF4806404F132045FEA915C3FF45F
:1004A000D8AE4FF003025FEADC0C18BF03325FEAFC
:1004B000DC0C18BF033202EBDC02C2F1200300FAAD
:1004C00003FC20FA02F001FA03FE40EA0E0021FAD2
:1004D00002F11444BDE600BF70B54FF0FF0C4CF4C0
:1004E000E06C1CEA11541DBF1CEA135594EA0C0F72
:1004F00095EA0C0F00F0DEF82C4481EA030621EAAD
:100500004C5123EA4C5350EA013518BF52EA0335E7
:1005100041F4801143F4801338D0A0FB02CE4FF099
:100520000005E1FB02E506F00042E0FB03E54FF0C9
:100530000006E1FB03569CF0000F18BF4EF0010EC1
:10054000A4F1FF04B6F5007F64F5407404D25FEABD
:100550004E0E6D4146EB060642EAC62141EA555170
:100560004FEAC52040EA5E504FEACE2EB4F1FD0CB2
:1005700088BFBCF5E06F1ED8BEF1004F08BF5FEA30
:10058000500E50F1000041EB045170BD06F00046E2
:1005900046EA010140EA020081EA0301B4EB5C048F
:1005A000C2BFD4EB0C0541EA045170BD41F4801187
:1005B0004FF0000E013C00F3AB8014F1360FDEBFAC
:1005C000002001F0004170BDC4F10004203C35DA88
:1005D0000C341BDC04F11404C4F1200500FA05F30B
:1005E00020FA04F001FA05F240EA020001F00042AC
:1005F00021F0004110EBD37021FA04F642EB060122
:100600005EEA430E08BF20EAD37070BDC4F10C044B
:10061000C4F1200500FA04F320FA05F001FA04F20F
:1006200040EA020001F0004110EBD37041F10001FB
:100630005EEA430E08BF20EAD37070BDC4F1200506
:1006400000FA05F24EEA020E20FA04F301FA05F26E
:1006500043EA020321FA04F001F0004121FA04F216
:1006600020EA020000EBD3705EEA430E08BF20EAE6
:10067000D37070BD94F0000F0FD101F00046400020
:1006800041EB010111F4801F08BF013CF7D041EAA2
:10069000060195F0000F18BF704703F000465200A6
:1006A00043EB030313F4801F08BF013DF7D043EA77
:1006B0000603704794EA0C0F0CEA135518BF95EA2D
:1006C0000C0F0CD050EA410618BF52EA4306D1D1B4
:1006D00081EA030101F000414FF0000070BD50EAD3
:1006E000410606BF1046194652EA430619D094EA5D
:1006F0000C0F02D150EA013613D195EA0C0F05D147
:1007000052EA03361CBF104619460AD181EA03019A
:1007100001F0004141F0FE4141F470014FF0000052
:1007200070BD41F0FE4141F4780170BD70B54FF0ED
:10073000FF0C4CF4E06C1CEA11541DBF1CEA13556D
:1007400094EA0C0F95EA0C0F00F0A7F8A4EB05044F
:1007500081EA030E52EA03354FEA013100F0888046
:100760004FEA03334FF0805545EA131343EA12630F
:100770004FEA022245EA111545EA10654FEA0026C4
:100780000EF000419D4208BF964244F1FD0404F57D
:10079000407402D25B084FEA3202B61A65EB0305D9
:1007A0005B084FEA32024FF480104FF4002CB6EB96
:1007B000020E75EB030E22BFB61A754640EA0C0016
:1007C0005B084FEA3202B6EB020E75EB030E22BF56
:1007D000B61A754640EA5C005B084FEA3202B6EB97
:1007E000020E75EB030E22BFB61A754640EA9C0056
:1007F0005B084FEA3202B6EB020E75EB030E22BF26
:10080000B61A754640EADC0055EA060E18D04FEAE3
:10081000051545EA16754FEA06164FEAC30343EA83
:1008200052734FEAC2025FEA1C1CC0D111F4801F50
:100830000BD141EA00014FF000004FF0004CB6E749
:1008400011F4801F04BF01430020B4F1FD0C88BFE8
:10085000BCF5E06F3FF6AFAEB5EB030C04BFB6EBF3
:10086000020C5FEA500C50F1000041EB045170BDE6
:100870000EF0004E4EEA113114EB5C04C2BFD4EB13
:100880000C0541EA045170BD41F480114FF0000E97
:10089000013C90E645EA060E8DE60CEA135594EA13
:1008A0000C0F08BF95EA0C0F3FF43BAF94EA0C0F16
:1008B0000AD150EA01347FF434AF95EA0C0F7FF48B
:1008C00025AF104619462CE795EA0C0F06D152EADF
:1008D00003353FF4FDAE1046194622E750EA4106C3
:1008E00018BF52EA43067FF4C5AE50EA41047FF4D4
:1008F0000DAF52EA43057FF4EBAE12E74FF0FF3C39
:1009000006E000BF4FF0010C02E000BF4FF0010C09
:100910004DF804CD4FEA410C7FEA6C5C4FEA430C82
:1009200018BF7FEA6C5C1BD001B050EA410C0CBFD1
:1009300052EA430C91EA030F02BF90EA020F002033
:10094000704710F1000F91EA030F58BF994208BF9A
:1009500090422CBFD8176FEAE37040F00100704757
:100960004FEA410C7FEA6C5C02D150EA013C07D1AE
:100970004FEA430C7FEA6C5CD6D152EA033CD3D0F9
:100980005DF8040B704700BF8446104662468C46F3
:100990001946634600E000BF01B5FFF7B7FF002826
:1009A00048BF10F1000F01BD4DF808EDFFF7F4FF4F
:1009B0000CBF012000205DF808FB00BF4DF808EDDA
:1009C000FFF7EAFF34BF012000205DF808FB00BFFD
:1009D0004DF808EDFFF7E0FF94BF012000205DF81F
:1009E00008FB00BF4DF808EDFFF7CEFF94BF0120D4
:1009F00000205DF808FB00BF4DF808EDFFF7C4FFCD
:100A000034BF012000205DF808FB00BF4FEA410C15
:100A10007FEA6C5C02D150EA013C0AD14FEA430CF8
:100A20007FEA6C5C02D152EA033C02D14FF0000035
:100A300070474FF0010070474FEA410212F5001273
:100A400015D211D56FF47873B3EB625212D94FEA15
:100A5000C12343F0004343EA505311F0004F23FAFF
:100A600002F018BF404270474FF00000704750EA54
:100A7000013005D111F0004008BF6FF00040704711
:100A80004FF00000704700BF4FEA4102B2F1E0436F
:100A900024BFB3F5001CDCF1FE5C0DD901F0004C65
:100AA0004FEAC0024CEA5070B2F1004F40EB8300B5
:100AB00008BF20F00100704711F0804F21D113F1E1
:100AC0003872BCBF01F00040704741F480114FEA1A
:100AD0005252C2F11802C2F1200C10FA0CF320FAA3
:100AE00002F018BF40F001004FEAC1234FEAD323C0
:100AF00003FA0CFC40EA0C0023FA02F34FEA43032A
:100B0000CCE77FEA625307D150EA01331EBF4FF0B2
:100B1000FE4040F44000704701F0004040F0FE40CD
:100B200040F40000704700BF80F0004002E000BFCA
:100B300081F0004142001FBF5FEA410392EA030FC8
:100B40007FEA226C7FEA236C6AD04FEA1262D2EB12
:100B50001363C1BFD218414048404140B8BF5B4217
:100B6000192B88BF704710F0004F40F4000020F0B0
:100B70007F4018BF404211F0004F41F4000121F0C6
:100B80007F4118BF494292EA030F3FD0A2F1010210
:100B900041FA03FC10EB0C00C3F1200301FA03F14E
:100BA00000F0004302D5494260EB4000B0F5000F71
:100BB00013D3B0F1807F06D340084FEA310102F130
:100BC0000102FE2A51D2B1F1004F40EBC25008BFE2
:100BD00020F0010040EA03007047490040EB0000AC
:100BE000013A28BFB0F5000FEDD2B0FA80FCACF1AD
:100BF000080CB2EB0C0200FA0CF0AABF00EBC250DA
:100C000052421843BCBFD0401843704792F0000FC7
:100C100081F4000106BF80F400000132013BB5E71A
:100C20004FEA41037FEA226C18BF7FEA236C21D090
:100C300092EA030F04D092F0000F08BF08467047F5
:100C400090EA010F1CBF0020704712F07F4F04D1C3
:100C5000400028BF40F00040704712F100723CBFD6
:100C600000F50000704700F0004343F0FE4040F400
:100C7000000070477FEA226216BF08467FEA2363BE
:100C80000146420206BF5FEA412390EA010F40F4A9
:100C9000800070474FF0000304E000BF10F00043F5
:100CA00048BF40425FEA000C08BF704743F09643DC
:100CB00001464FF000001CE050EA010208BF7047F7
:100CC0004FF000030AE000BF50EA010208BF70477E
:100CD00011F0004302D5404261EB41015FEA010C93
:100CE00002BF84460146002043F0B64308BFA3F18B
:100CF0008053A3F50003BCFA8CF2083AA3EBC2536D
:100D000010DB01FA02FC634400FA02FCC2F120028B
:100D1000BCF1004F20FA02F243EB020008BF20F0C2
:100D20000100704702F1200201FA02FCC2F1200228
:100D300050EA4C0021FA02F243EB020008BF20EA1D
:100D4000DC7070474FF0FF0C1CEAD0521EBF1CEA4B
:100D5000D15392EA0C0F93EA0C0F6FD01A4480EA39
:100D6000010C400218BF5FEA41211ED04FF0006322
:100D700043EA501043EA5111A0FB01310CF000404E
:100D8000B1F5000F3EBF490041EAD3715B0040EA74
:100D9000010062F17F02FD2A1DD8B3F1004F40EB44
:100DA000C25008BF20F00100704790F0000F0CF017
:100DB000004C08BF49024CEA502040EA51207F3ADB
:100DC000C2BFD2F1FF0340EAC250704740F40000B6
:100DD0004FF00003013A5DDC12F1190FDCBF00F0A7
:100DE00000407047C2F10002410021FA02F1C2F155
:100DF000200200FA02FC5FEA310040F1000053EAF1
:100E00004C0308BF20EADC70704792F0000F00F03E
:100E1000004C02BF400010F4000F013AF9D040EA44
:100E20000C0093F0000F01F0004C02BF490011F4D8
:100E3000000F013BF9D041EA0C018FE70CEAD153D6
:100E400092EA0C0F18BF93EA0C0F0AD030F0004C56
:100E500018BF31F0004CD8D180EA010000F000400A
:100E6000704790F0000F17BF90F0004F084691F0C8
:100E7000000F91F0004F14D092EA0C0F01D1420202
:100E80000FD193EA0C0F03D14B0218BF084608D1CB
:100E900080EA010000F0004040F0FE4040F4000015
:100EA000704740F0FE4040F4400070474FF0FF0CA8
:100EB0001CEAD0521EBF1CEAD15392EA0C0F93EAEF
:100EC0000C0F69D0A2EB030280EA010C49024FEA41
:100ED000402037D04FF0805343EA111143EA1013FA
:100EE0000CF000408B4238BF5B0042F17D024FF4B2
:100EF000000C8B4224BF5B1A40EA0C00B3EB510F8D
:100F000024BFA3EB510340EA5C00B3EB910F24BF75
:100F1000A3EB910340EA9C00B3EBD10F24BFA3EBFA
:100F2000D10340EADC001B0118BF5FEA1C1CE0D1C2
:100F3000FD2A3FF650AF8B4240EBC25008BF20F075
:100F4000010070470CF0004C4CEA50207F32C2BFC9
:100F5000D2F1FF0340EAC250704740F400004FF066
:100F60000003013A37E792F0000F00F0004C02BF97
:100F7000400010F4000F013AF9D040EA0C0093F061
:100F8000000F01F0004C02BF490011F4000F013BBB
:100F9000F9D041EA0C0195E70CEAD15392EA0C0F23
:100FA00008D142027FF47DAF93EA0C0F7FF470AF5B
:100FB000084676E793EA0C0F04D14B023FF44CAF9E
:100FC00008466EE730F0004C18BF31F0004CCAD133
:100FD00030F000427FF45CAF31F000437FF43CAF6F
:100FE0005FE700BF7BB972B90029BEBF00204FF098
:100FF000004106E008BF00281CBF6FF000414FF021
:10100000FF3000F0B9B9ADF1080C6DE904CE00294C
:1010100009DB002B1ADB00F04DF8DDF804E0DDE918
:10102000022304B07047404261EB4101002B1BDBFF
:1010300000F040F8DDF804E0DDE9022304B04042AE
:1010400061EB4101524263EB43037047524263EB51
:10105000430300F02FF8DDF804E0DDE9022304B0DB
:10106000404261EB41017047524263EB430300F0A1
:1010700021F8DDF804E0DDE9022304B0524263EB1D
:101080004303704753B94AB9002908BF00281CBF61
:101090004FF0FF314FF0FF3000F06EB9ADF1080CAA
:1010A0006DE904CE00F006F8DDF804E0DDE9022386
:1010B00004B070472DE9F047089E0D4604468E4661
:1010C000002B40F083808A42174647D9B2FA82F358
:1010D0004BB1C3F1200105FA03FE20FA01F19F4054
:1010E00041EA0E0E9C404FEA1748BEFBF8FC1FFA7F
:1010F00087F908FB1CE20CFB09F0210C41EA0242D3
:1011000090420AD9BA180CF1FF3180F01881904250
:1011100040F21581ACF1020C3A44121AB2FBF8F01D
:1011200008FB102200FB09F1A4B244EA0244A142E8
:1011300009D93C1900F1FF3280F00381A14240F24D
:10114000008102383C44641A002140EA0C401EB180
:101150000022DC40C6E90042BDE8F08702B9FFDEAC
:10116000B2FA82F3002B4FD18D1A01214FEA124EB1
:101170001FFA82F8B5FBFEFC0EFB1C5508FB0CF0B9
:10118000220C42EA0545A84207D97D190CF1FF322D
:1011900002D2A84200F2E98094462D1AB5FBFEF077
:1011A0000EFB105508FB00F8A4B244EA0544A04524
:1011B00007D93C1900F1FF3202D2A04500F2D980D4
:1011C0001046A4EB080440EA0C40C0E78B4208D963
:1011D000002E00F0B1800021C6E900050846BDE8F8
:1011E000F087B3FA83F100294BD1AB4202D382429C
:1011F00000F2B980841A65EB030301209E46002E9D
:10120000AAD0C6E9004EA7E79F40C3F12002D14013
:101210004FEA174EB1FBFEF01FFA87F80EFB1011D4
:1012200024FA02F29D4000FB08FC2A43150C45EA13
:101230000145AC4504FA03F409D97D1900F1FF31E9
:1012400080F08F80AC4540F28C8002383D44A5EBA5
:101250000C05B5FBFEF10EFB115C01FB08F995B224
:1012600045EA0C45A94507D97D1901F1FF3274D231
:10127000A94572D902393D44A5EB090541EA00416F
:1012800078E7C1F120078B4022FA07FC4CEA030CF7
:1012900025FA07F44FEA1C4EB4FBFEF91FFA8CF84E
:1012A0000EFB194420FA07F309FB08FA8D401D4391
:1012B0002B0C43EA0444A24502FA01F200FA01F3BE
:1012C00009D91CEB040409F1FF3048D2A24546D9E4
:1012D000A9F102096444A4EB0A04B4FBFEF00EFB7E
:1012E000104400FB08FAADB245EA0444A24508D90F
:1012F0001CEB040400F1FF352DD2A2452BD9023896
:10130000644440EA0940A0FB0289A4EB0A044C456E
:10131000C6464D4619D316D05EB1B3EB0E0264EB50
:10132000050404FA07F722FA01F31F43CC40C6E98B
:1013300000740021BDE8F087314630460CE78C464A
:10134000EBE61046FFE64345E6D2B8EB020E69EB4A
:101350000C050138E0E72846D3E711468CE78146C3
:10136000B9E7084673E7084649E7ACF1020C3D448B
:1013700013E702383C4424E7704700BF7FB50123E0
:101380008DF817104FF48031CDE901310DF11701BF
:10139000024600910348EC2104F09EF807B05DF886
:1013A00004FB00BFCC0C00207FB500234FF480313C
:1013B0008DF817300123CDE901310DF117010246F7
:1013C00000910448EC2104F017F99DF8170007B0CC
:1013D0005DF804FBCC0C00201FB5024602234FF43D
:1013E00080300091CDE90130EC210123024804F066
:1013F00003F905B05DF804FBCC0C00201FB50246D4
:1014000002234FF480300091CDE90130EC2101231B
:10141000024804F0F1F805B05DF804FBCC0C0020A4
:101420007FB502234FF48031CDE9013105AB02468F
:101430000093EC210123064804F0DEF89DF8140027
:101440009DF8153043EA002007B05DF804FB00BFAB
:10145000CC0C00207FB503234FF48031CDE901315E
:1014600005AB02460093EC210123084804F0C4F8C0
:101470009DF815309DF814001B0243EA00439DF8C7
:101480001600184307B05DF804FB00BFCC0C002029
:10149000FA2010B5FFF7DEFFB0F5000F37D00011CE
:1014A00004461C4900280A88B8BFC41D0028B8BFDC
:1014B0000F30C2EB201040434FEA4203C3EBE40479
:1014C000B1F90230B1F9042048BF00F6FF70634360
:1014D00000135043002BB8BF03F2FF730028B8BFBE
:1014E00000F57F500C4AB8BF3F30DB1203EBA0334E
:1014F000136003EB830313F1800048BF03F27F10F6
:101500000012FFF7CBFB0549FFF7D0FC10BD0448E4
:10151000FCE700BFF4060020540800200000C84289
:101520000000C07F2DE9F74FFFF7B2FFF720FFF76C
:1015300091FF864B864E1A688646B2F5FA374FEA17
:10154000E273A7FB071243F1FF3C07FB0CF3CDE965
:101550000012019A02EB4303B6F90820019302FB43
:101560000CF1D31707FB0311A2FB07230B4419034C
:10157000019841EA12514FEA0239B6F90A2002FBFA
:1015800000FA0098D31700FB03AAA2FB00235344E0
:10159000002A73F1000802DAFF3243F100034FEA38
:1015A000122A4AEA036AF2884FEA232B1AEB09004F
:1015B0004BEB010B0030A0FB02014BF5004B02FB93
:1015C0000B11002871F1000303DA10F1FF3041F133
:1015D00001014A10CB1752EA030100F0B480B6F9BA
:1015E00010A0019900980AFB01F900994FEAEA7BE3
:1015F00001FB0B91AAFB0089B6F90E00894400FBA0
:101600000CFCC11707FB01CCA0FB070161444FEAAA
:10161000414C4CEAD03C4704002017EB08074CEB48
:10162000090CC01940F635474FEA2E1ECEF5801E34
:101630004FEAEE79B6F90C804FEAC97A4FEACE71DB
:101640004AEA5E0A4FEAC80E4EEB0C0C081AA0FBE1
:1016500007016AEB0C0A07FB0A11FFF7C3FC00281D
:1016600071F10002804689460B4606DA41F6FF70AA
:10167000002318EB000041EB0303B6F916205913C1
:10168000400B40EAC34002FB01F7A2FB00ABD317BB
:1016900000FB03770AFB01F1BB4400FB0B13AAFB21
:1016A000000119440B46002873F10001024606DAD6
:1016B0006FF07E4142184FF0000141EB0303B6F991
:1016C00014A0510E0AFB09F741EAC31111EB0801FE
:1016D0004FEA63604FEAEA7B08FB0B7340EB0900BB
:1016E000AAFB08899944B8F1000F79F1000306DAE2
:1016F000184B18EB03084FF0000349EB03094FEABE
:10170000D84343EA4933CC184FEAE94240EB02059B
:10171000002C75F1000302DAFF3445F100051022B8
:10172000230A43EA0560B6F912302912C3FB02010D
:10173000FEF7A4FE0022084BFEF7CEFEFFF7A4F949
:1017400003B0BDE8F08F0020FAE700BF5408002086
:10175000F4060020FFFF07000000703F10B5FFF700
:1017600097FEFD20FFF75CFEB0F5004F56D02C4AE7
:101770002C4BB2F91E101B680905C1EB8031B2F980
:101780002000A3F5963303FB1010117F10F5804065
:1017900044BF00F5FF407F30594392F9224048BFD3
:1017A00001F2FF7163434FEAE12148BF03F2FF33C7
:1017B00001F500419B124B4348BF03F2FF33B2F9DE
:1017C0001A109B1203F500134B4313F5005344BF4B
:1017D00003F57F533F339B13C01358430346002840
:1017E000BCBF00F5FF437F33DB135B43127E48BF72
:1017F0007F33DB11534348BF0F33A0EB231020EAA4
:10180000E070B0F1C85FA8BF4FF0C8500013FFF7F9
:1018100041FA4FF06A51FFF795FA10BD0248FCE714
:10182000F4060020540800200000C07FD02038B506
:10183000FFF7BAFD602840F0B180B621E020FFF745
:101840009DFDF320FFF7B0FDC307FAD4544C882068
:101850002146FFF7C1FDA11C8A20FFF7CFFD211D06
:101860008C20FFF7CBFDA11D8E20FFF7B5FD04F105
:1018700008019020FFF7C2FD04F10A019220FFF752
:10188000BDFD04F10C019420FFF7B8FD04F10E0139
:101890009620FFF7B3FD04F110019820FFF7AEFD8D
:1018A00004F112019A20FFF7A9FD04F114019C2014
:1018B000FFF7A4FD04F116019E20FFF79FFDA12074
:1018C000FFF772FD04F11A012076E120FFF796FD83
:1018D000E320FFF769FD2077E420FFF765FD05466B
:1018E000E520FFF761FD00F00F0343EA0510E083F8
:1018F000E620FFF759FD0546E520FFF755FDC0F34B
:10190000071343EA05102084E720FFF74DFD84F814
:101910002200F520FFF748FD00F01F0141F0A00173
:10192000F520FFF72BFDF520FFF73EFD00F0E3016A
:1019300041F00801F520FFF721FDF420FFF734FD09
:1019400000F01F0141F06001F420FFF717FDF420C3
:10195000FFF72AFD00F0E30141F00C01F420FFF74E
:101960000DFDF220FFF720FD00F0F80141F003012A
:10197000F220FFF703FDF420FFF716FD0146F420E7
:10198000FFF7FCFCF420FFF70FFDBDE8384000F046
:10199000FC0141F00301F420FFF7F0BC38BD00BFAB
:1019A000F406002008B504224FF47060084902F0E4
:1019B000D7FB04224FF4A060064902F0D1FBBDE83A
:1019C000084004224FF48070034902F0C9BB00BFF5
:1019D00074040020780400207003002008B58021E2
:1019E000002002F051FB002002F020FBFFF7DAFF9D
:1019F000BDE8084006224FF41060014902F0B0BB78
:101A00005808002008B58021002002F03DFB00208E
:101A100002F00CFBBDE8084006224FF410600149BB
:101A200002F09EBB5808002070B5094B094E0A4CC5
:101A30001E600A4E0A4D002808BF3046002918BF14
:101A40000C46084E2C60306002B11A6070BD00BFB9
:101A50000C000020051A0008DD190008A51900086F
:101A6000100000200800002007B5062269464FF448
:101A7000106002F03BFB204B204A1B681A60204A92
:101A80001268110E1971110C5971110A9971DA71DC
:101A900000214FF40002C3E902211A4AC3E90411EC
:101AA0001078996118775078587790789877D0782F
:101AB000D8771079527983F8200083F8212003F138
:101AC0002C0003F1220202F8011B8242FBD100200C
:101AD00003F16C0102F8010B8A42FBD1002003F1F3
:101AE000EC0102F8010B9142FBD1074AC3F8EC204C
:101AF00003B05DF804FB00BF6C0800200101060084
:101B00006008002058080020638253631FB5FFF768
:101B1000ABFF2D4B002219682C4B8A72C1F8F030B4
:101B200040F20713A1F8F430294BCA72187881F8F3
:101B3000F600587881F8F700987881F8F800D8789E
:101B400081F8F90018795B7981F8FA0081F8FB30A7
:101B500040F23243A1F8FC301E4B187881F8FE00A9
:101B6000587881F8FF009878DB7881F8000181F8D7
:101B7000013140F23643A1F80231174B187881F851
:101B80000401587881F80501987881F80601DB781E
:101B900001F5097081F80731FF2381F8083101F25E
:101BA000091303F8012B8342FBD14FF0FF3303935A
:101BB00043230A4800934FF4097203AB007801F005
:101BC00019FD05B05DF804FB6C0800203501043DEB
:101BD00058080020740400206808002070080020C5
:101BE0002DE9F04FA14D8BB0287802F014FB02468E
:101BF00018B900200BB0BDE8F08F0DF11E039C4C0E
:101C00000093216808AB287801F0A4FDBDF81E30D0
:101C1000432B40F028812168964B0C7F1A78944220
:101C2000E7D14C7F5A789442E3D18C7F9A789442E2
:101C3000DFD1CC7FDA789442DBD191F820401A7959
:101C40009442D6D191F821205B799A42D1D18A4A27
:101C50009DF82090177856789578D47847EA06034F
:101C60002B432343029220D04F450BD19DF82130C6
:101C7000B34207D19DF82230AB4203D19DF8233007
:101C8000A34212D07D4B1C784C45B2D19DF8215017
:101C90005C78A542ADD19DF822509C78A542A8D190
:101CA0009DF82340DB789C42A3D180B201EB000A6F
:101CB00000209DF8212001F1F00303929DF82220DD
:101CC0006E4904929DF823206D4C6E4D6E4E6F4F01
:101CD0000592534501D340B28CE793F800C0BCF1A4
:101CE000350F39D013D8BCF1060F08D8BCF1060F58
:101CF00008D8DFE80CF02F34074607075B00BCF17B
:101D0000330F66D003F1020C5B786344E1E7BCF16A
:101D1000E10F00F08C8018D8BCF1360F6DD0BCF10B
:101D2000E00FEFD193F802E093F801C084F800E0EF
:101D300093F803E084F801E093F804E084F802E00B
:101D400093F805E084F803E02DE0BCF1FF0FD9D152
:101D50005346BEE70133BCE798780333B9E793F8FD
:101D600002C087F800C093F803C087F801C093F859
:101D700004C087F802C093F805C087F803C0063393
:101D8000A7E793F802E093F801C086F800E093F823
:101D900003E086F801E093F804E086F802E093F8A7
:101DA00005E086F803E06344023392E793F802E02B
:101DB00093F801C085F800E093F803E085F801E0AE
:101DC00093F804E085F802E093F805E085F803E075
:101DD000E9E793F802C02E4AC2F800C093F803E086
:101DE0000EEB0C2C93F804E00EEB0C2E93F805C0D0
:101DF0000CEB0E2CC2F800C0C1E793F802C0029AA7
:101E000082F800C093F803C081F8009082F801C006
:101E100093F804C082F802C093F805C082F803C0AA
:101E2000039A4A70049A8A70059ACA70A7E79A1CA6
:101E3000964693F801C0C3F1FF2303F57F03DFF853
:101E40005480FE330EEB030BDC4507DC13464FF0EA
:101E5000000E104A634402F80CE03AE71EF801BB9A
:101E600008F801BBEEE7002035E700BF700800204E
:101E70006C08002058080020680800206408002032
:101E80007C0400206C0300207003002078040020F4
:101E9000140000207403002037B54FF4D85002F02E
:101EA000C5F8032105464FF4D85002F0EDF841F291
:101EB00088330E48009311220D4B0E49007801F033
:101EC00099FB044629464FF4D85002F0DDF80D3452
:101ED0000AD0FFF71BFE084B19681A68521A012A2C
:101EE000FBD9002003B030BD0120FBE770080020C3
:101EF00074040020B89F00088804002000230A21F1
:101F0000034A1360034A1160034A1370704700BF0D
:101F1000880400201800002084040020002373B5EA
:101F2000244C062206460D464FF4106021460193CC
:101F300002F0DCF8627823781343A2781343E27846
:101F4000134322791343627913430DD1082262703F
:101F5000DC222146A2704FF4106006222370E37049
:101F60002371637102F0FCF8134B20791E70134B40
:101F7000E1781D60124B62790C18234441401344F0
:101F80004A4013440F4A4FF47060136004220DEB73
:101F9000020102F0E5F804224FF480700DEB02011B
:101FA00002F0DEF8FFF7AAFF0022074B1A7002B01A
:101FB00070BD00BF58080020700800206C08002089
:101FC000785634126008002085040020024A136805
:101FD00001331360704700BF88040020044B1A7857
:101FE00002705A7842709A788270DB78C3707047BA
:101FF00074040020044B1A7802705A7842709A7860
:102000008270DB78C370704770030020044B1A782D
:1020100002705A7842709A788270DB78C370704789
:102020007C040020054A431EFE30117803F8011F8E
:1020300012F8011B09B18342F7D1704774030020E5
:10204000044B1A7802705A7842709A788270DB7862
:10205000C37070477804002000F00F00092894BF77
:1020600030303730704700002DE9F04385B0FFF77E
:10207000FBFC0023694A6A48137053709370D37055
:10208000684A137053709370D370674B1968674B2D
:10209000C1F8F03040F20713A1F8F430644B1A781D
:1020A00093F8038081F8F6205A781F795E7981F8D9
:1020B000F7209A780C23A1F8FC30122381F8F8203D
:1020C00081F8F98081F8FA7081F8FB60A3F11202BF
:1020D00092B2845C5D1CADB201EB0309002C40F0B0
:1020E00093804FEA1810FFF7B7FF89F8EC004046DD
:1020F000FFF7B2FF0D4485F8EC003809FFF7ACFF9D
:102100009D1CADB20D4485F8EC003846FFF7A4FFE6
:10211000DD1CADB20D4485F8EC003009FFF79CFFE3
:102120001D1DADB20D4485F8EC003046FFF794FF5D
:102130005D1DADB20D4485F8EC00981D80B2D51D33
:10214000451B06320D4485F8EC203722084480F800
:10215000EC200820DA1D92B20A4482F8EC001A182A
:10216000012092B20A4482F8EC00032003F1090234
:1021700092B20A4482F8EC00062003F10A0292B2FD
:102180000A4482F8EC000F2003F10B0292B20A44D9
:1021900082F8EC003A2003F10C0292B20A4482F871
:1021A000EC003B2003F10D0292B20A4482F8EC00ED
:1021B000E02003F10E0292B20A4482F8EC00E12022
:1021C00003F10F0292B20A4482F8EC00FF2003F1FF
:1021D000110210339BB20B4492B283F8EC0002F16F
:1021E000EC030B44B2F59C7F12D34FF0FF33039303
:1021F0004323104800934FF4097203AB007801F0B9
:10220000F9F905B0BDE8F0832B4689F8EC405DE7AD
:10221000013203F8014B92B2E4E700BF68080020E6
:1022200000000020640800206C0800203501013DFA
:1022300058080020700800202DE9F04385B0FFF712
:1022400013FC924B92491B78033B012B00F2108147
:1022500000220B689A72DA728E4A107818735078DE
:1022600058739078D2789873DA738B4B1A788DF80C
:102270000C205A788DF80D209A78DB788DF80E2096
:102280008DF80F300968854BC1F8F03040F2071324
:10229000A1F8F430824B1A78DF7881F8F6205A786A
:1022A0001E7993F8058081F8F7209A789DF80F3011
:1022B00081F8F820FF2B81F8F97081F8FA6081F835
:1022C000FB8040F0D98040F23243A1F8FC30714BE2
:1022D0001A7881F8FE205A7881F8FF209A78DB7806
:1022E00081F8002181F8013140F23643A1F8023132
:1022F000694B1A7881F804215A7881F805219A7877
:10230000DB7881F806211C2281F807310C208B181C
:1023100083F8EC00931C01328818002280F8EC202E
:10232000604810F8015B5C1CA4B201EB0309002DAE
:1023300040F0A4803809FFF78FFE89F8EC0038469A
:10234000FFF78AFE0C4484F8EC003009FFF784FEA6
:102350009C1CA4B20C4484F8EC003046FFF77CFED1
:10236000DC1CA4B20C4484F8EC004FEA1810FFF710
:1023700073FE1C1DA4B20C4484F8EC004046FFF729
:102380006BFE5C1DA4B20C4484F8EC00981D80B276
:10239000D41D041B06320C4484F8EC203722084478
:1023A00080F8EC200A20DA1D92B20A4482F8EC0090
:1023B000012003F1080292B20A4482F8EC000320E3
:1023C00003F1090292B20A4482F8EC00062003F1FC
:1023D0000A0292B20A4482F8EC000F2003F10B02C9
:1023E00092B20A4482F8EC003A2003F10C0292B255
:1023F0000A4482F8EC003B2003F10D0292B20A4439
:1024000082F8EC001F2003F10E0292B20A4482F817
:10241000EC00212003F10F0292B20A4482F8EC0092
:10242000E02003F1100292B20A4482F8EC00E120AD
:1024300003F1110292B20A4482F8EC00FF2003F18A
:10244000120292B20A44133382F8EC009BB201F1FB
:10245000EC02B3F59C7F16DB4323134800934FF443
:10246000097203AB007801F0C5F805B0BDE8F08350
:102470004FF0FF33039305E7102247E7234689F81F
:10248000EC5001324DE7D5540133E2E785040020DA
:102490006C08002074040020680800203501033D0A
:1024A00058080020000000207008002070B51C4C67
:1024B00094F90030012B1DDC1A4D1B4E2A6831683F
:1024C000914212D2194B93F90030022B0FD0042BFA
:1024D0000DD0012B01D1FFF7C7FD00232B602B6826
:1024E0000A333360237801332370012010E0FFF7B3
:1024F000A3FEF2E70D4B93F900201C46022A08D0F8
:10250000042A06D0012A09D100201870FFF7F6FC32
:1025100070BDFFF7A9FD01202070F7E70120F5E766
:102520008404002088040020180000208504002076
:1025300038B5524C94F90030062B00F09C80504D79
:102540002878400100F5427001F070FD222805D086
:10255000002344220221287800F0BAFFFFF740FB55
:1025600094F90030C5B2042B31D8DFE803F0030E34
:10257000233D5A000022434B1A705A709A70DA7049
:10258000FFF772FD0120207038BD022D0ED13E4BA9
:102590001A683C4B117C1970517C5970917CD27C2B
:1025A0009970DA70FFF748FE257010E0BDE83840FA
:1025B000FFF77CBF052D12D1FFF76EFC054640B139
:1025C000324B1B689847FFF799FC032323700120C7
:1025D000DAE7FFF793FC2E4B1B689847E4E7062DDC
:1025E000E4D1FFF78BFCCDE72A4B1B685A1C40D087
:1025F000294A1268B2EB530F3BD9224A274B117874
:102600001970517859709178D2789970DA70244A9B
:10261000136801331360FFF70FFEFFF76FFC042010
:10262000B1E7052D1FD100221E4B1A701B4A154B16
:102630001078197888420BD150785978884207D1A0
:1026400090789978884203D1D278DB789A4208D082
:10265000154B1B6898470320FFF750FC032323709A
:1026600092E70420F8E7062DA0D1FFF747FC0123ED
:102670002370042088E7052086E700BF850400203A
:1026800070080020740400206C080020080000205E
:102690000C0000201400002088040020800400208A
:1026A0006008002084040020100000200122014B5B
:1026B0001A707047980400207047000000224FF401
:1026C0008051014802F06ABC000C014001224FF425
:1026D0008051014802F062BC000C01400A464FF0F4
:1026E000FF330146014804F01EB900BF740C0020FE
:1026F00007B501210DF10700FFF7F0FF9DF8070076
:1027000003B05DF804FB00000A464FF0FF330146BA
:10271000014803F06CBF00BF740C002007B5012115
:102720008DF807000DF10700FFF7EEFF03B05DF82D
:1027300004FB000073B52B492B4801F013FE2B4915
:102740002B4801F021FE2B492B4801F035FE6B464A
:102750002A4A2B4D1068516842F2117403C369462E
:10276000084601F07EFE06224FF41060254901F074
:10277000F7FC00202449FFF7D1FB2449244A0846EE
:10278000FFF752F92E462B780BB9013C20D1337854
:10279000E3B11C4CA01DFFF721FC04F10E00FFF774
:1027A00029FC04F10A00FFF74BFC04F11600FFF7C7
:1027B0002DFC04F11A00FFF735FCA37E73B915490F
:1027C000154805F08BF90F4801F088FE02B070BD86
:1027D000FFF7AEFE642001F01DFFD4E704F11A01FB
:1027E000EEE700BFCD260008BD2600081D27000823
:1027F000F126000809270008DD260008D79F0008F9
:10280000980400201D00002074080020AD26000858
:10281000B9260008CA9F00085407002030B51422CA
:102820000024102595B021460DEB0200CDE90B44A4
:102830000D9404F0CBFC2A46214601A804F0C6FC06
:102840000A230A930123CDE90E35109302254FF494
:1028500060130AA8CDE91154139303F03FF808B1AF
:1028600072B6FEE70F23CDE905354FF4806307907C
:10287000CDE90830294605A803F006FA08B172B67A
:10288000FEE74FF400730322CDE901234FF44043E8
:1028900001A8039303F0B4FA08B172B6FEE715B0CD
:1028A00030BD00000000000001264FF0400A002467
:1028B0004FF003084FF480552DE98048A94F99B097
:1028C00001F084FEFFF7AAFF1022002110A804F0F7
:1028D0007DFCBB69002243F00403BB61BB694FF47C
:1028E000805103F004030193019BBB699E4843F0B0
:1028F0000803BB61BB69DFF8B0B203F008030293C1
:10290000029B02F04BFB00224FF41141974802F06A
:1029100045FB974B954810A9CDE910A3129602F0FC
:1029200061FA914810A9CDE91248CDE9105602F09C
:1029300059FA4FF40143CDE9103602238B4810A910
:102940001393129402F04EFA884810A9CDE9124868
:10295000CDE9105602F046FA22462146172002F031
:10296000D1F8172002F000F97B69224633437B61DE
:102970007B69214633400B200093009B02F0C2F894
:102980000B2002F0F1F84FF00C084FF4E1337948D6
:10299000C0E900B3C0E90244C0E905840461C46130
:1029A00004F0B4FB034608B172B6FEE749F64042B4
:1029B0004FF480447048DFF8F491C0E90233C0E975
:1029C0000443C0E906330362C0E9009202F0DCFC74
:1029D000034608B172B6FEE74FF482726748DFF82B
:1029E000D0E1C0E90233C0E900E24FF40072C0E96F
:1029F0000433C0E90623C0E9083383620A23C362B3
:102A000003F09DFD08B172B6FEE705275C485D4BFB
:102A1000C0E9003740F6FF73836002F02BFF0346E6
:102A200008B172B6FEE75848DFF888C1574AC0E9D6
:102A30000233C0E90443C0E906330362C0E900C2BF
:102A400002F0A2FC034608B172B6FEE74FF416523C
:102A50004F485049C0E90233C0E90012C0E90438C8
:102A6000C0E9063304F052FB08B172B6FEE74A4CE7
:102A70004A4BCDE9100023604FF460231290A06010
:102A80002073207560602046E361266101F07EFFBF
:102A900008B172B6FEE7204610A9CDE9107612966D
:102AA00001F006FE044608B172B6FEE701461022A8
:102AB00005A804F08BFB1C22214609A8CDE903449C
:102AC00004F084FB2022214610A804F07FFB344E42
:102AD000344B3046C6E900374FF6FF73C6E903347E
:102AE0008023B4607461B36104F036F908B172B642
:102AF000FEE7304605A9059504F0E3F908B172B682
:102B0000FEE7274804F054F908B172B6FEE7402307
:102B100003A9CDE90330224804F068FA024608B15F
:102B200072B6FEE73023CDE90B00CDE90930CDE9DF
:102B30000D000F9009A91A4804F092F908B172B675
:102B4000FEE74FF40053CDE91000CDE912001490D8
:102B5000179010A91248159304F076FA60B372B674
:102B6000FEE700BF00100240000C014000080140D9
:102B70000000111098110020CC0C0020740C0020D3
:102B8000200D0020003000402C0D0020A086010008
:102B90007C120020004400401C070020002401405B
:102BA00034120020002C0140003801400054004045
:102BB00000380040005800404FF0FF334FF480765B
:102BC000B548B64A8660C0E9002303F0DFFB05463E
:102BD00008B172B6FEE701220FF2AC29D9E90089EB
:102BE0004FF48051AE48AF4C02F0D8F900F0A6FF88
:102BF0002946284600F082FF94E806000123AA48EF
:102C000000F068FF00F0E2FE31462A46A44802F0D8
:102C1000C5F931460122A24802F0C0F901224FF461
:102C20008051A24802F0BAF94FF4FA6001F0F2FCC8
:102C3000FFF780FD1C229E4B28469E4900F0A6F916
:102C40000921284600F05AFF94E8060001239A481B
:102C500000F040FF00F0BAFEFEF7E8FD1221284622
:102C600000F04CFF94E806000123944800F032FF86
:102C700000F0ACFE924803F065FF01F0C5FC0026B1
:102C8000904BDFF8A0A2904F186001F0BDFC8F4D73
:102C90002B68C01AB0F57A7F40F2D18001F0B4FC05
:102CA0002860FEF7F5FB8A4BDFF87CB21860FEF770
:102CB00039FC5146FEF746F8CBF80000FEF74EFD12
:102CC000844D2860002000F071FE814B1868FDF7EC
:102CD000ABFB02460B468048804904F0DFFE002132
:102CE000084600F00BFF94E8060001237A4800F044
:102CF000F1FEDBF80000FDF797FB02460B46764835
:102D0000774904F0CBFE0821002000F0F7FE94E89C
:102D100006000123704800F0DDFE2868FDF784FB03
:102D200002460B466C486F4904F0B8FE10210020A3
:102D300000F0E4FE94E806000123674800F0CAFEB4
:102D400032463B466849644804F0A8FE182100203A
:102D500000F0D4FE94E8060001235F4800F0BAFEBC
:102D6000624B63491A885C4804F098FE614D00216B
:102D70003A2000F0C3FE94E806000123564800F014
:102D8000A9FE2868FDF750FB02460B4652485A49F7
:102D900004F084FE08213A2000F0B0FE94E806001A
:102DA00001234D4800F096FE2868FDF73DFB4246A2
:102DB0004B46FDF791FB02460B4647484F4904F04E
:102DC0006DFE10213A2000F099FE94E806000123E0
:102DD000414800F07FFE4A4B4A4D1888FDF712FB30
:102DE0002BA3D3E90023FDF777FB02460B463A48B5
:102DF000454904F053FE18213A2000F07FFE94E884
:102E000006000123344800F065FE002229462248CE
:102E100003F0E8F96B782A783C492F4804F03EFE2D
:102E20000021612000F06AFE94E8060001232A4890
:102E300000F050FE00F0CAFD354802F042FD01F0FE
:102E4000E3FB344D2B68C01A334B9842334B03D805
:102E50001A78002A3FF419AF00221A7001F0D4FB4F
:102E600028602F4D2E4800F071FA0128FAD125492B
:102E70002B7900220B706B7907484B70AB798B7004
:102E800003F05FF901E700BF3333333333331340CB
:102E900046B6F3FDD478D93F201200200028004028
:102EA0000008014040010020E09F0008000C0140A4
:102EB000980D002037010020EA9F0008F79F0008C6
:102EC000341200209404002000409F401807002086
:102ED000E806002050070020880D0020FF9F000812
:102EE00006A000080DA0000814A000088C04002013
:102EF0001DA000089004002022A000082AA00008BD
:102F0000EC060020A004002032A0000838A0000831
:102F1000200D00209C04002080EE36001C000020C4
:102F2000800D0020E8C7F53BF00600204028F8B5EA
:102F300022D1124E34880134A4B2B4F5617F3480BA
:102F40001AD301F061FB05462046FDF7A7FE0C4FA2
:102F5000044638682D1A4FF47A70B5FBF0F0FDF78F
:102F600099FE01462046FDF7A1FF064B186000239D
:102F7000338001F049FB3860F8BD00BF8C040020AD
:102F8000940400209004002072B6FEE710B5134CA4
:102F900020700C78124804704C7844708C788470DF
:102FA000C978C1700F490A700F4A13600F4B002295
:102FB00043600023C0E90333038103750023C0E9A4
:102FC0000623C0E90823C0E90A2301220023C0E93F
:102FD0000C232322064B1A7010BD00BF06130020DD
:102FE00008130020FC120020C81200200400030077
:102FF000CC120020000000002DE9F74F0023724A98
:1030000007460E46FEF73EF84FF0000CCDE90001F2
:10301000B846B146624661464FF4C87E64200FF25E
:10302000A01BDBE900ABCB4508BFC2451FFA8CF300
:103030005AD3009803F26C73841A01989BB260EB28
:1030400001054FF4C871B3FBF1FE01FB1E3E642184
:10305000B3FBF1F94FF0010C01FB193941F2AA5B06
:103060000021DFF870811FFA8EFEA8F800301FFAE9
:1030700089F903F003031C2C75F100005DDA009858
:1030800088F802C00130821A511A88F803103846B5
:10309000314600234C4AFDF7F5FF15461C464FF418
:1030A0006162002328462146FDF7ECFF214688F89F
:1030B00004004FF4616228460023FDF7E3FF154644
:1030C0001C463C22002328462146FDF7DBFF214613
:1030D00088F805003C2228460023FDF7D3FF88F836
:1030E000062003B0BDE8F08F1FFA8CF303F26C7377
:1030F00093FBFEFB0EFB1B3BBBF1000F08D093FBC9
:10310000F0FB00FB1B3BBBF1000F0DD09B070BD16D
:103110002E4B18EB030849F1FF3912F5B77241F154
:1031200000010CF1010C7AE7294B18EB030840F27F
:103130006D1349F1FF39D218F1E7BCF10C0F2DD80E
:103140002BFA0CFA1AF0010F07D01F3C45F1FF359E
:10315000002C75F1000092DB1F31BCF1020F1DD174
:10316000BEF1000F03D0B9F1000F0DD063B91D3CC3
:1031700045F1FF35002C75F1000080DB1D310CF1AD
:10318000010C5FFA8CFC76E71C3C45F1FF35002C06
:1031900075F10000FFF673AF1C31F0E70CF0FD0A8B
:1031A000BAF1040F02D0BAF1090FE8D11E3C45F183
:1031B000FF35002C75F10000FFF661AF1E31DEE730
:1031C0007F33E1010000000080510100007B1DFE03
:1031D00080CC1EFEFE12002000234218184619461D
:1031E00030B4013312F8014BDBB20902042B41EA7F
:1031F000106144EA0020F4D1484B1B78312B1ED8D3
:10320000DFE803F0192022242628282B2B2D2D2F30
:103210002F2F31333336383A3D1D1D404040454550
:103220004848505356595C5F6265686B6E7174779D
:103230007A7D808386893A4BC01841F1FF3130BCDA
:10324000FFF7DABE374BF7E7374BF5E7374BF3E7D6
:10325000374BF1E7B0F5E140EFE7364BECE7364BA3
:10326000EAE7364BE8E7364BE6E7B0F56150E4E7CE
:10327000344BE1E7344BDFE7B0F5E150DDE7B0F583
:103280006160DAE710F5616041F10001D7E710F500
:10329000E150F9E742F63023C0184FF0000343EB4A
:1032A0000101CCE743F23813F6E710F56150EBE784
:1032B00043F64873F0E744F25063EDE744F65853A1
:1032C000EAE745F2DC03E7E745F26043E4E745F669
:1032D0006833E1E746F27023DEE710F5E140D3E71B
:1032E00047F69063D8E748F29853D5E748F6A043ED
:1032F000D2E749F2A833CFE749F6B023CCE74AF248
:10330000B813C9E74AF6C003C6E74BF24C33C3E72C
:103310004BF2D063C0E74CF2E043BDE7FC12002063
:103320004057FFFF5065FFFF6073FFFF687AFFFFA4
:103330007081FFFF909DFFFFA0ABFFFFB0B9FFFFC3
:10334000B8C0FFFFC8CEFFFFD0D5FFFF2DE9F04387
:103350000024DFF8FC80814698F8000085B0400129
:1033600000F54270039400F061FE474605460028D0
:1033700059D022285FD198F8000000F04CFF2F4E62
:10338000054678B33828024628BF38222C4D0DF167
:103390000A030093296803AB92B298F8000000F08A
:1033A000D9F928682821FFF717FF264B01251A882D
:1033B000A9F800209A7898F8000089F80220DA78B5
:1033C000348089F803201A7989F804205A7989F819
:1033D00005209B7989F8063000F03CF8284605B0B6
:1033E000BDE8F0834FF6FF723388934215D063B97E
:1033F0007B2300933022144B1449387800F0FAF8FC
:103400003388002501333380E8E7C3EB0312C3EBB5
:1034100002339BB2102BE1D8EAE7308098F8000025
:1034200000F018F8DAE703467B22022198F8000042
:1034300000F04EF8D2E72546D0E700BFA4040020F4
:10344000C8120020FE12002008130020CC12002019
:10345000061300200828F8B504462DD8470107F1C7
:10346000080607F584771021384600F00DFE38462F
:1034700000F0DCFD05460028F9D11F2106F500709B
:1034800000F002FE0123A340DB430D491BB20A8872
:1034900006F540761A400A800A4A11880B401380CC
:1034A000094B23F81450094B1D55304600F0BEFD62
:1034B0000028FAD10120F8BD4FF0FF30FBE700BF34
:1034C000A6040020A8040020B2040020AA040020C2
:1034D00008282DE9F3410446884617461D467CD846
:1034E000012905D08B1E022B10D96FF004000AE0D1
:1034F00004224FF470600DEB020100F0F7FD019B18
:1035000023B96FF0020002B0BDE8F081680757D41C
:103510002DB1B8F1010F50D0B8F1020F53D02046B1
:103520006601FFF797FF083625F00F01304641EAA4
:10353000080100F0A9FD6FB94FF6F071284A17880D
:103540007B1C9BB28B4205BF4FF440434FF6EF7795
:1035500013801380390A06F5806000F095FDF9B2FA
:1035600006F5A06006F5807700F08EFD0121384653
:1035700000F08AFD384600F059FD0028FAD10123F9
:10358000A340DB4317491BB20A8805F001051A4026
:10359000A5401543144A0D80118806F540760B406E
:1035A0001380124B23F81400114B1855304600F0CD
:1035B0003DFD0028FAD060B2A5E715F0210FAED18D
:1035C0006FF005009FE7A9066BB201D5002BF7DA73
:1035D000EA06A4D5002BA2DBF2E74FF0FF3092E71A
:1035E0003C010020A6040020A8040020B204002012
:1035F000AA0400202DE9F84F0828064688461446FC
:103600001F46BDF828A000F29780450108352846DE
:1036100000F00CFD00F00F000238022800F28F804D
:10362000002C00F08F803B787A7802EB0322BB7885
:1036300003EB0222FB7803EB0223002B3CD0BAF110
:10364000000F41D005F54079484600F0EFFC4228D4
:1036500042D10422394605F5406000F081FD4FEA71
:103660001A2105F5805000F00FFD5FFA8AF105F58B
:10367000885000F009FD05F5F85000F0D7FC8002F5
:1036800080B24FF0010A844228BF0446DFF8C0B080
:103690000AFA06FA304600F09DFD0746484600F05B
:1036A000C5FC002851D0BBF8003013EA0A0F1AD02D
:1036B000BC421AD9002034E0284600F0B7FC40078D
:1036C000BDD46FF00B002CE0284600F0AFFC4107A2
:1036D000B8D46FF00A0024E000F0EF002228B8D040
:1036E0006FF006001DE0BC42D4D830464146224669
:1036F00005F5807600F0B0FD2021304600F0C4FCD6
:10370000304600F093FC0028FAD105F500752846F4
:1037100000F08CFCC20606D52846102100F0B4FC4F
:103720002046BDE8F88F0307F1D52846082100F0B0
:10373000ABFC6FF00C00F4E74FF0FF30F1E76FF0F7
:103740000400EEE76FF00D00EBE76FF00300E8E731
:10375000A60400202DE9F04F082804468A46914629
:10376000984685B000F2E88047010837384600F0F7
:103770005DFC00F00F02023A022A834600F2DF806D
:10378000B9F1000F00F0DE80714E36F81420002AE7
:103790007AD1012107F54073A140009320460191A1
:1037A00000F039FD0546009800F040FC002800F0CC
:1037B000CC80684B01991A880A4202D01DB928466C
:1037C00089E0002DEAD00BF00700032807F5807789
:1037D00000F08480042859D0022840F0A68036F8F2
:1037E00014308BBB082220460DEB020100F061FD76
:1037F0004021384600F048FC384600F017FC00280D
:10380000FAD19DF808309DF80C2088F800309DF81A
:10381000093088F801309DF80A3088F802309DF8A8
:103820000B3088F803309DF80D3003EB02230E9A1D
:1038300013809DF80E209DF80F3003EB022326F82D
:1038400014308022444B1A5536F8145051464D45D9
:1038500028BF4D4620462A4600F02BFD4021384621
:1038600000F012FC384600F0E1FB0028FAD136F8EF
:103870001430394A5B1B9BB226F8143013B1105D2B
:1038800040F0010010559AE700259CE736F8143007
:10389000002BD9D1204602A9022200F00AFD4021C6
:1038A000384600F0F1FB384600F0C0FB0028FAD1A2
:1038B0009DF809309DF80820023B03EB022340F2FB
:1038C000EA529BB2934226F81430BAD92046FFF749
:1038D000C1FD6FF47A7005B0BDE8F08F36F8143092
:1038E000002BB1D1204602A9062200F0E2FC4021C3
:1038F000384600F0C9FB384600F098FB0028FAD1A2
:103900009DF808309DF80C2088F800309DF80930AB
:1039100088F801309DF80A3088F802309DF80B30A5
:1039200088F803309DF80D3087E72946204600F0DF
:10393000EDFC26F8145091E74FF0FF30CBE76FF025
:103940000400C8E76FF00D00C5E76FF00300C2E7A1
:10395000B2040020A6040020AA0400207FB50123A1
:103960004FF0FF32CDE901320DF117028DF817004B
:10397000009278210022034801F0AEFD07B05DF807
:1039800004FB00BFCC0C00201FB54FF0FF3389B201
:10399000CDE900010293402201237821024801F081
:1039A0009BFD05B05DF804FBCC0C0020002306490C
:1039B000021E18BF012201335242B3F5007F01F805
:1039C000012BF5D1704700BFC804002038B5B024E2
:1039D0000A4D2046FFF7C2FF0020FFF7BFFF01346A
:1039E0001020FFF7BBFFE4B228468021FFF7CCFF91
:1039F000B42C05F18005ECD138BD00BFC80400200F
:103A0000030630B511D41F290FD80124CB08074D68
:103A100000EBC31001F007012B5604FA01F149B283
:103A2000A2420CBF0B438B432B5430BDC804002073
:103A30002DE9F04F0546A5F120041F4687B0E3B2FB
:103A400006A85E2B00E906003FD8214B9DF810B078
:103A50001A88029300925A44802A019235DC9DF81C
:103A60001190598801EB0902202A2EDC4FF0000842
:103A700009FB04F45FFA81FA6400C14506D8DDE968
:103A800001231A80284607B0BDE8F08F0026059A6A
:103A9000135B0393B34507D80AF1010108F101084C
:103AA00002345FFA81FAE8E7009B5146F018039B65
:103AB000C0B203FA06F2130456BFB7FA87F23A46C9
:103AC0005209FFF79DFF0136E4E70025DAE700BF62
:103AD000C204002073B56D461E4685E80600441EEC
:103AE00014F8010F40B195E806003346FFF7A0FF38
:103AF000034620788342F3D002B070BD014B18809A
:103B000059807047C204002010B504468120FFF799
:103B100025FF2046BDE81040FFF720BF02460028E1
:103B200003460CBF13460123034A14BFAF20AE2047
:103B30005371FFF713BF00BFC204002008B5642013
:103B400000F068FD0020FFF7E9FF2020FFF706FFE7
:103B50000020FFF703FFB020FFF700FFC820FFF7AA
:103B6000FDFE0020FFF7FAFE1020FFF7F7FE4020D1
:103B7000FFF7F4FEFF20FFF7C7FFA120FFF7EEFEDF
:103B8000A620FFF7EBFEA820FFF7E8FE1F20FFF7B7
:103B9000E5FEA420FFF7E2FED320FFF7DFFE0020C2
:103BA000FFF7DCFED520FFF7D9FEF020FFF7D6FEA9
:103BB000D920FFF7D3FE2220FFF7D0FEDA20FFF74F
:103BC000CDFE0220FFF7CAFEDB20FFF7C7FE202054
:103BD000FFF7C4FE8D20FFF7C1FE1420FFF7BEFEE5
:103BE0000120FFF79BFF0020FFF7E0FEFFF7EEFE4E
:103BF0000022034B1A805A8001221A7108BD00BFAF
:103C0000C20400200E4B82B09A6942F001029A6110
:103C10009A6902F001020092009ADA6942F0805239
:103C2000DA61DB69074A03F080530193019B536813
:103C300023F0E06343F08063536002B0704700BF3D
:103C4000001002400000014030B5054687B0102248
:103C5000002102A803F0BAFA2A681C4B9A4232D11A
:103C600003F56C439A691A4842F400729A619A69A2
:103C700002A902F400720092009A9A69154C42F06F
:103C800004029A619B69202203F004030193019BC3
:103C90000323CDE9022301F0A5F84FF480704FF41F
:103CA000806200230C49C4E904022046C4E90013E1
:103CB000C4E90233C4E9063300F07AFF08B1FFF724
:103CC00063F92C62656207B030BD00BF002401407B
:103CD00000080140DC11002008000240102210B54D
:103CE000044688B00DEB0200002103F06FFA236850
:103CF000254A934226D1254C4FF44071A3692448AC
:103D000043F00803A361A36903F008030093009B39
:103D10001223CDE90413032304A9079301F062F8E9
:103D20001C4A536843F0E06343F002035360E369C5
:103D300043F40013E361E36903F400130193019B6F
:103D400008B010BD144A9342FAD1104C4FF44062AF
:103D5000A3690F4843F00803A361A36904A903F012
:103D600008030293029B1223CDE904230323079344
:103D700001F038F8E36943F48003E361E36903F495
:103D800080030393039BDBE70054004000100240D4
:103D9000000C0140000001400058004007B50B4BEB
:103DA00002689A420ED101F093FD094BDA6942F0A4
:103DB0000062DA610122DB6903F000630193019B79
:103DC000044B1A6003B05DF804FB00BF00280040FC
:103DD000001002403C04424210B5044686B0102256
:103DE000002102A803F0F2F92268174B9A4228D169
:103DF00003F5EC33DA69154842F48042DA61DA6996
:103E000002A902F480420092009A9A6942F00802E4
:103E10009A619B694FF4204203F008030193019BD0
:103E20000223CDE902230323059300F0DBFF4FF4C7
:103E3000804100230548CDE9021302A9049300F054
:103E4000D1FF06B010BD00BF00380040000C01409B
:103E500007B50E4B02689A4215D103F564439A697F
:103E6000192042F400629A6100229B69114603F412
:103E700000630193019B00F045FE192003B05DF83B
:103E800004EB00F071BE03B05DF804FB002C0140B0
:103E9000102210B5044688B00DEB0200002103F09B
:103EA00095F923682D4A93422ED12D4B40209A69D3
:103EB00004A942F480429A619A69802402F4804203
:103EC0000092009A9A6942F008029A619B6903F095
:103ED00008030193019B0223CDE904030323214836
:103EE000079300F07FFF00231E4804A9CDE9044397
:103EF000069300F077FF1C4A536843F0E06343F0F9
:103F00000403536008B010BD184A9342FAD1144B11
:103F100004A9DA69164842F40032DA61DA6902F477
:103F200000320292029A9A6942F004029A619B69F5
:103F3000042203F004030393039B0223CDE904232B
:103F40000323079300F04EFF002308210848CDE922
:103F5000041304A9069300F045FFD3E7003801409D
:103F600000100240000C01400000014000440040ED
:103F700000080140FEE7FEE7FEE7FEE7FEE77047C8
:103F80007047704710B5084C238801339BB2B3F5D6
:103F90007A7F238003D3FEF719F800232380BDE83E
:103FA000104000F025BB00BFC806002008B54FF444
:103FB00080510E4800F0F7FF0D4800F065FD0D4BF5
:103FC0001B88B3F57B7F0BD201224FF400410748D9
:103FD00000F0E4FF00224FF40041044800F0DEFF4F
:103FE000BDE80840044800F06BBE00BF0008014077
:103FF0001C070020EC060020DC110020402000F00F
:10400000DBBF000008B501220449054800F00AFCA6
:10401000BDE80840034802F0C5BD00BFEC06002023
:104020001C070020341200207047000073B50546BD
:10403000144CC5F30726E368984763699847636A99
:10404000C5F30740EDB20BB1A36A8BB9236A984759
:104050003046236A98472846236A9847E369984779
:104060000546A369984723699847284602B070BD62
:104070008DF8040003218DF805608DF8065001A825
:104080009847EBE74C010020F7B50546164C0F4664
:10409000E368984763699847A36A45F00406C5F347
:1040A0000740F6B2C5F3072583B9236A9847284627
:1040B000236A98473046236A98473846236A9847C8
:1040C000A36998472369984703B0F0BD04218DF890
:1040D00004008DF805508DF806608DF807700DEB23
:1040E00001009847ECE700BF4C0100202DE9F341A7
:1040F00005461A4C0E46E368174698476369984789
:10410000636AC5F30740C5F30728EDB20BB1A36A94
:10411000B3B9236A98474046236A98472846236ADA
:1041200098473744B74206D1A3699847236998470F
:1041300002B0BDE8F081E369984706F8010BF1E7AA
:104140008DF80400032101A88DF805808DF8065034
:10415000984739463046636A9847E5E74C010020A6
:104160002DE9F34105461A4C8846E36817469847FF
:1041700063699847A36A45F00406C5F30740F6B2A1
:10418000C5F30725B3B9236A98472846236A984799
:104190003046236A98474744474506D1A369984764
:1041A0002369984702B0BDE8F081236A18F8010B33
:1041B0009847F1E78DF80400032101A88DF8055018
:1041C0008DF80660984739464046A36A9847E5E768
:1041D0004C010020F8B500244601083606F50057CA
:1041E00006F504563846FFF721FF05023046FFF773
:1041F0001DFFADB20544ADB24DB13846FFF716FF15
:1042000004023046FFF712FFA4B20444A4B2AC4249
:10421000E8D12046F8BDF8B500244601083606F579
:10422000185706F51C563846FFF700FF05023046C2
:10423000FFF7FCFEADB20544ADB24DB13846FFF715
:10424000F5FE04023046FFF7F1FEA4B20444A4B226
:10425000AC42E8D12046F8BD2DE9F8438946144622
:104260002AB385006F1CFF0007F510584046FFF782
:10427000DDFE07F5145706463846FFF7D7FE00EB7C
:10428000062086B2023530022246494600EBC500C0
:10429000FFF766FFA11940468CB2C1F30721FFF773
:1042A000F3FE3846E1B2BDE8F843FFF7EDBEBDE8E6
:1042B000F8832DE9F843894614462AB385006F1C1C
:1042C000FF0007F520584046FFF7B0FE07F52457DA
:1042D00006463846FFF7AAFE00EB062086B20335F5
:1042E00030022246494600EBC500FFF7FFFEA11948
:1042F00040468CB2C1F30721FFF7C6FE3846E1B253
:10430000BDE8F843FFF7C0BEBDE8F883F8B5440147
:10431000083404F5205738460D46FFF787FE04F5AC
:10432000245406462046FFF781FE291801EB06219A
:1043300038468DB2C1F30721FFF7A6FE2046E9B249
:10434000BDE8F840FFF7A0BE7047007870470170E5
:10435000704700207047704770477047704770473C
:1043600070470000054B00B121B9054A5A61054A62
:104370009A617047C3E90501704700BF4C010020F6
:104380005F43000861430008084B10B51C881A46BB
:10439000A40500D4FEE700B121B9054BD361054B5C
:1043A000136210BDC3E90701FBE700BF4C01002009
:1043B0005343000857430008084B10B51C881A46A1
:1043C000A40500D4FEE700B121B9054B5362054BAB
:1043D000936210BDC3E90901FBE700BF4C01002057
:1043E000594300085B4300087FB5062204A94FF437
:1043F0001060FFF77BFE04224FF480700DEB02018A
:10440000FFF774FE02A904224FF4A060FFF76EFECE
:10441000042203A94FF47060FFF768FE802100209A
:10442000FFF732FE0020FFF701FE04A906224FF439
:104430001060FFF795FE04224FF480700DEB02012F
:10444000FFF78EFE02A904224FF4A060FFF788FE5A
:1044500004224FF4706003A9FFF782FE07B05DF8F5
:1044600004FBF8B505460C46FFF7BEFFBDB16E1E56
:1044700032460023073512F8011F0B445BB2102BA4
:1044800029DCAA42F7D141F6087542F2080728460E
:1044900016F8011F2035FFF7F7FDBD42F7D10CB923
:1044A0000020F8BD651E2A460023073412F8011FBC
:1044B0000B445BB2102B0EDC9442F7D141F608643A
:1044C00041F60876204615F8011F2034FFF7DCFD81
:1044D000B442F7D1E4E74FF0FF30E2E710B504460D
:1044E000014606224FF41060FFF73AFE04224FF413
:1044F000807004F10E01FFF733FE04224FF4A06038
:1045000004F10A01FFF72CFE04224FF47060A11D94
:10451000FFF726FE064BA27C1A70E27C5A70227DC1
:104520009A70627DDA7094F81921024B1A7010BDEE
:10453000CB060020CA0600200C480D490D4A002376
:1045400002E0D458C4500433C4188C42F9D30A4A48
:104550000A4C002301E013600432A242FBD3FFF7B0
:1045600063FD02F001FEFEF79FF970470000002096
:104570005003002054AA00085003002054130020C8
:10458000FEE7000038B50E4B054618784FF47A73F5
:10459000B3FBF0F30B4A1068B0FBF3F000F0F2FA53
:1045A000044658B90F2D09D8024629464FF0FF306E
:1045B00000F0A8FA2046044B1D6038BD0120FCE73E
:1045C00078010020480100207C010020074A08B53E
:1045D0001368032043F01003136000F081FA0020F9
:1045E000FFF7D0FFFFF70EFB002008BD00200240C0
:1045F000034A044B11681B780B441360704700BFDB
:104600004013002078010020014B1868704700BF5C
:104610004013002038B50446FFF7F6FF0546631C3B
:104620001EBF044B1B78E418FFF7EEFF431BA342A9
:10463000FAD338BD780100207047436A10B59A6AF2
:1046400012F0500F1BD19A6A42F400729A621A68F3
:10465000926802F46022B2F5602F0CD11A7B52B935
:104660009A6A22F480729A629A6AD2045EBF9A6A47
:1046700042F001029A621846FFF7DEFF10BD1B6A86
:10468000BDE810401B6B1847704708B5406AFFF73C
:10469000FBFF08BD7047406A08B5836A43F04003DA
:1046A0008362C36A43F00403C362FFF7F3FF08BDEC
:1046B000002373B5019390F824300446012B6CD08D
:1046C000012380F824304D680268062D086805EB48
:1046D000850322D81F26556B053B9E4025EA06051B
:1046E00000FA03F32B43536309288B6800EB400562
:1046F0004FF0070129D9D6681E3DA94026EA0101DD
:10470000AB400B43D360A0F11003012B25D900204F
:10471000002384F8243002B070BD0C2D4FF01F052B
:1047200009D8166B233B9D4026EA050500FA03F3E2
:104730002B431363D8E7D66A413B9D4026EA050523
:1047400000FA03F32B43D362CEE71069A94020EAB5
:104750000101AB400B431361D9E7114B9A4216D1CB
:1047600093681B02D3D49368102843F4000393602A
:10477000CDD10C4B0C4A1B68B3FBF2F20A23534316
:104780000193019B002BC2D0019B013BF8E7A36A78
:10479000012043F02003A362BAE70220BBE700BF79
:1047A000002401404801002040420F00002337B59B
:1047B0000193036804469A68D20702D5002003B02B
:1047C00030BD9A6842F001029A60144B144A1B688B
:1047D000B3FBF2F30193019BE3B9FFF715FF054625
:1047E00023689B68DB07E9D4FFF70EFF401B022814
:1047F000F6D923689B6813F00103F1D1A26A012066
:1048000042F01002A262E26A84F8243042F001020F
:10481000E262D4E7019B013BDCE700BF48010020D6
:1048200040420F002DE9F041404B9046026804469B
:104830009A420F4602D03E498A4203D15B6813F484
:10484000702F6ED194F82430012B6CD001232046B8
:1048500084F82430FFF7AAFF064600285DD1A56A38
:104860002168334B25F4706525F0010545F480750A
:104870009942A56204D12D4A536813F4702F3ED19A
:10488000A36A23F48013A3624B685A0505D5A36A73
:1048900023F4405343F48053A362A36A206A13F4C1
:1048A000805318BFE36A3A4618BF23F00603E36259
:1048B000002384F824301F4B4C3183621E4BC362AB
:1048C0001E4B03636FF0020341F84C3C51F8443C2B
:1048D00043F4807341F8443C434600F097F9236861
:1048E0009A6802F46022B2F5602F9A680CBF42F415
:1048F000A00242F480129A603046BDE8F081A36ABB
:1049000043F48013A36253685B0541BFA06A20F49F
:10491000405040F48050A062BFE7002384F8243068
:10492000EAE70126E8E70226E6E700BF00240140A7
:10493000002801403B4600088B46000897460008C7
:1049400038B5036804469A68D10701D4002038BD01
:104950009A6822F001029A60FFF756FE0546236826
:104960009B68DB07F2D5FFF74FFE401B0228F6D904
:1049700023689B68DA07F2D5A36A012043F010038D
:10498000A362E36A43F00103E362E0E7F8B504469B
:1049900000286ED0836A23B9C36280F82430FFF701
:1049A00053F92046FFF7CCFFA36A13F0100362D13E
:1049B000002860D1A26AE569616822F4885222F079
:1049C000020242F002022943A568A262227BB5F5E9
:1049D000807F41EA420137D0012D14BF00274FF4F8
:1049E0008077267D012E06D182BBA269013A47EA73
:1049F000423646F400672268B5F5807F566826F493
:104A0000694646EA0706566097681D4E06EA07069D
:104A100046EA0106966001D0012D02D12369013BCF
:104A20001B05D56A25F470052B43D3629268154B9C
:104A30001340994213D10023E362A36A23F00303D6
:104A400043F00103A362F8BD2F46CAE7A26A42F011
:104A50002002A262E26A42F00102E262CBE7A36AAC
:104A600023F0120343F01003A362E36A43F001034F
:104A7000E3620120E7E7A36A43F01003A362F8E7CB
:104A8000FDF7E1FFFE0E1FFF10B590F8243004463D
:104A9000012B22D0012380F82430FFF751FFA8B961
:104AA0002268936823F480739360236A93F821202B
:104AB000022A0BD1184600F0E5F8A36A50B923F496
:104AC000885323F0010343F00103A362002384F819
:104AD000243010BD43F04003F7E70220F9E700005F
:104AE00007490302CA6803F4E06322F4E062120497
:104AF000120C134343F0BF6343F40033CB607047A1
:104B000000ED00E0164B30B5DC68C4F30224C4F1BC
:104B10000703251D042B28BF0423062D4FF0FF3566
:104B200098BF002405FA03F388BF033C21EA03037E
:104B3000A34005FA04F422EA0402002843EA02032F
:104B4000ACBF00F16040074A4FEA0313DBB2ABBFD2
:104B500000F5614000F00F0080F80033135430BDC1
:104B600000ED00E014ED00E0002808DB012342091D
:104B700000F01F0003FA00F0014B43F822007047D9
:104B800000E100E00138B0F1807F0AD2F021064B4D
:104B9000064A586082F823100020072298601A60A5
:104BA00070470120704700BF10E000E000ED00E01A
:104BB00010B520B314220168124B0B44B3FBF2F37F
:104BC0009B000364104B0A68C363D0E9013423439C
:104BD000C46822F47F522343046922F03002234345
:104BE0004469234384692343C469234313430B600B
:104BF0004FF48072002302848363184610BD0120A5
:104C0000FCE700BFF8FFFDBF00000240F0B590F8E0
:104C10002040012C34D0012490F8215080F820400D
:104C2000A5424FF000064FF0020427D180F8214042
:104C300004688663266826F001062660D0E90F67BF
:104C4000BD40756063604368102BC36A0BBFA260F0
:104C5000A160E160E2604BB1236843F00E030020E5
:104C60002360236843F001032360F0BD236823F031
:104C700004032360236843F00A03F0E780F8206010
:104C80000220F2E790F82130022B06D00423836340
:104C9000002380F820300120704703681A6822F052
:104CA0000E021A601A6822F001021A600123D0E98C
:104CB0000F218B4053604FF48073038400207047B2
:104CC00070B40425C66B026C3468036895402542B5
:104CD000196832D04D0730D51A6896065EBF1A683B
:104CE00022F004021A603D4A934219D014329342D2
:104CF00018D01432934217D01432934217D0143282
:104D0000934217D0143293420CBF4FF480034FF0FC
:104D10008063334A5360C36A002B5CD070BC184771
:104D20000423F6E74023F4E74FF48063F1E74FF400
:104D30008043EEE74FF48023EBE7022595402542C0
:104D400035D08D0733D51A68940606D41A6822F038
:104D50000A021A60012280F82120204A934219D0C9
:104D60001432934218D01432934217D01432934223
:104D700017D01432934217D0143293420CBF4FF421
:104D800000134FF00073164A5360002380F8203060
:104D9000836AC1E70223F6E72023F4E74FF40073A8
:104DA000F1E74FF40053EEE74FF40033EBE708254B
:104DB000954025420FD009070DD5196821F00E0145
:104DC0001960012303FA02F2726083634FF4807367
:104DD0000384036BA0E770BC704700BF080002406B
:104DE000000002402DE9F74F00221646644BDFF821
:104DF000A0C1DFF8A0E10D6835FA06F402D103B0D6
:104E0000BDE8F08F4FF0010808FA06F805EA08043B
:104E100038EA05057CD14D68032D07D8013D022DE8
:104E200000F28880DFE805F0969BA100122D00F0CB
:104E300099806FD8112D00F08F80FF2C98BF82468B
:104E40004FF00F0988BF00F1040A4FEA8605DAF82F
:104E5000008088BF203D09FA05FB28EA0B0802FA0A
:104E600005F548EA0505CAF80050D1F804A01AF083
:104E7000805F4DD0434F26F00308BD6908F180489C
:104E800045F00105BD61BD6908F5803805F00105F3
:104E9000019506F0030B019D4FEA8B0BD8F80850E3
:104EA00009FA0BF925EA0909374DA84261D005F541
:104EB0008065A8425FD005F58065A8425DD005F504
:104EC0008065A8420CBF0325042505FA0BF545EAC9
:104ED0000905C8F808501D681AF4803F14BF25431F
:104EE000A5431D605D681AF4003F14BF2543A54328
:104EF0005D609D681AF4801F14BF2543A5439D6023
:104F0000DD681AF4001F14BF2C4325EA0404DC609A
:104F1000013670E71D4FBD420CD017D8DFF87890EE
:104F20004D4507D009F570294D4503D0A9F58019E5
:104F30004D4582D18A68D2B1012A08BFC0F81080DD
:104F40004FF0080218BFC0F8148076E76545F1D02D
:104F50007545EEE7CA6870E7CA6804326DE7CA684B
:104F600008326AE7CA680C3267E7002265E7042264
:104F700063E70025A9E70125A7E70225A5E700BF0C
:104F8000000401400010024000080140000022100F
:104F90000000311000003210000012100AB101614F
:104FA00070470904FBE7C36801EA030221EA030131
:104FB00041EA024101617047044A08B55169014262
:104FC00002D05061FDF7B2FF08BD00BF00040140F0
:104FD000016800224B6913F4806310D06FF4806382
:104FE0004B612023026380F83D3080F83E20036C43
:104FF00080F83C2043F00403036401207047184606
:1050000070472DE9F04104460F461646984625683C
:10501000686927EA000080B2B8B16B695A0516D5F5
:105020002B68202243F400732B606FF480636B6164
:105030000023236384F83D2084F83E30226C42F044
:1050400004020120226484F83C30BDE8F081731C26
:10505000DED0FFF7D9FAA0EB0800B04201D8002E4D
:10506000D5D100232022236384F83D2084F83E30EC
:10507000226C42F02002E4E770B504460D46164665
:1050800023685B695B0701D5002070BD2046FFF7F0
:105090009FFFA8B96A1CF3D0FFF7B6FA801BA8429D
:1050A00001D8002DECD100232022236384F83D2079
:1050B00084F83E30226C84F83C3042F020022264B6
:1050C0000120E2E770B504460D46164621684B699B
:1050D00013F0400301D0002010E04A69D2060ED53B
:1050E0006FF010024A612022236384F83D2084F887
:1050F0003E30226C0120226484F83C3070BDFFF702
:1051000083FA801BA84201D8002DDFD10023202282
:10511000236384F83D2084F83E30226C42F0200264
:10512000E8E72DE9F84606460F4691461D464FEA48
:10513000114A3368BAF1010F0CBF5C699C6927EA18
:105140000404A4B2B4FA84F46409A14501D0002097
:1051500017E06A1CEED0FFF757FA089BC01AA84266
:1051600001D8002DE5D1002320220120336386F8E9
:105170003D2086F83E30326C86F83C3042F020020A
:105180003264BDE8F88670B504460D4616462368BD
:105190005B691B0601D5002070BD2046FFF718FF94
:1051A000A8B96A1CF3D0FFF72FFA801BA84201D8D8
:1051B000002DECD100232022236384F83D2084F8C5
:1051C0003E30226C84F83C3042F020022264012000
:1051D000E2E700002DE9F04315460268994613689E
:1051E00085B043F480731360DDE90C780E463B46CE
:1051F00000224FF00111CDF800800446FFF791FF27
:10520000236838B11B68DB0502D54FF400732364B3
:1052100003200AE006F0FE061E613A464346204699
:105220001749FFF7EEFE18B1012005B0BDE8F08385
:10523000236803905A69394603929B694246039357
:105240002046039BFFF79FFF40B1236C042B01BF57
:105250002268136843F400731360E5E7B9F1010FA6
:10526000236802D1EDB21D61DFE72A0A1A613946CF
:1052700042462046FFF787FF0028E6D12368F1E782
:10528000020001002DE9FF479A46DDE90C7803682A
:1052900015461A680E4642F480621A601A684FF08A
:1052A000011142F480721A603B460022CDF8008062
:1052B0000446FFF736FF236848B11B68DB0502D5BB
:1052C0004FF400732364032004B0BDE8F0875FFA55
:1052D00086F906F0FE061E613A46434620462949F5
:1052E000FFF78FFE08B10120EEE7236803905A69AB
:1052F000394603929B69424603932046039BFFF77E
:1053000042FF40B1236C042B01BF2268136843F4B1
:1053100000731360E7E7BAF1010F23681AD1EDB209
:105320004246394620461D61FFF72DFF0246002800
:10533000E8D1216820460B6843F480730B603B463C
:105340004FF00111CDF80080FFF7EBFE226860B14D
:105350001368B3E72A0A1A61394642462046FFF726
:1053600012FF0028CED12368D9E749F00103136169
:10537000204643463A460349FFF743FE003818BF2C
:105380000120A1E70200010070B5044608B9012020
:1053900070BD90F83D3003F0FF021BB980F83C204F
:1053A000FEF79CFC242384F83D3023681A6822F021
:1053B00001021A601A6842F400421A601A6822F464
:1053C00000421A6000F0FCFC3F4A6368934294BFBD
:1053D0003E4A3F4A90428CBF00220122002AD6D189
:1053E0003C4E2268B0FBF6F65168013821F03F01CF
:1053F000314351603449156A8B4281BF4FF4967135
:1054000071434FF47A76B1FBF6F125F03F0594BF76
:10541000711C013129431162D1692B4D21F44F4197
:10542000AB4221F0FF0132D85B00B0FBF3F0431C2C
:1054300040F6FC70034242D0C3F30B030B43D3612D
:105440001168D4E9073021F0C00103430B43136016
:105450009168D4E9030321F40341034321F0FF01E0
:105460000B439360D168D4E9053021F0FF01034379
:105470000B43D3601368002043F001031360202323
:10548000206484F83D30206384F83E0080E7A568FE
:1054900055B903EB4303B0FBF3F30133C3F30B0341
:1054A0007BB143F40043C9E719256B43B0FBF3F329
:1054B0000133C3F30B0323B143F44043BEE704239A
:1054C000BCE70123BAE700BFA08601007F841E006D
:1054D000FF083D0040420F002DE9F743044699467E
:1054E0000F4690460C9EFFF78FF894F83D30054626
:1054F000202B03D0022003B0BDE8F08300901923D5
:10550000012220463A49FFF70CFE0028F2D194F818
:105510003C30012BEED00123206884F83C30036836
:105520004246D90758BF036839465CBF43F00103C0
:105530000360036823F400630360212384F83D3093
:10554000402384F83E30002323640A9B2046636294
:10555000BDF82C30CDE900656385638D2385254B2F
:10556000E3624B46FFF736FE00282AD00120C2E74F
:10557000FFF709FE40B1236C042B01BF22681368BA
:1055800043F400731360F1E7636A27681A4612F860
:10559000011B39616262628D218D013A92B262858E
:1055A0007A69481E80B2520720850AD548B15A78D8
:1055B00002333A616362638D0239013B9BB22185FC
:1055C0006385238D2A4631462046002BD0D1FFF734
:1055D00053FD0028CFD12268136843F40073136091
:1055E000202384F83C0084F83D3084F83E0082E7B4
:1055F000020010000000FFFF2DE9F0439946002350
:10560000044689B003930D469046129FFEF7FCFFB7
:1056100094F83D300646202B04D00225284609B0D8
:10562000BDE8F08300901923012220468D49FFF741
:1056300078FD0028F1D194F83C30012BEDD0012306
:10564000206884F83C3003682946DB0758BF0368AC
:1056500042465CBF43F001030360036823F4006328
:105660000360222384F83D30402384F83E30002339
:105670002364109B20466362BDF84430CDE9007678
:105680006385638D2385784BE3624B46FFF7FAFD14
:10569000054608B10125C1E7228D2368C2B90490EF
:1056A0005A6904929A690492049A1A6842F4007240
:1056B0001A60DFF8B881DFF8B891238D002B37D15D
:1056C000202284F83C3084F83D2084F83E30A5E761
:1056D000012A11D11A6822F480621A6072B6236816
:1056E00005905A6905929A690592059A1A6842F4DA
:1056F00000721A6062B6DCE7022A1A680ED142F420
:1057000000621A6072B6236806905A6906929A6916
:105710000692069A1A6822F48062EAE742F48062EE
:105720001A6007905A6907929B690793079BC0E725
:10573000032B78D8012B15D1324639462046FFF786
:10574000C1FC0028A6D123681A69636A1A70636ACB
:1057500001336362238D013B2385638D013B9BB243
:105760006385AAE7022B4FF000023B4641462046E4
:10577000009618D1FFF7D5FC00288BD172B62368AC
:105780001A6842F400721A601A69636A1A70636ACE
:1057900001336362238D013B2385638D013B9BB203
:1057A000638562B6CFE7FFF7BCFC00287FF472AFD9
:1057B0002268136823F48063136072B623681A6941
:1057C000636A1A7046F2A812616A4B1C6362238DE9
:1057D000013B2385638D013B9BB26385D9F8003083
:1057E000B3FBF2F2232353430393039B013B039345
:1057F000039B6BB92022236384F83D2084F83E305C
:10580000226C42F02002226462B684F83C3041E708
:1058100023685A695007E8D51A6842F400721A6082
:105820001B694B70B3E7324639462046FFF74AFC06
:1058300000287FF42FAF23681A69636A1A70626ABE
:10584000531C6362238D013B2385638D013B9BB217
:1058500063852368596949077FF52FAF1B6953702A
:1058600075E700BF020010000000FFFF0400010008
:105870004801002038B5044608B34CF6CC42036812
:105880001A6045F255521A6042685A6082689A60FE
:10589000FEF7BAFE05462268D06810F0030003D177
:1058A0004AF6AA23136038BDFEF7AEFE401B272838
:1058B000F1D92368DB689B07EDD00320F3E70120D3
:1058C000F1E74AF6AA22036800201A607047000038
:1058D0000122014B1A60704720000E422DE9F3416E
:1058E000054638B30368DB0710D42B689F075ED4E6
:1058F0002B68190700F195802B685A0700F1BF80CB
:10590000E869002840F02C81002029E08F4C636872
:1059100003F00C03042B07D0636803F00C03082B7F
:105920000AD16368DE0307D523689C03DDD56B6865
:10593000002BDAD1012013E06B68B3F5803F12D160
:10594000236843F480332360FEF75EFE0646236837
:105950009803CAD4FEF758FE801B6428F7D90320A9
:1059600002B0BDE8F0819BB9236823F48033236043
:10597000236823F480232360FEF746FE064623684F
:105980009903B2D5FEF740FE801B6428F7D9E6E7FD
:10599000B3F5A02F236803D143F480232360CFE71E
:1059A00023F480332360236823F48023CBE7674C00
:1059B000636813F00C0F07D0636803F00C03082B27
:1059C00010D16368DA030DD423689B0702D52B69D5
:1059D000012BAFD123686A6923F0F80343EAC203BD
:1059E000236085E72A695A4B6AB101221A60FEF7E3
:1059F0000BFE064623689F07ECD4FEF705FE801BCE
:105A00000228F7D9ABE71A60FEF7FEFD06462368C9
:105A100098077FF56DAFFEF7F7FD801B0228F6D9DA
:105A20009DE7AA69494E4B4BDAB101221A60FEF795
:105A3000EBFD0446736A9B070DD54FF4FA52464BB3
:105A40001B68B3FBF2F3019300BF019B5A1E019246
:105A5000002BF9D150E7FEF7D7FD001B0228E9D94A
:105A60007DE71A60FEF7D0FD0446736A9F077FF555
:105A700043AFFEF7C9FD001B0228F6D96FE7334C90
:105A8000E369D80024D40127E36943F08053E3613C
:105A9000E36903F080530093009B304E3368D905CF
:105AA00018D5EB68012B26D1236A43F0010323624A
:105AB000FEF7AAFD41F288380646236A9B073FD5C8
:105AC000002F3FF41DAFE36923F08053E36117E734
:105AD0000027E2E7336843F480733360FEF794FDF8
