:020000040800F2
:1000000000500020B53C0008C1360008C336000887
:10001000C5360008C7360008C936000800000000D1
:10002000000000000000000000000000CB360008C7
:10003000CD36000800000000CF360008D136000899
:10004000FD3C0008FD3C0008FD3C0008FD3C0008AC
:10005000FD3C0008FD3C0008FD3C0008FD3C00089C
:10006000FD3C0008FD3C0008FD3C0008FD3C00088C
:10007000FD3C0008FD3C0008FD3C0008FD3C00087C
:10008000FD3C0008FD3C0008FD3C0008FD3C00086C
:10009000FD3C0008FD3C0008FD3C0008FD3C00085C
:1000A000FD3C0008FD3C0008FD3C0008FD3C00084C
:1000B000FD3C0008FD3C0008FD3C0008FD3C00083C
:1000C000FD3C0008FD3C0008FD3C0008FD3C00082C
:1000D000FD3C0008FD3C0008FD3C0008FD3C00081C
:1000E000FD3C0008FD3C0008FD3C0008000000004D
:1000F0000000000000000000000000000000000000
:0C01000000000000000000005FF808F1A3
:1001100010B5054C237833B9044B13B10448AFF341
:1001200000800123237010BD400300200000000068
:100130000085000808B5034B1BB103490348AFF322
:10014000008008BD00000000440300200085000876
:10015000034613F8012B002AFBD1181A0138704707
:1001600081F0004102E000BF83F0004330B54FEA68
:1001700041044FEA430594EA050F08BF90EA020FD5
:100180001FBF54EA000C55EA020C7FEA645C7FEA68
:10019000655C00F0E2804FEA5454D4EB5555B8BF8B
:1001A0006D420CDD2C4480EA020281EA030382EAFC
:1001B000000083EA010180EA020281EA0303362D8E
:1001C00088BF30BD11F0004F4FEA01314FF4801C61
:1001D0004CEA113102D0404261EB410113F0004F73
:1001E0004FEA03334CEA133302D0524263EB43032A
:1001F00094EA050F00F0A780A4F10104D5F1200EC8
:100200000DDB02FA0EFC22FA05F2801841F1000122
:1002100003FA0EF2801843FA05F359410EE0A5F1F6
:1002200020050EF1200E012A03FA0EFC28BF4CF027
:10023000020C43FA05F3C01851EBE37101F00045DD
:1002400007D54FF0000EDCF1000C7EEB00006EEBEA
:100250000101B1F5801F1BD3B1F5001F0CD3490874
:100260005FEA30004FEA3C0C04F101044FEA4452CB
:1002700012F5800F80F09A80BCF1004F08BF5FEA52
:10028000500C50F1000041EB045141EA050130BD32
:100290005FEA4C0C404141EB0101013C28BFB1F544
:1002A000801FE9D291F0000F04BF01460020B1FA8F
:1002B00081F308BF2033A3F10B03B3F120020CDA62
:1002C0000C3208DD02F1140CC2F10C0201FA0CF040
:1002D00021FA02F10CE002F11402D8BFC2F1200CA5
:1002E00001FA02F120FA0CFCDCBF41EA0C0190405B
:1002F000E41AA2BF01EB0451294330BD6FEA0404A4
:100300001F3C1CDA0C340EDC04F11404C4F120028E
:1003100020FA04F001FA02F340EA030021FA04F3A0
:1003200045EA030130BDC4F10C04C4F1200220FAF7
:1003300002F001FA04F340EA0300294630BD21FA35
:1003400004F0294630BD94F0000F83F4801306BFFB
:1003500081F480110134013D4EE77FEA645C18BFEF
:100360007FEA655C29D094EA050F08BF90EA020F86
:1003700005D054EA000C04BF1946104630BD91EA7E
:10038000030F1EBF0021002030BD5FEA545C05D181
:100390004000494128BF41F0004130BD14F58004C0
:1003A0003CBF01F5801130BD01F0004545F0FE4134
:1003B00041F470014FF0000030BD7FEA645C1ABF69
:1003C000194610467FEA655C1CBF0B46024650EAA0
:1003D000013406BF52EA033591EA030F41F40021CC
:1003E00030BD00BF90F0000F04BF0021704730B552
:1003F0004FF4806404F132044FF000054FF0000127
:1004000050E700BF90F0000F04BF0021704730B5E7
:100410004FF4806404F1320410F0004548BF4042BC
:100420004FF000013EE700BF42004FEAE2014FEA11
:1004300031014FEA02701FBF12F07F4393F07F4FEC
:1004400081F06051704732F07F4208BF704793F0EF
:100450007F4F04BF41F40021704730B54FF4607402
:1004600001F0004521F000411CE700BF50EA010205
:1004700008BF704730B54FF000050AE050EA0102AE
:1004800008BF704730B511F0004502D5404261EB1E
:1004900041014FF4806404F132045FEA915C3FF45F
:1004A000D8AE4FF003025FEADC0C18BF03325FEAFC
:1004B000DC0C18BF033202EBDC02C2F1200300FAAD
:1004C00003FC20FA02F001FA03FE40EA0E0021FAD2
:1004D00002F11444BDE600BF70B54FF0FF0C4CF4C0
:1004E000E06C1CEA11541DBF1CEA135594EA0C0F72
:1004F00095EA0C0F00F0DEF82C4481EA030621EAAD
:100500004C5123EA4C5350EA013518BF52EA0335E7
:1005100041F4801143F4801338D0A0FB02CE4FF099
:100520000005E1FB02E506F00042E0FB03E54FF0C9
:100530000006E1FB03569CF0000F18BF4EF0010EC1
:10054000A4F1FF04B6F5007F64F5407404D25FEABD
:100550004E0E6D4146EB060642EAC62141EA555170
:100560004FEAC52040EA5E504FEACE2EB4F1FD0CB2
:1005700088BFBCF5E06F1ED8BEF1004F08BF5FEA30
:10058000500E50F1000041EB045170BD06F00046E2
:1005900046EA010140EA020081EA0301B4EB5C048F
:1005A000C2BFD4EB0C0541EA045170BD41F4801187
:1005B0004FF0000E013C00F3AB8014F1360FDEBFAC
:1005C000002001F0004170BDC4F10004203C35DA88
:1005D0000C341BDC04F11404C4F1200500FA05F30B
:1005E00020FA04F001FA05F240EA020001F00042AC
:1005F00021F0004110EBD37021FA04F642EB060122
:100600005EEA430E08BF20EAD37070BDC4F10C044B
:10061000C4F1200500FA04F320FA05F001FA04F20F
:1006200040EA020001F0004110EBD37041F10001FB
:100630005EEA430E08BF20EAD37070BDC4F1200506
:1006400000FA05F24EEA020E20FA04F301FA05F26E
:1006500043EA020321FA04F001F0004121FA04F216
:1006600020EA020000EBD3705EEA430E08BF20EAE6
:10067000D37070BD94F0000F0FD101F00046400020
:1006800041EB010111F4801F08BF013CF7D041EAA2
:10069000060195F0000F18BF704703F000465200A6
:1006A00043EB030313F4801F08BF013DF7D043EA77
:1006B0000603704794EA0C0F0CEA135518BF95EA2D
:1006C0000C0F0CD050EA410618BF52EA4306D1D1B4
:1006D00081EA030101F000414FF0000070BD50EAD3
:1006E000410606BF1046194652EA430619D094EA5D
:1006F0000C0F02D150EA013613D195EA0C0F05D147
:1007000052EA03361CBF104619460AD181EA03019A
:1007100001F0004141F0FE4141F470014FF0000052
:1007200070BD41F0FE4141F4780170BD70B54FF0ED
:10073000FF0C4CF4E06C1CEA11541DBF1CEA13556D
:1007400094EA0C0F95EA0C0F00F0A7F8A4EB05044F
:1007500081EA030E52EA03354FEA013100F0888046
:100760004FEA03334FF0805545EA131343EA12630F
:100770004FEA022245EA111545EA10654FEA0026C4
:100780000EF000419D4208BF964244F1FD0404F57D
:10079000407402D25B084FEA3202B61A65EB0305D9
:1007A0005B084FEA32024FF480104FF4002CB6EB96
:1007B000020E75EB030E22BFB61A754640EA0C0016
:1007C0005B084FEA3202B6EB020E75EB030E22BF56
:1007D000B61A754640EA5C005B084FEA3202B6EB97
:1007E000020E75EB030E22BFB61A754640EA9C0056
:1007F0005B084FEA3202B6EB020E75EB030E22BF26
:10080000B61A754640EADC0055EA060E18D04FEAE3
:10081000051545EA16754FEA06164FEAC30343EA83
:1008200052734FEAC2025FEA1C1CC0D111F4801F50
:100830000BD141EA00014FF000004FF0004CB6E749
:1008400011F4801F04BF01430020B4F1FD0C88BFE8
:10085000BCF5E06F3FF6AFAEB5EB030C04BFB6EBF3
:10086000020C5FEA500C50F1000041EB045170BDE6
:100870000EF0004E4EEA113114EB5C04C2BFD4EB13
:100880000C0541EA045170BD41F480114FF0000E97
:10089000013C90E645EA060E8DE60CEA135594EA13
:1008A0000C0F08BF95EA0C0F3FF43BAF94EA0C0F16
:1008B0000AD150EA01347FF434AF95EA0C0F7FF48B
:1008C00025AF104619462CE795EA0C0F06D152EADF
:1008D00003353FF4FDAE1046194622E750EA4106C3
:1008E00018BF52EA43067FF4C5AE50EA41047FF4D4
:1008F0000DAF52EA43057FF4EBAE12E74FF0FF3C39
:1009000006E000BF4FF0010C02E000BF4FF0010C09
:100910004DF804CD4FEA410C7FEA6C5C4FEA430C82
:1009200018BF7FEA6C5C1BD001B050EA410C0CBFD1
:1009300052EA430C91EA030F02BF90EA020F002033
:10094000704710F1000F91EA030F58BF994208BF9A
:1009500090422CBFD8176FEAE37040F00100704757
:100960004FEA410C7FEA6C5C02D150EA013C07D1AE
:100970004FEA430C7FEA6C5CD6D152EA033CD3D0F9
:100980005DF8040B704700BF8446104662468C46F3
:100990001946634600E000BF01B5FFF7B7FF002826
:1009A00048BF10F1000F01BD4DF808EDFFF7F4FF4F
:1009B0000CBF012000205DF808FB00BF4DF808EDDA
:1009C000FFF7EAFF34BF012000205DF808FB00BFFD
:1009D0004DF808EDFFF7E0FF94BF012000205DF81F
:1009E00008FB00BF4DF808EDFFF7CEFF94BF0120D4
:1009F00000205DF808FB00BF4DF808EDFFF7C4FFCD
:100A000034BF012000205DF808FB00BF4FEA410C15
:100A10007FEA6C5C02D150EA013C0AD14FEA430CF8
:100A20007FEA6C5C02D152EA033C02D14FF0000035
:100A300070474FF0010070474FEA410212F5001273
:100A400015D211D56FF47873B3EB625212D94FEA15
:100A5000C12343F0004343EA505311F0004F23FAFF
:100A600002F018BF404270474FF00000704750EA54
:100A7000013005D111F0004008BF6FF00040704711
:100A80004FF00000704700BF4FEA4102B2F1E0436F
:100A900024BFB3F5001CDCF1FE5C0DD901F0004C65
:100AA0004FEAC0024CEA5070B2F1004F40EB8300B5
:100AB00008BF20F00100704711F0804F21D113F1E1
:100AC0003872BCBF01F00040704741F480114FEA1A
:100AD0005252C2F11802C2F1200C10FA0CF320FAA3
:100AE00002F018BF40F001004FEAC1234FEAD323C0
:100AF00003FA0CFC40EA0C0023FA02F34FEA43032A
:100B0000CCE77FEA625307D150EA01331EBF4FF0B2
:100B1000FE4040F44000704701F0004040F0FE40CD
:100B200040F40000704700BF80F0004002E000BFCA
:100B300081F0004142001FBF5FEA410392EA030FC8
:100B40007FEA226C7FEA236C6AD04FEA1262D2EB12
:100B50001363C1BFD218414048404140B8BF5B4217
:100B6000192B88BF704710F0004F40F4000020F0B0
:100B70007F4018BF404211F0004F41F4000121F0C6
:100B80007F4118BF494292EA030F3FD0A2F1010210
:100B900041FA03FC10EB0C00C3F1200301FA03F14E
:100BA00000F0004302D5494260EB4000B0F5000F71
:100BB00013D3B0F1807F06D340084FEA310102F130
:100BC0000102FE2A51D2B1F1004F40EBC25008BFE2
:100BD00020F0010040EA03007047490040EB0000AC
:100BE000013A28BFB0F5000FEDD2B0FA80FCACF1AD
:100BF000080CB2EB0C0200FA0CF0AABF00EBC250DA
:100C000052421843BCBFD0401843704792F0000FC7
:100C100081F4000106BF80F400000132013BB5E71A
:100C20004FEA41037FEA226C18BF7FEA236C21D090
:100C300092EA030F04D092F0000F08BF08467047F5
:100C400090EA010F1CBF0020704712F07F4F04D1C3
:100C5000400028BF40F00040704712F100723CBFD6
:100C600000F50000704700F0004343F0FE4040F400
:100C7000000070477FEA226216BF08467FEA2363BE
:100C80000146420206BF5FEA412390EA010F40F4A9
:100C9000800070474FF0000304E000BF10F00043F5
:100CA00048BF40425FEA000C08BF704743F09643DC
:100CB00001464FF000001CE050EA010208BF7047F7
:100CC0004FF000030AE000BF50EA010208BF70477E
:100CD00011F0004302D5404261EB41015FEA010C93
:100CE00002BF84460146002043F0B64308BFA3F18B
:100CF0008053A3F50003BCFA8CF2083AA3EBC2536D
:100D000010DB01FA02FC634400FA02FCC2F120028B
:100D1000BCF1004F20FA02F243EB020008BF20F0C2
:100D20000100704702F1200201FA02FCC2F1200228
:100D300050EA4C0021FA02F243EB020008BF20EA1D
:100D4000DC7070474FF0FF0C1CEAD0521EBF1CEA4B
:100D5000D15392EA0C0F93EA0C0F6FD01A4480EA39
:100D6000010C400218BF5FEA41211ED04FF0006322
:100D700043EA501043EA5111A0FB01310CF000404E
:100D8000B1F5000F3EBF490041EAD3715B0040EA74
:100D9000010062F17F02FD2A1DD8B3F1004F40EB44
:100DA000C25008BF20F00100704790F0000F0CF017
:100DB000004C08BF49024CEA502040EA51207F3ADB
:100DC000C2BFD2F1FF0340EAC250704740F40000B6
:100DD0004FF00003013A5DDC12F1190FDCBF00F0A7
:100DE00000407047C2F10002410021FA02F1C2F155
:100DF000200200FA02FC5FEA310040F1000053EAF1
:100E00004C0308BF20EADC70704792F0000F00F03E
:100E1000004C02BF400010F4000F013AF9D040EA44
:100E20000C0093F0000F01F0004C02BF490011F4D8
:100E3000000F013BF9D041EA0C018FE70CEAD153D6
:100E400092EA0C0F18BF93EA0C0F0AD030F0004C56
:100E500018BF31F0004CD8D180EA010000F000400A
:100E6000704790F0000F17BF90F0004F084691F0C8
:100E7000000F91F0004F14D092EA0C0F01D1420202
:100E80000FD193EA0C0F03D14B0218BF084608D1CB
:100E900080EA010000F0004040F0FE4040F4000015
:100EA000704740F0FE4040F4400070474FF0FF0CA8
:100EB0001CEAD0521EBF1CEAD15392EA0C0F93EAEF
:100EC0000C0F69D0A2EB030280EA010C49024FEA41
:100ED000402037D04FF0805343EA111143EA1013FA
:100EE0000CF000408B4238BF5B0042F17D024FF4B2
:100EF000000C8B4224BF5B1A40EA0C00B3EB510F8D
:100F000024BFA3EB510340EA5C00B3EB910F24BF75
:100F1000A3EB910340EA9C00B3EBD10F24BFA3EBFA
:100F2000D10340EADC001B0118BF5FEA1C1CE0D1C2
:100F3000FD2A3FF650AF8B4240EBC25008BF20F075
:100F4000010070470CF0004C4CEA50207F32C2BFC9
:100F5000D2F1FF0340EAC250704740F400004FF066
:100F60000003013A37E792F0000F00F0004C02BF97
:100F7000400010F4000F013AF9D040EA0C0093F061
:100F8000000F01F0004C02BF490011F4000F013BBB
:100F9000F9D041EA0C0195E70CEAD15392EA0C0F23
:100FA00008D142027FF47DAF93EA0C0F7FF470AF5B
:100FB000084676E793EA0C0F04D14B023FF44CAF9E
:100FC00008466EE730F0004C18BF31F0004CCAD133
:100FD00030F000427FF45CAF31F000437FF43CAF6F
:100FE0005FE700BF4FF0FF3C06E000BF4FF0010C91
:100FF00002E000BF4FF0010C4DF804CD4FEA400273
:101000004FEA41037FEA226C18BF7FEA236C11D0BC
:1010100001B052EA530C18BF90EA010F58BFB2EB6F
:10102000030088BFC81738BF6FEAE17018BF40F0EF
:10103000010070477FEA226C02D15FEA402C05D1A3
:101040007FEA236CE4D15FEA412CE1D05DF8040B28
:10105000704700BF844608466146FFE70FB5FFF7BB
:10106000C9FF002848BF10F1000F0FBD4DF808ED73
:10107000FFF7F4FF0CBF012000205DF808FB00BF64
:101080004DF808EDFFF7EAFF34BF012000205DF8BE
:1010900008FB00BF4DF808EDFFF7E0FF94BF01200B
:1010A00000205DF808FB00BF4DF808EDFFF7D2FF08
:1010B00094BF012000205DF808FB00BF4DF808ED4B
:1010C000FFF7C8FF34BF012000205DF808FB00BF18
:1010D0007BB972B90029BEBF00204FF0004106E085
:1010E00008BF00281CBF6FF000414FF0FF3000F038
:1010F000A1B9ADF1080C6DE904CE002909DB002B84
:101100001ADB00F035F8DDF804E0DDE9022304B075
:101110007047404261EB4101002B1BDB00F028F8D7
:10112000DDF804E0DDE9022304B0404261EB410157
:10113000524263EB43037047524263EB430300F0B8
:1011400017F8DDF804E0DDE9022304B0404261EB6A
:1011500041017047524263EB430300F009F8DDF8A8
:1011600004E0DDE9022304B0524263EB430370471D
:101170002DE9F047089E0D4604468E46002B40F0B0
:1011800083808A42174647D9B2FA82F34BB1C3F142
:10119000200105FA03FE20FA01F19F4041EA0E0EFC
:1011A0009C404FEA1748BEFBF8FC1FFA87F908FB82
:1011B0001CE20CFB09F0210C41EA024290420AD9E0
:1011C000BA180CF1FF3180F01881904240F215817D
:1011D000ACF1020C3A44121AB2FBF8F008FB1022F0
:1011E00000FB09F1A4B244EA0244A14209D93C1926
:1011F00000F1FF3280F00381A14240F20081023809
:101200003C44641A002140EA0C401EB10022DC403C
:10121000C6E90042BDE8F08702B9FFDEB2FA82F308
:10122000002B4FD18D1A01214FEA124E1FFA82F87E
:10123000B5FBFEFC0EFB1C5508FB0CF0220C42EA31
:101240000545A84207D97D190CF1FF3202D2A84208
:1012500000F2E98094462D1AB5FBFEF00EFB105506
:1012600008FB00F8A4B244EA0544A04507D93C199C
:1012700000F1FF3202D2A04500F2D9801046A4EB63
:10128000080440EA0C40C0E78B4208D9002E00F069
:10129000B1800021C6E900050846BDE8F087B3FA31
:1012A00083F100294BD1AB4202D3824200F2B980D4
:1012B000841A65EB030301209E46002EAAD0C6E9DE
:1012C000004EA7E79F40C3F12002D1404FEA174EDE
:1012D000B1FBFEF01FFA87F80EFB101124FA02F2A0
:1012E0009D4000FB08FC2A43150C45EA0145AC452E
:1012F00004FA03F409D97D1900F1FF3180F08F80E1
:10130000AC4540F28C8002383D44A5EB0C05B5FBA2
:10131000FEF10EFB115C01FB08F995B245EA0C45A4
:10132000A94507D97D1901F1FF3274D2A94572D9B7
:1013300002393D44A5EB090541EA004178E7C1F1D6
:1013400020078B4022FA07FC4CEA030C25FA07F42D
:101350004FEA1C4EB4FBFEF91FFA8CF80EFB194441
:1013600020FA07F309FB08FA8D401D432B0C43EAD2
:101370000444A24502FA01F200FA01F309D91CEB78
:10138000040409F1FF3048D2A24546D9A9F1020967
:101390006444A4EB0A04B4FBFEF00EFB104400FB13
:1013A00008FAADB245EA0444A24508D91CEB04048E
:1013B00000F1FF352DD2A2452BD90238644440EA12
:1013C0000940A0FB0289A4EB0A044C45C6464D46E1
:1013D00019D316D05EB1B3EB0E0264EB050404FA28
:1013E00007F722FA01F31F43CC40C6E9007400213D
:1013F000BDE8F087314630460CE78C46EBE61046F8
:10140000FFE64345E6D2B8EB020E69EB0C05013866
:10141000E0E72846D3E711468CE78146B9E708465E
:1014200073E7084649E7ACF1020C3D4413E7023884
:101430003C4424E7704700BF7FB501238DF81710A7
:101440004FF48031CDE901310DF1170102460091D1
:101450000348EC2103F0F4F807B05DF804FB00BF8B
:10146000680A00207FB500234FF480318DF81730D3
:101470000123CDE901310DF1170102460091044825
:10148000EC2103F06DF99DF8170007B05DF804FB3F
:10149000680A00201FB5024602234FF480300091F5
:1014A000CDE90130EC210123024803F059F905B0E0
:1014B0005DF804FB680A00201FB5024602234FF4C2
:1014C00080300091CDE90130EC210123024803F086
:1014D00047F905B05DF804FB680A00207FB50223D8
:1014E0004FF48031CDE9013105AB02460093EC2188
:1014F0000123064803F034F99DF814009DF81530D7
:1015000043EA002007B05DF804FB00BF680A002032
:101510007FB503234FF48031CDE9013105AB02469D
:101520000093EC210123084803F01AF99DF81530C7
:101530009DF814001B0243EA00439DF8160018436F
:1015400007B05DF804FB00BF680A0020FA2010B560
:10155000FFF7DEFFB0F5000F37D0001104461C493D
:1015600000280A88B8BFC41D0028B8BF0F30C2EBDE
:10157000201040434FEA4203C3EBE404B1F90230C8
:10158000B1F9042048BF00F6FF70634300135043D5
:10159000002BB8BF03F2FF730028B8BF00F57F50DF
:1015A0000C4AB8BF3F30DB1203EBA033136003EBF0
:1015B000830313F1800048BF03F27F100012FFF78E
:1015C0006DFB0549FFF772FC10BD0448FCE700BF46
:1015D000C4040020F00500200000C8420000C07FC5
:1015E0002DE9F74FFFF7B2FFF720FFF791FF864B8A
:1015F000864E1A688646B2F5FA374FEAE273A7FBC1
:10160000071243F1FF3C07FB0CF3CDE90012019AEE
:1016100002EB4303B6F90820019302FB0CF1D31748
:1016200007FB0311A2FB07230B441903019841EAAE
:1016300012514FEA0239B6F90A2002FB00FA00986B
:10164000D31700FB03AAA2FB00235344002A73F123
:10165000000802DAFF3243F100034FEA122A4AEA95
:10166000036AF2884FEA232B1AEB09004BEB010BBC
:101670000030A0FB02014BF5004B02FB0B110028D0
:1016800071F1000303DA10F1FF3041F101014A105A
:10169000CB1752EA030100F0B480B6F910A001990B
:1016A00000980AFB01F900994FEAEA7B01FB0B91D4
:1016B000AAFB0089B6F90E00894400FB0CFCC11797
:1016C00007FB01CCA0FB070161444FEA414C4CEA07
:1016D000D03C4704002017EB08074CEB090CC0195D
:1016E00040F635474FEA2E1ECEF5801E4FEAEE79C2
:1016F000B6F90C804FEAC97A4FEACE714AEA5E0A1F
:101700004FEAC80E4EEB0C0C081AA0FB07016AEB5F
:101710000C0A07FB0A11FFF7DBFC002871F100023D
:10172000804689460B4606DA41F6FF70002318EB27
:10173000000041EB0303B6F916205913400B40EAB1
:10174000C34002FB01F7A2FB00ABD31700FB0377FA
:101750000AFB01F1BB4400FB0B13AAFB0001194477
:101760000B46002873F10001024606DA6FF07E4155
:1017700042184FF0000141EB0303B6F914A0510EDB
:101780000AFB09F741EAC31111EB08014FEA636054
:101790004FEAEA7B08FB0B7340EB0900AAFB0889C0
:1017A0009944B8F1000F79F1000306DA184B18EBF1
:1017B00003084FF0000349EB03094FEAD84343EA1B
:1017C0004933CC184FEAE94240EB0205002C75F191
:1017D000000302DAFF3445F100051022230A43EA30
:1017E0000560B6F912302912C3FB0201FEF746FE6E
:1017F0000022084BFEF770FEFFF746F903B0BDE884
:10180000F08F0020FAE700BFF0050020C40400209C
:10181000FFFF07000000703F10B5FFF797FEFD20A7
:10182000FFF75CFEB0F5004F56D02C4A2C4BB2F9B6
:101830001E101B680905C1EB8031B2F92000A3F529
:10184000963303FB1010117F10F5804044BF00F564
:10185000FF407F30594392F9224048BF01F2FF71A7
:1018600063434FEAE12148BF03F2FF3301F5004132
:101870009B124B4348BF03F2FF33B2F91A109B127D
:1018800003F500134B4313F5005344BF03F57F5397
:101890003F339B13C013584303460028BCBF00F5D9
:1018A000FF437F33DB135B43127E48BF7F33DB1183
:1018B000534348BF0F33A0EB231020EAE070B0F190
:1018C000C85FA8BF4FF0C8500013FFF7E3F94FF00F
:1018D0006A51FFF737FA10BD0248FCE7C404002044
:1018E000F00500200000C07FD02038B5FFF7BAFD1A
:1018F000602840F0B180B621E020FFF79DFDF32085
:10190000FFF7B0FDC307FAD4544C88202146FFF7F7
:10191000C1FDA11C8A20FFF7CFFD211D8C20FFF700
:10192000CBFDA11D8E20FFF7B5FD04F1080190202D
:10193000FFF7C2FD04F10A019220FFF7BDFD04F19B
:101940000C019420FFF7B8FD04F10E019620FFF77B
:10195000B3FD04F110019820FFF7AEFD04F1120170
:101960009A20FFF7A9FD04F114019C20FFF7A4FDC4
:1019700004F116019E20FFF79FFDA120FFF772FDE5
:1019800004F11A012076E120FFF796FDE320FFF72E
:1019900069FD2077E420FFF765FD0546E520FFF7A8
:1019A00061FD00F00F0343EA0510E083E620FFF736
:1019B00059FD0546E520FFF755FDC0F3071343EA3F
:1019C00005102084E720FFF74DFD84F82200F52064
:1019D000FFF748FD00F01F0141F0A001F520FFF7DF
:1019E0002BFDF520FFF73EFD00F0E30141F008017B
:1019F000F520FFF721FDF420FFF734FD00F01F0173
:101A000041F06001F420FFF717FDF420FFF72AFDF5
:101A100000F0E30141F00C01F420FFF70DFDF2208E
:101A2000FFF720FD00F0F80141F00301F220FFF77D
:101A300003FDF420FFF716FD0146F420FFF7FCFC40
:101A4000F420FFF70FFDBDE8384000F0FC0141F045
:101A50000301F420FFF7F0BC38BD00BFC404002030
:101A600008B504224FF47060084901F037FF0422E2
:101A70004FF4A060064901F031FFBDE808400422A0
:101A80004FF48070034901F029BF00BF64040020B7
:101A9000680400206003002008B58021002001F0C8
:101AA000B1FE002001F080FEFFF7DAFFBDE808403C
:101AB00006224FF41060014901F010BFF405002028
:101AC00008B58021002001F09DFE002001F06CFE91
:101AD000BDE8084006224FF41060014901F0FEBE47
:101AE000F405002070B5094B094E0A4C1E600A4EE1
:101AF0000A4D002808BF3046002918BF0C46084E82
:101B00002C60306002B11A6070BD00BF0C00002074
:101B1000C11A0008991A0008611A00081000002074
:101B20000800002007B5062269464FF4106001F056
:101B30009BFE204B204A1B681A60204A1268110E37
:101B40001971110C5971110A9971DA7100214FF450
:101B50000002C3E902211A4AC3E90411107899610D
:101B600018775078587790789877D078D877107918
:101B7000527983F8200083F8212003F12C0003F12F
:101B8000220202F8011B8242FBD1002003F16C010A
:101B900002F8010B8A42FBD1002003F1EC0102F8AC
:101BA000010B9142FBD1074AC3F8EC2003B05DF86A
:101BB00004FB00BF0806002001010600FC05002010
:101BC000F4050020638253631FB5FFF7ABFF2D4B75
:101BD000002219682C4B8A72C1F8F03040F20713CA
:101BE000A1F8F430294BCA72187881F8F6005878B9
:101BF00081F8F700987881F8F800D87881F8F90032
:101C000018795B7981F8FA0081F8FB3040F23243B1
:101C1000A1F8FC301E4B187881F8FE00587881F846
:101C2000FF009878DB7881F8000181F8013140F2FB
:101C30003643A1F80231174B187881F8040158781F
:101C400081F80501987881F80601DB7801F50970C3
:101C500081F80731FF2381F8083101F2091303F8F5
:101C6000012B8342FBD14FF0FF33039343230A48F8
:101C700000934FF4097203AB007801F00DFA05B040
:101C80005DF804FB080600203501043DF405002042
:101C900064040020040600200C0600202DE9F04F0B
:101CA000A14D8BB0287801F074FE024618B90020CF
:101CB0000BB0BDE8F08F0DF11E039C4C0093216822
:101CC00008AB287801F098FABDF81E30432B40F09D
:101CD00028812168964B0C7F1A789442E7D14C7F7B
:101CE0005A789442E3D18C7F9A789442DFD1CC7FAA
:101CF000DA789442DBD191F820401A799442D6D117
:101D000091F821205B799A42D1D18A4A9DF820909E
:101D1000177856789578D47847EA06032B432343FF
:101D2000029220D04F450BD19DF82130B34207D10C
:101D30009DF82230AB4203D19DF82330A34212D04C
:101D40007D4B1C784C45B2D19DF821505C78A54262
:101D5000ADD19DF822509C78A542A8D19DF8234092
:101D6000DB789C42A3D180B201EB000A00209DF8F1
:101D7000212001F1F00303929DF822206E49049284
:101D80009DF823206D4C6E4D6E4E6F4F059253455E
:101D900001D340B28CE793F800C0BCF1350F39D0C5
:101DA00013D8BCF1060F08D8BCF1060F08D8DFE83D
:101DB0000CF02F34074607075B00BCF1330F66D0E9
:101DC00003F1020C5B786344E1E7BCF1E10F00F042
:101DD0008C8018D8BCF1360F6DD0BCF1E00FEFD17C
:101DE00093F802E093F801C084F800E093F803E070
:101DF00084F801E093F804E084F802E093F805E049
:101E000084F803E02DE0BCF1FF0FD9D15346BEE7C3
:101E10000133BCE798780333B9E793F802C087F839
:101E200000C093F803C087F801C093F804C087F896
:101E300002C093F805C087F803C00633A7E793F8FC
:101E400002E093F801C086F800E093F803E086F81A
:101E500001E093F804E086F802E093F805E086F8E4
:101E600003E06344023392E793F802E093F801C081
:101E700085F800E093F803E085F801E093F804E0CA
:101E800085F802E093F805E085F803E0E9E793F8C8
:101E900002C02E4AC2F800C093F803E00EEB0C2CEF
:101EA00093F804E00EEB0C2E93F805C00CEB0E2C0F
:101EB000C2F800C0C1E793F802C0029A82F800C0DD
:101EC00093F803C081F8009082F801C093F804C031
:101ED00082F802C093F805C082F803C0039A4A70E2
:101EE000049A8A70059ACA70A7E79A1C964693F8D6
:101EF00001C0C3F1FF2303F57F03DFF85480FE33F5
:101F00000EEB030BDC4507DC13464FF0000E104AC6
:101F1000634402F80CE03AE71EF801BB08F801BB85
:101F2000EEE7002035E700BF0C0600200806002081
:101F3000F405002004060020000600206C040020A8
:101F40005C030020600300206804002014000020CF
:101F50006403002037B54FF4D85001F025FC03216D
:101F600005464FF4D85001F04DFC41F288330E483D
:101F7000009311220D4B0E49007801F08DF80446B4
:101F800029464FF4D85001F03DFC0D340AD0FFF73C
:101F90001BFE084B19681A68521A012AFBD9002047
:101FA00003B030BD0120FBE70C06002064040020D4
:101FB000188500087804002000230A21034A1360D2
:101FC000034A1160034A1370704700BF7804002071
:101FD0001800002074040020002373B5244C06224E
:101FE00006460D464FF410602146019301F03CFC7B
:101FF000627823781343A2781343E278134322795B
:102000001343627913430DD108226270DC2221460A
:10201000A2704FF4106006222370E3702371637185
:1020200001F05CFC134B20791E70134BE1781D60AE
:10203000124B62790C182344414013444A40134424
:102040000F4A4FF47060136004220DEB020101F09F
:1020500045FC04224FF480700DEB020101F03EFCC0
:10206000FFF7AAFF0022074B1A7002B070BD00BF35
:10207000F40500200C0600200806002078563412D3
:10208000FC05002075040020024A13680133136028
:10209000704700BF78040020044B1A7802705A7809
:1020A00042709A788270DB78C370704764040020B5
:1020B000044B1A7802705A7842709A788270DB78F2
:1020C000C370704760030020044B1A7802705A787E
:1020D00042709A788270DB78C37070476C0400207D
:1020E000054A431EFE30117803F8011F12F8011B48
:1020F00009B18342F7D1704764030020044B1A787A
:1021000002705A7842709A788270DB78C370704798
:102110006804002000F00F00092894BF30303730E9
:10212000704700002DE9F04385B0FFF7FBFC00236A
:10213000694A6A48137053709370D370684A137079
:1021400053709370D370674B1968674BC1F8F030C8
:1021500040F20713A1F8F430644B1A7893F8038027
:1021600081F8F6205A781F795E7981F8F7209A78FD
:102170000C23A1F8FC30122381F8F82081F8F980B3
:1021800081F8FA7081F8FB60A3F1120292B2845CCC
:102190005D1CADB201EB0309002C40F093804FEAC7
:1021A0001810FFF7B7FF89F8EC004046FFF7B2FFC1
:1021B0000D4485F8EC003809FFF7ACFF9D1CADB26B
:1021C0000D4485F8EC003846FFF7A4FFDD1CADB2E6
:1021D0000D4485F8EC003009FFF79CFF1D1DADB2E2
:1021E0000D4485F8EC003046FFF794FF5D1DADB25D
:1021F0000D4485F8EC00981D80B2D51D451B0632B4
:102200000D4485F8EC203722084480F8EC200820A3
:10221000DA1D92B20A4482F8EC001A18012092B238
:102220000A4482F8EC00032003F1090292B20A4446
:1022300082F8EC00062003F10A0292B20A4482F806
:10224000EC000F2003F10B0292B20A4482F8EC007A
:102250003A2003F10C0292B20A4482F8EC003B20CF
:1022600003F10D0292B20A4482F8EC00E02003F17F
:102270000E0292B20A4482F8EC00E12003F10F0250
:1022800092B20A4482F8EC00FF2003F111021033ED
:102290009BB20B4492B283F8EC0002F1EC030B44C6
:1022A000B2F59C7F12D34FF0FF33039343231048C2
:1022B00000934FF4097203AB007800F0EDFE05B017
:1022C000BDE8F0832B4689F8EC405DE7013203F866
:1022D000014B92B2E4E700BF04060020000000209A
:1022E00000060020080600203501013DF40500200D
:1022F0000C0600202DE9F04385B0FFF713FC924B4C
:1023000092491B78033B012B00F2108100220B68DD
:102310009A72DA728E4A10781873507858739078DF
:10232000D2789873DA738B4B1A788DF80C205A7820
:102330008DF80D209A78DB788DF80E208DF80F300F
:102340000968854BC1F8F03040F20713A1F8F4306A
:10235000824B1A78DF7881F8F6205A781E7993F844
:10236000058081F8F7209A789DF80F3081F8F820E1
:10237000FF2B81F8F97081F8FA6081F8FB8040F05A
:10238000D98040F23243A1F8FC30714B1A7881F8C1
:10239000FE205A7881F8FF209A78DB7881F80021B6
:1023A00081F8013140F23643A1F80231694B1A78C5
:1023B00081F804215A7881F805219A78DB7881F830
:1023C00006211C2281F807310C208B1883F8EC00C1
:1023D000931C01328818002280F8EC20604810F825
:1023E000015B5C1CA4B201EB0309002D40F0A4804A
:1023F0003809FFF78FFE89F8EC003846FFF78AFEB0
:102400000C4484F8EC003009FFF784FE9C1CA4B255
:102410000C4484F8EC003046FFF77CFEDC1CA4B2D0
:102420000C4484F8EC004FEA1810FFF773FE1C1DF3
:10243000A4B20C4484F8EC004046FFF76BFE5C1D30
:10244000A4B20C4484F8EC00981D80B2D41D041B87
:1024500006320C4484F8EC203722084480F8EC2043
:102460000A20DA1D92B20A4482F8EC00012003F13E
:10247000080292B20A4482F8EC00032003F1090238
:1024800092B20A4482F8EC00062003F10A0292B2EA
:102490000A4482F8EC000F2003F10B0292B20A44C6
:1024A00082F8EC003A2003F10C0292B20A4482F85E
:1024B000EC003B2003F10D0292B20A4482F8EC00DA
:1024C0001F2003F10E0292B20A4482F8EC00212090
:1024D00003F10F0292B20A4482F8EC00E02003F10B
:1024E000100292B20A4482F8EC00E12003F11102DA
:1024F00092B20A4482F8EC00FF2003F1120292B279
:102500000A44133382F8EC009BB201F1EC02B3F5FC
:102510009C7F16DB4323134800934FF4097203ABEF
:10252000007800F0B9FD05B0BDE8F0834FF0FF334F
:10253000039305E7102247E7234689F8EC50013260
:102540004DE7D5540133E2E775040020080600206A
:1025500064040020040600203501033DF40500203A
:10256000000000200C06002070B51C4C94F90030CF
:10257000012B1DDC1A4D1B4E2A683168914212D284
:10258000194B93F90030022B0FD0042B0DD0012BE7
:1025900001D1FFF7C7FD00232B602B680A3333609E
:1025A000237801332370012010E0FFF7A3FEF2E748
:1025B0000D4B93F900201C46022A08D0042A06D0AD
:1025C000012A09D100201870FFF7F6FC70BDFFF753
:1025D000A9FD01202070F7E70120F5E77404002031
:1025E00078040020180000207504002038B5524CF3
:1025F00094F90030062B00F09C80504D2878400163
:1026000000F5427001F0D0F8222805D000234422C2
:102610000221287800F0AEFBFFF740FB94F9003070
:10262000C5B2042B31D8DFE803F0030E233D5A0076
:102630000022434B1A705A709A70DA70FFF772FDDD
:102640000120207038BD022D0ED13E4B1A683C4B44
:10265000117C1970517C5970917CD27C9970DA7020
:10266000FFF748FE257010E0BDE83840FFF77CBF5B
:10267000052D12D1FFF76EFC054640B1324B1B68A9
:102680009847FFF799FC032323700120DAE7FFF74F
:1026900093FC2E4B1B689847E4E7062DE4D1FFF727
:1026A0008BFCCDE72A4B1B685A1C40D0294A126884
:1026B000B2EB530F3BD9224A274B1178197051784E
:1026C00059709178D2789970DA70244A136801337E
:1026D0001360FFF70FFEFFF76FFC0420B1E7052D35
:1026E0001FD100221E4B1A701B4A154B1078197807
:1026F00088420BD150785978884207D190789978E0
:10270000884203D1D278DB789A4208D0154B1B68F7
:1027100098470320FFF750FC0323237092E704201F
:10272000F8E7062DA0D1FFF747FC01232370042012
:1027300088E7052086E700BF750400200C0600200E
:102740006404002008060020080000200C0000207F
:10275000140000207804002070040020FC050020F4
:1027600074040020100000200122014B1A707047F1
:102770007C0400207047000000224FF48051014883
:1027800001F0BCBC000C014001224FF48051014813
:1027900001F0B4BC000C01400A464FF0FF33014683
:1027A000014802F05ABE00BF100A002007B50121FF
:1027B0000DF10700FFF7F0FF9DF8070003B05DF88B
:1027C00004FB00000A464FF0FF330146014802F0C7
:1027D000A8BC00BF100A002007B501218DF8070032
:1027E0000DF10700FFF7EEFF03B05DF804FB0000FA
:1027F00008B549F640430A480A4AC0E900230023C5
:102800004FF48042C0E90233C0E90423C0E9063333
:10281000036201F053FE08B172B6FEE708BD00BFC7
:10282000680A0020005400402DE9F04104460E469D
:102830001746984642F68822002301210220C0B0A4
:1028400000F098FA0228054645D1214642F243722B
:1028500000F022FB0128044607D0284600F04CFA7D
:10286000FE24204640B0BDE8F0814046FDF7DCFD87
:102870003246CDE900013B46184903A803F00EFC9F
:10288000174B03A820938DF88440FDF761FC0023CB
:10289000C4B203A90DF18D008DF88540ADF88630E6
:1028A00022938DF88C3003F019FC0D34E4B22246EB
:1028B000022020A900F066FB002804DC022000F0C2
:1028C0001BFAFD24CDE7241A14F0FF04EFD10220F7
:1028D00000F012FAC5E7FF24C3E700BF2A8500080D
:1028E0005A42584473B52B492B4801F0F9F82B494B
:1028F0002B4801F007F92B492B4801F01BF96B46D7
:102900002A4A2B4D1068516842F2117403C369467C
:10291000084601F064F906224FF41060254900F0E2
:10292000DDFF00202449FFF757FB2449244A0846CD
:10293000FFF7D8F82E462B780BB9013C20D133781D
:10294000E3B11C4CA01DFFF7A7FB04F10E00FFF73D
:10295000AFFB04F10A00FFF7D1FB04F11600FFF70B
:10296000B3FB04F11A00FFF7BBFBA37E73B9154953
:10297000154803F0B3FB0F4801F06EF902B070BDCB
:10298000FFF734FE642001F003FAD4E704F11A01E2
:10299000EEE700BF8927000879270008D92700083B
:1029A000AD270008C527000899270008838500087F
:1029B0007C0400201C00002010060020692700086D
:1029C0007527000876850008F0040020002110B566
:1029D00090B0142201A809910B9102F0F7FE4FF478
:1029E000803309220224CDE906234FF40032CDE9D9
:1029F0000D4308924FF46013012206A80A920C922C
:102A00000F9302F019F808B172B6FEE70F23CDE973
:102A100001344FF480630390CDE90430214601A8CE
:102A200002F0E0F908B172B6FEE710B010BD000088
:102A30004FF0100880B50025012603244FF480577D
:102A400088B001F081F9FFF7C1FF424600210DEB8C
:102A5000080002F0BBFE8C4B41F210019A698B48D2
:102A600042F020029A619A69DFF8789202F020021F
:102A70000192019A9A6942F004029A619A6902F0FD
:102A800004020292029A9A6942F008029A619B69D2
:102A9000002203F008030393039B01F02FFB0022A5
:102AA0004FF410417A4801F029FB78480DEB0801FA
:102AB000CDE90654CDE9047601F0D6F94FF4104380
:102AC00073480DEB0801CDE90654CDE9043601F059
:102AD000CBF902236D480DEB080106950793CDE96C
:102AE000048601F0C1F94FF4E1336A4CC4E9009364
:102AF0004FF00C092046C4E90255C4E9059525614B
:102B0000E56102F0A7FD054608B172B6FEE7FFF7E2
:102B10006FFE4FF482736048DFF8CCE1C0E90255E4
:102B2000C0E900E34FF40073C0E906350A23C0E9A9
:102B30000455C0E908558562C36202F09AFA08B1EB
:102B400072B6FEE705235548DFF8A0C1C0E900C30F
:102B500040F6FF73836001F041FF034608B172B68F
:102B6000FEE74F484F4A504DC0E90233C0E90052DA
:102B70004FF48042C0E90633C0E90423036201F048
:102B80009DFC034608B172B6FEE74FF41652474863
:102B90004749C0E90233C0E90012C0E90439C0E97D
:102BA000063302F057FD054608B172B6FEE7394616
:102BB0003246374801F0A2FA4FF0FF3318223D4960
:102BC000204602F075FD41462A46304801F096FA4B
:102BD000414632462D4801F091FA394632462B489B
:102BE00001F08CFA4FF4FA6001F0D2F8FFF77AFEA8
:102BF000FEF77AFE4FF0FF330F222F49204602F0F6
:102C000057FD39462A46224801F078FA2B4FDFF863
:102C1000E080DFF8E090214801F007FFFEF796FC26
:102C2000274C284E2060FEF7DBFC3946FEF78AF879
:102C30003060FEF7F1FD244D2468286041462046AF
:102C4000FEF71EFAB8B149462046FEF737FA90B1B2
:102C500023461E4A1E491F48FFF7E6FD33681E4AF9
:102C60001B491C48FFF7E0FD2B681C4A184919480E
:102C7000FFF7DAFDCFE71A4801F0C8FCFFF7B8FD0F
:102C8000FEF732FEC7E700BF00100240000C014013
:102C900000080140200B0020100A0020BC0A002080
:102CA000C80A0020A086010000580040640B0020E4
:102CB000004400408C850008A4850008E8C7F53B67
:102CC000BC040020C0040020EC040020B3850008F0
:102CD000F004002032000020BF850008C8850008ED
:102CE000680A0020003801400038004000300040F1
:102CF00000007042000020C20828F8B504462DD814
:102D0000470107F1080607F584771021384600F0DF
:102D100079FD384600F048FD05460028F9D11F210D
:102D200006F5007000F06EFD0123A340DB430D4962
:102D30001BB20A8806F540761A400A800A4A1188B2
:102D40000B401380094B23F81450094B1D55304696
:102D500000F02AFD0028FAD10120F8BD4FF0FF3025
:102D6000FBE700BF7E040020800400208A040020CE
:102D70008204002008282DE9F341044688461746BE
:102D80001D467CD8012905D08B1E022B10D96FF06F
:102D900004000AE004224FF470600DEB020100F021
:102DA00063FD019B23B96FF0020002B0BDE8F08122
:102DB000680757D42DB1B8F1010F50D0B8F1020F08
:102DC00053D020466601FFF797FF083625F00F0124
:102DD000304641EA080100F015FD6FB94FF6F07179
:102DE000284A17887B1C9BB28B4205BF4FF4404397
:102DF0004FF6EF7713801380390A06F5806000F0F4
:102E000001FDF9B206F5A06006F5807700F0FAFC46
:102E10000121384600F0F6FC384600F0C5FC0028D9
:102E2000FAD10123A340DB4317491BB20A8805F0FE
:102E300001051A40A5401543144A0D80118806F576
:102E400040760B401380124B23F81400114B185599
:102E5000304600F0A9FC0028FAD060B2A5E715F0D2
:102E6000210FAED16FF005009FE7A9066BB201D527
:102E7000002BF7DAEA06A4D5002BA2DBF2E74FF02D
:102E8000FF3092E7360100207E04002080040020FD
:102E90008A0400208204002008282DE9F04106461B
:102EA0000D4617465DD844010834204600F07CFCEE
:102EB00000F00F00012857D104F54078404600F09B
:102EC00073FC132853D12B786A7802EB0322AB787A
:102ED00003EB0222EB78013B03EB0223033349D8D7
:102EE000002F4AD00422294604F5406000F0F6FC89
:102EF000390A04F5805000F085FC04F58075F9B2BC
:102F000004F5885000F07EFC0421284600F07AFC8D
:102F1000284600F049FC0028FAD1194B1B8843FAD7
:102F200006F6F20713D404F50074404600F03CFCAA
:102F3000172801D101200AE0204600F035FC0307E4
:102F400007D52046082100F05DFC6FF00C00BDE8BD
:102F5000F081404600F028FC0028E6D16FF0030025
:102F6000F5E74FF0FF30F2E76FF00400EFE76FF0A6
:102F70000200ECE76FF00B00E9E76FF00A00E6E70C
:102F80007E04002008282DE9F84F0646884614469E
:102F900074D845010835284600F006FC00F00F0003
:102FA00001286ED1002C6FD005F54079484600F01D
:102FB000FBFB172801D01C2832D1354F3B88334109
:102FC000D90711D505F5007A504600F0EDFBC20691
:102FD00029D51021504600F015FC012303FA06F212
:102FE0003B8823EA02033B8005F5F85000F0DCFB48
:102FF000830298B24FF0010A844228BF04460AFABD
:1030000006FA304600F0A4FC8346484600F0CCFBAC
:103010001728204B12D01C2810D03046FFF76CFE2A
:103020006FF0060002E0030702D40020BDE8F88F2D
:103030003046FFF761FE6FF00C00F7E71A8812EADE
:103040000A0F18D05C45F0D841463046224605F5B7
:10305000807500F0BFFC2021284600F0D3FB2846F5
:1030600000F0A2FB0028FAD13B8820464AEA030A76
:10307000A7F800A0DAE75C45C3D8E5E74FF0FF30DA
:10308000D4E76FF00400D1E76FF00D00CEE700BF8A
:10309000800400207E0400202DE9F84F0828064611
:1030A000884614461F46BDF828A000F297804501C7
:1030B0000835284600F078FB00F00F00023802289F
:1030C00000F28F80002C00F08F803B787A7802EB42
:1030D0000322BB7803EB0222FB7803EB0223002BD5
:1030E0003CD0BAF1000F41D005F54079484600F0D8
:1030F0005BFB422842D10422394605F5406000F0CE
:10310000EDFB4FEA1A2105F5805000F07BFB5FFADA
:103110008AF105F5885000F075FB05F5F85000F0D0
:1031200043FB800280B24FF0010A844228BF04466C
:10313000DFF8C0B00AFA06FA304600F009FC07468C
:10314000484600F031FB002851D0BBF8003013EAAC
:103150000A0F1AD0BC421AD9002034E0284600F0E9
:1031600023FB4007BDD46FF00B002CE0284600F095
:103170001BFB4107B8D46FF00A0024E000F0EF0019
:103180002228B8D06FF006001DE0BC42D4D83046EB
:103190004146224605F5807600F01CFC2021304691
:1031A00000F030FB304600F0FFFA0028FAD105F5B8
:1031B0000075284600F0F8FAC20606D52846102108
:1031C00000F020FB2046BDE8F88F0307F1D5284624
:1031D000082100F017FB6FF00C00F4E74FF0FF3010
:1031E000F1E76FF00400EEE76FF00D00EBE76FF032
:1031F0000300E8E77E0400202DE9F04F082804468C
:103200008A469146984685B000F2E8804701083723
:10321000384600F0C9FA00F00F02023A022A83464B
:1032200000F2DF80B9F1000F00F0DE80714E36F859
:103230001420002A7AD1012107F54073A1400093A0
:103240002046019100F0A5FB0546009800F0ACFA7D
:10325000002800F0CC80684B01991A880A4202D0FD
:103260001DB9284689E0002DEAD00BF0070003289D
:1032700007F5807700F08480042859D0022840F0B8
:10328000A68036F814308BBB082220460DEB0201D5
:1032900000F0CDFB4021384600F0B4FA384600F08B
:1032A00083FA0028FAD19DF808309DF80C2088F8A0
:1032B00000309DF8093088F801309DF80A3088F810
:1032C00002309DF80B3088F803309DF80D3003EB89
:1032D00002230E9A13809DF80E209DF80F3003EB09
:1032E000022326F814308022444B1A5536F8145025
:1032F00051464D4528BF4D4620462A4600F097FBD3
:103300004021384600F07EFA384600F04DFA002899
:10331000FAD136F81430394A5B1B9BB226F81430C8
:1033200013B1105D40F0010010559AE700259CE7AD
:1033300036F81430002BD9D1204602A9022200F021
:1033400076FB4021384600F05DFA384600F02CFA52
:103350000028FAD19DF809309DF80820023B03EBC4
:10336000022340F2EA529BB2934226F81430BAD9B3
:103370002046FFF7C1FC6FF47A7005B0BDE8F08F0E
:1033800036F81430002BB1D1204602A9062200F0F5
:103390004EFB4021384600F035FA384600F004FA7A
:1033A0000028FAD19DF808309DF80C2088F80030EC
:1033B0009DF8093088F801309DF80A3088F802300D
:1033C0009DF80B3088F803309DF80D3087E72946CB
:1033D000204600F059FB26F8145091E74FF0FF30DB
:1033E000CBE76FF00400C8E76FF00D00C5E76FF0A2
:1033F0000300C2E78A0400207E040020820400202B
:103400000E4B82B09A6942F001029A619A6902F009
:1034100001020092009ADA6942F08052DA61DB69B7
:10342000074A03F080530193019B536823F0E06344
:1034300043F08063536002B0704700BF0010024049
:1034400000000140102210B5044688B00DEB0200C8
:10345000002102F0BBF92368254A934226D1254C6E
:103460004FF44071A369244843F00803A361A369A2
:1034700003F008030093009B1223CDE904130323F8
:1034800004A9079300F0F0FC1C4A536843F0E06382
:1034900043F002035360E36943F40013E361E3691B
:1034A00003F400130193019B08B010BD144A93422A
:1034B000FAD1104C4FF44062A3690F4843F008035F
:1034C000A361A36904A903F008030293029B1223DA
:1034D000CDE904230323079300F0C6FCE36943F41A
:1034E0008003E361E36903F480030393039BDBE759
:1034F0000054004000100240000C01400000014058
:103500000058004008B5144A0368934211D102F5EF
:10351000DE32D3694FF4807123F400130F48D36176
:1035200000F07EFD4FF40071BDE808400B4800F04C
:1035300077BD0B4A93420DD102F5DC32D3694FF4CB
:10354000806123F480030548D36100F069FD4FF4E6
:103550000061E9E708BD00BF00540040000C0140D5
:103560000058004010B5044686B01022002102A881
:1035700002F02CF92268174B9A4228D103F5EC335C
:10358000DA69154842F48042DA61DA6902A902F484
:1035900080420092009A9A6942F008029A619B69FF
:1035A0004FF4204203F008030193019B0223CDE96D
:1035B00002230323059300F057FC4FF480410023BE
:1035C0000548CDE9021302A9049300F04DFC06B0B2
:1035D00010BD00BF00380040000C0140102210B5A3
:1035E000044688B00DEB0200002102F0EFF82368DA
:1035F0002D4A93422ED12D4B40209A6904A942F4C2
:1036000080429A619A69802402F480420092009A72
:103610009A6942F008029A619B6903F008030193DA
:10362000019B0223CDE9040303232148079300F003
:103630001BFC00231E4804A9CDE90443069300F0B7
:1036400013FC1C4A536843F0E06343F004035360E7
:1036500008B010BD184A9342FAD1144B04A9DA6994
:10366000164842F40032DA61DA6902F4003202925A
:10367000029A9A6942F004029A619B69042203F05B
:1036800004030393039B0223CDE90423032307933D
:1036900000F0EAFB002308210848CDE9041304A93F
:1036A000069300F0E1FBD3E7003801400010024030
:1036B000000C0140000001400044004000080140AF
:1036C000FEE7FEE7FEE7FEE7FEE77047704770475C
:1036D00010B5084C238801339BB2B3F57A7F238061
:1036E00003D3FEF7D1FC00232380BDE8104000F097
:1036F0003DBB00BF9A0400200120704708B502F0CE
:103700002DF8162303604FF0FF3008BD08B502F016
:1037100025F816230360FEE770B50E461446002513
:10372000A54201DB204670BDAFF300807055013526
:10373000F6E770B50E4614460025A54201DB20468B
:1037400070BD705DAFF300800135F6E74FF0FF30DC
:1037500070474FF4005300204B60704701207047C2
:10376000002070470B4B0246196810B509B90A4989
:103770001960186809490A4C0244091B8A4206D993
:1037800001F0ECFF0C2303604FF0FF3010BD1A6016
:10379000FCE700BF9C040020C00B0020005000206C
:1037A000000400007047000073B50546144CC5F3D3
:1037B0000726E368984763699847636AC5F307403B
:1037C000EDB20BB1A36A8BB9236A98473046236ADE
:1037D00098472846236A9847E36998470546A369AE
:1037E000984723699847284602B070BD8DF80400B9
:1037F00003218DF805608DF8065001A89847EBE786
:103800003C010020F7B50546164C0F46E368984783
:1038100063699847A36A45F00406C5F30740F6B20A
:10382000C5F3072583B9236A98472846236A984732
:103830003046236A98473846236A9847A3699847D1
:103840002369984703B0F0BD04218DF804008DF87A
:1038500005508DF806608DF807700DEB0100984754
:10386000ECE700BF3C0100202DE9F34105461A4C6E
:103870000E46E3681746984763699847636AC5F33D
:103880000740C5F30728EDB20BB1A36AB3B9236AA9
:1038900098474046236A98472846236A9847374402
:1038A000B74206D1A36998472369984702B0BDE89B
:1038B000F081E369984706F8010BF1E78DF8040001
:1038C000032101A88DF805808DF8065098473946E8
:1038D0003046636A9847E5E73C0100202DE9F34153
:1038E00005461A4C8846E368174698476369984727
:1038F000A36A45F00406C5F30740F6B2C5F30725F1
:10390000B3B9236A98472846236A98473046236A02
:1039100098474744474506D1A36998472369984784
:1039200002B0BDE8F081236A18F8010B9847F1E76F
:103930008DF80400032101A88DF805508DF806606C
:10394000984739464046A36A9847E5E73C0100207E
:10395000F8B500244601083606F5005706F504566A
:103960003846FFF721FF05023046FFF71DFFADB2D5
:103970000544ADB24DB13846FFF716FF040230469C
:10398000FFF712FFA4B20444A4B2AC42E8D120462F
:10399000F8BDF8B500244601083606F5185706F5B7
:1039A0001C563846FFF700FF05023046FFF7FCFEC5
:1039B000ADB20544ADB24DB13846FFF7F5FE040295
:1039C0003046FFF7F1FEA4B20444A4B2AC42E8D101
:1039D0002046F8BD2DE9F843894614462AB38500F0
:1039E0006F1CFF0007F510584046FFF7DDFE07F596
:1039F000145706463846FFF7D7FE00EB062086B27E
:103A0000023530022246494600EBC500FFF766FF4B
:103A1000A11940468CB2C1F30721FFF7F3FE3846E7
:103A2000E1B2BDE8F843FFF7EDBEBDE8F8832DE94C
:103A3000F843894614462AB385006F1CFF0007F53A
:103A400020584046FFF7B0FE07F524570646384693
:103A5000FFF7AAFE00EB062086B2033530022246AD
:103A6000494600EBC500FFF7FFFEA11940468CB2A6
:103A7000C1F30721FFF7C6FE3846E1B2BDE8F843BF
:103A8000FFF7C0BEBDE8F883F8B54401083404F57B
:103A9000205738460D46FFF787FE04F524540646A6
:103AA0002046FFF781FE291801EB062138468DB22A
:103AB000C1F30721FFF7A6FE2046E9B2BDE8F840B2
:103AC000FFF7A0BE70470078704701707047002074
:103AD00070477047704770477047704770470000E5
:103AE000054B00B121B9054A5A61054A9A617047F0
:103AF000C3E90501704700BF3C010020DB3A000824
:103B0000DD3A0008084B10B51C881A46A40500D4FD
:103B1000FEE700B121B9054BD361054B136210BD1F
:103B2000C3E90701FBE700BF3C010020CF3A0008D2
:103B3000D33A0008084B10B51C881A46A40500D4D7
:103B4000FEE700B121B9054B5362054B936210BDEE
:103B5000C3E90901FBE700BF3C010020D53A00089A
:103B6000D73A00087FB5062204A94FF41060FFF78A
:103B70007BFE04224FF480700DEB0201FFF774FE10
:103B800002A904224FF4A060FFF76EFE042203A9ED
:103B90004FF47060FFF768FE80210020FFF732FECF
:103BA0000020FFF701FE04A906224FF41060FFF782
:103BB00095FE04224FF480700DEB0201FFF78EFE9C
:103BC00002A904224FF4A060FFF788FE04224FF4FC
:103BD000706003A9FFF782FE07B05DF804FBF8B53B
:103BE00005460C46FFF7BEFFBDB16E1E32460023F0
:103BF000073512F8011F0B445BB2102B29DCAA42D7
:103C0000F7D141F6087542F20807284616F8011F59
:103C10002035FFF7F7FDBD42F7D10CB90020F8BD04
:103C2000651E2A460023073412F8011F0B445BB2BD
:103C3000102B0EDC9442F7D141F6086441F6087669
:103C4000204615F8011F2034FFF7DCFDB442F7D100
:103C5000E4E74FF0FF30E2E710B5044601460622E4
:103C60004FF41060FFF73AFE04224FF4807004F125
:103C70000E01FFF733FE04224FF4A06004F10A01A5
:103C8000FFF72CFE04224FF47060A11DFFF726FE03
:103C9000064BA27C1A70E27C5A70227D9A70627D7B
:103CA000DA7094F81921024B1A7010BDA10400209B
:103CB000A00400200C480D490D4A002302E0D4580E
:103CC000C4500433C4188C42F9D30A4A0A4C002366
:103CD00001E013600432A242FBD3FFF763FD01F061
:103CE00043FDFEF7A5FE70470000002040030020C2
:103CF000EC89000840030020C00B0020FEE7000014
:103D000038B50E4B054618784FF47A73B3FBF0F3D1
:103D10000B4A1068B0FBF3F000F090F8044658B975
:103D20000F2D09D8024629464FF0FF3000F054F815
:103D30002046044B1D6038BD0120FCE768010020CF
:103D4000380100206C010020074A08B513680320E1
:103D500043F01003136000F02DF80020FFF7D0FFB0
:103D6000FFF74EFB002008BD00200240034A044B31
:103D700011681B780B441360704700BFAC0B002028
:103D800068010020014B1868704700BFAC0B002091
:103D900038B50446FFF7F6FF0546631C1EBF044B0B
:103DA0001B78E418FFF7EEFF431BA342FAD338BD9C
:103DB0006801002007490302CA6803F4E06322F4A3
:103DC000E0621204120C134343F0BF6343F4003368
:103DD000CB60704700ED00E0164B30B5DC68C4F3F3
:103DE0000224C4F10703251D042B28BF0423062D3C
:103DF0004FF0FF3598BF002405FA03F388BF033C5A
:103E000021EA0303A34005FA04F422EA040200288D
:103E100043EA0203ACBF00F16040074A4FEA0313D4
:103E2000DBB2ABBF00F5614000F00F0080F800335B
:103E3000135430BD00ED00E014ED00E00138B0F1A6
:103E4000807F0AD2F021064B064A586082F8231080
:103E50000020072298601A6070470120704700BF59
:103E600010E000E000ED00E02DE9F74F00221646DB
:103E7000644BDFF8A0C1DFF8A0E10D6835FA06F465
:103E800002D103B0BDE8F08F4FF0010808FA06F840
:103E900005EA080438EA05057CD14D68032D07D8EA
:103EA000013D022D00F28880DFE805F0969BA1001D
:103EB000122D00F099806FD8112D00F08F80FF2C0B
:103EC00098BF82464FF00F0988BF00F1040A4FEAFD
:103ED0008605DAF8008088BF203D09FA05FB28EA4C
:103EE0000B0802FA05F548EA0505CAF80050D1F8B2
:103EF00004A01AF0805F4DD0434F26F00308BD693F
:103F000008F1804845F00105BD61BD6908F58038BC
:103F100005F00105019506F0030B019D4FEA8B0B9F
:103F2000D8F8085009FA0BF925EA0909374DA842D3
:103F300061D005F58065A8425FD005F58065A8428F
:103F40005DD005F58065A8420CBF0325042505FA60
:103F50000BF545EA0905C8F808501D681AF4803FBA
:103F600014BF2543A5431D605D681AF4003F14BFCC
:103F70002543A5435D609D681AF4801F14BF254347
:103F8000A5439D60DD681AF4001F14BF2C4325EA89
:103F90000404DC60013670E71D4FBD420CD017D819
:103FA000DFF878904D4507D009F570294D4503D0CD
:103FB000A9F580194D4582D18A68D2B1012A08BF7E
:103FC000C0F810804FF0080218BFC0F8148076E7E0
:103FD0006545F1D07545EEE7CA6870E7CA680432F6
:103FE0006DE7CA6808326AE7CA680C3267E70022E0
:103FF00065E7042263E70025A9E70125A7E7022575
:10400000A5E700BF00040140001002400008014085
:1040100000002210000031100000321000001210C9
:104020002DE9F74F4FF0040B00224FF0010A4FF03B
:104030000F0800EB0B0301932E4B31FA02F402D16F
:1040400003B0BDE8F08F0AFA02F70F4049D022F022
:10405000030404F18044284D04F5803402F0030C7D
:10406000A6684FEA8C0C08FA0CF9A84209EA060E79
:1040700039D005F58065A84237D005F58065A8429E
:1040800035D005F58065A8420CBF0325042505FA47
:104090000CF575456FEA07060FD1A56825EA0905F5
:1040A000A5601C6834401C605C6834405C609C689F
:1040B00034409C60DC683440DC60FF2F94BF0746CE
:1040C000019F4FEA82043D6888BF203C08FA04FC47
:1040D00025EA0C050BFA04F425433D60C46826402C
:1040E000C6600132A9E70025D1E70125CFE7022507
:1040F000CDE700BF00040140000801400AB10161A2
:1041000070470904FBE7016800224B6913F48063E0
:1041100010D06FF480634B612023026380F83D3040
:1041200080F83E20036C80F83C2043F004030364D5
:1041300001207047184670472DE9F04104460F46AC
:10414000164698462568686927EA000080B2B8B12B
:104150006B695A0516D52B68202243F400732B6037
:104160006FF480636B610023236384F83D2084F83F
:104170003E30226C42F004020120226484F83C307C
:10418000BDE8F081731CDED0FFF7FCFDA0EB08005A
:10419000B04201D8002ED5D100232022236384F819
:1041A0003D2084F83E30226C42F02002E4E770B5F6
:1041B00004460D46164623685B695B0701D500205F
:1041C00070BD2046FFF79FFFA8B96A1CF3D0FFF728
:1041D000D9FD801BA84201D8002DECD1002320225C
:1041E000236384F83D2084F83E30226C84F83C3010
:1041F00042F0200222640120E2E770B504460D4639
:10420000164621684B6913F0400301D0002010E0EE
:104210004A69D2060ED56FF010024A61202223634C
:1042200084F83D2084F83E30226C0120226484F81A
:104230003C3070BDFFF7A6FD801BA84201D8002DC1
:10424000DFD100232022236384F83D2084F83E3010
:10425000226C42F02002E8E72DE9F84606460F46B8
:1042600091461D464FEA114A3368BAF1010F0CBF5F
:104270005C699C6927EA0404A4B2B4FA84F4640972
:10428000A14501D0002017E06A1CEED0FFF77AFDAF
:10429000089BC01AA84201D8002DE5D10023202296
:1042A0000120336386F83D2086F83E30326C86F874
:1042B0003C3042F020023264BDE8F88670B5044616
:1042C0000D46164623685B691B0601D5002070BDAC
:1042D0002046FFF718FFA8B96A1CF3D0FFF752FD7C
:1042E000801BA84201D8002DECD10023202223639B
:1042F00084F83D2084F83E30226C84F83C3042F053
:10430000200222640120E2E72DE9F043154602680D
:104310009946136885B043F480731360DDE90C7827
:104320000E463B4600224FF00111CDF800800446B6
:10433000FFF792FF236838B11B68DB0502D54FF405
:104340000073236403200AE006F0FE061E613A466D
:10435000434620461749FFF7EFFE18B1012005B08C
:10436000BDE8F083236803905A69394603929B693C
:10437000424603932046039BFFF7A0FF40B1236C06
:10438000042B01BF2268136843F400731360E5E750
:10439000B9F1010F236802D1EDB21D61DFE72A0AEE
:1043A0001A61394642462046FFF788FF0028E6D1C9
:1043B0002368F1E7020001002DE9FF479A46DDE995
:1043C0000C78036815461A680E4642F480621A603B
:1043D0001A684FF0011142F480721A603B460022C5
:1043E000CDF800800446FFF737FF236848B11B680B
:1043F000DB0502D54FF400732364032004B0BDE84D
:10440000F0875FFA86F906F0FE061E613A464346DB
:1044100020462949FFF790FE08B10120EEE7236806
:1044200003905A69394603929B694246039320469A
:10443000039BFFF743FF40B1236C042B01BF2268AD
:10444000136843F400731360E7E7BAF1010F2368C0
:104450001AD1EDB24246394620461D61FFF72EFFC4
:1044600002460028E8D1216820460B6843F4807397
:104470000B603B464FF00111CDF80080FFF7ECFEDA
:10448000226860B11368B3E72A0A1A6139464246C6
:104490002046FFF713FF0028CED12368D9E749F063
:1044A00001031361204643463A460349FFF744FEA1
:1044B000003818BF0120A1E70200010070B50446D2
:1044C00008B9012070BD90F83D3003F0FF021BB920
:1044D00080F83C20FEF7B6FF242384F83D302368A3
:1044E0001A6822F001021A601A6842F400421A6047
:1044F0001A6822F400421A6000F010FD3F4A636817
:10450000934294BF3E4A3F4A90428CBF0022012210
:10451000002AD6D13C4E2268B0FBF6F6516801382D
:1045200021F03F01314351603449156A8B4281BF0C
:104530004FF4967171434FF47A76B1FBF6F125F0A2
:104540003F0594BF711C013129431162D1692B4D84
:1045500021F44F41AB4221F0FF0132D85B00B0FBA8
:10456000F3F0431C40F6FC70034242D0C3F30B034C
:104570000B43D3611168D4E9073021F0C001034334
:104580000B4313609168D4E9030321F4034103430F
:1045900021F0FF010B439360D168D4E9053021F08D
:1045A000FF0103430B43D3601368002043F0010372
:1045B00013602023206484F83D30206384F83E009B
:1045C00080E7A56855B903EB4303B0FBF3F3013370
:1045D000C3F30B037BB143F40043C9E719256B43D5
:1045E000B0FBF3F30133C3F30B0323B143F44043B4
:1045F000BEE70423BCE70123BAE700BFA0860100A1
:104600007F841E00FF083D0040420F0010B50446A5
:1046100098B12423026880F83D30136823F0010329
:104620001360FEF76FFF0020206484F83C0084F8DC
:104630003D00206384F83E0010BD0120FCE700002F
:104640002DE9F743044699460F4690460C9EFFF726
:1046500099FB94F83D300546202B03D0022003B08F
:10466000BDE8F08300901923012220463A49FFF764
:10467000F3FD0028F2D194F83C30012BEED0012359
:10468000206884F83C3003684246D90758BF036865
:1046900039465CBF43F001030360036823F4006301
:1046A0000360212384F83D30402384F83E3000230A
:1046B00023640A9B20466362BDF82C30CDE9006577
:1046C0006385638D2385254BE3624B46FFF71CFE14
:1046D00000282AD00120C2E7FFF7F0FD40B1236C8B
:1046E000042B01BF2268136843F400731360F1E7E1
:1046F000636A27681A4612F8011B39616262628D8B
:10470000218D013A92B262857A69481E80B25207C1
:1047100020850AD548B15A7802333A616362638DC5
:104720000239013B9BB221856385238D2A463146A0
:104730002046002BD0D1FFF73AFD0028CFD12268C8
:10474000136843F400731360202384F83C0084F85A
:104750003D3084F83E0082E7020010000000FFFFB9
:104760002DE9F04399460023044689B003930D4692
:104770009046129FFFF706FB94F83D300646202B2B
:1047800004D00225284609B0BDE8F0830090192323
:10479000012220468D49FFF75FFD0028F1D194F8F2
:1047A0003C30012BEDD00123206884F83C300368B5
:1047B0002946DB0758BF036842465CBF43F001034C
:1047C0000360036823F400630360222384F83D3010
:1047D000402384F83E3000232364109B204663620C
:1047E000BDF84430CDE900766385638D2385784B31
:1047F000E3624B46FFF7E0FD054608B10125C1E73E
:10480000228D2368C2B904905A6904929A6904926D
:10481000049A1A6842F400721A60DFF8B881DFF86F
:10482000B891238D002B37D1202284F83C3084F8B6
:104830003D2084F83E30A5E7012A11D11A6822F400
:1048400080621A6072B6236805905A6905929A6967
:104850000592059A1A6842F400721A6062B6DCE7A3
:10486000022A1A680ED142F400621A6072B62368F6
:1048700006905A6906929A690692069A1A6822F474
:104880008062EAE742F480621A6007905A690792F0
:104890009B690793079BC0E7032B78D8012B15D1A1
:1048A000324639462046FFF7A8FC0028A6D12368E7
:1048B0001A69636A1A70636A01336362238D013B6C
:1048C0002385638D013B9BB26385AAE7022B4FF0E2
:1048D00000023B4641462046009618D1FFF7BCFC3B
:1048E00000288BD172B623681A6842F400721A60ED
:1048F0001A69636A1A70636A01336362238D013B2C
:104900002385638D013B9BB2638562B6CFE7FFF7DA
:10491000A3FC00287FF472AF2268136823F480633D
:10492000136072B623681A69636A1A7046F2A81295
:10493000616A4B1C6362238D013B2385638D013BC0
:104940009BB26385D9F80030B3FBF2F223235343C3
:104950000393039B013B0393039B6BB920222363C7
:1049600084F83D2084F83E30226C42F0200222641C
:1049700062B684F83C3041E723685A695007E8D5AD
:104980001A6842F400721A601B694B70B3E7324632
:1049900039462046FFF731FC00287FF42FAF23680B
:1049A0001A69636A1A70626A531C6362238D013B41
:1049B0002385638D013B9BB2638523685969490751
:1049C0007FF52FAF1B69537075E700BF0200100021
:1049D0000000FFFF040001003801002038B5044644
:1049E00008B34CF6CC4203681A6045F255521A607F
:1049F00042685A6082689A60FFF7C4F905462268E7
:104A0000D06810F0030003D14AF6AA23136038BD22
:104A1000FFF7B8F9401B2728F1D92368DB689B070B
:104A2000EDD00320F3E70120F1E74AF6AA2203685C
:104A300000201A60704700002DE9F341054638B3A5
:104A40000368DB0710D42B689F075ED42B68190717
:104A500000F195802B685A0700F1BF80E8690028B3
:104A600040F02C81002029E08F4C636803F00C0398
:104A7000042B07D0636803F00C03082B0AD163688A
:104A8000DE0307D523689C03DDD56B68002BDAD1E4
:104A9000012013E06B68B3F5803F12D1236843F423
:104AA00080332360FFF76EF9064623689803CAD463
:104AB000FFF768F9801B6428F7D9032002B0BDE82E
:104AC000F0819BB9236823F480332360236823F4A7
:104AD00080232360FFF756F9064623689903B2D571
:104AE000FFF750F9801B6428F7D9E6E7B3F5A02F4C
:104AF000236803D143F480232360CFE723F480337A
:104B00002360236823F48023CBE7674C636813F0AA
:104B10000C0F07D0636803F00C03082B10D16368F7
:104B2000DA030DD423689B0702D52B69012BAFD183
:104B300023686A6923F0F80343EAC203236085E728
:104B40002A695A4B6AB101221A60FFF71BF906461F
:104B500023689F07ECD4FFF715F9801B0228F7D9CB
:104B6000ABE71A60FFF70EF90646236898077FF552
:104B70006DAFFFF707F9801B0228F6D99DE7AA69F8
:104B8000494E4B4BDAB101221A60FFF7FBF804469D
:104B9000736A9B070DD54FF4FA52464B1B68B3FB63
:104BA000F2F3019300BF019B5A1E0192002BF9D131
:104BB00050E7FFF7E7F8001B0228E9D97DE71A6004
:104BC000FFF7E0F80446736A9F077FF543AFFFF7EE
:104BD000D9F8001B0228F6D96FE7334CE369D800F7
:104BE00024D40127E36943F08053E361E36903F0D0
:104BF00080530093009B304E3368D90518D5EB687D
:104C0000012B26D1236A43F001032362FFF7BAF890
:104C100041F288380646236A9B073FD5002F3FF4B0
:104C20001DAFE36923F08053E36117E70027E2E754
:104C3000336843F480733360FFF7A4F88046336829
:104C4000DA05DCD4FFF79EF8A0EB08006428F6D95B
:104C500033E7ABB9236A41F2883823F001032362BA
:104C6000236A23F004032362FFF78CF80646236AC5
:104C70009807D3D5FFF786F8801B4045F7D91CE786
:104C8000052B236A03D143F004032362BAE723F020
:104C900001032362236A23F00403B6E7FFF772F8E7
:104CA000801B4045B7D908E700100240000042428F
:104CB0008004424238010020007000402A4B5A68AC
:104CC0001C4602F00C02082A3DD00023274E022881
:104CD00033602BD1FFF756F80746236899011FD49C
:104CE0002B6AB3F5803F05D16268A96822F40032CF
:104CF0000A436260696A62680B4322F474121343C8
:104D0000636001233360FFF73DF8054623689A018D
:104D10003FF5A8AEFFF736F8401B0228F6D9CCE6DF
:104D2000FFF730F8C01B0228D7D9C6E6FFF72AF8EC
:104D3000054623689B017FF595AEFFF723F8401BDE
:104D40000228F6D9B9E601283FF4B8AE5B682A6AB2
:104D500003F4803191427FF49BAE6A6A03F47013CE
:104D600093423FF47FAE93E600100240600042425F
:104D700030B5184B87B002AC03F110052246186815
:104D80005968083303C2AB421446F7D140F20123FD
:104D90001149ADF804304B6803F00C02082A17D112
:104DA000C3F3834206A80244DB0312F8102C0CD58F
:104DB0004B680A48C3F34043504306AA134413F810
:104DC000143CB0FBF3F007B030BD05485043FAE7A0
:104DD0000248F8E7E98500080010024000127A0056
:104DE00000093D002DE9F0410D46044610B90120AF
:104DF000BDE8F081444A136803F007038B4228D3CF
:104E000021688E0730D4CA0743D43F4A136803F0A1
:104E10000703AB4265D822683C4D12F0040F6CD1F9
:104E2000130706D56B68226923F4605343EAC20373
:104E30006B60FFF79DFF6B68354AC3F30313D35CC8
:104E4000D840344B1860344B1868FEF759FF0020E7
:104E5000CEE7136823F007030B431360136803F0D6
:104E600007038B42C3D1CBE7284B11F0040F1EBFC1
:104E70005A6842F4E0625A60080742BF5A6842F436
:104E800060525A605A68A06822F0F00202435A60E9
:104E9000B9E762681D4E012A33681AD113F4003F46
:104EA000A5D0736841F2883823F00303134373607D
:104EB000FEF768FF07467368626803F00C03B3EB04
:104EC000820FA2D0FEF75EFFC01B4045F3D903203E
:104ED0008EE7022A02D113F0007FE1E713F0020F00
:104EE000DEE7136823F007032B431360136803F016
:104EF0000703AB427FF47BAF8DE76B68E16823F477
:104F0000E0630B436B608BE700200240001002401F
:104F1000D1850008380100206C010020044B054AAF
:104F20005B68C3F30223D35C034A1068D840704720
:104F300000100240E185000838010020044B054ABA
:104F40005B68C3F3C223D35C034A1068D840704740
:104F500000100240E1850008380100202DE9F341EE
:104F60001C4616460F460546FEF70CFF3444241A2D
:104F7000FEF708FF8046234B1B68C3F3CB33634324
:104F80002A680193936837EA030301D000202EE0DA
:104F9000731CF7D0FEF7F6FEA0EB0800A04229D361
:104FA0002B685A6822F0E0025A606A68B2F5827F84
:104FB0000AD1AA68B2F5004F02D0B2F5806F03D1D2
:104FC0001A6822F040021A60AA6AB2F5005F07D19F
:104FD0001A6822F400521A601A6842F400521A60E9
:104FE000012385F851300023032085F8503002B0AA
:104FF000BDE8F081019B002B019B08BF0024013B11
:10500000BEE700BF3801002038B5134642680446A9
:10501000B2F5827F16D18268B2F5004F02D0B2F5A8
:10502000806F0FD12568B2F5806F286820F04000AE
:10503000286007D10A4601212046FFF78FFF20B9DB
:10504000002038BD0A468021F6E7636D032043F057
:1050500020036365F5E710B513460A468021044630
:10506000FFF77CFF20B10320636D43F020036365ED
:1050700010BD10B50446002851D0436A002B4AD118
:105080004268B2F5827F00D0C3610023A36294F826
:10509000513003F0FF0223B9204684F85020FEF778
:1050A00061FA0223226884F851301368A06823F063
:1050B00040031360636800F4044003F48273034305
:1050C000E068A16900F400600343206900F0020079
:1050D0000343606900F00100034301F400700343DF
:1050E000E069090C00F038000343206A01F0040174
:1050F00000F080000343A06A00F4005003431360F3
:105100005160D369002023F40063D36101236065FB
:1051100084F8513010BD0023C0E90433B5E7012005
:10512000F8E72DE9F7431F4690F850300446012B6D
:105130000D46904600F0A080012380F85030FEF725
:1051400021FE94F851308146012BD8B240F0928074
:10515000002D61D0B8F1000F5ED0032384F85130E8
:1051600000236365C4E91033A4F83680A363A387E2
:10517000E387A3682668B3F5004F2563A4F834805D
:1051800007D1336823F040033360336843F480432E
:1051900033603368E2685B065EBF336843F0400308
:1051A0003360B2F5006F63683FD113B1B8F1010FFE
:1051B00007D135F8023BF3602563E38E013B9BB2D8
:1051C000E386E38E9BB2A3B94A4639462046FFF7F1
:1051D00042FF00284BD1A36833B901932368DA68F2
:1051E00001929B680193019B606D003818BF0120FC
:1051F00012E022689368980705D5236B33F8021BE9
:10520000D1602363D9E7FEF7BDFDA0EB0900B842EA
:10521000D7D3791CD5D00320012384F85130002343
:1052200084F8503003B0BDE8F08313B1B8F1010F3A
:1052300008D12B783373236B01332363E38E013B57
:105240009BB2E386E38E9BB2002BBDD023689A68A5
:10525000920703D5226B12781A73ECE7FEF792FDE2
:10526000A0EB0900B842EDD37B1CEBD0D3E72023A1
:105270006365B0E70220CFE70220D3E72DE9F743CB
:105280001E4690F850300446012B0D469146DDF83D
:10529000288000F0E080012380F85030FEF772FD96
:1052A00094F851300746012B6268D9B20AD0B2F5A2
:1052B000827F40F0CE80A368002B40F0CA80042992
:1052C00040F0C780002D3FD0B9F1000F3CD0002E38
:1052D0003AD094F85130C4F83890042B1CBF052301
:1052E00084F8513000236365C4E910332368E687EE
:1052F000E6861968A687490658BF1968256358BF0E
:1053000041F04001A68658BF1960E168B1F5006F11
:1053100051D10AB1012E07D135F8022BDA60E38EA4
:105320002563013B9BB2E3860125E38E9BB26BB9FB
:10533000E38F9BB253B93A4641462046FFF78BFEB6
:1053400000287BD02023636501202BE021688B6837
:105350009A070DD5E38E9BB253B14DB10025236B57
:1053600033F8022BCA602363E38E013B9BB2E386D2
:105370008A6812F001020CD0E38F9BB24BB1154644
:10538000C968A36B23F8021BA363E38F013B9BB2A5
:10539000E387FEF7F7FCC01B4045C6D3B8F1FF3FDB
:1053A000C3D00320012384F85130002384F8503007
:1053B00003B0BDE8F0830AB1012E08D12A781A7330
:1053C000236B01332363E38E013B9BB2E38601250C
:1053D000E38E9BB21BB9E38F9BB2002BABD022684C
:1053E00093689B070ED5E38E9BB25BB155B1002548
:1053F000236B1B781373236B01332363E38E013B11
:105400009BB2E3862268916811F001010DD0E38F11
:105410009BB253B10D46D268A36B1A70A36B0133D4
:10542000A363E38F013B9BB2E387FEF7ABFCC01B9A
:105430004045CDD3B8F1FF3FCAD0B2E7A368002BF7
:10544000B0D123680190DA6801929B680193019BB7
:10545000A8E70220A6E70220AAE72DE9F3411D46AE
:1054600043680446B3F5827F884616460CD18368AC
:1054700053B9042380F85130134600950A46FFF7CC
:10548000FDFE02B0BDE8F08194F85030012B7DD0D4
:10549000012384F85030FEF775FC94F8513007462C
:1054A000012BD8B270D1B8F1000F5BD0002E59D0CB
:1054B000042384F851300023A2686365B2F5004FDD
:1054C000C4E91033E6872363A386E386C4F83880F3
:1054D0002368A68707D11A6822F040021A601A686A
:1054E00022F480421A601A6856065EBF1A6842F0BB
:1054F00040021A60E368F3B1E38F9BB2FBB123680B
:105500009A68D20735D5DA68A36B23F8022BA36318
:10551000E38F013B9BB2E387EEE723689A68D007ED
:1055200018D51B7BA26B1370A36B0133A363E38FAE
:10553000013B9BB2E387E38F9BB2002BEDD13A4650
:1055400029462046FFF760FDD8B9606D003818BFC6
:10555000012007E0FEF716FCC01BA842EBD3691C34
:10556000E9D00320012384F85130002384F850301F
:1055700087E7FEF707FCC01BA842BDD36B1CBBD05E
:10558000EFE720236365E0E70220EBE7022078E7FE
:1055900010B504460368C1681A6922F440520A43F0
:1055A0001A6182680069D9680243606921F4B051C8
:1055B00021F00C0102430A43DA605A69A16922F41E
:1055C00040720A435A610E4A934215D1FFF7B6FC66
:1055D00019234343626820689200B3FBF2F364220C
:1055E000B3FBF2F102FB11331B013233B3FBF2F3D5
:1055F00003EB0113836010BDFFF790FCE8E700BFE9
:1056000000380140F8B504460E4617461D4622688C
:10561000136836EA030301D1002014E06B1CF7D0B5
:1056200095B923680320DA6822F4D072DA605A69E7
:1056300022F001025A61202384F83D3084F83E3084
:10564000002384F83C30F8BDFEF79CFBC01B85426C
:10565000DDD2E6E710B5044640B390F83D3003F0E4
:10566000FF021BB980F83C20FDF7B8FF2423226815
:1056700084F83D30D368204623F40053D360FFF70D
:1056800087FF236800201A6922F490421A615A6940
:1056900022F02A025A61DA6842F40052DA602023CA
:1056A000206484F83D3084F83E3010BD0120FCE7D2
:1056B0002DE9F843994690F83D300446202B0E46DC
:1056C000174648D1002944D0002A42D090F83C30F7
:1056D000012B40D00123002580F83C3021230564B4
:1056E00080F83D30FEF74EFBA3688046B3F5805F3F
:1056F000A784E78403D123690BB935461E460023EE
:1057000084F83C30E38C9BB253B94B46424640216F
:105710002046FFF777FF50B9202384F83D3007E09B
:105720004B46424680212046FFF76CFF10B1032014
:10573000BDE8F88322684EB935F8023BC3F308038D
:105740005360E18C013989B2E184DBE716F8013B53
:10575000F6E70120ECE70220EAE70000014B1868B9
:10576000704700BF7001002070B500260C4D0D4C35
:10577000641BA410A64209D102F0C2FE00260A4D05
:105780000A4C641BA410A64205D170BD55F8043B19
:1057900098470136EEE755F8043B98470136F2E7A3
:1057A000E4890008E4890008E4890008E889000821
:1057B0000A44914200F1FF3300D1704710B511F84F
:1057C000014B914203F8014FF9D110BD0346024449
:1057D000934200D1704703F8011BF9E7002B2DE934
:1057E000F0471F46BBBF03F100431F4600232D2394
:1057F00088B01446129A109D1370149BDDF84CA0CB
:1058000023F02008B8F1460F05D0B8F1450F00D1BC
:105810000135022300E0032307AA049206AACDE97A
:1058200002A2CDE9003522463B4600F0EDFCB8F17E
:10583000470F064602D1119BDB0722D5B8F1460F70
:1058400006EB050910D13378302B0AD10022002352
:1058500020463946FBF7A8F818B9C5F10105CAF882
:105860000050DAF8003099440022002320463946DF
:10587000FBF79AF808B1CDF81C903022079B4B45F6
:1058800007D33046079B159A9B1B136008B0BDE8F1
:10589000F087591C07911A70F0E70346F7B5002905
:1058A00003F8022BB6BF2D222B2249420929427050
:1058B0002BDD0DF10704A4460A2791FBF7F60A46F3
:1058C000A64607FB1615632A05F13005314604F19B
:1058D000FF340EF8015CF0DC3031AEF1020504F863
:1058E000011C2946441C61450AD30DF10902A2EBB3
:1058F0000E02654588BF00221344181A03B0F0BD9C
:1059000011F8012B04F8012FEDE7302330318370BB
:10591000C170031DF1E700002DE9F04F91B00C4676
:10592000DDF8688016461F46054601F05BFA0368FD
:1059300018460993FAF70CFC00230E93D8F80030B0
:105940000A90073323F0070303F1080294F8189034
:10595000D4F800B0C8F80020D3E90023C4E912232A
:10596000D4E9128A2AF000430B934FF0FF324046ED
:105970009C4B0B99FBF74AF870BB4FF0FF32404647
:10598000984B0B99FBF724F830BB002200234046CC
:105990005146FBF713F810B12D2384F84330924B96
:1059A0009248B9F1470F94BF9846804603234FF0C1
:1059B000000A23612BF00403236033462146284666
:1059C00000970FAA00F0D4F9013040F090804FF01A
:1059D000FF3011B0BDE8F08F424653464046514675
:1059E000FBF714F848B1BAF1000FB8BF2D23804877
:1059F000B8BF84F843307F4BD3E7636809F0DF0119
:105A00005A1C42D106236360002206920EAACDE9F9
:105A100004920DAA4BF4806303920DF13302CDE999
:105A200001322360636842460093284653460B9137
:105A3000FFF7D4FE0B99804647290D9908D1C81C61
:105A400002DB6368994240DDA9F102095FFA89F936
:105A5000B9F1650F1FD84A46013904F150000D9184
:105A6000FFF71BFF0E9A82461318012A236102DCFE
:105A70002268D20701D5013323619DF83330002B12
:105A80009BD02D2384F8433097E74729BCD1002BC6
:105A9000BAD10123B7E7B9F1660F18D100296368BD
:105AA0000BDD216113B92268D00702D501330B4405
:105AB00023614FF0000AA165DFE713B92268D2071E
:105AC00001D50233F4E70123F2E74FF067090E9B9B
:105AD000994205DB23682161D807EAD54B1CE7E72B
