:020000040800F2
:100000000050002075420008913C0008933C000815
:10001000953C0008973C0008993C0008000000004F
:100020000000000000000000000000009B3C0008F1
:100030009D3C0008000000009F3C0008A13C000817
:10004000BD420008BD420008BD420008BD42000894
:10005000BD420008BD420008BD420008BD42000884
:10006000BD420008BD420008BD420008C93C00086E
:10007000BD420008BD420008BD420008BD42000864
:10008000BD420008BD420008BD420008BD42000854
:10009000BD420008BD420008BD420008113D0008F5
:1000A000BD420008193D0008BD420008BD420008DD
:1000B000BD420008BD4200083D3D0008BD420008A9
:1000C000BD420008BD420008BD420008BD42000814
:1000D000BD420008BD420008BD420008BD42000804
:1000E000BD420008BD420008BD42000800000000FB
:1000F0000000000000000000000000000000000000
:0C01000000000000000000005FF808F1A3
:1001100010B5054C237833B9044B13B10448AFF341
:1001200000800123237010BD580300200000000050
:10013000209E000808B5034B1BB103490348AFF3E9
:10014000008008BD000000005C030020209E000825
:10015000034613F8012B002AFBD1181A0138704707
:1001600081F0004102E000BF83F0004330B54FEA68
:1001700041044FEA430594EA050F08BF90EA020FD5
:100180001FBF54EA000C55EA020C7FEA645C7FEA68
:10019000655C00F0E2804FEA5454D4EB5555B8BF8B
:1001A0006D420CDD2C4480EA020281EA030382EAFC
:1001B000000083EA010180EA020281EA0303362D8E
:1001C00088BF30BD11F0004F4FEA01314FF4801C61
:1001D0004CEA113102D0404261EB410113F0004F73
:1001E0004FEA03334CEA133302D0524263EB43032A
:1001F00094EA050F00F0A780A4F10104D5F1200EC8
:100200000DDB02FA0EFC22FA05F2801841F1000122
:1002100003FA0EF2801843FA05F359410EE0A5F1F6
:1002200020050EF1200E012A03FA0EFC28BF4CF027
:10023000020C43FA05F3C01851EBE37101F00045DD
:1002400007D54FF0000EDCF1000C7EEB00006EEBEA
:100250000101B1F5801F1BD3B1F5001F0CD3490874
:100260005FEA30004FEA3C0C04F101044FEA4452CB
:1002700012F5800F80F09A80BCF1004F08BF5FEA52
:10028000500C50F1000041EB045141EA050130BD32
:100290005FEA4C0C404141EB0101013C28BFB1F544
:1002A000801FE9D291F0000F04BF01460020B1FA8F
:1002B00081F308BF2033A3F10B03B3F120020CDA62
:1002C0000C3208DD02F1140CC2F10C0201FA0CF040
:1002D00021FA02F10CE002F11402D8BFC2F1200CA5
:1002E00001FA02F120FA0CFCDCBF41EA0C0190405B
:1002F000E41AA2BF01EB0451294330BD6FEA0404A4
:100300001F3C1CDA0C340EDC04F11404C4F120028E
:1003100020FA04F001FA02F340EA030021FA04F3A0
:1003200045EA030130BDC4F10C04C4F1200220FAF7
:1003300002F001FA04F340EA0300294630BD21FA35
:1003400004F0294630BD94F0000F83F4801306BFFB
:1003500081F480110134013D4EE77FEA645C18BFEF
:100360007FEA655C29D094EA050F08BF90EA020F86
:1003700005D054EA000C04BF1946104630BD91EA7E
:10038000030F1EBF0021002030BD5FEA545C05D181
:100390004000494128BF41F0004130BD14F58004C0
:1003A0003CBF01F5801130BD01F0004545F0FE4134
:1003B00041F470014FF0000030BD7FEA645C1ABF69
:1003C000194610467FEA655C1CBF0B46024650EAA0
:1003D000013406BF52EA033591EA030F41F40021CC
:1003E00030BD00BF90F0000F04BF0021704730B552
:1003F0004FF4806404F132044FF000054FF0000127
:1004000050E700BF90F0000F04BF0021704730B5E7
:100410004FF4806404F1320410F0004548BF4042BC
:100420004FF000013EE700BF42004FEAE2014FEA11
:1004300031014FEA02701FBF12F07F4393F07F4FEC
:1004400081F06051704732F07F4208BF704793F0EF
:100450007F4F04BF41F40021704730B54FF4607402
:1004600001F0004521F000411CE700BF50EA010205
:1004700008BF704730B54FF000050AE050EA0102AE
:1004800008BF704730B511F0004502D5404261EB1E
:1004900041014FF4806404F132045FEA915C3FF45F
:1004A000D8AE4FF003025FEADC0C18BF03325FEAFC
:1004B000DC0C18BF033202EBDC02C2F1200300FAAD
:1004C00003FC20FA02F001FA03FE40EA0E0021FAD2
:1004D00002F11444BDE600BF70B54FF0FF0C4CF4C0
:1004E000E06C1CEA11541DBF1CEA135594EA0C0F72
:1004F00095EA0C0F00F0DEF82C4481EA030621EAAD
:100500004C5123EA4C5350EA013518BF52EA0335E7
:1005100041F4801143F4801338D0A0FB02CE4FF099
:100520000005E1FB02E506F00042E0FB03E54FF0C9
:100530000006E1FB03569CF0000F18BF4EF0010EC1
:10054000A4F1FF04B6F5007F64F5407404D25FEABD
:100550004E0E6D4146EB060642EAC62141EA555170
:100560004FEAC52040EA5E504FEACE2EB4F1FD0CB2
:1005700088BFBCF5E06F1ED8BEF1004F08BF5FEA30
:10058000500E50F1000041EB045170BD06F00046E2
:1005900046EA010140EA020081EA0301B4EB5C048F
:1005A000C2BFD4EB0C0541EA045170BD41F4801187
:1005B0004FF0000E013C00F3AB8014F1360FDEBFAC
:1005C000002001F0004170BDC4F10004203C35DA88
:1005D0000C341BDC04F11404C4F1200500FA05F30B
:1005E00020FA04F001FA05F240EA020001F00042AC
:1005F00021F0004110EBD37021FA04F642EB060122
:100600005EEA430E08BF20EAD37070BDC4F10C044B
:10061000C4F1200500FA04F320FA05F001FA04F20F
:1006200040EA020001F0004110EBD37041F10001FB
:100630005EEA430E08BF20EAD37070BDC4F1200506
:1006400000FA05F24EEA020E20FA04F301FA05F26E
:1006500043EA020321FA04F001F0004121FA04F216
:1006600020EA020000EBD3705EEA430E08BF20EAE6
:10067000D37070BD94F0000F0FD101F00046400020
:1006800041EB010111F4801F08BF013CF7D041EAA2
:10069000060195F0000F18BF704703F000465200A6
:1006A00043EB030313F4801F08BF013DF7D043EA77
:1006B0000603704794EA0C0F0CEA135518BF95EA2D
:1006C0000C0F0CD050EA410618BF52EA4306D1D1B4
:1006D00081EA030101F000414FF0000070BD50EAD3
:1006E000410606BF1046194652EA430619D094EA5D
:1006F0000C0F02D150EA013613D195EA0C0F05D147
:1007000052EA03361CBF104619460AD181EA03019A
:1007100001F0004141F0FE4141F470014FF0000052
:1007200070BD41F0FE4141F4780170BD70B54FF0ED
:10073000FF0C4CF4E06C1CEA11541DBF1CEA13556D
:1007400094EA0C0F95EA0C0F00F0A7F8A4EB05044F
:1007500081EA030E52EA03354FEA013100F0888046
:100760004FEA03334FF0805545EA131343EA12630F
:100770004FEA022245EA111545EA10654FEA0026C4
:100780000EF000419D4208BF964244F1FD0404F57D
:10079000407402D25B084FEA3202B61A65EB0305D9
:1007A0005B084FEA32024FF480104FF4002CB6EB96
:1007B000020E75EB030E22BFB61A754640EA0C0016
:1007C0005B084FEA3202B6EB020E75EB030E22BF56
:1007D000B61A754640EA5C005B084FEA3202B6EB97
:1007E000020E75EB030E22BFB61A754640EA9C0056
:1007F0005B084FEA3202B6EB020E75EB030E22BF26
:10080000B61A754640EADC0055EA060E18D04FEAE3
:10081000051545EA16754FEA06164FEAC30343EA83
:1008200052734FEAC2025FEA1C1CC0D111F4801F50
:100830000BD141EA00014FF000004FF0004CB6E749
:1008400011F4801F04BF01430020B4F1FD0C88BFE8
:10085000BCF5E06F3FF6AFAEB5EB030C04BFB6EBF3
:10086000020C5FEA500C50F1000041EB045170BDE6
:100870000EF0004E4EEA113114EB5C04C2BFD4EB13
:100880000C0541EA045170BD41F480114FF0000E97
:10089000013C90E645EA060E8DE60CEA135594EA13
:1008A0000C0F08BF95EA0C0F3FF43BAF94EA0C0F16
:1008B0000AD150EA01347FF434AF95EA0C0F7FF48B
:1008C00025AF104619462CE795EA0C0F06D152EADF
:1008D00003353FF4FDAE1046194622E750EA4106C3
:1008E00018BF52EA43067FF4C5AE50EA41047FF4D4
:1008F0000DAF52EA43057FF4EBAE12E74FF0FF3C39
:1009000006E000BF4FF0010C02E000BF4FF0010C09
:100910004DF804CD4FEA410C7FEA6C5C4FEA430C82
:1009200018BF7FEA6C5C1BD001B050EA410C0CBFD1
:1009300052EA430C91EA030F02BF90EA020F002033
:10094000704710F1000F91EA030F58BF994208BF9A
:1009500090422CBFD8176FEAE37040F00100704757
:100960004FEA410C7FEA6C5C02D150EA013C07D1AE
:100970004FEA430C7FEA6C5CD6D152EA033CD3D0F9
:100980005DF8040B704700BF8446104662468C46F3
:100990001946634600E000BF01B5FFF7B7FF002826
:1009A00048BF10F1000F01BD4DF808EDFFF7F4FF4F
:1009B0000CBF012000205DF808FB00BF4DF808EDDA
:1009C000FFF7EAFF34BF012000205DF808FB00BFFD
:1009D0004DF808EDFFF7E0FF94BF012000205DF81F
:1009E00008FB00BF4DF808EDFFF7CEFF94BF0120D4
:1009F00000205DF808FB00BF4DF808EDFFF7C4FFCD
:100A000034BF012000205DF808FB00BF4FEA410C15
:100A10007FEA6C5C02D150EA013C0AD14FEA430CF8
:100A20007FEA6C5C02D152EA033C02D14FF0000035
:100A300070474FF0010070474FEA410212F5001273
:100A400015D211D56FF47873B3EB625212D94FEA15
:100A5000C12343F0004343EA505311F0004F23FAFF
:100A600002F018BF404270474FF00000704750EA54
:100A7000013005D111F0004008BF6FF00040704711
:100A80004FF00000704700BF80F0004002E000BF60
:100A900081F0004142001FBF5FEA410392EA030F69
:100AA0007FEA226C7FEA236C6AD04FEA1262D2EBB3
:100AB0001363C1BFD218414048404140B8BF5B42B8
:100AC000192B88BF704710F0004F40F4000020F051
:100AD0007F4018BF404211F0004F41F4000121F067
:100AE0007F4118BF494292EA030F3FD0A2F10102B1
:100AF00041FA03FC10EB0C00C3F1200301FA03F1EF
:100B000000F0004302D5494260EB4000B0F5000F11
:100B100013D3B0F1807F06D340084FEA310102F1D0
:100B20000102FE2A51D2B1F1004F40EBC25008BF82
:100B300020F0010040EA03007047490040EB00004C
:100B4000013A28BFB0F5000FEDD2B0FA80FCACF14D
:100B5000080CB2EB0C0200FA0CF0AABF00EBC2507A
:100B600052421843BCBFD0401843704792F0000F68
:100B700081F4000106BF80F400000132013BB5E7BB
:100B80004FEA41037FEA226C18BF7FEA236C21D031
:100B900092EA030F04D092F0000F08BF0846704796
:100BA00090EA010F1CBF0020704712F07F4F04D164
:100BB000400028BF40F00040704712F100723CBF77
:100BC00000F50000704700F0004343F0FE4040F4A1
:100BD000000070477FEA226216BF08467FEA23635F
:100BE0000146420206BF5FEA412390EA010F40F44A
:100BF000800070474FF0000304E000BF10F0004396
:100C000048BF40425FEA000C08BF704743F096437C
:100C100001464FF000001CE050EA010208BF704797
:100C20004FF000030AE000BF50EA010208BF70471E
:100C300011F0004302D5404261EB41015FEA010C33
:100C400002BF84460146002043F0B64308BFA3F12B
:100C50008053A3F50003BCFA8CF2083AA3EBC2530D
:100C600010DB01FA02FC634400FA02FCC2F120022C
:100C7000BCF1004F20FA02F243EB020008BF20F063
:100C80000100704702F1200201FA02FCC2F12002C9
:100C900050EA4C0021FA02F243EB020008BF20EABE
:100CA000DC7070474FF0FF0C1CEAD0521EBF1CEAEC
:100CB000D15392EA0C0F93EA0C0F6FD01A4480EADA
:100CC000010C400218BF5FEA41211ED04FF00063C3
:100CD00043EA501043EA5111A0FB01310CF00040EF
:100CE000B1F5000F3EBF490041EAD3715B0040EA15
:100CF000010062F17F02FD2A1DD8B3F1004F40EBE5
:100D0000C25008BF20F00100704790F0000F0CF0B7
:100D1000004C08BF49024CEA502040EA51207F3A7B
:100D2000C2BFD2F1FF0340EAC250704740F4000056
:100D30004FF00003013A5DDC12F1190FDCBF00F047
:100D400000407047C2F10002410021FA02F1C2F1F5
:100D5000200200FA02FC5FEA310040F1000053EA91
:100D60004C0308BF20EADC70704792F0000F00F0DF
:100D7000004C02BF400010F4000F013AF9D040EAE5
:100D80000C0093F0000F01F0004C02BF490011F479
:100D9000000F013BF9D041EA0C018FE70CEAD15377
:100DA00092EA0C0F18BF93EA0C0F0AD030F0004CF7
:100DB00018BF31F0004CD8D180EA010000F00040AB
:100DC000704790F0000F17BF90F0004F084691F069
:100DD000000F91F0004F14D092EA0C0F01D14202A3
:100DE0000FD193EA0C0F03D14B0218BF084608D16C
:100DF00080EA010000F0004040F0FE4040F40000B6
:100E0000704740F0FE4040F4400070474FF0FF0C48
:100E10001CEAD0521EBF1CEAD15392EA0C0F93EA8F
:100E20000C0F69D0A2EB030280EA010C49024FEAE1
:100E3000402037D04FF0805343EA111143EA10139A
:100E40000CF000408B4238BF5B0042F17D024FF452
:100E5000000C8B4224BF5B1A40EA0C00B3EB510F2D
:100E600024BFA3EB510340EA5C00B3EB910F24BF16
:100E7000A3EB910340EA9C00B3EBD10F24BFA3EB9B
:100E8000D10340EADC001B0118BF5FEA1C1CE0D163
:100E9000FD2A3FF650AF8B4240EBC25008BF20F016
:100EA000010070470CF0004C4CEA50207F32C2BF6A
:100EB000D2F1FF0340EAC250704740F400004FF007
:100EC0000003013A37E792F0000F00F0004C02BF38
:100ED000400010F4000F013AF9D040EA0C0093F002
:100EE000000F01F0004C02BF490011F4000F013B5C
:100EF000F9D041EA0C0195E70CEAD15392EA0C0FC4
:100F000008D142027FF47DAF93EA0C0F7FF470AFFB
:100F1000084676E793EA0C0F04D14B023FF44CAF3E
:100F200008466EE730F0004C18BF31F0004CCAD1D3
:100F300030F000427FF45CAF31F000437FF43CAF0F
:100F40005FE700BF4FF0FF3C06E000BF4FF0010C31
:100F500002E000BF4FF0010C4DF804CD4FEA400213
:100F60004FEA41037FEA226C18BF7FEA236C11D05D
:100F700001B052EA530C18BF90EA010F58BFB2EB10
:100F8000030088BFC81738BF6FEAE17018BF40F090
:100F9000010070477FEA226C02D15FEA402C05D144
:100FA0007FEA236CE4D15FEA412CE1D05DF8040BC9
:100FB000704700BF844608466146FFE70FB5FFF75C
:100FC000C9FF002848BF10F1000F0FBD4DF808ED14
:100FD000FFF7F4FF0CBF012000205DF808FB00BF05
:100FE0004DF808EDFFF7EAFF34BF012000205DF85F
:100FF00008FB00BF4DF808EDFFF7E0FF94BF0120AC
:1010000000205DF808FB00BF4DF808EDFFF7D2FFA8
:1010100094BF012000205DF808FB00BF4DF808EDEB
:10102000FFF7C8FF34BF012000205DF808FB00BFB8
:1010300053B94AB9002908BF00281CBF4FF0FF313F
:101040004FF0FF3000F06EB9ADF1080C6DE904CE41
:1010500000F006F8DDF804E0DDE9022304B0704793
:101060002DE9F047089E0D4604468E46002B40F0C1
:1010700083808A42174647D9B2FA82F34BB1C3F153
:10108000200105FA03FE20FA01F19F4041EA0E0E0D
:101090009C404FEA1748BEFBF8FC1FFA87F908FB93
:1010A0001CE20CFB09F0210C41EA024290420AD9F1
:1010B000BA180CF1FF3180F01881904240F215818E
:1010C000ACF1020C3A44121AB2FBF8F008FB102201
:1010D00000FB09F1A4B244EA0244A14209D93C1937
:1010E00000F1FF3280F00381A14240F2008102381A
:1010F0003C44641A002140EA0C401EB10022DC404E
:10110000C6E90042BDE8F08702B9FFDEB2FA82F319
:10111000002B4FD18D1A01214FEA124E1FFA82F88F
:10112000B5FBFEFC0EFB1C5508FB0CF0220C42EA42
:101130000545A84207D97D190CF1FF3202D2A84219
:1011400000F2E98094462D1AB5FBFEF00EFB105517
:1011500008FB00F8A4B244EA0544A04507D93C19AD
:1011600000F1FF3202D2A04500F2D9801046A4EB74
:10117000080440EA0C40C0E78B4208D9002E00F07A
:10118000B1800021C6E900050846BDE8F087B3FA42
:1011900083F100294BD1AB4202D3824200F2B980E5
:1011A000841A65EB030301209E46002EAAD0C6E9EF
:1011B000004EA7E79F40C3F12002D1404FEA174EEF
:1011C000B1FBFEF01FFA87F80EFB101124FA02F2B1
:1011D0009D4000FB08FC2A43150C45EA0145AC453F
:1011E00004FA03F409D97D1900F1FF3180F08F80F2
:1011F000AC4540F28C8002383D44A5EB0C05B5FBB4
:10120000FEF10EFB115C01FB08F995B245EA0C45B5
:10121000A94507D97D1901F1FF3274D2A94572D9C8
:1012200002393D44A5EB090541EA004178E7C1F1E7
:1012300020078B4022FA07FC4CEA030C25FA07F43E
:101240004FEA1C4EB4FBFEF91FFA8CF80EFB194452
:1012500020FA07F309FB08FA8D401D432B0C43EAE3
:101260000444A24502FA01F200FA01F309D91CEB89
:10127000040409F1FF3048D2A24546D9A9F1020978
:101280006444A4EB0A04B4FBFEF00EFB104400FB24
:1012900008FAADB245EA0444A24508D91CEB04049F
:1012A00000F1FF352DD2A2452BD90238644440EA23
:1012B0000940A0FB0289A4EB0A044C45C6464D46F2
:1012C00019D316D05EB1B3EB0E0264EB050404FA39
:1012D00007F722FA01F31F43CC40C6E9007400214E
:1012E000BDE8F087314630460CE78C46EBE6104609
:1012F000FFE64345E6D2B8EB020E69EB0C05013878
:10130000E0E72846D3E711468CE78146B9E708466F
:1013100073E7084649E7ACF1020C3D4413E7023895
:101320003C4424E7704700BF08B504224FF47060C6
:10133000084902F0B3FD04224FF4A060064902F010
:10134000ADFDBDE8084004224FF48070034902F06F
:10135000A5BD00BF7C04002080040020780300208D
:1013600008B58021002002F02DFD002002F0FCFCD9
:10137000FFF7DAFFBDE8084006224FF4106001498C
:1013800002F08CBD2409002008B58021002002F065
:1013900019FD002002F0E8FCBDE8084006224FF4E9
:1013A0001060014902F07ABD2409002070B5094B94
:1013B000094E0A4C1E600A4E0A4D002808BF3046EE
:1013C000002918BF0C46084E2C60306002B11A602C
:1013D00070BD00BF0C0000208913000861130008D5
:1013E00029130008100000200800002007B506227D
:1013F00069464FF4106002F017FD204B204A1B682D
:101400001A60204A1268110E1971110C5971110AD3
:101410009971DA7100214FF40002C3E902211A4ADE
:10142000C3E904111078996118775078587790784B
:101430009877D078D8771079527983F8200083F89C
:10144000212003F12C0003F1220202F8011B824249
:10145000FBD1002003F16C0102F8010B8A42FBD1A1
:10146000002003F1EC0102F8010B9142FBD1074A85
:10147000C3F8EC2003B05DF804FB00BF380900207E
:10148000010106002C090020240900206382536317
:101490001FB5FFF7ABFF2D4B002219682C4B8A724A
:1014A000C1F8F03040F20713A1F8F430294BCA72AA
:1014B000187881F8F600587881F8F700987881F864
:1014C000F800D87881F8F90018795B7981F8FA008A
:1014D00081F8FB3040F23243A1F8FC301E4B187803
:1014E00081F8FE00587881F8FF009878DB7881F861
:1014F000000181F8013140F23643A1F80231174B67
:10150000187881F80401587881F80501987881F8F5
:101510000601DB7801F5097081F80731FF2381F8B6
:10152000083101F2091303F8012B8342FBD14FF07C
:10153000FF33039343230A4800934FF4097203AB2C
:10154000007801F0C7FE05B05DF804FB3809002003
:101550003501043D240900207C04002034090020CA
:101560003C0900202DE9F04FAC4D8BB0287802F0FB
:10157000F0FC024618B900200BB0BDE8F08F0DF169
:101580001E03A74C0093216808AB287801F052FF96
:10159000BDF81E30432B40F03E812268A14B147FE2
:1015A00019788C42E7D1547F59788C42E3D1947FEB
:1015B00099788C42DFD1D47FD9788C42DBD192F8F4
:1015C000204019798C42D6D192F821105B7999424A
:1015D000D1D1954B9DF820901F785E789D78DC786E
:1015E00047EA0601294321439A4620D04F450BD1B3
:1015F0009DF82130B34207D19DF82230AB4203D190
:101600009DF82330A34212D0884B19784945B2D1B6
:101610009DF8214059788C42ADD19DF822409978AF
:101620008C42A8D19DF82310DB789942A3D180B2D7
:1016300002F1F0030244002002929DF821207B4930
:1016400003929DF822207A4C04929DF82320794D34
:10165000794E7A4F0592029A934201D340B28BE7BA
:1016600093F800C0BCF1330F00F08C800BD8BCF1B4
:10167000060F13D8BCF1060F10D8DFE80CF01D22BE
:101680000F34700F5D00BCF1E00F41D00BD8BCF1FE
:10169000350F13D0BCF1360F00F0888003F1020C37
:1016A0005B786344D7E7BCF1E10F00F09880BCF1B0
:1016B000FF0FF3D1029BCEE70133CCE798780333D9
:1016C000C9E793F802C087F800C093F803C087F811
:1016D00001C093F804C087F802C093F805C087F8EA
:1016E00003C00633B7E793F802E093F801C086F829
:1016F00000E093F803E086F801E093F804E086F850
:1017000002E093F805E086F803E063440233A2E7C1
:1017100093F802E04A4A93F801C082F800E093F897
:1017200003E082F801E093F804E082F802E093F825
:1017300005E082F803E0E8E793F802E093F801C0DF
:1017400085F800E093F803E085F801E093F804E001
:1017500085F802E093F805E085F803E0D5E793F813
:1017600002E093F801C084F800E093F803E084F805
:1017700001E093F804E084F802E093F805E084F8CF
:1017800003E0C2E793F802C02E4AC2F800C093F803
:1017900003E00EEB0C2C93F804E00EEB0C2E93F808
:1017A00005C00CEB0E2CC2F800C09AE793F802C0FB
:1017B000039A8AF800C093F803C081F800908AF871
:1017C00001C093F804C04A70049A8AF802C093F8E2
:1017D00005C08A70059A8AF803C0CA7081E79A1C0E
:1017E000964693F801C0C3F1FF2303F57F03DFF8AA
:1017F0005880FE330EEB030BDC4507DC13464FF03D
:10180000000E114A634402F80CE024E71EF801BB05
:1018100008F801BBEEE7002020E700BF3C090020EC
:101820003809002024090020340900203009002054
:10183000840400207403002078030020800400202A
:1018400088040020140000207C03002037B54FF4EA
:10185000D85002F089FA032105464FF4D85002F01F
:10186000B1FA41F288330E48009311220D4B0E4914
:10187000007801F02FFD044629464FF4D85002F0BD
:10188000A1FA0D340AD0FFF703FE084B19681A6855
:10189000521A012AFBD9002003B030BD0120FBE71A
:1018A0003C0900207C040020389E0008940400209D
:1018B00000230A21034A1360034A1160034A13708C
:1018C000704700BF940400201800002090040020FE
:1018D000002373B5244C062206460D464FF41060D3
:1018E0002146019302F0A0FA627823781343A2788C
:1018F0001343E278134322791343627913430DD1E2
:1019000008226270DC222146A2704FF41060062289
:101910002370E3702371637102F0C0FA134B2079D6
:101920001E70134BE1781D60124B62790C18234432
:10193000414013444A4013440F4A4FF4706013600F
:1019400004220DEB020102F0A9FA04224FF4807088
:101950000DEB020102F0A2FAFFF7AAFF0022074BEB
:101960001A7002B070BD00BF240900203C0900209D
:1019700038090020785634122C09002091040020E8
:10198000024A136801331360704700BF94040020BB
:10199000044B1A7802705A7842709A788270DB7819
:1019A000C37070477C040020044B1A7802705A7888
:1019B00042709A788270DB78C37070477803002099
:1019C000044B1A7802705A7842709A788270DB78E9
:1019D000C370704788040020054A431EFE3011780A
:1019E00003F8011F12F8011B09B18342F7D17047B8
:1019F0007C030020044B1A7802705A7842709A785F
:101A00008270DB78C370704780040020044B1A7822
:101A100002705A7842709A788270DB78C37070478F
:101A20008404002000F00F00092894BF30303730C4
:101A3000704700002DE9F04385B0FFF7D7FC002385
:101A4000694A6A48137053709370D370684A137070
:101A500053709370D370674B1968674BC1F8F030BF
:101A600040F20713A1F8F430644B1A7893F803801E
:101A700081F8F6205A781F795E7981F8F7209A78F4
:101A80000C23A1F8FC30122381F8F82081F8F980AA
:101A900081F8FA7081F8FB60A3F1120292B2845CC3
:101AA0005D1CADB201EB0309002C40F093804FEABE
:101AB0001810FFF7B7FF89F8EC004046FFF7B2FFB8
:101AC0000D4485F8EC003809FFF7ACFF9D1CADB262
:101AD0000D4485F8EC003846FFF7A4FFDD1CADB2DD
:101AE0000D4485F8EC003009FFF79CFF1D1DADB2D9
:101AF0000D4485F8EC003046FFF794FF5D1DADB254
:101B00000D4485F8EC00981D80B2D51D451B0632AA
:101B10000D4485F8EC203722084480F8EC2008209A
:101B2000DA1D92B20A4482F8EC001A18012092B22F
:101B30000A4482F8EC00032003F1090292B20A443D
:101B400082F8EC00062003F10A0292B20A4482F8FD
:101B5000EC000F2003F10B0292B20A4482F8EC0071
:101B60003A2003F10C0292B20A4482F8EC003B20C6
:101B700003F10D0292B20A4482F8EC00E02003F176
:101B80000E0292B20A4482F8EC00E12003F10F0247
:101B900092B20A4482F8EC00FF2003F111021033E4
:101BA0009BB20B4492B283F8EC0002F1EC030B44BD
:101BB000B2F59C7F12D34FF0FF33039343231048B9
:101BC00000934FF4097203AB007801F083FB05B07A
:101BD000BDE8F0832B4689F8EC405DE7013203F85D
:101BE000014B92B2E4E700BF34090020000000205E
:101BF00030090020380900203501013D240900206A
:101C00003C0900202DE9F04385B0FFF7EFFB924B34
:101C100092491B78033B012B00F2108100220B68D4
:101C20009A72DA728E4A10781873507858739078D6
:101C3000D2789873DA738B4B1A788DF80C205A7817
:101C40008DF80D209A78DB788DF80E208DF80F3006
:101C50000968854BC1F8F03040F20713A1F8F43061
:101C6000824B1A78DF7881F8F6205A781E7993F83B
:101C7000058081F8F7209A789DF80F3081F8F820D8
:101C8000FF2B81F8F97081F8FA6081F8FB8040F051
:101C9000D98040F23243A1F8FC30714B1A7881F8B8
:101CA000FE205A7881F8FF209A78DB7881F80021AD
:101CB00081F8013140F23643A1F80231694B1A78BC
:101CC00081F804215A7881F805219A78DB7881F827
:101CD00006211C2281F807310C208B1883F8EC00B8
:101CE000931C01328818002280F8EC20604810F81C
:101CF000015B5C1CA4B201EB0309002D40F0A48041
:101D00003809FFF78FFE89F8EC003846FFF78AFEA6
:101D10000C4484F8EC003009FFF784FE9C1CA4B24C
:101D20000C4484F8EC003046FFF77CFEDC1CA4B2C7
:101D30000C4484F8EC004FEA1810FFF773FE1C1DEA
:101D4000A4B20C4484F8EC004046FFF76BFE5C1D27
:101D5000A4B20C4484F8EC00981D80B2D41D041B7E
:101D600006320C4484F8EC203722084480F8EC203A
:101D70000A20DA1D92B20A4482F8EC00012003F135
:101D8000080292B20A4482F8EC00032003F109022F
:101D900092B20A4482F8EC00062003F10A0292B2E1
:101DA0000A4482F8EC000F2003F10B0292B20A44BD
:101DB00082F8EC003A2003F10C0292B20A4482F855
:101DC000EC003B2003F10D0292B20A4482F8EC00D1
:101DD0001F2003F10E0292B20A4482F8EC00212087
:101DE00003F10F0292B20A4482F8EC00E02003F102
:101DF000100292B20A4482F8EC00E12003F11102D1
:101E000092B20A4482F8EC00FF2003F1120292B26F
:101E10000A44133382F8EC009BB201F1EC02B3F5F3
:101E20009C7F16DB4323134800934FF4097203ABE6
:101E3000007801F04FFA05B0BDE8F0834FF0FF33B2
:101E4000039305E7102247E7234689F8EC50013257
:101E50004DE7D5540133E2E7910400203809002012
:101E60007C040020340900203501033D24090020B2
:101E7000000000203C09002070B51C4C94F9003093
:101E8000012B1DDC1A4D1B4E2A683168914212D27B
:101E9000194B93F90030022B0FD0042B0DD0012BDE
:101EA00001D1FFF7C7FD00232B602B680A33336095
:101EB000237801332370012010E0FFF7A3FEF2E73F
:101EC0000D4B93F900201C46022A08D0042A06D0A4
:101ED000012A09D100201870FFF7EAFC70BDFFF756
:101EE000A9FD01202070F7E70120F5E7900400200C
:101EF00094040020180000209104002038B5524CB2
:101F000094F90030062B00F09C80504D2878400159
:101F100000F5427001F028FF222805D0002344225A
:101F20000221287801F044F9FFF71CFB94F90030F6
:101F3000C5B2042B31D8DFE803F0030E233D5A006D
:101F40000022434B1A705A709A70DA70FFF772FDD4
:101F50000120207038BD022D0ED13E4B1A683C4B3B
:101F6000117C1970517C5970917CD27C9970DA7017
:101F7000FFF748FE257010E0BDE83840FFF77CBF52
:101F8000052D12D1FFF762FC054640B1324B1B68AC
:101F90009847FFF78DFC032323700120DAE7FFF752
:101FA00087FC2E4B1B689847E4E7062DE4D1FFF72A
:101FB0007FFCCDE72A4B1B685A1C40D0294A126887
:101FC000B2EB530F3BD9224A274B11781970517845
:101FD00059709178D2789970DA70244A1368013375
:101FE0001360FFF70FFEFFF763FC0420B1E7052D38
:101FF0001FD100221E4B1A701B4A154B10781978FE
:1020000088420BD150785978884207D190789978D6
:10201000884203D1D278DB789A4208D0154B1B68EE
:1020200098470320FFF744FC0323237092E7042022
:10203000F8E7062DA0D1FFF73BFC01232370042015
:1020400088E7052086E700BF910400203C090020B6
:102050007C04002038090020080000200C0000202B
:1020600014000020940400208C0400202C0900207F
:1020700090040020100000200122014B1A707047CC
:102080006C0500207047000000224FF48051014889
:1020900002F022BE000C014001224FF480510148A1
:1020A00002F01ABE000C01400A464FF0FF33014611
:1020B000014804F0B2BA00BF400D002007B501216D
:1020C0000DF10700FFF7F0FF9DF8070003B05DF882
:1020D00004FB00000A464FF0FF330146014804F0BC
:1020E00000B900BF400D002007B501218DF80700A1
:1020F0000DF10700FFF7EEFF03B05DF804FB0000F1
:102100001FB5002364210246CDE901310093C421AB
:102110000223034803F098F905B05DF804FB00BF03
:10212000E00D002073B52D492D4801F0B9FF2D4970
:102130002D4801F0C7FF2D492D4801F0DBFF6B460C
:102140002C4A2D4D1068516842F2117403C3694640
:10215000084602F024F806224FF41060274901F0E7
:102160009DFE00202649FFF7B3FB2649264A084674
:10217000FFF71CF92E462B780BB9013C24D133789C
:1021800003B31E4CA01DFFF703FC04F10E00FFF784
:102190000BFC04F10A00FFF72DFC04F11A00FFF715
:1021A0000FFC04F11E00FFF717FC04F11600FFF707
:1021B0002DFCA37F73B91549154805F0CFFB0F48D7
:1021C00002F02AF802B070BDFFF798FE642002F01A
:1021D000BFF8D0E704F11E01EEE700BF9920000828
:1021E00089200008E9200008BD200008D52000084B
:1021F000A9200008579E00086C0500201D00002043
:102200004009002079200008852000084A9E000827
:102210002008002010B50446FFF772FF43F68673CE
:102220009C4205D1BDE810404FF4FA7002F090B81E
:1022300010BD0000F0B50023642714460D460A4E79
:1022400085B00246CDE901370093C4210223304610
:1022500003F0FAF82A46C42130460097A3B202F0F0
:102260004FFF204605B0F0BDE00D00201FB5002354
:102270000446092201A943F28260CDE901338DF8B9
:102280000C30FFF7D7FF9DF804209DF8053043EA96
:10229000022323809DF807209DF8083043EA02239B
:1022A00063809DF80A209DF80B3043EA0223A38047
:1022B000A0F109035842584104B010BD1FB50023D6
:1022C000044601A909224EF60540CDE901338DF8F7
:1022D0000C30FFF7AFFF9DF804209DF80530BDF8E6
:1022E000070043EA022340BA238080B2FEF786FC4F
:1022F0000D49FEF7D7FC4FF05E51FEF7D3FC0B49BA
:10230000FEF7C6FB6060BDF80A0040BA80B2FEF777
:1023100075FC0749FEF7C6FC4FF05E51FEF7C2FCA4
:10232000A06004B010BD00BF00002F430000344285
:102330000000C84230B514220024102595B0214673
:102340000DEB0200CDE90B440D9404F07FFE2A460C
:10235000214601A804F07AFE0A230A930123CDE95D
:102360000E35109302254FF460130AA8CDE91154DD
:10237000139303F02DF908B172B6FEE70F23CDE9F0
:1023800005354FF480630790CDE90830294605A84C
:1023900003F0F4FA08B172B6FEE74FF400730322BB
:1023A000CDE901234FF4404301A8039303F0A2FBBE
:1023B00008B172B6FEE715B030BD000000000000A5
:1023C0002DE98048AB4F9DB001F09EFFFFF7B2FFB3
:1023D0001022002114A804F039FEBB69002243F04A
:1023E0000403BB61BB694FF4805103F00403059300
:1023F000059BBB69A04843F00803BB61BB6901258D
:1024000003F008030693069B02F066FC00224FF4DB
:1024100011419A4802F060FC4FF0400E00244FF04A
:1024200003084FF48056964B944814A9CDE914E361
:10243000169502F075FB904814A9CDE91648CDE930
:10244000146502F06DFB4FF40143CDE9143502230E
:102450008A4814A91793169402F062FB874814A9BE
:10246000CDE91648CDE9146502F05AFB2246214613
:10247000172002F0E5F9172002F014FA7B692246D2
:102480002B437B617B6921462B400B200493049BEB
:1024900002F0D6F90B2002F005FA0C274FF4E133D5
:1024A0007848DFF81882C0E90244C0E90083C0E937
:1024B00005740461C46104F013FD034608B172B6EB
:1024C000FEE749F640484FF480446F486F4AC0E940
:1024D0000233C0E90443C0E906330362C0E90028BF
:1024E00002F066FD034608B172B6FEE74FF4827251
:1024F0006748DFF8CCC1C0E90233C0E900C24FF43D
:102500000072C0E90433C0E90623C0E908338362DE
:102510000A23C36203F08DFE08B172B6FEE74FF0E6
:1025200005095C485C4BC0E9003940F6FF738360E5
:1025300003F01AF8034608B172B6FEE75748584A46
:10254000C0E90233C0E90443C0E906330362C0E9CD
:10255000002802F02DFD034608B172B6FEE74FF4E5
:1025600016525048504CC0E90233C0E90042C0E95D
:102570000437C0E9063304F0B3FC08B172B6FEE7D5
:102580004A4C4B4BCDE9140023604FF46023169066
:10259000A0602073207560602046E361256102F031
:1025A00093F808B172B6FEE7204614A9CDE9149558
:1025B000169501F01BFF044608B172B6FEE701460E
:1025C000102209A804F042FD1C2221460DA8CDE9E5
:1025D000074404F03BFD2022214614A804F036FDF8
:1025E000344D354B2846C5E900394FF6FF73C5E930
:1025F00003348023AC606C61AB6104F041FA08B134
:1026000072B6FEE7284609A9099604F01CFB08B13A
:1026100072B6FEE7274804F05FFA08B172B6FEE72B
:10262000402307A9CDE90730224804F0A1FB024668
:1026300008B172B6FEE73027CDE90F00CDE90D7085
:10264000CDE9110013900DA91A4804F0CBFA08B196
:1026500072B6FEE74FF40053CDE91400CDE9160041
:1026600018901B9014A91348199304F0AFFB48B3BA
:1026700072B6FEE700100240000C01400008014065
:1026800000001110AC120020E00D002000540040AA
:10269000400D0020340E002000300040400E00208D
:1026A000005800409013002000440040EC07002038
:1026B0000024014048130020002C01400038014054
:1026C000003800404FF0FF334FF480761F48204918
:1026D0008660C0E9001303F0D3FC054608B172B66A
:1026E000FEE71022014614A804F0B0FC0A23194C9E
:1026F000194A2046C4E900234FF6FF73C4E90335A5
:102700008023CDE90D55A560A36104F0B9F908B1A6
:1027100072B6FEE74FF48058204614A9CDF85080D9
:1027200004F091FA08B172B6FEE70821204604F0E1
:10273000FFF908B172B6FEE7CDE90D700DA920468C
:1027400004F016FB054648B172B6FEE734130020CC
:1027500000280040980D002000080040012241465A
:10276000D348D44C02F0B8FA01F058F8294628466C
:1027700001F034F894E806000123CF4801F01AF87C
:1027800000F094FF43F686701495ADF85450FFF7AF
:1027900041FD4FF4FA7001F0DBFD14A8FFF766FD70
:1027A000BDF85430BDF85020C4490093C448BDF86A
:1027B000523005F0B3F84FF47A73C822C049C148CB
:1027C00004F0BCFB4FF4FA7001F0C2FD42F2B1100C
:1027D000FFF720FD01F022F82946284600F0FEFF11
:1027E00094E806000123B84800F0E4FF00F05EFF23
:1027F0002A463146AE4802F06FFA01223146AC4813
:1028000002F06AFA01224146B04802F065FA4FF43C
:10281000FA6001F09DFDFFF785FCAD4B9B7D002B21
:1028200040F0C3811C22AB4BAB4900209EA7D7E9E7
:10283000006700F01BFA0921002000F0CFFF94E8A8
:1028400006000123A54800F0B5FF00F02FFF12217C
:10285000002000F0C3FF94E806000123A04800F028
:10286000A9FF00F023FF9F4803F0E6FF01F06AFD97
:102870009D4B9E4D18604FF47A7300224FF48051A7
:102880008B482B6002F028FADFF8B092DFF8B0A294
:1028900001F058FDD9F80030C01A2B6898422CD9A5
:1028A00001F050FDDFF89C82C9F800004046FFF7B8
:1028B00005FDB8F800B0BBF1000F00F07A818C4B39
:1028C000A3F800B041F28833D8F804002B60FDF77C
:1028D000ABFDCDE90201D8F80800FDF7A5FD5A4689
:1028E000CDE900018349764805F018F84FF47A7372
:1028F000C8227349734804F021FB01F023FDDFF87F
:102900004882D8F80030C01AB0F57A7F40F22281B0
:1029100001F018FDC8F80000002000F0B7FE764B6B
:10292000DFF828821868FDF77FFD02460B467348E2
:10293000734904F0F3FF0021084600F04FFF94E8CC
:10294000060001236D4800F035FF6E4B1868FDF757
:102950006BFD02460B4669486B4904F0DFFF082116
:10296000002000F03BFF94E806000123634800F0DC
:1029700021FF664B1868FDF757FD02460B465F487E
:10298000634904F0CBFF1021002000F027FF94E8FA
:1029900006000123594800F00DFF554B5D491A8888
:1029A000564804F0BBFF1821002000F017FF94E800
:1029B00006000123514800F0FDFE574B57491A8885
:1029C0004E4804F0ABFF0021362000F007FF94E8EA
:1029D00006000123494800F0EDFED8F80000FDF79D
:1029E00023FD02460B4645484D4904F097FF082158
:1029F000362000F0F3FE94E8060001233F4800F083
:102A0000D9FED8F80000FDF70FFD32463B46FDF732
:102A100063FD02460B463948424904F07FFF10210E
:102A2000362000F0DBFE94E806000123334800F076
:102A3000C1FE3D4BDFF818811888FEF7DFF85146DC
:102A4000FEF730F9FDF7F0FC02460B462B483749FC
:102A500004F064FF1821362000F0C0FE94E8060060
:102A60000123264800F0A6FE00224146304803F02C
:102A700033FA98F8013098F800202E491F4804F0E6
:102A80004DFF0021612000F0A9FE94E8060001231B
:102A90001A4800F08FFE00F009FE274802F08BFD77
:102AA00058E000BFAFF30080333333333333234078
:102AB0000008014044010020609E00086C9E000850
:102AC00098040020AC120020839E0008000C0140F6
:102AD0001D000020AC0E00203B0100208D9E000850
:102AE0009A9E00084813002068050020B8070020BF
:102AF000D4130020A29E0008B00700209C0E0020E6
:102B0000B89E0008BC070020BF9E00081C080020DB
:102B1000C69E0008CD9E000860050020D49E0008D7
:102B2000D99E0008E19E0008B4070020E99E000835
:102B300034130020EF9E0008340E0020E40700202C
:102B40000E2DF23ED8130020E80700206405002077
:102B50007405002001F0F6FBDFF87880D8F800302B
:102B6000C01A154B9842154B03D81A78002A3FF427
:102B70008FAE00221A7001F0E5FBC8F80000DFF804
:102B800040800F4800F052FA0128FAD10D4998F818
:102B9000043000220B7098F805300B484B7098F801
:102BA00006308B7003F047F972E61C22074B084988
:102BB0003BE64FF47A7387E680EE36001C00002077
:102BC000940E00207405002034130020AC0E002069
:102BD00033000020700500204028F8B539D11D4D84
:102BE0002C880134A4B2B4F5617F2C8024D301F089
:102BF000A9FB06462046FEF701F8174C0746206859
:102C0000361A4FF47A70B6FBF0F0FDF7F3FF014689
:102C10003846FEF7FBF800274FF07F51FDF738FFED
:102C200039460646FEF7DCF90C4B80B91E600023DE
:102C30002B8001F087FB2060094801224FF480516E
:102C400002F04AF8BDE8F840064803F0F5BD1F6001
:102C5000EDE7F8BD60050020680500206405002050
:102C600000080140980D002072B6FEE710B5134C25
:102C700020700C78124804704C7844708C78847002
:102C8000C978C1700F490A700F4A13600F4B0022B8
:102C900043600023C0E90333038103750023C0E9C7
:102CA0000623C0E90823C0E90A2301220023C0E962
:102CB0000C232322064B1A7010BD00BF26140020DF
:102CC000281400201C140020E81300200400030036
:102CD000EC130020000000002DE9F74F0023724A9A
:102CE00007460E46FEF7A4F94FF0000CCDE90001AF
:102CF000B846B146624661464FF4C87E64200FF282
:102D0000A01BDBE900ABCB4508BFC2451FFA8CF323
:102D10005AD3009803F26C73841A01989BB260EB4B
:102D200001054FF4C871B3FBF1FE01FB1E3E6421A7
:102D3000B3FBF1F94FF0010C01FB193941F2AA5B29
:102D40000021DFF870811FFA8EFEA8F800301FFA0C
:102D500089F903F003031C2C75F100005DDA00987B
:102D600088F802C00130821A511A88F803103846D8
:102D7000314600234C4AFEF75BF915461C464FF4DA
:102D80006162002328462146FEF752F9214688F861
:102D900004004FF4616228460023FEF749F9154606
:102DA0001C463C22002328462146FEF741F92146D5
:102DB00088F805003C2228460023FEF739F988F8F8
:102DC000062003B0BDE8F08F1FFA8CF303F26C739A
:102DD00093FBFEFB0EFB1B3BBBF1000F08D093FBEC
:102DE000F0FB00FB1B3BBBF1000F0DD09B070BD191
:102DF0002E4B18EB030849F1FF3912F5B77241F178
:102E000000010CF1010C7AE7294B18EB030840F2A2
:102E10006D1349F1FF39D218F1E7BCF10C0F2DD831
:102E20002BFA0CFA1AF0010F07D01F3C45F1FF35C1
:102E3000002C75F1000092DB1F31BCF1020F1DD197
:102E4000BEF1000F03D0B9F1000F0DD063B91D3CE6
:102E500045F1FF35002C75F1000080DB1D310CF1D0
:102E6000010C5FFA8CFC76E71C3C45F1FF35002C29
:102E700075F10000FFF673AF1C31F0E70CF0FD0AAE
:102E8000BAF1040F02D0BAF1090FE8D11E3C45F1A6
:102E9000FF35002C75F10000FFF661AF1E31DEE753
:102EA0007F33E1010000000080510100007B1DFE26
:102EB00080CC1EFE1E14002000234218184619461E
:102EC00030B4013312F8014BDBB20902042B41EAA2
:102ED000106144EA0020F4D1484B1B78312B1ED8F6
:102EE000DFE803F0192022242628282B2B2D2D2F54
:102EF0002F2F31333336383A3D1D1D404040454574
:102F00004848505356595C5F6265686B6E717477C0
:102F10007A7D808386893A4BC01841F1FF3130BCFD
:102F2000FFF7DABE374BF7E7374BF5E7374BF3E7F9
:102F3000374BF1E7B0F5E140EFE7364BECE7364BC6
:102F4000EAE7364BE8E7364BE6E7B0F56150E4E7F1
:102F5000344BE1E7344BDFE7B0F5E150DDE7B0F5A6
:102F60006160DAE710F5616041F10001D7E710F523
:102F7000E150F9E742F63023C0184FF0000343EB6D
:102F80000101CCE743F23813F6E710F56150EBE7A7
:102F900043F64873F0E744F25063EDE744F65853C4
:102FA000EAE745F2DC03E7E745F26043E4E745F68C
:102FB0006833E1E746F27023DEE710F5E140D3E73E
:102FC00047F69063D8E748F29853D5E748F6A04310
:102FD000D2E749F2A833CFE749F6B023CCE74AF26B
:102FE000B813C9E74AF6C003C6E74BF24C33C3E750
:102FF0004BF2D063C0E74CF2E043BDE71C14002065
:103000004057FFFF5065FFFF6073FFFF687AFFFFC7
:103010007081FFFF909DFFFFA0ABFFFFB0B9FFFFE6
:10302000B8C0FFFFC8CEFFFFD0D5FFFF2DE9F043AA
:103030000024DFF8FC80814698F8000085B040014C
:1030400000F54270039400F08FFE474605460028C5
:1030500059D022285FD198F8000000F07AFF2F4E57
:10306000054678B33828024628BF38222C4D0DF18A
:103070000A030093296803AB92B298F8000000F0AD
:10308000D9F928682821FFF717FF264B01251A8850
:10309000A9F800209A7898F8000089F80220DA78D8
:1030A000348089F803201A7989F804205A7989F83C
:1030B00005209B7989F8063000F03CF8284605B0D9
:1030C000BDE8F0834FF6FF723388934215D063B9A1
:1030D0007B2300933022144B1449387800F0FAF81F
:1030E0003388002501333380E8E7C3EB0312C3EBD9
:1030F00002339BB2102BE1D8EAE7308098F8000049
:1031000000F018F8DAE703467B22022198F8000065
:1031100000F04EF8D2E72546D0E700BF7805002042
:10312000E81300201E14002028140020EC130020B7
:10313000261400200828F8B504462DD8470107F1C9
:10314000080607F584771021384600F03BFE384624
:1031500000F00AFE05460028F9D11F2106F500708F
:1031600000F030FE0123A340DB430D491BB20A8867
:1031700006F540761A400A800A4A11880B401380EF
:10318000094B23F81450094B1D55304600F0ECFD57
:103190000028FAD10120F8BD4FF0FF30FBE700BF57
:1031A0007A0500207C050020860500207E05002091
:1031B00008282DE9F3410446884617461D467CD869
:1031C000012905D08B1E022B10D96FF004000AE0F4
:1031D00004224FF470600DEB020100F025FE019B0C
:1031E00023B96FF0020002B0BDE8F081680757D440
:1031F0002DB1B8F1010F50D0B8F1020F53D02046D5
:103200006601FFF797FF083625F00F01304641EAC7
:10321000080100F0D7FD6FB94FF6F071284A178802
:103220007B1C9BB28B4205BF4FF440434FF6EF77B8
:1032300013801380390A06F5806000F0C3FDF9B2EF
:1032400006F5A06006F5807700F0BCFD0121384648
:1032500000F0B8FD384600F087FD0028FAD10123C0
:10326000A340DB4317491BB20A8805F001051A4049
:10327000A5401543144A0D80118806F540760B4091
:103280001380124B23F81400114B1855304600F0F0
:103290006BFD0028FAD060B2A5E715F0210FAED182
:1032A0006FF005009FE7A9066BB201D5002BF7DA96
:1032B000EA06A4D5002BA2DBF2E74FF0FF3092E73D
:1032C000400100207A0500207C05002086050020B2
:1032D0007E0500202DE9F84F08280646884614464A
:1032E0001F46BDF828A000F2978045010835284602
:1032F00000F03AFD00F00F000238022800F28F8043
:10330000002C00F08F803B787A7802EB0322BB78A8
:1033100003EB0222FB7803EB0223002B3CD0BAF133
:10332000000F41D005F54079484600F01DFD4228C8
:1033300042D10422394605F5406000F0AFFD4FEA66
:103340001A2105F5805000F03DFD5FFA8AF105F580
:10335000885000F037FD05F5F85000F005FD8002BB
:1033600080B24FF0010A844228BF0446DFF8C0B0A3
:103370000AFA06FA304600F0CBFD0746484600F050
:10338000F3FC002851D0BBF8003013EA0A0F1AD022
:10339000BC421AD9002034E0284600F0E5FC400782
:1033A000BDD46FF00B002CE0284600F0DDFC410797
:1033B000B8D46FF00A0024E000F0EF002228B8D063
:1033C0006FF006001DE0BC42D4D83046414622468C
:1033D00005F5807600F0DEFD2021304600F0F2FC9D
:1033E000304600F0C1FC0028FAD105F500752846EA
:1033F00000F0BAFCC20606D52846102100F0E2FC17
:103400002046BDE8F88F0307F1D52846082100F0D3
:10341000D9FC6FF00C00F4E74FF0FF30F1E76FF0EC
:103420000400EEE76FF00D00EBE76FF00300E8E754
:103430007A0500202DE9F04F082804468A46914677
:10344000984685B000F2E88047010837384600F01A
:103450008BFC00F00F02023A022A834600F2DF8062
:10346000B9F1000F00F0DE80714E36F81420002A0A
:103470007AD1012107F54073A140009320460191C4
:1034800000F067FD0546009800F06EFC002800F093
:10349000CC80684B01991A880A4202D01DB928468F
:1034A00089E0002DEAD00BF00700032807F58077AC
:1034B00000F08480042859D0022840F0A68036F815
:1034C00014308BBB082220460DEB020100F08FFD6B
:1034D0004021384600F076FC384600F045FC0028D4
:1034E000FAD19DF808309DF80C2088F800309DF83E
:1034F000093088F801309DF80A3088F802309DF8CC
:103500000B3088F803309DF80D3003EB02230E9A40
:1035100013809DF80E209DF80F3003EB022326F850
:1035200014308022444B1A5536F8145051464D45FC
:1035300028BF4D4620462A4600F059FD4021384616
:1035400000F040FC384600F00FFC0028FAD136F8B5
:103550001430394A5B1B9BB226F8143013B1105D4E
:1035600040F0010010559AE700259CE736F814302A
:10357000002BD9D1204602A9022200F038FD4021BB
:10358000384600F01FFC384600F0EEFB0028FAD168
:103590009DF809309DF80820023B03EB022340F21E
:1035A000EA529BB2934226F81430BAD92046FFF76C
:1035B000C1FD6FF47A7005B0BDE8F08F36F81430B5
:1035C000002BB1D1204602A9062200F010FD4021B7
:1035D000384600F0F7FB384600F0C6FB0028FAD169
:1035E0009DF808309DF80C2088F800309DF80930CF
:1035F00088F801309DF80A3088F802309DF80B30C9
:1036000088F803309DF80D3087E72946204600F002
:103610001BFD26F8145091E74FF0FF30CBE76FF019
:103620000400C8E76FF00D00C5E76FF00300C2E7C4
:10363000860500207A0500207E0500207FB5012345
:103640004FF0FF32CDE901320DF117028DF817006E
:10365000009278210022034801F0F6FE07B05DF8E1
:1036600004FB00BFE00D00201FB54FF0FF3389B20F
:10367000CDE900010293402201237821024801F0A4
:10368000E3FE05B05DF804FBE00D002000230649D1
:10369000021E18BF012201335242B3F5007F01F828
:1036A000012BF5D1704700BF9C05002038B5B02430
:1036B0000A4D2046FFF7C2FF0020FFF7BFFF01348D
:1036C0001020FFF7BBFFE4B228468021FFF7CCFFB4
:1036D000B42C05F18005ECD138BD00BF9C0500205D
:1036E000030630B511D41F290FD80124CB08074D8C
:1036F00000EBC31001F007012B5604FA01F149B2A7
:10370000A2420CBF0B438B432B5430BD9C050020C1
:103710002DE9F04F0546A5F120041F4687B0E3B21E
:1037200006A85E2B00E906003FD8214B9DF810B09B
:103730001A88029300925A44802A019235DC9DF83F
:103740001190598801EB0902202A2EDC4FF0000865
:1037500009FB04F45FFA81FA6400C14506D8DDE98B
:1037600001231A80284607B0BDE8F08F0026059A8D
:10377000135B0393B34507D80AF1010108F101086F
:1037800002345FFA81FAE8E7009B5146F018039B88
:10379000C0B203FA06F2130456BFB7FA87F23A46EC
:1037A0005209FFF79DFF0136E4E70025DAE700BF85
:1037B0009605002073B56D461E4685E80600441E3A
:1037C00014F8010F40B195E806003346FFF7A0FF5B
:1037D000034620788342F3D002B070BD014B1880BD
:1037E000598070479605002010B504468120FFF7E8
:1037F00025FF2046BDE81040FFF720BF0246002805
:1038000003460CBF13460123034A14BFAF20AE206A
:103810005371FFF713BF00BF9605002008B5642061
:1038200000F096FD0020FFF7E9FF2020FFF706FFDC
:103830000020FFF703FFB020FFF700FFC820FFF7CD
:10384000FDFE0020FFF7FAFE1020FFF7F7FE4020F4
:10385000FFF7F4FEFF20FFF7C7FFA120FFF7EEFE02
:10386000A620FFF7EBFEA820FFF7E8FE1F20FFF7DA
:10387000E5FEA420FFF7E2FED320FFF7DFFE0020E5
:10388000FFF7DCFED520FFF7D9FEF020FFF7D6FECC
:10389000D920FFF7D3FE2220FFF7D0FEDA20FFF772
:1038A000CDFE0220FFF7CAFEDB20FFF7C7FE202077
:1038B000FFF7C4FE8D20FFF7C1FE1420FFF7BEFE08
:1038C0008120FFF7BBFE0420FFF7B8FE0120FFF7C1
:1038D00095FF0020FFF7DAFEFFF7E8FE0022034B1A
:1038E0001A805A8001221A7108BD00BF9605002077
:1038F0000E4B82B09A6942F001029A619A6902F015
:1039000001020092009ADA6942F08052DA61DB69C2
:10391000074A03F080530193019B536823F0E0634F
:1039200043F08063536002B0704700BF0010024054
:103930000000014030B5054687B01022002102A8E2
:1039400003F084FB2A681C4B9A4232D103F56C4386
:103950009A691A4842F400729A619A6902A902F4BB
:1039600000720092009A9A69154C42F004029A6122
:103970009B69202203F004030193019B0323CDE9FB
:10398000022301F0CDF84FF480704FF480620023E1
:103990000C49C4E904022046C4E90013C4E9023317
:1039A000C4E9063300F0A2FF08B1FFF75DF92C620D
:1039B000656207B030BD00BF00240140000801402F
:1039C000F012002008000240102210B5044688B012
:1039D0000DEB0200002103F039FB2368254A9342D6
:1039E00026D1254C4FF44071A369244843F00803C5
:1039F000A361A36903F008030093009B1223CDE9A0
:103A00000413032304A9079301F08AF81C4A53689E
:103A100043F0E06343F002035360E36943F40013AF
:103A2000E361E36903F400130193019B08B010BD47
:103A3000144A9342FAD1104C4FF44062A3690F48E4
:103A400043F00803A361A36904A903F008030293E8
:103A5000029B1223CDE904230323079301F060F8AE
:103A6000E36943F48003E361E36903F480030393B0
:103A7000039BDBE70054004000100240000C0140B3
:103A8000000001400058004007B50B4B02689A4205
:103A90000ED101F097FD094BDA6942F00062DA615C
:103AA0000122DB6903F000630193019B044B1A6060
:103AB00003B05DF804FB00BF002800400010024086
:103AC0003C04424210B5044686B01022002102A8F0
:103AD00003F0BCFA2268174B9A4228D103F5EC3365
:103AE000DA69154842F48042DA61DA6902A902F41F
:103AF00080420092009A9A6942F008029A619B699A
:103B00004FF4204203F008030193019B0223CDE907
:103B100002230323059301F003F84FF480410023AF
:103B20000548CDE9021302A9049300F0F9FF06B09D
:103B300010BD00BF00380040000C014007B503680D
:103B4000174A934214D1174B19209A6942F4006224
:103B50009A6100229B69114603F400630093009B65
:103B600000F06EFE192003B05DF804EB00F09ABE81
:103B70000D4A934210D10B4B1E20DA6942F0040229
:103B8000DA610022DB69114603F004030193019B13
:103B900000F056FE1E20E6E703B05DF804FB00BF10
:103BA000002C01400010024000080040102210B517
:103BB000044688B00DEB0200002103F047FA2368A9
:103BC0002D4A93422ED12D4B40209A6904A942F4EC
:103BD00080429A619A69802402F480420092009A9D
:103BE0009A6942F008029A619B6903F00803019305
:103BF000019B0223CDE9040303232148079300F02E
:103C00008FFF00231E4804A9CDE90443069300F06A
:103C100087FF1C4A536843F0E06343F0040353609A
:103C200008B010BD184A9342FAD1144B04A9DA69BE
:103C3000164842F40032DA61DA6902F40032029284
:103C4000029A9A6942F004029A619B69042203F085
:103C500004030393039B0223CDE904230323079367
:103C600000F05EFF002308210848CDE9041304A9F1
:103C7000069300F055FFD3E70038014000100240E2
:103C8000000C0140000001400044004000080140D9
:103C9000FEE7FEE7FEE7FEE7FEE770477047704786
:103CA00010B5084C238801339BB2B3F57A7F23808B
:103CB00003D3FDF765FE00232380BDE8104000F02C
:103CC00035BB00BF9C07002008B50D4800F07AFD09
:103CD0000C4B1A8840F251339A420BD801224FF410
:103CE0000041094800F0F8FF00224FF40041064867
:103CF00000F0F2FFBDE80840044800F07FBE00BFBE
:103D0000EC070020B407002000080140F01200205A
:103D1000402000F0E7BF000008B501220449054833
:103D200000F01EFCBDE80840034802F0CEBD00BF15
:103D3000B4070020EC0700204813002010B5074C02
:103D400000224FF48051064800F0C6FF204602F0E2
:103D5000BCFD2046BDE8104002F098BD980D002043
:103D6000000801407047000073B50546144CC5F3C8
:103D70000726E368984763699847636AC5F3074075
:103D8000EDB20BB1A36A8BB9236A98473046236A18
:103D900098472846236A9847E36998470546A369E8
:103DA000984723699847284602B070BD8DF80400F3
:103DB00003218DF805608DF8065001A89847EBE7C0
:103DC00050010020F7B50546164C0F46E3689847AA
:103DD00063699847A36A45F00406C5F30740F6B245
:103DE000C5F3072583B9236A98472846236A98476D
:103DF0003046236A98473846236A9847A36998470C
:103E00002369984703B0F0BD04218DF804008DF8B4
:103E100005508DF806608DF807700DEB010098478E
:103E2000ECE700BF500100202DE9F34105461A4C94
:103E30000E46E3681746984763699847636AC5F377
:103E40000740C5F30728EDB20BB1A36AB3B9236AE3
:103E500098474046236A98472846236A984737443C
:103E6000B74206D1A36998472369984702B0BDE8D5
:103E7000F081E369984706F8010BF1E78DF804003B
:103E8000032101A88DF805808DF806509847394622
:103E90003046636A9847E5E7500100202DE9F34179
:103EA00005461A4C8846E368174698476369984761
:103EB000A36A45F00406C5F30740F6B2C5F307252B
:103EC000B3B9236A98472846236A98473046236A3D
:103ED00098474744474506D1A369984723699847BF
:103EE00002B0BDE8F081236A18F8010B9847F1E7AA
:103EF0008DF80400032101A88DF805508DF80660A7
:103F0000984739464046A36A9847E5E750010020A4
:103F1000F8B500244601083606F5005706F50456A4
:103F20003846FFF721FF05023046FFF71DFFADB20F
:103F30000544ADB24DB13846FFF716FF04023046D6
:103F4000FFF712FFA4B20444A4B2AC42E8D1204669
:103F5000F8BDF8B500244601083606F5185706F5F1
:103F60001C563846FFF700FF05023046FFF7FCFEFF
:103F7000ADB20544ADB24DB13846FFF7F5FE0402CF
:103F80003046FFF7F1FEA4B20444A4B2AC42E8D13B
:103F90002046F8BD2DE9F843894614462AB385002A
:103FA0006F1CFF0007F510584046FFF7DDFE07F5D0
:103FB000145706463846FFF7D7FE00EB062086B2B8
:103FC000023530022246494600EBC500FFF766FF86
:103FD000A11940468CB2C1F30721FFF7F3FE384622
:103FE000E1B2BDE8F843FFF7EDBEBDE8F8832DE987
:103FF000F843894614462AB385006F1CFF0007F575
:1040000020584046FFF7B0FE07F5245706463846CD
:10401000FFF7AAFE00EB062086B2033530022246E7
:10402000494600EBC500FFF7FFFEA11940468CB2E0
:10403000C1F30721FFF7C6FE3846E1B2BDE8F843F9
:10404000FFF7C0BEBDE8F883F8B54401083404F5B5
:10405000205738460D46FFF787FE04F524540646E0
:104060002046FFF781FE291801EB062138468DB264
:10407000C1F30721FFF7A6FE2046E9B2BDE8F840EC
:10408000FFF7A0BE704700787047017070470020AE
:10409000704770477047704770477047704700001F
:1040A000054B00B121B9054A5A61054A9A6170472A
:1040B000C3E90501704700BF500100209B40000884
:1040C0009D400008084B10B51C881A46A40500D472
:1040D000FEE700B121B9054BD361054B136210BD5A
:1040E000C3E90701FBE700BF500100208F40000833
:1040F00093400008084B10B51C881A46A40500D44C
:10410000FEE700B121B9054B5362054B936210BD28
:10411000C3E90901FBE700BF5001002095400008FA
:10412000974000087FB5062204A94FF41060FFF7FE
:104130007BFE04224FF480700DEB0201FFF774FE4A
:1041400002A904224FF4A060FFF76EFE042203A927
:104150004FF47060FFF768FE80210020FFF732FE09
:104160000020FFF701FE04A906224FF41060FFF7BC
:1041700095FE04224FF480700DEB0201FFF78EFED6
:1041800002A904224FF4A060FFF788FE04224FF436
:10419000706003A9FFF782FE07B05DF804FBF8B575
:1041A00005460C46FFF7BEFFBDB16E1E324600232A
:1041B000073512F8011F0B445BB2102B29DCAA4211
:1041C000F7D141F6087542F20807284616F8011F94
:1041D0002035FFF7F7FDBD42F7D10CB90020F8BD3F
:1041E000651E2A460023073412F8011F0B445BB2F8
:1041F000102B0EDC9442F7D141F6086441F60876A4
:10420000204615F8011F2034FFF7DCFDB442F7D13A
:10421000E4E74FF0FF30E2E710B50446014606221E
:104220004FF41060FFF73AFE04224FF4807004F15F
:104230000E01FFF733FE04224FF4A06004F10A01DF
:10424000FFF72CFE04224FF47060A11DFFF726FE3D
:10425000064BA27C1A70E27C5A70227D9A70627DB5
:10426000DA7094F81D21024B1A7010BD9F070020D0
:104270009E0700200C480D490D4A002302E0D45847
:10428000C4500433C4188C42F9D30A4A0A4C0023A0
:1042900001E013600432A242FBD3FFF763FD02F09A
:1042A000A3FEFEF78DF870470000002054030020A5
:1042B00004A900085803002074140020FEE7000041
:1042C00038B50E4B054618784FF47A73B3FBF0F30C
:1042D0000B4A1068B0FBF3F000F0F2FA044658B94C
:1042E0000F2D09D8024629464FF0FF3000F0A8FAFA
:1042F0002046044B1D6038BD0120FCE77C010020F6
:104300004C01002080010020074A08B513680320F3
:1043100043F01003136000F081FA0020FFF7D0FF94
:10432000FFF7E6FA002008BD00200240034A044BD4
:1043300011681B780B441360704700BF60140020A5
:104340007C010020014B1868704700BF60140020FA
:1043500038B50446FFF7F6FF0546631C1EBF044B45
:104360001B78E418FFF7EEFF431BA342FAD338BDD6
:104370007C0100207047436A10B59A6A12F0500F12
:104380001BD19A6A42F400729A621A68926802F427
:104390006022B2F5602F0CD11A7B52B99A6A22F4CE
:1043A00080729A629A6AD2045EBF9A6A42F00102EF
:1043B0009A621846FFF7DEFF10BD1B6ABDE8104089
:1043C0001B6B1847704708B5406AFFF7FBFF08BD35
:1043D0007047406A08B5836A43F040038362C36A4A
:1043E00043F00403C362FFF7F3FF08BD002373B576
:1043F000019390F824300446012B6CD0012380F8FF
:1044000024304D680268062D086805EB850322D824
:104410001F26556B053B9E4025EA060500FA03F36F
:104420002B43536309288B6800EB40054FF00701CD
:1044300029D9D6681E3DA94026EA0101AB400B43AD
:10444000D360A0F11003012B25D90020002384F8AC
:10445000243002B070BD0C2D4FF01F0509D8166B2B
:10446000233B9D4026EA050500FA03F32B43136323
:10447000D8E7D66A413B9D4026EA050500FA03F3DA
:104480002B43D362CEE71069A94020EA0101AB407B
:104490000B431361D9E7114B9A4216D193681B0263
:1044A000D3D49368102843F400039360CDD10C4B10
:1044B0000C4A1B68B3FBF2F20A2353430193019B9E
:1044C000002BC2D0019B013BF8E7A36A012043F017
:1044D0002003A362BAE70220BBE700BF002401402B
:1044E0004C01002040420F00002337B501930368C0
:1044F00004469A68D20702D5002003B030BD9A68FE
:1045000042F001029A60144B144A1B68B3FBF2F3A9
:104510000193019BE3B9FFF715FF054623689B68EC
:10452000DB07E9D4FFF70EFF401B0228F6D923680A
:104530009B6813F00103F1D1A26A012042F010023E
:10454000A262E26A84F8243042F00102E262D4E717
:10455000019B013BDCE700BF4C01002040420F0003
:104560002DE9F041404B9046026804469A420F46BE
:1045700002D03E498A4203D15B6813F4702F6ED19A
:1045800094F82430012B6CD00123204684F8243089
:10459000FFF7AAFF064600285DD1A56A2168334BC4
:1045A00025F4706525F0010545F480759942A562F2
:1045B00004D12D4A536813F4702F3ED1A36A23F41B
:1045C0008013A3624B685A0505D5A36A23F44053B0
:1045D00043F48053A362A36A206A13F4805318BF84
:1045E000E36A3A4618BF23F00603E362002384F827
:1045F00024301F4B4C3183621E4BC3621E4B03633E
:104600006FF0020341F84C3C51F8443C43F4807392
:1046100041F8443C434600F097F923689A6802F455
:104620006022B2F5602F9A680CBF42F4A00242F4F7
:1046300080129A603046BDE8F081A36A43F480138B
:10464000A36253685B0541BFA06A20F4405040F468
:104650008050A062BFE7002384F82430EAE70126F7
:10466000E8E70226E6E700BF0024014000280140F9
:1046700077430008C7430008D343000838B50368F0
:1046800004469A68D10701D4002038BD9A6822F008
:1046900001029A60FFF756FE054623689B68DB0718
:1046A000F2D5FFF74FFE401B0228F6D923689B681E
:1046B000DA07F2D5A36A012043F01003A362E36A8C
:1046C00043F00103E362E0E7F8B5044600286ED04A
:1046D000836A23B9C36280F82430FFF72BF92046A0
:1046E000FFF7CCFFA36A13F0100362D1002860D15A
:1046F000A26AE569616822F4885222F0020242F05F
:1047000002022943A568A262227BB5F5807F41EAB7
:10471000420137D0012D14BF00274FF48077267D4A
:10472000012E06D182BBA269013A47EA423646F41D
:1047300000672268B5F5807F566826F4694646EA28
:104740000706566097681D4E06EA070646EA010608
:10475000966001D0012D02D12369013B1B05D56A6A
:1047600025F470052B43D3629268154B1340994290
:1047700013D10023E362A36A23F0030343F0010390
:10478000A362F8BD2F46CAE7A26A42F02002A262E5
:10479000E26A42F00102E262CBE7A36A23F012036D
:1047A00043F01003A362E36A43F00103E3620120D4
:1047B000E7E7A36A43F01003A362F8E7FDF7E1FF20
:1047C000FE0E1FFF10B590F824300446012B22D0B6
:1047D000012380F82430FFF751FFA8B922689368BD
:1047E00023F480739360236A93F82120022A0BD16B
:1047F000184600F0E5F8A36A50B923F4885323F073
:10480000010343F00103A362002384F8243010BDA8
:1048100043F04003F7E70220F9E7000007490302ED
:10482000CA6803F4E06322F4E0621204120C13433A
:1048300043F0BF6343F40033CB60704700ED00E00A
:10484000164B30B5DC68C4F30224C4F10703251D00
:10485000042B28BF0423062D4FF0FF3598BF0024FA
:1048600005FA03F388BF033C21EA0303A34005FADA
:1048700004F422EA0402002843EA0203ACBF00F178
:104880006040074A4FEA0313DBB2ABBF00F561405B
:1048900000F00F0080F80033135430BD00ED00E04D
:1048A00014ED00E0002808DB0123420900F01F009E
:1048B00003FA00F0014B43F82200704700E100E0EA
:1048C0000138B0F1807F0AD2F021064B064A5860C9
:1048D00082F823100020072298601A607047012098
:1048E000704700BF10E000E000ED00E010B520B31D
:1048F00014220168124B0B44B3FBF2F39B000364D8
:10490000104B0A68C363D0E901342343C46822F41E
:104910007F522343046922F0300223434469234336
:1049200084692343C469234313430B604FF48072AB
:10493000002302848363184610BD0120FCE700BFFA
:10494000F8FFFDBF00000240F0B590F82040012CB8
:1049500034D0012490F8215080F82040A5424FF037
:1049600000064FF0020427D180F8214004688663D6
:10497000266826F001062660D0E90F67BD40756005
:1049800063604368102BC36A0BBFA260A160E16043
:10499000E2604BB1236843F00E03002023602368DC
:1049A00043F001032360F0BD236823F00403236078
:1049B000236843F00A03F0E780F820600220F2E762
:1049C00090F82130022B06D004238363002380F863
:1049D00020300120704703681A6822F00E021A6026
:1049E0001A6822F001021A600123D0E90F218B40DE
:1049F00053604FF4807303840020704770B4042523
:104A0000C66B026C3468036895402542196832D041
:104A10004D0730D51A6896065EBF1A6822F0040268
:104A20001A603D4A934219D01432934218D014327E
:104A3000934217D01432934217D01432934217D0B6
:104A4000143293420CBF4FF480034FF08063334A1B
:104A50005360C36A002B5CD070BC18470423F6E790
:104A60004023F4E74FF48063F1E74FF48043EEE72F
:104A70004FF48023EBE702259540254235D08D0782
:104A800033D51A68940606D41A6822F00A021A600E
:104A9000012280F82120204A934219D014329342F7
:104AA00018D01432934217D01432934217D01432D4
:104AB000934217D0143293420CBF4FF400134FF0BF
:104AC0000073164A5360002380F82030836AC1E7E0
:104AD0000223F6E72023F4E74FF40073F1E74FF4E5
:104AE0000053EEE74FF40033EBE7082595402542ED
:104AF0000FD009070DD5196821F00E0119600123A7
:104B000003FA02F2726083634FF480730384036BD1
:104B1000A0E770BC704700BF0800024000000240E0
:104B20002DE9F74F00221646644BDFF8A0C1DFF8ED
:104B3000A0E10D6835FA06F402D103B0BDE8F08FAC
:104B40004FF0010808FA06F805EA080438EA0505F6
:104B50007CD14D68032D07D8013D022D00F28880DD
:104B6000DFE805F0969BA100122D00F099806FD828
:104B7000112D00F08F80FF2C98BF82464FF00F0957
:104B800088BF00F1040A4FEA8605DAF8008088BF82
:104B9000203D09FA05FB28EA0B0802FA05F548EA68
:104BA0000505CAF80050D1F804A01AF0805F4DD076
:104BB000434F26F00308BD6908F1804845F0010520
:104BC000BD61BD6908F5803805F00105019506F065
:104BD000030B019D4FEA8B0BD8F8085009FA0BF92B
:104BE00025EA0909374DA84261D005F58065A8423C
:104BF0005FD005F58065A8425DD005F58065A842C7
:104C00000CBF0325042505FA0BF545EA0905C8F88C
:104C100008501D681AF4803F14BF2543A5431D604A
:104C20005D681AF4003F14BF2543A5435D609D688D
:104C30001AF4801F14BF2543A5439D60DD681AF454
:104C4000001F14BF2C4325EA0404DC60013670E722
:104C50001D4FBD420CD017D8DFF878904D4507D0D6
:104C600009F570294D4503D0A9F580194D4582D12C
:104C70008A68D2B1012A08BFC0F810804FF008023C
:104C800018BFC0F8148076E76545F1D07545EEE7AA
:104C9000CA6870E7CA6804326DE7CA6808326AE712
:104CA000CA680C3267E7002265E7042263E7002543
:104CB000A9E70125A7E70225A5E700BF00040140F9
:104CC00000100240000801400000221000003110D6
:104CD00000003210000012100AB10161704709048F
:104CE000FBE70000044A08B55169014202D0506157
:104CF000FDF772FF08BD00BF0004014001680022FB
:104D00004B6913F4806310D06FF480634B612023F0
:104D1000026380F83D3080F83E20036C80F83C2030
:104D200043F00403036401207047184670472DE9DF
:104D3000F04104460F46164698462568686927EAFA
:104D4000000080B2B8B16B695A0516D52B682022D5
:104D500043F400732B606FF480636B610023236363
:104D600084F83D2084F83E30226C42F00402012099
:104D7000226484F83C30BDE8F081731CDED0FFF77C
:104D8000E1FAA0EB0800B04201D8002ED5D10023F3
:104D90002022236384F83D2084F83E30226C42F0C8
:104DA0002002E4E770B504460D46164623685B69A9
:104DB0005B0701D5002070BD2046FFF79FFFA8B913
:104DC0006A1CF3D0FFF7BEFA801BA84201D8002D61
:104DD000ECD100232022236384F83D2084F83E3068
:104DE000226C84F83C3042F0200222640120E2E789
:104DF00070B504460D46164621684B6913F0400312
:104E000001D0002010E04A69D2060ED56FF01002E2
:104E10004A612022236384F83D2084F83E30226CCE
:104E20000120226484F83C3070BDFFF78BFA801BB0
:104E3000A84201D8002DDFD100232022236384F86B
:104E40003D2084F83E30226C42F02002E8E72DE954
:104E5000F84606460F4691461D464FEA114A33680A
:104E6000BAF1010F0CBF5C699C6927EA0404A4B283
:104E7000B4FA84F46409A14501D0002017E06A1C4B
:104E8000EED0FFF75FFA089BC01AA84201D8002DA8
:104E9000E5D1002320220120336386F83D2086F8E7
:104EA0003E30326C86F83C3042F020023264BDE87D
:104EB000F88670B504460D46164623685B691B06E6
:104EC00001D5002070BD2046FFF718FFA8B96A1C65
:104ED000F3D0FFF737FA801BA84201D8002DECD1A0
:104EE00000232022236384F83D2084F83E30226C86
:104EF00084F83C3042F0200222640120E2E7000006
:104F00002DE9F043154602689946136885B043F4CD
:104F100080731360DDE90C780E463B4600224FF0AB
:104F20000111CDF800800446FFF791FF236838B1E6
:104F30001B68DB0502D54FF40073236403200AE0ED
:104F400006F0FE061E613A46434620461749FFF723
:104F5000EEFE18B1012005B0BDE8F0832368039090
:104F60005A69394603929B69424603932046039B44
:104F7000FFF79FFF40B1236C042B01BF2268136829
:104F800043F400731360E5E7B9F1010F236802D120
:104F9000EDB21D61DFE72A0A1A6139464246204612
:104FA000FFF787FF0028E6D12368F1E70200010040
:104FB00070B5044608B9012070BD90F83D3003F08B
:104FC000FF021BB980F83C20FEF7FEFC242384F886
:104FD0003D3023681A6822F001021A601A6842F410
:104FE00000421A601A6822F400421A6000F062FD62
:104FF0003F4A6368934294BF3E4A3F4A90428CBF07
:1050000000220122002AD6D13C4E2268B0FBF6F6DF
:105010005168013821F03F01314351603449156A2C
:105020008B4281BF4FF4967171434FF47A76B1FB96
:10503000F6F125F03F0594BF711C0131294311623F
:10504000D1692B4D21F44F41AB4221F0FF0132D801
:105050005B00B0FBF3F0431C40F6FC70034242D00F
:10506000C3F30B030B43D3611168D4E9073021F07C
:10507000C00103430B4313609168D4E9030321F497
:105080000341034321F0FF010B439360D168D4E94E
:10509000053021F0FF0103430B43D3601368002068
:1050A00043F0010313602023206484F83D30206323
:1050B00084F83E0080E7A56855B903EB4303B0FBD5
:1050C000F3F30133C3F30B037BB143F40043C9E7AC
:1050D00019256B43B0FBF3F30133C3F30B0323B187
:1050E00043F44043BEE70423BCE70123BAE700BF13
:1050F000A08601007F841E00FF083D0040420F0093
:105100002DE9F04398460023044689B002930D46EA
:105110009146109FFFF716F994F83D300646202B74
:1051200004D00225284609B0BDE8F0830090192379
:10513000012220468F49FFF78AFE0028F1D194F81A
:105140003C30012BEDD00123216884F83C300B6802
:10515000DB075EBF0B6843F001030B600B6823F4B1
:1051600000630B60222384F83D30102384F83E3026
:1051700000232364A4F82A80638DC4F82490238537
:105180007D4BE362E36A0A68082B42F480620A609E
:1051900004D0012B02D013F5803F04D10B6843F4F7
:1051A00080730B6002E0236B112BF7D03B4600228B
:1051B0004FF0011120460096FFF749FE236838B1F1
:1051C0001B68DD0502D54FF4007323640125A9E7B0
:1051D0002269B2F5804F29D145F00105EDB21D617C
:1051E00033463A4620466549FFF7A1FD05460028AB
:1051F000ECD1228D2368002A4DD103905A69039285
:105200009A690392039A1A6842F400721A60DFF8EE
:105210007481DFF87491238D002B6CD1202284F8E7
:105220003C3084F83D2084F83E307BE74FEAE518B7
:1052300008F0060848F0F0021A61204633463A4664
:105240004F49FFF774FD0028C0D12368EDB23A46FC
:105250001D61204633464949FFF769FD0246002893
:10526000B4D123680790596920460791996907913D
:105270000799196841F4807119603B464FF001119C
:105280000096FFF7E4FD226808B1136899E748F03B
:10529000F1031361A4E7012A11D11A6822F4806294
:1052A0001A6072B6236804905A6904929A6904924B
:1052B000049A1A6842F400721A6062B6A7E7022ADA
:1052C0001A680ED142F400621A6072B62368059023
:1052D0005A6905929A690592059A1A6822F48062C1
:1052E000EAE742F480621A6006905A6906929B6966
:1052F0000693069B8BE7032B00F28880012B16D1C7
:10530000324639462046FFF773FD00287FF45EAF32
:1053100023681A69636A1A70636A01336362238DB2
:10532000013B2385638D013B9BB2638573E7022BB1
:105330004FF000023B4641462046009626D1FFF73B
:1053400086FD00287FF442AF72B623681A6842F4E3
:1053500000721A601A69636A1A70636A01336362C1
:10536000238D013B2385638D013B9BB2638562B630
:10537000CEE700BF020010000000FFFF02000100A6
:1053800008000100040001004C010020FFF75FFD50
:1053900000287FF41BAF2268136823F48063136036
:1053A00072B623681A69636A1A7046F2A812616AB3
:1053B0004B1C6362238D013B2385638D013B9BB2B4
:1053C0006385D9F80030B3FBF2F2232353430293F1
:1053D000029B013B0293029B6BB92022236384F85A
:1053E0003D2084F83E30226C42F02002226462B6F6
:1053F00084F83C30EAE623685A695007E8D51A6811
:1054000042F400721A601B694B70A6E732463946B7
:105410002046FFF7EDFC00287FF4D8AE23681A6918
:10542000636A1A70626A531C6362238D013B238591
:10543000638D013B9BB263852368596949077FF5FA
:10544000EAAE1B69537067E72DE9F74304469946B6
:105450000F4690460C9EFEF775FF94F83D300546CA
:10546000202B03D0022003B0BDE8F0830090192365
:10547000012220463A49FFF7EAFC0028F2D194F8CD
:105480003C30012BEED00123206884F83C300368C7
:105490004246D90758BF036839465CBF43F0010351
:1054A0000360036823F400630360212384F83D3024
:1054B000402384F83E30002323640A9B2046636225
:1054C000BDF82C30CDE900656385638D2385254BC0
:1054D000E3624B46FFF714FD00282AD00120C2E703
:1054E000FFF7E7FC40B1236C042B01BF226813686F
:1054F00043F400731360F1E7636A27681A4612F8F1
:10550000011B39616262628D218D013A92B262851E
:105510007A69481E80B2520720850AD548B15A7868
:1055200002333A616362638D0239013B9BB221858C
:105530006385238D2A4631462046002BD0D1FFF7C4
:1055400031FC0028CFD12268136843F40073136044
:10555000202384F83C0084F83D3084F83E0082E744
:10556000020010000000FFFF38B5044608B34CF6F7
:10557000CC4203681A6045F255521A6042685A607C
:1055800082689A60FEF7DEFE05462268D06810F059
:10559000030003D14AF6AA23136038BDFEF7D2FEFA
:1055A000401B2728F1D92368DB689B07EDD0032037
:1055B000F3E70120F1E74AF6AA22036800201A6007
:1055C000704700000122014B1A60704720000E4214
:1055D0002DE9F341054638B30368DB0710D42B6887
:1055E0009F075ED42B68190700F195802B685A0736
:1055F00000F1BF80E869002840F02C81002029E0FC
:105600008F4C636803F00C03042B07D0636803F02E
:105610000C03082B0AD16368DE0307D523689C03BB
:10562000DDD56B68002BDAD1012013E06B68B3F590
:10563000803F12D1236843F480332360FEF782FE5B
:10564000064623689803CAD4FEF77CFE801B6428B4
:10565000F7D9032002B0BDE8F0819BB9236823F499
:1056600080332360236823F480232360FEF76AFEDF
:10567000064623689903B2D5FEF764FE801B6428B2
:10568000F7D9E6E7B3F5A02F236803D143F48023CD
:105690002360CFE723F480332360236823F480233F
:1056A000CBE7674C636813F00C0F07D0636803F017
:1056B0000C03082B10D16368DA030DD423689B0711
:1056C00002D52B69012BAFD123686A6923F0F80357
:1056D00043EAC203236085E72A695A4B6AB1012273
:1056E0001A60FEF72FFE064623689F07ECD4FEF7EC
:1056F00029FE801B0228F7D9ABE71A60FEF722FECD
:105700000646236898077FF56DAFFEF71BFE801BEA
:105710000228F6D99DE7AA69494E4B4BDAB101221E
:105720001A60FEF70FFE0446736A9B070DD54FF40F
:10573000FA52464B1B68B3FBF2F3019300BF019B87
:105740005A1E0192002BF9D150E7FEF7FBFD001B1A
:105750000228E9D97DE71A60FEF7F4FD0446736A72
:105760009F077FF543AFFEF7EDFD001B0228F6D93A
:105770006FE7334CE369D80024D40127E36943F091
:105780008053E361E36903F080530093009B304E44
:105790003368D90518D5EB68012B26D1236A43F06D
:1057A00001032362FEF7CEFD41F288380646236AE4
:1057B0009B073FD5002F3FF41DAFE36923F08053D3
:1057C000E36117E70027E2E7336843F4807333604F
:1057D000FEF7B8FD80463368DA05DCD4FEF7B2FD8B
:1057E000A0EB08006428F6D933E7ABB9236A41F28D
:1057F000883823F001032362236A23F00403236221
:10580000FEF7A0FD0646236A9807D3D5FEF79AFD5A
:10581000801B4045F7D91CE7052B236A03D143F0D1
:1058200004032362BAE723F001032362236A23F00F
:105830000403B6E7FEF786FD801B4045B7D908E7AD
:105840000010024000004242800442424C0100200D
:10585000007000402A4B5A681C4602F00C02082ACD
:105860003DD00023274E022833602BD1FEF76AFD7E
:105870000746236899011FD42B6AB3F5803F05D1F1
:105880006268A96822F400320A436260696A626849
:105890000B4322F474121343636001233360FEF759
:1058A00051FD054623689A013FF5A8AEFEF74AFD73
:1058B000401B0228F6D9CCE6FEF744FDC01B0228A7
:1058C000D7D9C6E6FEF73EFD054623689B017FF566
:1058D00095AEFEF737FD401B0228F6D9B9E6012840
:1058E0003FF4B8AE5B682A6A03F4803191427FF4DA
:1058F0009BAE6A6A03F4701393423FF47FAE93E663
:10590000001002406000424230B5184B87B002AC34
:1059100003F11005224618685968083303C2AB42E8
:105920001446F7D140F201231149ADF804304B6819
:1059300003F00C02082A17D1C3F3834206A80244DD
:10594000DB0312F8102C0CD54B680A48C3F3404314
:10595000504306AA134413F8143CB0FBF3F007B00D
:1059600030BD05485043FAE70248F8E702A50008B1
:105970000010024000127A0000093D002DE9F041BC
:105980000D46044610B90120BDE8F081444A136871
:1059900003F007038B4228D321688E0730D4CA074F
:1059A00043D43F4A136803F00703AB4265D822682B
:1059B0003C4D12F0040F6CD1130706D56B682269B9
:1059C00023F4605343EAC2036B60FFF79DFF6B68EB
:1059D000354AC3F30313D35CD840344B1860344BBF
:1059E0001868FEF76DFC0020CEE7136823F007036C
:1059F0000B431360136803F007038B42C3D1CBE75B
:105A0000284B11F0040F1EBF5A6842F4E0625A603E
:105A1000080742BF5A6842F460525A605A68A06848
:105A200022F0F00202435A60B9E762681D4E012A73
:105A300033681AD113F4003FA5D0736841F2883857
:105A400023F0030313437360FEF77CFC074673687F
:105A5000626803F00C03B3EB820FA2D0FEF772FC76
:105A6000C01B4045F3D903208EE7022A02D113F070
:105A7000007FE1E713F0020FDEE7136823F007036E
:105A80002B431360136803F00703AB427FF47BAF33
:105A90008DE76B68E16823F4E0630B436B608BE791
:105AA0000020024000100240EAA400084C0100203F
:105AB00080010020044B054A5B68C3F30223D35CDA
:105AC000034A1068D840704700100240FAA400084A
:105AD0004C010020044B054A5B68C3F3C223D35C2E
